:020000040800F2
:1000000058140020B902000851400008553100087A
:100010004D40000845260008FB5E00080000000077
:100020000000000000000000000000004D44000837
:10003000AD26000800000000B9420008454600084F
:10004000D3020008D3020008D3020008D30200083C
:10005000D3020008D3020008D3020008D30200082C
:10006000D3020008D3020008D3020008D30200081C
:10007000D3020008D3020008D3020008D30200080C
:10008000D3020008D3020008D3020008D3020008FC
:10009000D3020008D3020008D3020008D3020008EC
:1000A000D3020008D3020008D3020008D3020008DC
:1000B000D302000871490008D3020008D3020008E7
:1000C000D3020008D3020008D3020008D3020008BC
:1000D000D3020008D3020008D3020008D3020008AC
:1000E000D3020008D3020008D3020008D30200089C
:1000F000D3020008D3020008D3020008D30200088C
:10010000D3020008D3020008D3020008D30200087B
:10011000BD500008D3020008194B0008D3020008A4
:10012000D3020008D3020008D3020008D30200085B
:1001300000F002F800F0B0F80AA090E8000C824449
:100140008344AAF10107DA4501D100F0A5F8AFF226
:10015000090EBAE80F0013F0010F18BFFB1A43F0A5
:1001600001031847D07E0000F07E00000A444FF0E3
:10017000000C10F8013B13F0070408BF10F8014B06
:100180001D1108BF10F8015B641E05D010F8016B4B
:10019000641E01F8016BF9D113F0080F1EBF10F8AF
:1001A000014BAD1C0C1B09D16D1E58BF01F801CBD2
:1001B000FAD505E014F8016B01F8016B6D1EF9D555
:1001C0009142D6D37047000000230024002500266A
:1001D000103A28BF78C1FBD8520728BF30C148BFAA
:1001E0000B6070476E2900F04D81702900F09782F6
:1001F000662907F0BC85652907F0B985672907F0EE
:10020000B6856129AFF3008003681B0A28BF41F05F
:100210008001692900F0FA80642900F0F7807529CF
:1002200000F0F4806F2900F02582782900F06382C5
:10023000E92900F0BF81E42900F0BC81F52900F034
:10024000B981EF2900F02282F82900F06282036868
:10025000DB0928BF41F08001632900F0E88573299C
:1002600000F0ED85E32900F0F885F32900F0FD8525
:10027000002070471FB500F04FFE04000020002151
:1002800006F062FC401C60600020002106F046FC85
:10029000E0601FBD10B510BD00F010FE1146FFF765
:1002A000E9FF06F025FB00F0E9FE03B4FFF7F2FFDB
:1002B00003BC00F02DFF00000948804709480047B3
:1002C000FEE7FEE7FEE7FEE7FEE7FEE7FEE7FEE706
:1002D000FEE7FEE704480549054A064B7047000063
:1002E0004946000831010008580400205814002035
:1002F000580C0020580C00207CB51D4616460C00FA
:10030000009001D02044401E074B7B442A4669469A
:100310000190304600F0CFF805461CB10020694638
:1003200000F0DCF828467CBDD9010000704770471A
:10033000704710B500F0C2FA006810BD10B5044651
:1003400000F0BCFA046010BD70B504468569006811
:10035000C10601D5302600E02026C00707D070BDB9
:10036000D4E9012130469047206A401C20626D1E6E
:10037000F6D570BD70B5044685690078C00707D111
:1003800070BDD4E9012120209047206A401C2062E2
:100390006D1EF6D570BD09684A0501D540B270479B
:1003A000C905FCD500B2704709684A0501D5C0B23D
:1003B0007047C905FCD580B2704770B50C4605463C
:1003C000012A05D02878800600D5EA69002302E0DA
:1003D000012305E05B1C934202D2E05C0028F9D1C6
:1003E000A869E618C01AA861286A18442862284635
:1003F000FFF7AAFF04E0D5E9012114F8010B9047AB
:10040000B442F8D32846FFF7B5FF70BD2DE9F0419F
:100410000646002410687529314616A510D0FFF74E
:10042000BAFF002802DA404213A507E031688A07C4
:1004300001D512A502E0490704D511A5012401E068
:10044000FFF7B2FF00210A2206F1240709E0B0FB02
:10045000F2FCB0FBF2F302FB1C003030785418467B
:10046000491C0028F3D123462A463046BDE8F04116
:1004700000F06DBA000000002D0000002B0000000D
:100480002000000011680268006A530501D5087059
:100490000AE0D30501D5088006E0130603D5C2178C
:1004A000C1E9000200E008600120704701694A1CB0
:1004B00002610878704700B58FB0CDE901310021A5
:1004C000059105497944CDE903101146684600F0CD
:1004D00031F90FB000BD0000E5FFFFFF0A6802F828
:1004E000010B0A607047D1E900239A4202D2531CE3
:1004F0000B601070704700002DE9FF5F15468A46BB
:100500000446DFF8AC80F8440027D8E900103E46E6
:10051000CDE9001010E03AF816106A4602A800F083
:10052000A8FC411C07D02178890603D5E269391857
:1005300091420DD80744761C2078800602D5E069E8
:10054000B84205DDAE42E6DB3AF816000028E2D1FB
:10055000A069C01BA0612046FFF7F6FED8E9001095
:10056000CDE90010002017E03AF818106A4602A8FA
:1005700000F07FFCB0F1FF3F81460BD000250DF16C
:10058000080B05E0D4E901211BF8050090476D1C1C
:100590004D45F7D308F10100B0428046E4DB206A04
:1005A000384420622046FFF7E5FEBDE8FF9F0000CB
:1005B000AE7900002DE9F0418046D21D22F00702FD
:1005C0000025D2E90002F52915A614D0011E72F10A
:1005D000000106DA0023D0EB030063EB020211A650
:1005E00008E0D8F800108B0701D50FA602E04907F4
:1005F00001D50EA601251146002408F1240704E0C8
:1006000000F060F930323A55641C50EA0102F7D12B
:100610002B46324621464046BDE8F04100F097B9EE
:10062000000000002D0000002B0000002000000052
:1006300030B4002100F1240408E002F00705D208DC
:10064000303542EA4372DB086554491C52EA03051F
:10065000F3D10468002310A2250708D504F0200474
:100660000C4304D0C46901230CA2641EC46130BCD5
:1006700000F06DB910B5044621461068FFF794FEEE
:1006800002462046BDE810400023D1E7D21D22F0EB
:100690000701D1E90023CBE7000000003000000093
:1006A000F0B40D460188090502D5214C7C4402E0D6
:1006B0001F4C7C440E34002100F1240608E002F0B7
:1006C0000F071209E75D42EA03721B097754491CC0
:1006D00052EA0307F3D102780023120704D5702DE4
:1006E00006D009B1022311342246F0BC00F02FB924
:1006F00001231034F8E770B504460D462146106812
:10070000FFF752FE024629462046BDE8704000230E
:10071000C6E7D21D22F00703D3E90023C0E7036830
:10072000126843F0200303600823C3610023B7E786
:10073000107800002DE9F05F894604464FF0000A6A
:10074000DFF874B1FB44C0F820A02046E168884778
:10075000002874D0252806D0D4E901219047206ACA
:10076000401C2062F1E700265F462046E16888478A
:100770002028054607DB312D05D2781910F8200C0A
:1007800008B10643F1E7B00701D526F00406C4F826
:100790001CA00027C4F818A02A2D09D0284605F06F
:1007A00009FD38B304EB8708303DC8F8185019E04C
:1007B00059F8041B204604EB87029161E1688847E1
:1007C000012F054618D1E069002820DA26F020061E
:1007D0001DE0D8F8180000EB800005EB4000303831
:1007E000C8F818002046E1688847054605F0E2FC95
:1007F0000028EED1012F0AD02E2D08D12046E16825
:1008000088477F1C0546022F46F02006C4DBA069FE
:10081000002803DA404246F00106A061F00701D04B
:1008200026F010066C2D0BD0682D09D04C2D39D038
:100830006A2D35D0742D35D07A2D33D016E038E0BE
:10084000E1682F4620468847B842054609D16C2FFB
:1008500026D04FF48060E16806432046884705466D
:1008600004E06C2F1AD04FF4807006430DB3A5F14D
:100870004100192802D8203546F400664A46294628
:10088000204626604E46FFF7ADFC80B101280BD014
:10089000F61D26F0070000F1080956E74020E4E7BE
:1008A0008020D8E70020D6E706F104094DE7284666
:1008B00052E7206ABDE8F09FA0770000004870472B
:1008C000F403002030B5B0F10A024FEA900E71F146
:1008D00000034EEA817EB0EB0E0061EB91014FEA1E
:1008E000101E4EEA017E10EB0E0041EB11114FEA93
:1008F000102E4EEA016E10EB0E0041EB11214FEA73
:10090000104E4EEA014E10EB0E0041EB1141401823
:1009100041F100014FEAD00040EA41704FEAD101B5
:1009200010EB80054FEA810444EA907444EB010423
:100930006D1944EB0404521BA3414FF0000348BF60
:100940000A3200D530BD401C41F1000130BD2DE917
:10095000F0470D4699469246044600F12408016886
:10096000880604D5E06921F01001216000E0012033
:10097000A84201DD471B00E00027A1697A1902EBBC
:100980000900081AA0612078C00602D42046FFF7AB
:10099000DBFC002608E0D4E901211AF806009047A4
:1009A000206A401C761C20624E45F4DB2078C0068D
:1009B0000AD52046FFF7C8FC06E0D4E90121302023
:1009C0009047206A401C2062381EA7F10107F4DC22
:1009D00007E0D4E9012118F805009047206A401C7F
:1009E0002062281EA5F10105F3DC2046FFF7C2FCBA
:1009F0002078000602D50220BDE8F0870120FBE741
:100A000070472DE9FF4F0C461E464FF0FF378BB065
:100A1000D2E90001DDF860800A908A46C1F30A55E8
:100A200005B93D46002108464FF00000BAF1000F1D
:100A300000F4400005DA00EB80004FF4400101EAC9
:100A400050004FEA9059B9F1010F00DDB9460A98FC
:100A500050EA4A000ED044F61050A5F2FF35454347
:100A60002F14B8F1000F1ED07542291E1EDDC9F1EA
:100A700000021CE0B8F1010F4FF0000001D030215E
:100A800003E0F24305E02154401CB042FBDB30465A
:100A90000022002121540B99C1F80880C1E90020EF
:100AA0000FB0BDE8F08FBD1B6D1CDEE74A4600DAD3
:100AB000694206A800F074FA06AB93E8070003AB9E
:100AC00083E8070050460A9900F029FB8DE80700EB
:100AD000A0F500501F3800900398002D09DD42F268
:100AE0001F014A46084403A90390684600F088FDA8
:100AF00008E0A0F500504A461F3803A90390684655
:100B000000F092FD8DE807000004000C03D04FF0C8
:100B1000FF30410800E01046B8F1000F03D000227A
:100B2000009215461EE0751E05D4FFF7CBFE30324D
:100B300062556D1EF9D5B3460122084302D000224A
:100B40007F1C04E02078302801D100227F1E002A7B
:100B5000099786D01DE0112D07DAFFF7B3FE30327A
:100B600062556D1C50EA0102F5D1084302D000988D
:100B7000C8B10EE00021681E05E0235C625C63548E
:100B80002254401E491C8142F7DBAB46A81B401E85
:100B90000990002004F80B000B98099AC0F808800F
:100BA000C0E9002B7CE711264FF0000859E72DE93A
:100BB000F04F88460446D21D22F0070191B0D1E9DA
:100BC0000001CDE90A0105F071FA02460B98C00F49
:100BD00001D02D2007E02068810701D52B2002E0FD
:100BE000202101EAC000032A099001D0072A05DB71
:100BF00003464146204600F093F90BE12078800639
:100C000001D5E06900E00620B8F1650F814606D005
:100C1000B8F1660F18D0B8F1670F70D131E000203D
:100C2000B9F1110F009001DB112301E009F101037B
:100C30000AAA01A90CA8FFF7E4FEDDE90C70002662
:100C400009F10105834647E001204B4600904FF033
:100C500000470AAA01A90CA8FFF7D3FEDDE90DB0F1
:100C60000C995D46002610B909F101000D18B9EB89
:100C7000050003D4C0F1FF3609F10105A5EB090019
:100C80002BE0B9F1010F01DA4FF001090020B9F1B1
:100C9000110F0090484601DD112300E003460AAA27
:100CA00001A90CA8FFF7ADFEDDE90C704D4600264A
:100CB0008346207800070AD4AB4500DA5D4601A8D8
:100CC000012D04DD411911F8011C302907D04F45D1
:100CD00002DA17F1040F04DA012082460FE06D1EDC
:100CE000EEE7002F02DCED1B3E4403E0781CA84237
:100CF00000DD7D1CB81B00F1010A4FF00047207891
:100D0000000703D4AA4501DB4FF0FF3A0021B7F1F9
:100D1000004F0DF143088DF8431024D002202B23FF
:100D2000002F01DA7F422D230A21021EA0F10100CB
:100D300000DC5FB197FBF1FC97FBF1F201FB1C7C3F
:100D400017460CF1300C08F801CDEEE7A8F10100D0
:100D500003702188090501D5452100E06521A0F136
:100D6000010800F8011C09980FA9A1EB0807FF1D55
:100D700000B10120411901EBEA70A1693844081A59
:100D8000401EA0612078C00602D42046FFF7DCFA9E
:100D9000099828B1D4E901219047206A401C2062BB
:100DA0002078C00622D52046FFF7CEFA1EE0002E9E
:100DB00004DBB34502DD01A8805D00E03020D4E90A
:100DC00001219047206A401C2062761CAAF1010094
:100DD0005FEA000A0AD100F09FF8C0680168405C31
:100DE000D4E901219047206A401C2062281EA5F109
:100DF0000105DCDC07E0D4E9012118F8010B90477C
:100E0000206A401C2062381EA7F10107F3DC20464F
:100E1000FFF7B0FA032011B043E610B5436913B1F0
:100E2000AFF3008001E0FFF7C8FA012010BD12788F
:100E300000F124010A7000224A700122EDE71168D6
:100E40004FF0FF32E9E710B5436913B1AFF300800B
:100E500001E0FFF751FB012010BD128800F12401D1
:100E600082840022C2840122EDE711684FF0FF3234
:100E7000E9E770B516460C46054600F045F80368EC
:100E800093F80101012806D0FF2C0FD8185D68B136
:100E900001202C7070BDD3F807013246214603F2C1
:100EA000071303442846BDE8704018474FF0FF3051
:100EB00070BD000000487047F40300207546FFF73E
:100EC000F9FFAE4605006946534620F00700854607
:100ED00018B020B5FFF7FEF9BDE820404FF000063E
:100EE0004FF000074FF000084FF0000B21F0070112
:100EF000AC46ACE8C009ACE8C009ACE8C009ACE855
:100F0000C0098D467047000010B500F005F8001DBF
:100F100010BD00BF355C000000487047140400207D
:100F20002DE9F0411F46044603260168072A01F413
:100F3000006004DB08B116A505E016A503E008B1C2
:100F400015A500E015A521F010002060A069C01EC5
:100F5000A0610FB1401EA0612046FFF7F5F94FB127
:100F6000D4E9012138469047206A401C2062C01C09
:100F7000206206E0206AFAE7D4E9012115F8010BA6
:100F80009047761EF8D22046FFF7F4F9BDE8F081CD
:100F90004E414E006E616E00494E4600696E66001D
:100FA0002DE9F047814616468AB0334878440DC88B
:100FB0008DE80D0030487844801C03AC0DC884E8EF
:100FC0000D0041F69B300844372190FBF1F290FB75
:100FD000F1F5A5F1800501FB12041B3C02D564422A
:100FE000012000E00020DFF890A080460027FA44AE
:100FF000AAF1BE0A0DE0E00709D03246684607EBC9
:1010000047010AEB810100F00FFB8DE80700641037
:101010007F1C002CEFD1184F7F44AC3F18E0E8074D
:1010200014D007EB04100DF1180A90E80E008AE8BE
:101030000E00C068F04201D198190890324606A906
:1010400003A800F0F1FA03AB83E807006D10641CFD
:10105000002DE4D132466946B8F1000F03A802D052
:1010600000F0CEFA01E000F0DFFAC9E90001C9F8AA
:1010700008200AB0BDE8F0876C70000010B5044687
:10108000AFF300802046BDE81040FFF70EB9000026
:101090004FF0013C50F8042B51F8043B9A4221D107
:1010A000A2EB0C03934313EACC1317D150F8042B93
:1010B00051F8043B9A4215D1A2EB0C03934313EA77
:1010C000CC130BD150F8042B51F8043B9A4209D1B0
:1010D000A2EB0C03934313EACC13DBD04FF00000D8
:1010E000704700BFD01A01BAB1FA81F101F01801BE
:1010F00022FA01F0CB40C1F12001DBB2C0B2C01A2C
:101100002CFA01F3D11A914311EAC311E6D17047C9
:1011100001491820ABBEFEE72600020070475FEAD7
:10112000400C08BF91F0000F4FEA8C234FEAC12218
:1011300043EA51514FEA1C5018BF00F5F0404FEA06
:10114000300018BF41F000415FEA6C5C00F029807C
:10115000BCF1FF3F08BF40F080407047130C06BF52
:1011600012044FF0100C4FF0000C130E04BF1202CB
:101170000CF1080C130F04BF12010CF1040C930FB7
:1011800004BF92000CF1020CD30F04BF52000CF10B
:10119000010C11464FF00002A0F11F00A0EB0C0063
:1011A000704711F0004F08BF704731F000413FF425
:1011B000D5AF0B0C06BF09044FF0100C4FF0000C1C
:1011C0000B0E04BF09020CF1080C0B0F04BF090140
:1011D0000CF1040C8B0F04BF89000CF1020CCB0F37
:1011E00004BF49000CF1010CCCF12003A0EB0C0072
:1011F00022FA03F302FA0CF241EA030100F10100C2
:10120000704720F07F4C80EA030023F07F47ACEB6F
:10121000070303F57C5300F0004003F1FF032DE9C1
:1012200080494FEA154B09B44FEA144325EA0B4EA7
:1012300024EA03480FF2042606EB132749083E78F8
:101240005FEA320203FB0667C7F5000707FB06F6F5
:101250004FEA54374FEAD64606F1020607FB066C02
:10126000CCF1005C4FEA1C472CEA074C07FB06F464
:101270000CFB06F504EB15464FEA961634BF00202A
:101280004FF000404FEAD13706FB07FC4FEA1C4CF9
:101290000CFB0BF7D21B03FB0CF761EB07010CFBFC
:1012A0000EF7B0EB074072EB17420CFB08F734BFA8
:1012B000A2EB0742B2EB074261EB17414FEA0C4445
:1012C0004FEA910706FB07FC4FEA1C4C0CFB0BF79F
:1012D000B0EBC74072EB573203FB0CF734BFA2EB05
:1012E000C742B2EBC74261EB57310CFB0EF7B0EBD4
:1012F000C70072EB57720CFB08F734BFA2EBC702B2
:10130000B2EBC70261EB5771039F4FEA816141EA7B
:10131000921104EBCC044FEAD1374FEA826206FB0C
:1013200007FC42EA90124FEA80604FEA1C4C0CFB2B
:101330000BF7D21B03FB0CF761EB07010CFB0EF75D
:10134000B0EB074072EB17420CFB08F734BFA2EB7F
:101350000742B2EB074261EB17414FEA8C554FEA67
:10136000910704EB9C2406FB07FC4FEA1C4C0CFB8A
:101370000BF7B0EBC74072EB573203FB0CF734BFEF
:10138000A2EBC742B2EBC74261EB57310CFB0EF741
:10139000B0EBC70072EB57720CFB08F734BFA2EB3F
:1013A000C702B2EBC70261EB577115EB4C254FEA50
:1013B000816141EA92114FEA82624FEAD13742EAF3
:1013C000901206FB07FC44F100044FEA80604FEAEC
:1013D0001C4C0CFB0BF7D21B03FB0CF761EB07015A
:1013E0000CFB0EF7B0EB074072EB17420CFB08F753
:1013F00034BFA2EB0742B2EB074261EB174115EB9A
:101400001C154FEA813141EA92414FEA823242EAA9
:1014100090424FEA80304FEA0C7644F1000448EAEB
:1014200003434EEA0B484FF0000EB2EB080C71EB91
:10143000030724BF624639464EEB0E0E4FF0000BF9
:101440000018524149414BEB0B0BB2EB080C71EB0E
:1014500003077BF1000B24BF624639464EEB0E0EAC
:101460004FF0000B0018524149414BEB0B0BB2EB14
:10147000080C71EB03077BF1000B24BF6246394671
:101480004EEB0E0E51EA020718BF46F0010616EBAE
:101490000E7655F1000254F1000103D5BDE8890133
:1014A000BDE80088BDE88901BDE80048B619524191
:1014B00041EB0101A3F10103704780807F7E7D7CB9
:1014C0007B7A7978777676757473727171706F6ED6
:1014D0006E6D6C6C6B6A6A69686867666665646481
:1014E000636362616160605F5F5E5E5D5D5C5C5B0B
:1014F0005B5A5A595958585757565655555554547A
:10150000535352525251515050504F4F4F4E4E4DD7
:101510004D4D4C4C4C4B4B4B4A4A4A494949484823
:101520004847474747464646454545444444444363
:1015300043434342424242414141002B26D477007B
:1015400021D01CB54FEA370703B44FF010004FF01D
:1015500010014FF000000FBCBDE810400BF1010B73
:10156000BBF1010F08BF5FEA170722BF12F10102AA
:1015700011F101014FF0004143F1000300F0004080
:1015800043EA00007047F9D35708DAE746EA06460F
:1015900013F1400F4FEA16461FDD13F1200FDFBF96
:1015A00016430A46002120335B42C8D0C3F120070E
:1015B00046EA064602FA07F74FEA164646EA0706E3
:1015C000C3F1200722FA03F201FA07F721FA03F127
:1015D0004FF0000342EA0702B1E746EA020646EA94
:1015E00006464FEA164646EA0106BCBF46EA0646EC
:1015F000360C4FF000034FF000024FF000019EE761
:101600002DE9C048934630B491E8380007C831EA64
:10161000400C48BF34EA430C03D5FFF7F2FDFFF757
:101620008CFFF0BCBDE800882DE9C048934630B47B
:1016300091E8380007C810F0804F08BF13F0804FC2
:1016400003D100F005F8FFF778FFF0BCBDE8008893
:1016500020F07F4780EA030023F07F4C07EB0C0368
:10166000A3F57C5300F00040A3F1FE0392F0000FBD
:1016700000F0B38095F0000F00F077802DE901496C
:101680004FEA11404FEA144621EA004800FB06FCED
:1016900024EA064708FB06F607FB08F800FB07F7F5
:1016A00018EB06484CEB164C4FEA124B18EB074868
:1016B0004FEA15464CEB174022EA0B4E0BFB06FC9B
:1016C00025EA06470EFB06F607FB0EFE0BFB07F7A7
:1016D0001EEB064E4CEB164C4FF000061EEB074E71
:1016E0004CEB174B18EB0B0840F1000018EB0E0BFE
:1016F00058EB000840F100008F1A4FF000013CBF8A
:10170000C943661B14BFB5EB040C00213CBFC943A1
:10171000F61B4FEA17444EEA8E0E27EA04454FEABD
:101720001C4704FB07622CEA074C05FB07F70CFB80
:1017300005F604FB0CFC16EB074642EB174216EBD2
:101740000C4642EB1C421BEB060658EB02024141E1
:1017500046EA9E0601D5BDE80189B619524141EB22
:101760000101A3F10103BDE801894FEA14454FEAE5
:10177000114724EA054621EA074C05FB07F406FB5E
:1017800007F70CFB06F105FB0CFC11EB074144EBE2
:1017900017444FEA124711EB0C4144EB1C4422EA78
:1017A000074C05FB07F206FB07F70CFB06F605FBEB
:1017B0000CFC16EB074642EB174216EB0C4642EBCD
:1017C0001C456A1854F1000148BF7047B6195241D0
:1017D00041EB0101A3F10103704795F0000F37D0F1
:1017E0004FEA11424FEA144721EA024624EA074C25
:1017F00002FB07F106FB07F70CFB06F402FB0CFCEF
:1018000014EB074441EB17414FEA154714EB0C4426
:1018100041EB1C4125EA074C02FB07F506FB07F7E5
:101820000CFB06F602FB0CFC16EB074645EB1745D6
:1018300016EB0C4645EB1C42121951F1000148BF52
:101840007047B619524141EB0101A3F10103704702
:101850004FEA14454FEA114724EA054621EA074CAE
:1018600005FB07F106FB07F70CFB06F24FF000063D
:1018700005FB0CFC12EB074241EB174112EB0C424B
:1018800051EB1C4148BF7047921841EB0101A3F195
:10189000010370470FB5ADB0FE480168006806F05F
:1018A000F3F82890FC480168FA48006806F0ECF864
:1018B0002790FA480168F748006806F0E5F8269096
:1018C000F5480168006806F0DFF82590F4480168E3
:1018D000F148006806F0D8F82490F04801680068E4
:1018E00006F0D2F82390EE480168EC48006806F054
:1018F000CBF82290EA480168006806F0C5F821900C
:10190000E6480168E448006806F0BEF82090E44824
:101910000168E048006806F0B7F81F902F99084664
:1019200006F0B2F80E902E99084606F0ADF80C902D
:101930002D99084606F0A8F80B900C9905F0D8FEF2
:101940000D900E9905F0D4FE0F9005F0A5FECDE99F
:10195000100105F04BF8CDE9120105F00BF92C90C0
:101960002C9805F099FECF4ACF4BCDE9120105F036
:1019700047FB01D231B000BDDDE92C1005F026FF98
:101980002D902C992E9805F021FF2E902C992F98B0
:1019900005F01CFF2F903699084606F075F80E905A
:1019A0003599084606F070F80C903499084606F010
:1019B0006BF80B900C9905F09BFE0D900E9905F0BD
:1019C00097FE0F9005F068FECDE9100105F00EF8C6
:1019D000CDE9120105F0CEF82C902C9805F05CFEB4
:1019E000B04AB14BCDE9120105F00AFB00D2C1E7C4
:1019F0002C99349805F0EAFE34902C99359805F02E
:101A0000E5FE35902C99369805F0E0FE3690269943
:101A1000249805F06DFE0C904FF08040369906F04A
:101A200033F80B900C9906F02FF80D9005F034FE6A
:101A3000CDE91001DDE91F1006F024F908904FF000
:101A40008040359906F020F80790089906F01CF8B8
:101A5000099005F021FECDE90C01219805F01CFE4E
:101A6000CDE90401239805F017FE00228F4BCDE944
:101A7000000105F035FCCDE90201DDE9042305F0A4
:101A800021FDCDE908014FF08040349905F0FCFFBD
:101A9000059005F001FECDE90601DDE9082305F01A
:101AA000EBFACDE90A01DDE90C2305F095F8CDE963
:101AB0000E01DDE9102305F08FF8CDE9120105F0E4
:101AC00059F81B902799229806F0DCF80C904FF0FB
:101AD0008040369905F0D8FF0B900C9905F0D4FFA3
:101AE0000D9005F0D9FDCDE91001219805F0D4FD48
:101AF000CDE90401259805F0CFFD00226B4BCDE91F
:101B0000000105F0EDFBCDE90201DDE9042305F05C
:101B1000D9FCCDE908014FF08040359905F0B4FFBC
:101B2000059005F0B9FDCDE90601DDE9082305F0D2
:101B3000A3FACDE90C01DDE91F1005F0D9FD0890ED
:101B40004FF08040349905F09FFF0790089905F009
:101B50009BFF099005F0A0FDCDE90A01DDE90C230A
:101B600005F03AF8CDE90E01DDE9102305F034F86F
:101B7000CDE9120104F0FEFF1A90239805F08CFDC8
:101B8000CDE90801259805F087FD0022474BCDE9F6
:101B9000040105F0A5FBCDE90601DDE9082305F008
:101BA00091FCCDE90C014FF08040369905F06CFFB7
:101BB000099005F071FDCDE90A01DDE90C2305F07E
:101BC0005BFACDE910012799229805F091FD0A9062
:101BD0004FF08040359905F057FF09900A9905F0BC
:101BE00053FF0C902699249806F04CF80A904FF079
:101BF0008040349905F048FF09900A9905F044FFA8
:101C00000B900C9905F074FD0D9005F045FDCDE9A4
:101C10000E01DDE9102304F0DFFFCDE9120104F02D
:101C2000A9FF19901A99084605F02EFF0E901B99EE
:101C3000084605F029FF0D900E9905F059FD0F900B
:101C400005F02AFDCDE9100104F0D0FECDE9120126
:101C500004F090FF1890199817902699249806F090
:101C600011F84FF08041139005F00EFF2B90229950
:101C7000279805F03DFD4FF08041139005F004FFDB
:101C80002A902599289805F0FDFF1290239905F0D8
:101C9000F9FF0DE0B4000020B8000020BC000020D7
:101CA000C00000208DEDB5A0F7C6B03E0000E03FBB
:101CB0001390219905F01CFD29902699249805F090
:101CC000E1FF0C904FF08040179905F0DDFE0B907E
:101CD0000C9905F0D9FE0D9005F0DEFCCDE9100160
:101CE000219805F0D9FCCDE90801239805F0D4FC32
:101CF0000022FE4BCDE9040105F0F2FACDE9060120
:101D0000DDE9082305F0DEFBCDE90C014FF0804052
:101D1000189905F0B9FE099005F0BEFCCDE90A015D
:101D2000DDE90C2305F0A8F9CDE90E01DDE910236A
:101D300004F052FFCDE9120104F01CFF1690229925
:101D4000279805F0D5FC11904FF08040179905F0C9
:101D50009BFE1090119905F097FE1390DDE91F107E
:101D600005F090FF11904FF08040189905F08CFE1F
:101D70001090119905F088FE1290139905F0B8FCA7
:101D80001590239805F088FCCDE90801259805F009
:101D900083FC0022D54BCDE9040105F0A1FACDE981
:101DA0000601DDE9082305F08DFBCDE90C014FF0BC
:101DB0008040179905F068FE099005F06DFCCDE9AB
:101DC0000A01DDE90C2305F057F9CDE9100124994A
:101DD000269805F08DFC0C904FF08040189905F086
:101DE00053FE0B900C9905F04FFE0D9005F054FC3E
:101DF000CDE90E01DDE9102304F0EEFECDE912017C
:101E000004F0B8FE14901599369805F03DFE119037
:101E10001499359805F038FE1090119905F032FFAD
:101E200013902A992F9805F02FFE119029992E983A
:101E300005F02AFE1090119905F024FF12901399D5
:101E400005F056FC1E901499349805F01DFE119073
:101E50001699369805F018FE1090119905F012FFAA
:101E6000139029992D9805F00FFE11902B992F981A
:101E700005F00AFE1090119905F004FF12901399D5
:101E800005F036FC1D901699359805F0FDFD119072
:101E90001599349805F0F8FD1090119905F0F2FEAF
:101EA00013902B992E9805F0EFFD11902A992D98FB
:101EB00005F0EAFD1090119905F0E4FE12901399D7
:101EC00005F016FC1C908A4801681E9805F0DCFDA0
:101ED0000B9005F0E1FB874A874BCDE90C0105F03B
:101EE000CBF8CDE910018548006805F0D5FBCDE9B8
:101EF0000E01DDE9102304F06FFECDE9120104F0BC
:101F000039FE7E4908607A4801681D9805F0BCFDDD
:101F10000B9005F0C1FB774A774BCDE90C0105F03A
:101F2000ABF8CDE910017648006805F0B5FBCDE9C6
:101F30000E01DDE9102304F04FFECDE9120104F09B
:101F400019FE6F4908606A4801681C9805F09CFDFD
:101F50000B9005F0A1FB674A674BCDE90C0105F03A
:101F60008BF8CDE910016748006805F095FBCDE9D5
:101F70000E01DDE9102304F02FFECDE9120104F07B
:101F8000F9FD60490860604801681E9805F07CFD15
:101F900012905A480168129805F0AAFB13903099E4
:101FA00005F0A6FB3090584801681D9805F06CFDBF
:101FB000129053480168129805F09AFB13903299D9
:101FC00005F096FB3290504801681C9805F05CFDC6
:101FD00012904C480168129805F08AFB13903399CF
:101FE00005F086FB339049483399006805F04CFDB5
:101FF0000A9047483299006805F046FD0890454828
:10200000006880F000400690309905F03DFD079093
:10201000089905F037FE09900A9905F033FE0B90F8
:1020200005F03AFB334A3C4BCDE90C0105F024F8AE
:10203000CDE910013948006805F02EFBCDE90E010D
:10204000DDE9102304F0C8FDCDE9120104F092FD92
:10205000324908602D483299006805F015FD0A9054
:102060002B483399006805F00FFD08902B483099F4
:10207000006805F009FD0790089905F039FB099003
:102080000A9905F0FFFD0B9005F006FB194A224B5B
:10209000CDE90C0104F0F0FFCDE910011D48006806
:1020A00005F0FAFACDE90E01DDE9102304F094FD04
:1020B000CDE9120104F05EFD16490860134830991D
:1020C000006805F0E1FC0A9012483399006805F0B9
:1020D000DBFC089011483299006805F0D5FC0790A8
:1020E000089905F0CFFD09900A9919E00000E03F3A
:1020F000F00000207B14AE47E17A743FD40000204A
:10210000D8000020DC000020EC000020C0000020EF
:10211000BC000020B8000020E17A643FB400002039
:1021200005F0E6FA0B9005F0B7FA6F4A6F4BCDE970
:102130000C0104F0A1FFCDE910016D48006805F025
:10214000ABFACDE90E01DDE9102304F045FDCDE940
:10215000120104F00FFD6649086065483099006877
:1021600005F092FC0A9063483299006805F08CFCF7
:10217000089061483399006805F086FC079008993B
:1021800005F0B6FA09900A9905F07CFD0B9005F070
:1021900083FA554A554BCDE90C0104F06DFFCDE9AA
:1021A00010015648006805F077FACDE90E01DDE927
:1021B000102304F011FDCDE9120104F0DBFC4F49BE
:1021C000086008460168006805F05EFC0E9048480B
:1021D0000168006805F058FC0C90464801680068EA
:1021E00005F052FC0A9044480168006805F04CFC78
:1021F00009900A9905F07CFA0B900C9905F078FA91
:102200000D900E9905F074FA0F9005F045FACDE99E
:10221000100104F0EBFBCDE9120104F0ABFC2C90B3
:102220002C9805F039FA364A364BCDE9120104F004
:10223000E7FE01D2FFF79EBB2F482C99006805F0FE
:10224000C5FA2D4908602B482C99006805F0BEFAA4
:102250002849086026482C99006805F0B7FA2449F7
:10226000086026482C99006805F0B0FA23490860F8
:102270004FF08040219905F007FC0B904FF0404053
:10228000239905F001FC0A900B9905F0FBFC4FF037
:102290007E510C9005F02CFA0D9005F0FDF9CDE97A
:1022A00010014FF080401F9905F0EEFB0C904FF0AD
:1022B0008040209905F0E8FB0B900C9905F018FA86
:1022C0000D9005F0E9F9CDE90E01DDE9102304F0E8
:1022D000C1F94FF066320C4BCDE9120104F0CCFE8F
:1022E0000A4A03C200BFA5E77B14AE47E17A643F08
:1022F000BC000020B8000020B4000020C000002076
:102300008DEDB5A0F7C6B03E66A64C400801002092
:102310002DE9F04100250026002700220121264852
:1023200002F00CFD002427E000F0F0FD23480168D6
:102330002348006805F0DCF98046294605F0D8F905
:102340000546204801682048006805F0D1F980461C
:10235000314605F0CDF906461C4801681C48006866
:1023600005F0C6F98046394605F0C2F907464FF434
:10237000FA6004F041FA641C642CD5DB1549284648
:1023800005F024FA0D4908601249304605F01EFA9E
:102390000C4908600F49384605F018FA0B490860E7
:1023A0000DA11D4804F048FB01221146024802F02D
:1023B000C5FCBDE8F0810000001000404C0000208A
:1023C0006C0000205000002070000020540000200D
:1023D000740000200000C84261646A75737420674D
:1023E00079726F207375636365737366756C2120F2
:1023F000646F6E277420666F7267657420746F2037
:10240000777269746520746F2074686520707261DA
:102410006D73210D0A000000004C00402DE9F041D1
:1024200043484449086044484860444888604448F8
:10243000C8604448086144484861444844490860C9
:10244000444848604448886008460168434800683A
:1024500005F018FC424908603D4841684148006861
:1024600005F010FC3E494860394881683E480068E4
:1024700005F008FC3A4988600A4691682D4A906840
:1024800005F002FB0546364A51682A4A506805F0B5
:10249000FBFA0646324A1168264A106805F0F4FA3B
:1024A0000746314605F024F90446294605F020F98F
:1024B0002A4908602A4A91681E4A106905F0E4FA20
:1024C0000546274A51681B4AD06805F0DDFA0646E2
:1024D000234A1168174A506805F0D6FA0746314674
:1024E00005F006F90446294605F002F91D49086081
:1024F0001B4A91680F4A506905F0C6FA0546184A0A
:1025000051680C4A106905F0BFFA0646144A116872
:10251000084A906805F0B8FA0746314605F0E8F831
:102520000446294605F0E4F80F490860BDE8F0814B
:1025300006D66F3FDC030020E3EB333C7DD7563CEF
:1025400029BE743F4A060D3C98F68E3FEF055DBCF0
:10255000D00300202DD7F2BD6BD5973D640300203A
:10256000C4030020680300206C03002000B589B07C
:10257000012140F6040001F0C1FE4FF47060ADF897
:10258000040018208DF8070003208DF8060001A92B
:102590002A4800F0A7FB2320ADF818000020ADF872
:1025A0001A0041F28730ADF81C000020ADF81E0083
:1025B0008DF8200006A9224802F02EFD6020ADF81B
:1025C00008000120ADF80A000420ADF80C0000203E
:1025D000ADF80E00ADF810000820ADF81200400173
:1025E000ADF814000020ADF8160002A9144802F05E
:1025F000AFFB02A9124802F001FC02A9104802F048
:102600004FFC02A90E4802F09BFC01210C4802F08D
:1026100010FB01210A4802F018FB41F2883004F057
:10262000EBF81420064934310880091D0880091D83
:102630000880091D088009B000BD000000080140A5
:10264000002C014000BFFEE730B502460B464FF6B6
:10265000FF70002112E0555C684000240AE000F0A1
:10266000010525B14AF2010585EA600000E040104D
:10267000651CECB2082CF2DB4D1CE9B29942EADB96
:1026800030BD0000A0280ADA002808DDA02906DAFB
:10269000002904DD034A1060034A116000E070471E
:1026A00000BFFCE700030020040300207047000087
:1026B0000149C860704700000020024030B5044660
:1026C00004254FF4302000F085F80546042D17D17D
:1026D0000C48006940F002000A490861084644615C
:1026E000006940F0400008614FF4302000F072F8BB
:1026F00005460448006941F6FD710840014908613A
:10270000284630BD0020024004200B49C96801F072
:10271000010109B101200EE00749C96801F0040177
:1027200009B1022007E00449C96801F0100109B1AC
:10273000032000E0042070470020024003480069A5
:1027400040F080000149086170470000002002400D
:1027500078B506460C46042500200090E80200F0FB
:1027600039F80546042D24D11348006940F00100D2
:10277000114908613480E80200F02CF80546042D68
:1027800010D1B01C0090200C00990880E80200F0E5
:1027900021F805460848006941F6FE7108400649DF
:1027A000086106E00448006941F6FE7108400249EC
:1027B0000861284678BD0000002002400248034915
:1027C0004860034848607047230167450020024085
:1027D000AB89EFCD00B502460423FFF795FF034612
:1027E00003E0FFF791FF0346521E012B01D1002A9F
:1027F000F7D102B90523184600BD00002DE9F041CC
:10280000C4480078032802D0C348007850B1E620BD
:10281000C2490880091D0880091D0880091D08801B
:10282000BDE8F08100F0FEF9BA48007800286CD0CD
:10283000B8480078012868D1B9480268B9480168E9
:10284000B94801F0ADFCB9490860B949B74800681A
:1028500005F0E6F903D2B648B449086008E0B54986
:10286000B248006805F0DCF802D2B248AF4908600F
:10287000B1480268AD480168B04801F091FCB04928
:102880000860B049AE48006805F0CAF903D2AD4807
:10289000AB49086008E0AC49A948006805F0C0F8F9
:1028A00002D2A948A6490860A6499D48006805F0DB
:1028B000B7F806D2A548006818B9A548A549086028
:1028C00023E0A0499648006805F0AAF905D29F4880
:1028D000006810B901209D4908609F499D48006823
:1028E00005F09EF90ED29B48006804F0D5FE06461E
:1028F0009A4A9B4B04F0E6FD044604F03BF99549E7
:10290000086002E0944893490860824800780128F2
:1029100003D080480078022815D104F0BBF8914913
:1029200008600846026890480168904801F038FC49
:102930008F4908608F480268084601688E4801F098
:102940002FFC8E4908608E4903C904F013F9044630
:1029500022468C4801688C4801F022FC8B490860B3
:102960008B498A48006805F05BF903D2884887499B
:10297000086008E087498548006805F051F802D2F0
:102980008448824908608448026880480168834816
:1029900001F006FC82490860824903C904F0EAF8A4
:1029A0000446224680480168804801F0F9FB8049CE
:1029B000086077497E48006805F032F903D2744810
:1029C0007B49086008E073497948006805F028F8F9
:1029D00002D27048764908607648026874480168F7
:1029E000754801F0DDFB754908606D48006880F0AE
:1029F000004708460168384604F07AFE06465F48FC
:102A00000168304604F074FE0546524801682846C5
:102A100004F06EFE04464A480168204604F068FE51
:102A2000674908605E48006880F0004763480168B5
:102A3000384605F027F9064650480168304605F04B
:102A400021F9054643480168284604F051FE044632
:102A50003B480168204604F04BFE5A49086057483D
:102A600001684F48006805F00DF9064643480168C3
:102A7000304604F03DFE054636480168284604F01D
:102A800037FE04462E480168204604F031FE4E49C8
:102A900008604A4801684248006804F029FE06467A
:102AA00036480168304605F0EDF8054629480168CA
:102AB000284604F01DFE044621480168204604F023
:102AC00017FE424908603E48006804F041FF044692
:102AD0002146012001F030FD3A48006804F038FF3B
:102AE00004462146022001F027FD3748006804F023
:102AF0002FFF04462146032001F01EFD33480068E5
:102B000004F026FF04462146042001F015FD00BF15
:102B100086E60000E402002014030020342C01406B
:102B2000180300202C01002050020020400100204A
:102B300000002042000020C21C0300208802002068
:102B4000500100200000F0410000F0C110030020FF
:102B5000000018425C0100200000E041B81E85EB37
:102B600051B89E3F2801002020010020E0010020F4
:102B70004C010020740000203402002038010020A5
:102B8000000100201C010020A801002048010020B5
:102B900000002041000020C16C000020180200202D
:102BA00030010020F800002018010020C40100209E
:102BB0004401002070000020FC01002034010020AE
:102BC0006001002064010020680100206C010020E9
:102BD00010B5002005490870054903C903F0CAFF74
:102BE0000449086004480549086010BDE40200205B
:102BF00008010020240100200000A0415C01002009
:102C00000220044908700448044908600449086027
:102C100070470000E4020020000040C01C010020BA
:102C2000180100202DE9F0411B480078022801D04E
:102C3000BDE8F08119491A48006804F0F1FF22D27A
:102C40001748006804F028FD0646164A164B04F0A3
:102C500039FC044603F08EFF114908600F49134800
:102C6000006804F0DDFF14D21048006804F014FD81
:102C700006460F4A0F4B04F025FC044603F07AFF8A
:102C80000A49086005E00C480549086003480749FF
:102C9000086000BFCCE70000E40200200000A04173
:102CA0002C0100209A9999999999C93F5C010020BB
:102CB000B81E85EB51B89E3F0000504103200149EA
:102CC00008707047E40200200348044908600120AE
:102CD000034908707047000000008C422C0100205E
:102CE000E40200202DE9F0410246002500260020E4
:102CF00000230024002791F803C00CF00F0591F881
:102D000003C00CF0100CBCF1000F03D091F802C00E
:102D10004CEA050591F800C0BCF1000F31D01468F1
:102D200000202BE04FF0010C0CFA00F3B1F800C0CA
:102D30000CEA03069E4220D183004FF00F0C0CFAE0
:102D400003F7BC4305FA03FC4CEA040491F803C002
:102D5000BCF1280F06D14FF0010C0CFA00FCC2F8B0
:102D600014C00AE091F803C0BCF1480F05D14FF040
:102D7000010C0CFA00FCC2F810C0401C0828D1D38A
:102D80001460B1F800C0BCF1FF0F34DD54680020BE
:102D90002EE000F1080C4FF0010808FA0CF3B1F82E
:102DA00000C00CEA03069E4221D183004FF00F0CB5
:102DB0000CFA03F7BC4305FA03FC4CEA040491F84F
:102DC00003C0BCF1280F05D100F1080C08FA0CF87B
:102DD000C2F8148091F803C0BCF1480F07D100F18C
:102DE000080C4FF0010808FA0CF8C2F81080401CDB
:102DF0000828CED35460BDE8F0814161704701617D
:102E0000704700002DE9F05F01233B22D0213548B7
:102E100000F09EFA3449088001233D22D021314838
:102E200000F096FA3149088001233F22D0212D4835
:102E300000F08EFA2E4908802B48B0F9000004F00B
:102E4000C3FD83464FF0804104F01EFE824604F02D
:102E500023FC8046274A284B04F00EF90646002240
:102E6000264B03F075FF044603F084FE24490860F6
:102E70001E48B0F9000004F0A7FD83464FF08041E2
:102E800004F002FE824604F007FC8046194A1A4B01
:102E900004F0F2F806460022184B03F059FF0446EE
:102EA00003F068FE174908601148B0F9000004F00B
:102EB0008BFD83464FF0804104F0E6FD824604F02E
:102EC000EBFB06460B4A0C4B04F0D6F804460022F6
:102ED0000A4B03F03DFF804603F04CFE0A490860B0
:102EE000BDE8F09F005400405E000020600000201C
:102EF000620000209A999999999923400000E04036
:102F0000780000207C000020800000202DE9FF5F79
:102F100001234322D021464800F01AFA454908808F
:102F200001234522D021424800F012FA424908808C
:102F300001234722D0213E4800F00AFA3F49088089
:102F40003F48006804F0A8FB06460F463948B0F930
:102F5000000004F039FD83463A4904F095FD8246AD
:102F600004F09AFB0022384BCDE9000103F0F0FE9B
:102F7000364A374BCDE9020103F0EAFE804632467D
:102F80003B4604F09FFA044603F0F4FD3149086023
:102F90003148006804F080FB804689462648B0F935
:102FA000000004F011FD2749009004F06DFD019030
:102FB00004F072FB82460022234B03F0C9FE234A31
:102FC000234BCDE9020103F0C3FE064642464B46C1
:102FD00004F078FA044603F0CDFD2049086020484B
:102FE000006804F059FB04460D461448B0F900008F
:102FF00004F0EAFC1349009004F046FD019004F04F
:103000004BFB0022104BCDE9020103F0A1FE8046EC
:103010000E4A0F4B03F09CFE064622462B4604F058
:1030200051FA824603F0A6FD0E490860BDE8FF9FF5
:1030300000540040580000205A0000205C0000208E
:103040004C0000200000FA430000E040295C8FC2E1
:10305000F5A84C406C0000205000002070000020BB
:10306000540000207400002000B5002300E05B1C29
:103070000A2B03DA0948C05CFD28F8D15B1E18460C
:1030800003EBD0714910A3EB410101B100BD034A2C
:1030900091785078FFF7F6FA00BFF7E77403002045
:1030A0002DE9FC4125480068401C24490860084679
:1030B0000068082840DB37230222D021204800F096
:1030C000C9F8684603F0E0FBBDF9000004F07CFCA1
:1030D000804604F0E1FA064600221A4B03F038FE5F
:1030E000044603F047FD18490860BDF9020004F0EA
:1030F0006BFC804604F0D0FA06460022114B03F028
:1031000027FE044603F036FD10490860BDF90400AF
:1031100004F05AFC804604F0BFFA06460022094B30
:1031200003F016FE044603F025FD0949086000205F
:1031300002490860FFF772F9BDE8FC8170030020C6
:103140000054004000089140640300206803002000
:103150006C03002000BFFEE721B1028842F48062C8
:10316000028004E002884FF6FF331A400280704765
:103170002DE9F0410746884614461E46069D00BFCD
:103180004FF40031384600F057F90028F8D10121FA
:10319000384600F039F900BF2C49384600F09AF85B
:1031A0000028F9D000224146384600F01DFA00BF41
:1031B0002749384600F08EF80028F9D0012138461A
:1031C00000F09DF83146384600F017FA00BF20495C
:1031D000891C384600F07EF80028F8D001213846D6
:1031E00000F012F900BF1949384600F073F80028C2
:1031F000F9D001224146384600F0F6F900BF1349E4
:10320000491C384600F066F80028F8D016E0012D79
:1032100007D100213846FFF79FFF0121384600F013
:10322000FFF80A493F31384600F054F830B13846CB
:1032300000F0D6F92070641C681E85B2002DE6D11E
:1032400001213846FFF788FFBDE8F0810100030047
:10325000820007002DE9F04106460F4614461D4640
:103260000121304600F0D0F800BF1849304600F088
:1032700031F80028F9D000223946304600F0B4F980
:1032800000BF1349304600F025F80028F9D0294640
:10329000304600F0B2F900BF0D49891C304600F0FD
:1032A00019F80028F8D02146304600F0A6F900BFF2
:1032B0000749891C304600F00DF80028F8D001219C
:1032C000304600F0ADF8BDE8F081000001000300D9
:1032D0008200070070B5024600240025002300206C
:1032E000958A138B1B0445EA030626F07F4404EA03
:1032F00001068E4201D1012000E0002070BD21B105
:10330000028842F00102028004E002884FF6FE7358
:103310001A4002807047000010B504460B488442F2
:1033200009D10121480500F0D9FF00214FF4001018
:1033300000F0D4FF08E00121880500F0CFFF002154
:103340004FF4800000F0CAFF10BD000000540040A0
:103350002DE9FC4106460F4614461D460220234631
:1033600001AA394600903046FFF702FF012D08D12F
:103370009DF805009DF8041000EB012000B2BDE8A7
:10338000FC819DF804009DF8051040EA012000B280
:10339000F5E7000070B506461948864202D1C4140C
:1033A000051501E0802440250DE029461548FFF76A
:1033B00026FD0A2003F020FA29461248FFF71DFDDA
:1033C0000A2003F019FA0F480C300068204000284A
:1033D000EBD029460B48FFF712FD21460948FFF7BD
:1033E0000CFD0A2003F008FA21460648FFF707FD06
:1033F0000A2003F001FA0121304600F000F970BD07
:1034000000580040000C014021B1028842F4807253
:10341000028004E002884FF6FF631A400280704782
:1034200021B1028842F40072028004E002884FF663
:10343000FF531A40028070470CB50246002000235B
:103440000193009300920B0F019321F07F41019BA8
:103450001BB1009B1433009303E0090C009B18334D
:103460000093009B1B680B400BB1012000E0002083
:103470000CBD1AB183880B43838002E083888B43A1
:10348000838070472DE9F04385B004460D46002641
:10349000B1460427DFF8CC80A6884FF6C0700640FE
:1034A000684600F03BFFDDF808802F48B8FBF0F0DD
:1034B0001FFA80F946EA0906A68020884FF6FE71B9
:1034C0000840208000262949286888420CD82868AE
:1034D0004000B8FBF0F087B2042F00DA04273E4327
:1034E00009F10100208427E0E8884BF6FF7188424B
:1034F00006D1286800EB4000B8FBF0F087B209E085
:10350000286800EBC00101EB0010B8FBF0F087B2B7
:1035100047F48047C7F30B0008B947F0010747F4A9
:10352000004006434FF4967009FB00F04FF47A71A7
:1035300090FBF1F0401C2084A683208840F001001D
:10354000208026884FF6F5300640A8886989084310
:1035500006432680A88929890843208105B0BDE853
:10356000F083000000127A0040420F00A0860100A4
:1035700038B504460A48844204D14FF44060ADF89F
:10358000000002E0C020ADF8000003208DF802002A
:103590001C208DF8030069460248FFF7A3FB38BDE5
:1035A00000580040000C014038B504460A488442E7
:1035B00004D14FF44060ADF8000002E0C020ADF847
:1035C000000003208DF8020014208DF803006946E6
:1035D0000248FFF787FB38BD00580040000C01404F
:1035E0000146088AC0B2704712B141F0010102E001
:1035F0004FF6FE731940018270470182704721B176
:10360000028842F40042028003E00288C2F30E0204
:103610000280704710B586B004462D48844204D11C
:103620000121880500F04AFE03E00121480500F071
:1036300045FE0121082000F061FE2548844204D1A6
:103640004FF44060ADF8140002E0C020ADF8140063
:1036500003208DF816001C208DF8170005A91D48C1
:10366000FFF740FB0020ADF808004BF6FF70ADF807
:103670000A000020ADF80C004FF48060ADF80E0099
:103680000001ADF81000144801902046FFF744FEF9
:1036900001A92046FFF7F6FE01212046FFF72FFE85
:1036A00001224FF4C0612046FFF7E3FE4FF40031E2
:1036B0002046FFF7C1FE28B12046FFF775FF2046E0
:1036C000FFF768FE2046FFF753FF06B010BD00006D
:1036D00000580040000C0140A08601000FB59FB0CB
:1036E000FE480168006804F0CFF91A90FC480168B0
:1036F000FA48006804F0C8F91990FA480168F748D8
:10370000006804F0C1F91890F5480168006804F0F9
:10371000BBF91790F4480168F148006804F0B4F967
:103720001690F0480168006804F0AEF91590EE4874
:103730000168EC48006804F0A7F91490EA480168B1
:10374000006804F0A1F91390E6480168E4480068B5
:1037500004F09AF91290E4480168E048006804F027
:1037600093F911902199084604F08EF90890209958
:10377000084604F089F906901F99084604F084F978
:103780000590069903F0B4FF0790089903F0B0FF85
:10379000099003F081FFCDE90A0103F027F9CDE993
:1037A0000C0103F0E7F91E901E9803F075FFCF4A55
:1037B000CF4BCDE90C0103F023FC01D223B000BDB7
:1037C000DDE91E1004F002F81F901E99209803F006
:1037D000FDFF20901E99219803F0F8FF2190189981
:1037E000169804F04FFA4FF080410D9004F04CF918
:1037F0001D901499199803F07BFF4FF080410D90B4
:1038000004F042F91C9017991A9804F03BFA0C90B6
:10381000159904F037FA0D90139903F069FF1B9086
:103820001C99219804F030F90D901B99209804F010
:103830002BF90C900D9904F025FA10901B991F9804
:1038400004F022F90D901D99219804F01DF90C90B7
:103850000D9904F017FA0F901D99209804F014F9AF
:103860000D901C991F9804F00FF90C900D9904F01D
:1038700009FA0E909F480168109804F005F9059028
:1038800003F00AFF9C4A9D4BCDE9060103F0F4FBCF
:10389000CDE90A019A48006803F0FEFECDE908016F
:1038A000DDE90A2303F098F9CDE90C0103F062F990
:1038B000934908608F4801680F9804F0E5F8059077
:1038C00003F0EAFE8C4A8D4BCDE9060103F0D4FBF0
:1038D000CDE90A018B48006803F0DEFECDE908015E
:1038E000DDE90A2303F078F9CDE90C0103F042F990
:1038F000844908607F4801680E9804F0C5F8059077
:1039000003F0CAFE7C4A7D4BCDE9060103F0B4FB0F
:10391000CDE90A017C48006803F0BEFECDE908014C
:10392000DDE90A2303F058F9CDE90C0103F022F98F
:103930007549086075480168109804F0A5F80C9066
:103940006F4801680C9803F0D3FE0D90229903F0A4
:10395000CFFE22906D4801680F9804F095F80C9006
:10396000684801680C9803F0C3FE0D90249903F099
:10397000BFFE2490654801680E9804F085F80C900D
:10398000614801680C9803F0B3FE0D90259903F08F
:10399000AFFE259054482599006804F075F804900E
:1039A00050482499006804F06FF802904C48006871
:1039B00080F000400090229904F066F8019002998E
:1039C00004F060F90390049904F05CF9059003F0A9
:1039D00063FE494A4E4BCDE9060103F04DFBCDE9AC
:1039E0000A013E48006803F057FECDE90801DDE911
:1039F0000A2303F0F1F8CDE90C0103F0BBF83749D5
:103A0000086039482499006804F03EF8049035486D
:103A10002599006804F038F802903048229900682F
:103A200004F032F80190029903F062FE03900499C9
:103A300004F028F9059003F02FFE2F4A344BCDE90E
:103A4000060103F019FBCDE90A012548006803F0DF
:103A500023FECDE90801DDE90A2303F0BDF8CDE935
:103A60000C0103F087F81E4908601F48229900687E
:103A700004F00AF804901A482599006804F004F844
:103A8000029016482499006803F0FEFF0190029905
:103A900004F0F8F80390049903F02AFE059003F06F
:103AA000FBFD154A1A4BCDE9060103F0E5FACDE915
:103AB0000A010C48006803F0EFFDCDE90801DDE9DB
:103AC0000A2303F089F8CDE90C0103F053F8054906
:103AD00008600448229900681CE00000C40000202F
:103AE000C8000020CC000020D00000208DEDB5A043
:103AF000F7C6B03EF00000207B14AE47E17A743F79
:103B0000E0000020E4000020E8000020EC0000209D
:103B1000E17A643F03F0B8FF04909048249900686C
:103B200003F0B2FF02908E482599006803F0ACFFC5
:103B30000190029903F0DCFD0390049904F0A2F8CF
:103B4000059003F0A9FD874A874BCDE9060103F0F4
:103B500093FACDE90A018548006803F09DFDCDE99F
:103B60000801DDE90A2303F037F8CDE90C0103F081
:103B700001F87E49086008460168006803F084FF88
:103B800008907B480168006803F07EFF0690734848
:103B90000168006803F078FF0490714801680068CC
:103BA00003F072FF0390049903F0A2FD05900699BB
:103BB00003F09EFD0790089903F09AFD099003F029
:103BC0006BFDCDE90A0102F011FFCDE90C0102F015
:103BD000D1FF1E901E9803F05FFD664A664BCDE94B
:103BE0000C0103F00DFA00D2E8E55D481E9900686B
:103BF00003F0ECFD5A49086058481E99006803F02C
:103C0000E5FD564908605A481E99006803F0DEFD3C
:103C10005749086055481E99006803F0D7FD53497D
:103C200008604F4801684FF0804003F02DFF069078
:103C30004F480168069803F027FF0890474801683D
:103C40004FF0404003F020FF069048480168069876
:103C500003F01AFF0790089903F04AFD099003F05A
:103C60001BFDCDE90A0102F0ADFA4FF06632434B7D
:103C7000CDE90C0103F000FA414A03C23C48016857
:103C80004FF0804003F000FF03903948016803982B
:103C900003F0FAFE0590314801684FF0404003F010
:103CA000F3FE03902D480168039803F0EDFE0490A5
:103CB000059903F0E7FF4FF07E51069003F018FDE1
:103CC000079003F0E9FCCDE90A01254801684FF0AF
:103CD000804003F0D9FE049020480168049803F066
:103CE000D3FE0690224801684FF0804003F0CCFEDE
:103CF00004901E480168049803F0C6FE05900699DA
:103D000003F0F6FC079003F0C7FCCDE90801DDE9FC
:103D10000A2302F09FFC4FF06632184BCDE90C01EC
:103D200003F0AAF9174A03C200221346154903C932
:103D300003F0A0FA08D20022134B124903C903F082
:103D4000C1FB104A03C207E000220F4B0D4903C913
:103D500002F042FF0B4A03C200BF2FE5C80000205B
:103D6000C40000207B14AE47E17A643FD0000020FD
:103D7000CC0000208DEDB5A0F7C6B03E66A64C4045
:103D8000F800002000010020008066402DE9F04787
:103D900004460D462168206903F076FE81462168BD
:103DA000606903F071FE8246216803F06DFE804673
:103DB000A16803F09DFC06463046E16803F098FCDC
:103DC00080464146304603F001FD074649462846F5
:103DD00003F058FF8246394603F056FE80464946B6
:103DE00003F086FC206139464FF07E5003F04AFF15
:103DF0008046314603F048FE60612069BDE8F087E7
:103E000070B50546094C0A48007800B1094C2146B6
:103E1000284603F005FF01D2254605E0002128468B
:103E200003F0FEFD00D20025284670BD0000C84208
:103E3000150300200000484270B5002411E05449E9
:103E400051F82400534941F8240051F8240003F0AC
:103E500023FC05462A460B464FA1534802F0ECFDD1
:103E6000641C052CEBDB4B4800685049086049484E
:103E700040684F490860474880684E490860454897
:103E8000C0684D490860434800694C4908604C4986
:103E90004648006803F0C4FE0AD34A494348006814
:103EA00003F0BEFD04D34148006802F013F928B1C5
:103EB00000203E49086001204349087040493C48C1
:103EC000006803F0ADFE0AD33E493948006803F0AC
:103ED000A7FD04D33648006802F0FCF828B10020A2
:103EE000334908600120384908704FF0804131485B
:103EF000006803F095FE0BD34FF040412D48006859
:103F000003F08EFD04D32B48006802F0E3F828B1DB
:103F100000202849086001202B4908704FF080419B
:103F20002548006803F07CFE0BD34FF04041224847
:103F3000006803F075FD04D31F48006802F0CAF85A
:103F400028B100201C49086001201F4908704FF06B
:103F500080411A48006803F063FE0BD34FF04041E4
:103F60001648006803F05CFD04D31448006802F0B2
:103F7000B1F828B1002011490860012012490870E9
:103F80001148007818B111A1074802F055FD70BD25
:103F900000900108A40300204C6F616420507261FE
:103FA0006D3A25660D0A0000004C00401801002003
:103FB0001C0100204C000020500000205400002074
:103FC0000000A0400000A0C0140300206C6F6164DA
:103FD000206F6666736574206572726F7221706CF3
:103FE000656173652061646A7573742061676169D6
:103FF0006E210D0A0000000010B51248FFF70AFB01
:10400000114802F0F9FB6B230022D0210D48FFF785
:1040100021F919230022D0210A48FFF71BF91A239E
:104020000222D0210748FFF715F91B230822D021CF
:104030000448FFF70FF91C230122D0210148FFF7A4
:1040400009F910BD0054004020A1070000BFFEE7A1
:104050007047000070B5002100230F22C47804B31C
:10406000154C246804F4E064C4F5E064210AC1F14D
:104070000403CA40447804FA03F1847814402143CD
:1040800009010E4C0678A155047804F01F0501249F
:10409000AC4005786D11AD0005F1E025C5F8004193
:1040A00009E0047804F01F050124AC40044D0678B3
:1040B000761145F8264070BD0CED00E000E400E00C
:1040C00080E100E002490143024A116070470000AC
:1040D0000000FA050CED00E030B58BB00020079031
:1040E000089009900A900390049005900690009023
:1040F00001900290002500240DE0274850F824008C
:1041000007A941F8240007A850F8240003A941F8A2
:104110002400601CC4B2042CEFDB002410E003A8D0
:1041200010F824000DF8140003A830F82400C0F3A0
:104130000720012101EB44010DF80100601CC4B20D
:10414000042CECDB08216846FEF77EFA054628467B
:10415000E91705EB11610912A5EB0121C9B28DF830
:104160000810E91705EB1161090A8DF80910002400
:104170000DE000BF8021094801F0EEFD0028F9D0D4
:104180001DF80410054801F0B4FE601CC4B20A2CEE
:10419000EFDB0BB030BD000094030020004C00406A
:1041A0002DE9F04F87B004460D46164631462846A5
:1041B00003F068FD81464846216903F063FD8246AD
:1041C000504603F069FA364A364BCDE9040102F055
:1041D00053FF074602F0CEFC8246A06903F05CFA6A
:1041E0000746314A314B02F047FFCDE90201504604
:1041F00003F052FACDE90001DDE9022302F0ECFC04
:10420000CDE9040102F0B6FC8246C4F8109048469D
:1042100003F042FA0746264A264B02F02DFFCDE96D
:104220000201E06803F038FACDE90001DDE902237C
:1042300002F0D2FCCDE9040102F09CFCE06061696F
:10424000E06803F0EDFC02D26069E0600BE06069B9
:1042500080F000473846E16803F0E2FC03D2606971
:1042600080F00040E060C4F818A0D4E9021003F028
:104270000BFC05905046616803F006FC80464846FA
:10428000216803F001FC4146049003F031FA07462F
:10429000059903F02DFA8346584607B0BDE8F08F24
:1042A000FA7E6ABC7493D83FAE47E17A14AEE33F1E
:1042B0007B14AE47E17A743F7047000029B1064A8B
:1042C000D2690243044BDA6104E0034AD2698243B3
:1042D000014BDA61704700000010024029B1064A24
:1042E00012690243044B1A6104E0034A12698243D3
:1042F000014B1A61704700000010024029B1064AC4
:1043000092690243044B9A6104E0034A9269824332
:10431000014B9A61704700000010024030B5002147
:104320000022002400232D4D6D6805F00C0121B101
:10433000042905D0082923D105E0294D056022E094
:10434000274D05601FE0254D6D6805F47012234D63
:104350006D6805F48034022505EB92421CB9214DAD
:10436000554305600BE01D4D6D6805F400351DB12A
:104370001C4D5543056002E0194D5543056002E0B0
:10438000174D056000BF00BF144D6D6805F0F001CA
:104390000909154D6B5C0568DD4045600F4D6D6882
:1043A00005F4E061090A104D6B5C4568DD408560ED
:1043B0000A4D6D6805F46051C90A0B4D6B5C456888
:1043C000DD40C560054D6D6805F44041890B074D22
:1043D0006B5CC568B5FBF3F5056130BD00100240AC
:1043E00000127A0000093D000000002010000020AB
:1043F00008B501210420FFF781FF1020ADF800006F
:104400008DF8030003208DF8020069460648FEF788
:1044100069FC4020ADF8000004208DF803006946D7
:104420000148FEF75FFC08BD0008014010B51021EF
:104430000548FEF7E4FC462002F0DEF910210248B0
:10444000FEF7DBFC10BD000000080140704710B50E
:1044500000F002F810BD00000CB5002001900090A3
:104460003348006840F480303149086000BF30486C
:10447000006800F4003000900198401C0190009802
:1044800018B90198B0F5A06FF1D12948006800F47F
:10449000003010B10120009001E000200090009851
:1044A000012843D12348006840F0100021490860EA
:1044B0000846006820F0030008600846006840F0E5
:1044C000020008601A484068194948600846406878
:1044D00048600846406840F480604860084640688C
:1044E00020F47C1048600846406840F4E8104860BA
:1044F0000846006840F08070086000BF0C48006803
:1045000000F000700028F9D00948406820F003004E
:10451000074948600846406840F00200486000BF14
:104520000348406800F00C000828F9D10CBD0000D9
:1045300000100240002002402DE9F04704460D46DD
:10454000042C01DC012C01DABDE8F087012C06D037
:10455000022C1CD0032C33D0042C63D149E0284614
:1045600003F032FA8246FFF74BFC81462F4903F0F5
:104570008BFA80462E4903F029F907462D4903F0AE
:10458000B7F8064603F000FA2B4908804AE02846AF
:1045900003F01AFA8246FFF733FC8146274903F0FD
:1045A00073FA8046224903F011F90746244903F0C3
:1045B0009FF8064603F0E8F91F49091D088031E01D
:1045C000284603F001FA8246FFF71AFC81461B4990
:1045D00003F05AFA8046164903F0F8F807461849DE
:1045E00003F086F8064603F0CFF913490831088036
:1045F00018E0284603F0E8F98246FFF701FC8146FF
:104600000A4903F041FA8046094903F0DFF80746FA
:10461000084903F06DF8064603F0B6F906490C3177
:10462000088000BF00BF00BF8EE7000000004843C5
:104630000000C84200009643342C0140000066434D
:10464000000087437047000010B51348006840F031
:1046500001001149086008464068104908400E49A9
:104660004860084600680E4908400B490860084643
:10467000006820F4802008600846406820F4FE00AE
:1046800048604FF41F008860FFF7E1FE4FF00060C4
:104690000449086010BD0000001002400000FFF84F
:1046A000FFFFF6FE08ED00E0F0B50C4615460022CF
:1046B0000021068C4FF6FE773E400684028B018C6B
:1046C0004FF60C7632407E1C06EA03162E43324328
:1046D000104EB0420ED0104EB0420BD0B0F1804F11
:1046E00008D00E4EB04205D00D4EB04202D00D4E55
:1046F000B04206D14FF6FD76314044F00106314319
:1047000005E04FF6F576314044F00106314302836F
:104710000184F0BD002C0140003401400004004041
:1047200000080040000C0040F0B50C461546002281
:1047300000210026078C4FF6EF7C07EA0C07078460
:10474000028B018C4FF6FF7707EA041640F6FF470D
:104750003A404FF6FF7707EA03373A434FF6FF77C1
:1047600007EA05273A43114FB8420ED0104FB8421E
:104770000BD0B0F1804F08D00E4FB84205D00E4F8D
:10478000B84202D00D4FB84206D14FF6DF7739401C
:1047900046F01007394305E04FF65F77394044F0A3
:1047A0001007394302830184F0BD0000002C014052
:1047B000003401400004004000080040000C0040AC
:1047C000F0B50C461546002200210026078C4FF656
:1047D000FF6C07EA0C070784828B018C4FF6FF778A
:1047E00007EA04264FF60C773A404FF6FF7707EAC0
:1047F00003172F433A43114FB8420ED0104FB8421F
:104800000BD0B0F1804F08D00E4FB84205D00E4FFC
:10481000B84202D00D4FB84206D14FF6FF5739408B
:1048200046F48077394305E04FF2FF57394044F4AE
:104830008077394382830184F0BD0000002C014061
:10484000003401400004004000080040000C00401B
:10485000F0B50C461546002200210026078C4EF6C6
:10486000FF7C07EA0C070784828B018C4FF6FF77E9
:1048700007EA043640F6FF473A404FF6FF7707EA6B
:1048800005273A434FF6FF7707EA03373A43114FBC
:10489000B8420ED0104FB8420BD0B0F1804F08D0C4
:1048A0000E4FB84205D00E4FB84202D00D4FB8425D
:1048B00006D14DF6FF77394046F48057394305E07D
:1048C00047F6FF57394044F48057394382830184C7
:1048D000F0BD0000002C0140003401400004004005
:1048E00000080040000C004000B587B00121022004
:1048F000FFF7E4FC4FF6FF70ADF808004720ADF875
:1049000004000020ADF80A00ADF8060001A9174820
:1049100000F082FB0020ADF81000ADF8120001207D
:10492000ADF814000020ADF81600ADF8180004A989
:104930000E4800F0ADF91D208DF8000003208DF821
:10494000010000208DF8020001208DF80300684668
:10495000FFF780FB01220321044800F0EFF9012159
:10496000024800F066F907B000BD000000040040F6
:104970002DE9FC5F0121584800F079F940B1574812
:104980000068401C554908600121534800F04EF969
:104990000221514800F06BF900287CD05048007883
:1049A00070B900204D49086000214B4800F006FB1B
:1049B00001204B4908700221474800F015FA84E0B5
:1049C000474800780128FAD1434800F04DF90546E0
:1049D00003F012F84349086040490968C1EB0140FF
:1049E00002F0F2FF05463F480168284602F080FECB
:1049F0003C4908600846006802F04EFE0746002267
:104A0000394B02F039FB05460022384B02F034FBEB
:104A100082460022364B02F09BF9CDE9000102F0FC
:104A2000A9F8044621463348FFF7B0F90446324955
:104A3000204603F0F5F801D2304804682F48016899
:104A4000204603F01FF9824602F026FE07462C4A54
:104A50002C4B02F07DF9054602F08CF88146494660
:104A60002948FFF793F981462849484603F0D8F8CA
:104A700007D32749484602F0D3FF02D32548C0F8A0
:104A8000009022492348006803F0CAF804D21F4866
:104A90002049086009E01CE01D491E48006802F03A
:104AA000BFFF02D21A481B49086014480460002066
:104AB0000A4908600021084800F080FA00200849EF
:104AC00008700021044800F08FF90221024800F02C
:104AD000ADF8BDE8FC9F0000000400402800002065
:104AE0002C000020500300200000E03F009AE0402E
:104AF00080842E41200300200000964318030020EC
:104B0000B81E85EB51B88E3F3803002000004842A4
:104B1000000048C21C03002000B585B001213748C1
:104B200000F0A5F8002866D00121344800F07EF896
:104B300000220121314800F001F9314800680528C0
:104B400048D2DFE800F0440308323500FEF7DEF912
:104B5000FEF758F93FE02B4800682B490968CDE97A
:104B600000102A4803682A4802682A4801682A482F
:104B70000068FEF7B3FD2948026829480068294902
:104B80000968204B1B68CDE90131CDE903021E48BD
:104B9000006800901D4803681D4802681D480168B0
:104BA0001D480068FCF776FE15E0FDF727FE12E0D1
:104BB0001D480068401C1C4908600846006803281E
:104BC00004DBFFF733FC00201749086003E0FEF721
:104BD00067FA00E000BF00BF09480068401C0521DB
:104BE00090FBF1F201FB1200054908600122114619
:104BF000024800F0A3F805B000BD0000001000401E
:104C00003000002074000020700000206C000020A4
:104C1000800000207C000020780000206C03002031
:104C2000680300206403002038000020CA43028289
:104C3000704721B1028842F00102028004E002883C
:104C40004FF6FE731A400280704731B1B0F844202D
:104C500042F40042A0F8442005E0B0F84420C2F33A
:104C60000E02A0F8442070470146888E704730B588
:104C70000246002000230024158A05EA01039589D5
:104C800005EA010413B10CB1012000E0002030BDA1
:104C900070B505460C46244885420ED0234885420F
:104CA0000BD0B5F1804F08D02148854205D021486E
:104CB000854202D02048854200D100E000BF208814
:104CC00050B92389A28861882846FFF7EDFCE18866
:104CD000284600F075F925E0208804280AD12389A8
:104CE000A28861882846FFF71FFDE188284600F06A
:104CF00070F917E0208808280AD12389A2886188E2
:104D00002846FFF75DFDE188284600F06FF909E0CD
:104D10002389A28861882846FFF79AFDE188284602
:104D200000F06DF970BD0000002C0140003401401E
:104D30000004004000080040000C00401AB18389C4
:104D40000B43838102E083898B438381704700009A
:104D500070B5002400220023058C4FF6FE76354006
:104D60000584028C8388048B4FF68F752C40B51E0A
:104D70002C400D882C43751E2A400D892A434D88EE
:104D80002A43144DA8420BD0134DA84208D0134D0E
:104D9000A84205D0124DA84202D0124DA84213D10C
:104DA0004FF6F7752A404D892A434FF6FB752A4086
:104DB0008D882A434FF6FF652B404FF6FF552B4059
:104DC0008D892B43CD892B4383800483CD888586B1
:104DD000028470BD002C01400034014000400140BD
:104DE00000440140004801400A460021018C4FF672
:104DF000FD731940114301847047000070B5002411
:104E000000220023058C4FF6EF7635400584028C96
:104E10008388048B48F6FF752C404FF6FF452C40E5
:104E20000D884FF6FF7606EA05252C434FF6DF7511
:104E30002A400D8906EA05152A434D8806EA05151C
:104E40002A43154DA84202D0144DA8421DD14FF659
:104E50007F752A404D894FF6FF7606EA05152A43ED
:104E60004FF6BF752A408D8806EA05152A434FF68E
:104E7000FF352B404FF2FF752B408D8906EA8505E3
:104E80002B43CD8906EA85052B4383800483CD8897
:104E90000587028470BD0000002C014000340140F1
:104EA00070B5002400220023058C4FF6FF663540C4
:104EB0000584028C8388848B4FF68F752C404FF6C7
:104EC000FC752C400D882C434FF6FF552A400D8968
:104ED0004FF6FF7606EA05252A434D8806EA0525A2
:104EE0002A43154DA84202D0144DA8421DD14FF2BD
:104EF000FF752A404D894FF6FF7606EA05252A43BD
:104F00004FF6FF352A408D8806EA05252A434EF6DE
:104F1000FF752B404DF6FF752B408D8906EA051570
:104F20002B43CD8906EA05152B4383808483CD88E6
:104F30008587028470BD0000002C014000340140D0
:104F400070B5002200230024058C4EF6FF76354014
:104F50000584038C8488828B48F6FF752A404FF6BF
:104F6000FF452A400D884FF6FF7606EA05252A43BD
:104F70004DF6FF752B400D8906EA05352B434D880C
:104F800006EA05352B430B4DA84202D00A4DA84234
:104F900008D14BF6FF752C408D894FF6FF7606EA57
:104FA00085152C4384808283CD88A0F840500384EB
:104FB00070BD0000002C0140003401408184704726
:104FC000028B4FF6F3731A400283028B0A4302836B
:104FD0007047028B4FF2FF331A400283028B4FF669
:104FE000FF7303EA01231A4302837047828B4FF653
:104FF000F3731A408283828B0A4382837047828BC9
:105000004FF2FF331A408283828B4FF6FF7303EA1D
:1050100001231A4382837047002202881D4B984265
:105020000ED01D4B98420BD0B0F1804F08D01B4BD7
:10503000984205D01A4B984202D01A4B984204D19C
:105040004FF68F731A404B881A43174B984207D07C
:10505000164B984204D04FF6FF431A40CB881A43B0
:1050600002808B8883850B8803850A4B98420BD07E
:10507000094B984208D00E4B984205D00D4B9842F0
:1050800002D00D4B984201D10B7A03860123838213
:1050900070470000002C0140003401400004004033
:1050A00000080040000C00400010004000140040C8
:1050B00000400140004401400048014000B587B075
:1050C00040F22551FE4800F054FE00287ED040F208
:1050D0002551FB4800F025FEF94800F005FFC0B25D
:1050E0000690F8480078F0B1F7480068401CF6498F
:1050F0000860F649F44A0698126888540698FD2814
:1051000006D10020EF490870EF490860FDF7ACFFB9
:10511000ED4800680A2804D10020EB490860E949FD
:10512000087007B000BD069861286ED035DC4228B3
:105130006CD01EDC34286AD00EDC312869D006DC45
:10514000002859D02C2850D030287DD1FEE33228B9
:105150007BD03328F9D1FAE3382877D004DC35281E
:1051600075D03728F1D1F3E3392871D04128ECD13B
:10517000EFE343380F2867D2DFE810F0D304F104DF
:105180002D056600290566000F0518052105250572
:105190006600310566003A05590562381928EAD2D9
:1051A000DFE800F0FEFD8FFC0DFBFAF952F8F7F690
:1051B000F5F49ED9F3157FF2F11CF0EFEE00FDF748
:1051C00007FDC3A1BE4801F037FC46E2DCE3FDF772
:1051D00075FDC3A1BA4801F02FFCF6E7FDF774FD99
:1051E000C2A1B74801F028FCEFE7FDF709FDC2A115
:1051F000B34801F021FCE8E70120B2490870002023
:10520000B1490860B1490870DFE7F1E0BDE3BDE3F3
:10521000FFE7BB488068019002F03EFAB94ABA4BFA
:10522000CDE9020101F0D8FCCDE9040101F0A2FCB6
:10523000B34988600020C86008468068039002F087
:105240002BFA02460B4604E0A1E309E0A0E3A0E349
:10525000A0E3CDE90401ADA1994801F0EDFBB4E76D
:10526000A7488068019002F017FAA64AA64BCDE93C
:10527000020102F027F9CDE9040101F07BFCA0490D
:1052800088600020C86008468068039002F004FA35
:1052900002460B46CDE904019CA1894801F0CCFBF4
:1052A00093E79E48007808B9012000E000209B4960
:1052B000087000209A49C8609AA1814801F0BCFB9F
:1052C00083E79C48007808B9012000E00020994954
:1052D00008700846027898A1794801F0ADFB74E7A0
:1052E00087480068019002F0D7F9864A864BCDE9DD
:1052F000020101F071FCCDE9040101F03BFC8049A1
:10530000086091480068019002F0C6F97D4A7E4B22
:10531000CDE9020102F0D6F8CDE9040101F02AFC42
:105320008949086076480068019002F0B5F9CDE936
:10533000040185480068019002F0AEF9CDE9020150
:10534000DDE90401CDE9000180A15D48DDE902232A
:1053500001F072FB39E76A480068019002F09CF99D
:10536000684A694BCDE9020102F0ACF8CDE90401CD
:1053700001F000FC6249086073480068019010E089
:1053800037E19CE26AE1BDE1C9E215E179E0D8E1EB
:10539000F8E137E217E265E072E252E280E092E182
:1053A00043E002F079F9574A574BCDE9020101F089
:1053B00013FCCDE9040101F0DDFB634908605048AE
:1053C0000068019002F068F9CDE904015E480068C8
:1053D000019002F061F9CDE90201DDE90401CDE9B6
:1053E00000015AA13648DDE9022301F025FBECE675
:1053F0005D4800880A305C490880081D00880A3032
:10540000091D0880081D00880A30091D0880081D34
:1054100000880A30091D088053480088024653A1BD
:105420000590274801F008FBCFE64F4800880A386E
:105430004D490880081D00880A38091D0880081D8C
:1054400000880A38091D0880081D00880A38091DCF
:10545000088045480088024644A10590184801F09C
:10546000EBFA00BF4FF402703F490880091D088025
:10547000091D0880091D08803FA1114801F0DCFAD0
:10548000F5E34FF4877038490880091D0880091D2D
:105490000880091D08803BA1094801F0CDFAE6E328
:1054A0003B48006802F0F8F83A4A3B4BCDE902016C
:1054B00001F092FBCDE9040101F05CFB34496DE0A1
:1054C000004C00401703002024000020740300203B
:1054D000737461727420666C79210D0A00000000FB
:1054E00073746F7020666C79210D0A00666C7920E8
:1054F00075702021210D0A004C414E44210D0A00F7
:10550000A80100207B14AE47E17A843F526F6C6C97
:105510005F5049442E693D25660D0A0016030020A0
:105520005002002053454E44206368616E67652138
:105530000D0A00001503002044656275673D2020B8
:1055400025640D0A00000000C40100207069746326
:10555000685F503D256620202020726F6C6C5F5084
:105560003D2566200D0A0000342C01404343523D86
:1055700025640D0A0000000048494748455354215E
:105580000D0A00004C4F57455354210D0A000000EE
:105590001C0100209A9999999999B93F0860084689
:1055A000006802F079F802460B46CDE90401FAA141
:1055B000FE4801F041FA5AE3FD48006802F06CF839
:1055C000FC4AFD4BCDE9020101F07CFFCDE904016D
:1055D00001F0D0FAF64908600846006802F05CF86D
:1055E00002460B46CDE90401EBA1F04801F024FA94
:1055F0003DE3F2488068019002F04EF8ED4AEE4B30
:10560000CDE9020101F05EFFCDE9040101F0B2FA3B
:10561000EA498860EA488068019002F03DF8E54A6E
:10562000E54BCDE9020101F04DFFCDE9040101F0A8
:10563000A1FAE34988600020E049C860E049C860F9
:10564000DE488068039002F027F802460B46CDE959
:105650000401DCA1D54801F0EFF908E3D7488068E0
:10566000019002F019F8D34AD34BCDE9020101F0C1
:10567000B3FACDE9040101F07DFAD0498860D04841
:105680008068019002F008F8CA4ACB4BCDE90201CC
:1056900001F0A2FACDE9040101F06CFAC849886072
:1056A0000020C649C860C649C860C44880680390E5
:1056B00001F0F2FF02460B46CDE90401C1A1BB484F
:1056C00001F0BAF9D3E2C4480068019001F0E4FFA8
:1056D000B84AB94BCDE9020101F07EFACDE90401E7
:1056E00001F048FABC49086008460068039001F0E0
:1056F000D3FF02460B46CDE90401B8A1AB4801F047
:105700009BF9B4E2B4480068019001F0C5FFA94AD2
:10571000A94BCDE9020101F0D5FECDE9040101F06C
:1057200029FAAD49086008460068039001F0B4FF0B
:1057300002460B46CDE90401A8A19C4801F07CF982
:1057400095E2A9488068019001F0A6FFA74AA84BFE
:10575000CDE9020101F040FACDE9040101F00AFAB5
:10576000A14988600020C86008468068039001F065
:1057700093FF02460B46CDE904019EA18B4801F040
:105780005BF974E298488068019001F085FF974AC0
:10579000974BCDE9020101F095FECDE9040101F03E
:1057A000E9F9914988600020C86008468068039044
:1057B00001F072FF02460B46CDE904018DA17B4842
:1057C00001F03AF953E288480068019001F064FF63
:1057D0008E4A8F4BCDE9020101F0FEF9CDE90401BB
:1057E00001F0C8F98049086008460068039001F09C
:1057F00053FF02460B46CDE9040186A16B4801F038
:105800001BF934E278480068019001F045FF7F4AB7
:105810007F4BCDE9020101F055FECDE9040101F015
:10582000A9F97149086008460068039001F034FF47
:1058300002460B46CDE9040176A15C4801F0FCF874
:1058400015E269484068019001F026FF594A5A4B19
:10585000CDE9020101F0C0F9CDE9040101F08AF9B6
:105860006149486008464068039001F015FF024610
:105870000B46CDE904016BA14C4801F0DDF8F6E1DF
:1058800059484068019001F007FF4A4A4A4BCDE968
:10589000020101F017FECDE9040101F06BF9524954
:1058A000486008464068039001F0F6FE02460B4649
:1058B000CDE904015BA13D4801F0BEF8D7E13F48C6
:1058C0000068019001F0E8FE3A4A3B4BCDE9020145
:1058D00001F0F8FDCDE9040101F04CF93749086009
:1058E00037480068019001F0D7FE324A324BCDE9CB
:1058F000020101F0E7FDCDE9040101F03BF9304977
:1059000008602E480068039001F0C6FE02460B4670
:10591000CDE9040149A1254801F08EF8A7E1274807
:105920000068019001F0B8FE224A234BCDE9020144
:1059300001F052F9CDE9040101F01CF91F4908609A
:105940001F480068019001F0A7FE03E0A5E083E096
:105950008BE0AAE0174A184BCDE9020101F03CF9AF
:10596000CDE9040101F006F9154908601348006803
:10597000039001F091FE02460B46CDE904012FA1F0
:105980000A4801F059F872E172E1ACE067E06DE1BC
:1059900073E067E079E00000726F6C6C5F746172B5
:1059A0006765743D25660D0A00000000004C00404C
:1059B0001C0100209A9999999999B93F18020020E1
:1059C000FC010020616E676C655F73706565645FE4
:1059D0006B693D25660D0A00340200207961775F0E
:1059E0004B503D25660D0A0088020020FCA9F1D22B
:1059F0004D62503F56656C6F636974795F504944DE
:105A00002E4B493D25660D0A000000007B14AE4771
:105A1000E17A843F565F5049442E4B503D25660D38
:105A20000A00000056656C6F636974795F504944E1
:105A30002E4B443D25660D0A00000000414E474CA8
:105A4000455F53504545445F585F5049442E4B5085
:105A50003D25660D0A000000FCF75AFC07E1FEF741
:105A6000EBF904E100F0D2FA01E1834883490860D0
:105A700083A1884800F0E0FFF9E000207F4908603A
:105A800085A1844800F0D8FFF1E000208749086034
:105A900087A1804800F0D0FFE9E089488349086089
:105AA00088A17C4800F0C8FFE1E08A48006801F066
:105AB000F3FD894A894BCDE9020101F003FDCDE9EF
:105AC000040101F057F8834908600846006801F0B6
:105AD000E3FD02460B46CDE90401AFF238116D48F3
