:020000040800F2
:1000000078120020B9020008412F0008B121000831
:100010003D2F00087D190008AB46000800000000D5
:1000200000000000000000000000000099320008FD
:10003000BB190008000000000531000885330008E6
:10004000D3020008D3020008D3020008D30200083C
:10005000D3020008D3020008D3020008D30200082C
:10006000D3020008D3020008D3020008D30200081C
:10007000D3020008D3020008D3020008D30200080C
:10008000D3020008D3020008D3020008D3020008FC
:10009000D3020008D3020008D3020008D3020008EC
:1000A000D3020008D3020008D3020008D3020008DC
:1000B000D3020008B1360008D3020008D3020008BA
:1000C000D3020008D3020008D3020008D3020008BC
:1000D000D3020008D3020008D3020008D3020008AC
:1000E000D3020008D3020008D3020008D30200089C
:1000F000D3020008D3020008D3020008D30200088C
:10010000D3020008D3020008D3020008D30200087B
:10011000253D0008D302000855370008D302000827
:10012000D3020008D3020008D3020008D30200085B
:1001300000F002F800F0B0F80AA090E8000C824449
:100140008344AAF10107DA4501D100F0A5F8AFF226
:10015000090EBAE80F0013F0010F18BFFB1A43F0A5
:100160000103184768640000886400000A444FF0E7
:10017000000C10F8013B13F0070408BF10F8014B06
:100180001D1108BF10F8015B641E05D010F8016B4B
:10019000641E01F8016BF9D113F0080F1EBF10F8AF
:1001A000014BAD1C0C1B09D16D1E58BF01F801CBD2
:1001B000FAD505E014F8016B01F8016B6D1EF9D555
:1001C0009142D6D37047000000230024002500266A
:1001D000103A28BF78C1FBD8520728BF30C148BFAA
:1001E0000B6070476E2900F04D81702900F09782F6
:1001F000662906F08A80652906F08780672906F05F
:1002000084806129AFF3008003681B0A28BF41F096
:100210008001692900F0FA80642900F0F7807529CF
:1002200000F0F4806F2900F02582782900F06382C5
:10023000E92900F0BF81E42900F0BC81F52900F034
:10024000B981EF2900F02282F82900F06282036868
:10025000DB0928BF41F08001632900F0E88573299C
:1002600000F0ED85E32900F0F885F32900F0FD8525
:10027000002070471FB500F04FFE04000020002151
:1002800004F02CFF401C60600020002104F010FFEF
:10029000E0601FBD10B510BD00F010FE1146FFF765
:1002A000E9FF04F045FE00F0E9FE03B4FFF7F2FFBA
:1002B00003BC00F02DFF00000948804709480047B3
:1002C000FEE7FEE7FEE7FEE7FEE7FEE7FEE7FEE706
:1002D000FEE7FEE704480549054A064B7047000063
:1002E00089330008310100087802002078120020CC
:1002F000780A0020780A00207CB51D4616460C00BE
:10030000009001D02044401E074B7B442A4669469A
:100310000190304600F0CFF805461CB10020694638
:1003200000F0DCF828467CBDD9010000704770471A
:10033000704710B500F0C2FA006810BD10B5044651
:1003400000F0BCFA046010BD70B504468569006811
:10035000C10601D5302600E02026C00707D070BDB9
:10036000D4E9012130469047206A401C20626D1E6E
:10037000F6D570BD70B5044685690078C00707D111
:1003800070BDD4E9012120209047206A401C2062E2
:100390006D1EF6D570BD09684A0501D540B270479B
:1003A000C905FCD500B2704709684A0501D5C0B23D
:1003B0007047C905FCD580B2704770B50C4605463C
:1003C000012A05D02878800600D5EA69002302E0DA
:1003D000012305E05B1C934202D2E05C0028F9D1C6
:1003E000A869E618C01AA861286A18442862284635
:1003F000FFF7AAFF04E0D5E9012114F8010B9047AB
:10040000B442F8D32846FFF7B5FF70BD2DE9F0419F
:100410000646002410687529314616A510D0FFF74E
:10042000BAFF002802DA404213A507E031688A07C4
:1004300001D512A502E0490704D511A5012401E068
:10044000FFF7B2FF00210A2206F1240709E0B0FB02
:10045000F2FCB0FBF2F302FB1C003030785418467B
:10046000491C0028F3D123462A463046BDE8F04116
:1004700000F06DBA000000002D0000002B0000000D
:100480002000000011680268006A530501D5087059
:100490000AE0D30501D5088006E0130603D5C2178C
:1004A000C1E9000200E008600120704701694A1CB0
:1004B00002610878704700B58FB0CDE901310021A5
:1004C000059105497944CDE903101146684600F0CD
:1004D00031F90FB000BD0000E5FFFFFF0A6802F828
:1004E000010B0A607047D1E900239A4202D2531CE3
:1004F0000B601070704700002DE9FF5F15468A46BB
:100500000446DFF8AC80F8440027D8E900103E46E6
:10051000CDE9001010E03AF816106A4602A800F083
:10052000A8FC411C07D02178890603D5E269391857
:1005300091420DD80744761C2078800602D5E069E8
:10054000B84205DDAE42E6DB3AF816000028E2D1FB
:10055000A069C01BA0612046FFF7F6FED8E9001095
:10056000CDE90010002017E03AF818106A4602A8FA
:1005700000F07FFCB0F1FF3F81460BD000250DF16C
:10058000080B05E0D4E901211BF8050090476D1C1C
:100590004D45F7D308F10100B0428046E4DB206A04
:1005A000384420622046FFF7E5FEBDE8FF9F0000CB
:1005B000465F00002DE9F0418046D21D22F007027F
:1005C0000025D2E90002F52915A614D0011E72F10A
:1005D000000106DA0023D0EB030063EB020211A650
:1005E00008E0D8F800108B0701D50FA602E04907F4
:1005F00001D50EA601251146002408F1240704E0C8
:1006000000F060F930323A55641C50EA0102F7D12B
:100610002B46324621464046BDE8F04100F097B9EE
:10062000000000002D0000002B0000002000000052
:1006300030B4002100F1240408E002F00705D208DC
:10064000303542EA4372DB086554491C52EA03051F
:10065000F3D10468002310A2250708D504F0200474
:100660000C4304D0C46901230CA2641EC46130BCD5
:1006700000F06DB910B5044621461068FFF794FEEE
:1006800002462046BDE810400023D1E7D21D22F0EB
:100690000701D1E90023CBE7000000003000000093
:1006A000F0B40D460188090502D5214C7C4402E0D6
:1006B0001F4C7C440E34002100F1240608E002F0B7
:1006C0000F071209E75D42EA03721B097754491CC0
:1006D00052EA0307F3D102780023120704D5702DE4
:1006E00006D009B1022311342246F0BC00F02FB924
:1006F00001231034F8E770B504460D462146106812
:10070000FFF752FE024629462046BDE8704000230E
:10071000C6E7D21D22F00703D3E90023C0E7036830
:10072000126843F0200303600823C3610023B7E786
:10073000A85D00002DE9F05F894604464FF0000AED
:10074000DFF874B1FB44C0F820A02046E168884778
:10075000002874D0252806D0D4E901219047206ACA
:10076000401C2062F1E700265F462046E16888478A
:100770002028054607DB312D05D2781910F8200C0A
:1007800008B10643F1E7B00701D526F00406C4F826
:100790001CA00027C4F818A02A2D09D0284604F070
:1007A00087F838B304EB8708303DC8F8185019E0D3
:1007B00059F8041B204604EB87029161E1688847E1
:1007C000012F054618D1E069002820DA26F020061E
:1007D0001DE0D8F8180000EB800005EB4000303831
:1007E000C8F818002046E1688847054604F060F81C
:1007F0000028EED1012F0AD02E2D08D12046E16825
:1008000088477F1C0546022F46F02006C4DBA069FE
:10081000002803DA404246F00106A061F00701D04B
:1008200026F010066C2D0BD0682D09D04C2D39D038
:100830006A2D35D0742D35D07A2D33D016E038E0BE
:10084000E1682F4620468847B842054609D16C2FFB
:1008500026D04FF48060E16806432046884705466D
:1008600004E06C2F1AD04FF4807006430DB3A5F14D
:100870004100192802D8203546F400664A46294628
:10088000204626604E46FFF7ADFC80B101280BD014
:10089000F61D26F0070000F1080956E74020E4E7BE
:1008A0008020D8E70020D6E706F104094DE7284666
:1008B00052E7206ABDE8F09F385D000000487047AD
:1008C0001402002030B5B0F10A024FEA900E71F127
:1008D00000034EEA817EB0EB0E0061EB91014FEA1E
:1008E000101E4EEA017E10EB0E0041EB11114FEA93
:1008F000102E4EEA016E10EB0E0041EB11214FEA73
:10090000104E4EEA014E10EB0E0041EB1141401823
:1009100041F100014FEAD00040EA41704FEAD101B5
:1009200010EB80054FEA810444EA907444EB010423
:100930006D1944EB0404521BA3414FF0000348BF60
:100940000A3200D530BD401C41F1000130BD2DE917
:10095000F0470D4699469246044600F12408016886
:10096000880604D5E06921F01001216000E0012033
:10097000A84201DD471B00E00027A1697A1902EBBC
:100980000900081AA0612078C00602D42046FFF7AB
:10099000DBFC002608E0D4E901211AF806009047A4
:1009A000206A401C761C20624E45F4DB2078C0068D
:1009B0000AD52046FFF7C8FC06E0D4E90121302023
:1009C0009047206A401C2062381EA7F10107F4DC22
:1009D00007E0D4E9012118F805009047206A401C7F
:1009E0002062281EA5F10105F3DC2046FFF7C2FCBA
:1009F0002078000602D50220BDE8F0870120FBE741
:100A000070472DE9FF4F0C461E464FF0FF378BB065
:100A1000D2E90001DDF860800A908A46C1F30A55E8
:100A200005B93D46002108464FF00000BAF1000F1D
:100A300000F4400005DA00EB80004FF4400101EAC9
:100A400050004FEA9059B9F1010F00DDB9460A98FC
:100A500050EA4A000ED044F61050A5F2FF35454347
:100A60002F14B8F1000F1ED07542291E1EDDC9F1EA
:100A700000021CE0B8F1010F4FF0000001D030215E
:100A800003E0F24305E02154401CB042FBDB30465A
:100A90000022002121540B99C1F80880C1E90020EF
:100AA0000FB0BDE8F08FBD1B6D1CDEE74A4600DAD3
:100AB000694206A800F074FA06AB93E8070003AB9E
:100AC00083E8070050460A9900F029FB8DE80700EB
:100AD000A0F500501F3800900398002D09DD42F268
:100AE0001F014A46084403A90390684600F088FDA8
:100AF00008E0A0F500504A461F3803A90390684655
:100B000000F092FD8DE807000004000C03D04FF0C8
:100B1000FF30410800E01046B8F1000F03D000227A
:100B2000009215461EE0751E05D4FFF7CBFE30324D
:100B300062556D1EF9D5B3460122084302D000224A
:100B40007F1C04E02078302801D100227F1E002A7B
:100B5000099786D01DE0112D07DAFFF7B3FE30327A
:100B600062556D1C50EA0102F5D1084302D000988D
:100B7000C8B10EE00021681E05E0235C625C63548E
:100B80002254401E491C8142F7DBAB46A81B401E85
:100B90000990002004F80B000B98099AC0F808800F
:100BA000C0E9002B7CE711264FF0000859E72DE93A
:100BB000F04F88460446D21D22F0070191B0D1E9DA
:100BC0000001CDE90A0103F0F7FD02460B98C00FC2
:100BD00001D02D2007E02068810701D52B2002E0FD
:100BE000202101EAC000032A099001D0072A05DB71
:100BF00003464146204600F093F90BE12078800639
:100C000001D5E06900E00620B8F1650F814606D005
:100C1000B8F1660F18D0B8F1670F70D131E000203D
:100C2000B9F1110F009001DB112301E009F101037B
:100C30000AAA01A90CA8FFF7E4FEDDE90C70002662
:100C400009F10105834647E001204B4600904FF033
:100C500000470AAA01A90CA8FFF7D3FEDDE90DB0F1
:100C60000C995D46002610B909F101000D18B9EB89
:100C7000050003D4C0F1FF3609F10105A5EB090019
:100C80002BE0B9F1010F01DA4FF001090020B9F1B1
:100C9000110F0090484601DD112300E003460AAA27
:100CA00001A90CA8FFF7ADFEDDE90C704D4600264A
:100CB0008346207800070AD4AB4500DA5D4601A8D8
:100CC000012D04DD411911F8011C302907D04F45D1
:100CD00002DA17F1040F04DA012082460FE06D1EDC
:100CE000EEE7002F02DCED1B3E4403E0781CA84237
:100CF00000DD7D1CB81B00F1010A4FF00047207891
:100D0000000703D4AA4501DB4FF0FF3A0021B7F1F9
:100D1000004F0DF143088DF8431024D002202B23FF
:100D2000002F01DA7F422D230A21021EA0F10100CB
:100D300000DC5FB197FBF1FC97FBF1F201FB1C7C3F
:100D400017460CF1300C08F801CDEEE7A8F10100D0
:100D500003702188090501D5452100E06521A0F136
:100D6000010800F8011C09980FA9A1EB0807FF1D55
:100D700000B10120411901EBEA70A1693844081A59
:100D8000401EA0612078C00602D42046FFF7DCFA9E
:100D9000099828B1D4E901219047206A401C2062BB
:100DA0002078C00622D52046FFF7CEFA1EE0002E9E
:100DB00004DBB34502DD01A8805D00E03020D4E90A
:100DC00001219047206A401C2062761CAAF1010094
:100DD0005FEA000A0AD100F09FF8C0680168405C31
:100DE000D4E901219047206A401C2062281EA5F109
:100DF0000105DCDC07E0D4E9012118F8010B90477C
:100E0000206A401C2062381EA7F10107F3DC20464F
:100E1000FFF7B0FA032011B043E610B5436913B1F0
:100E2000AFF3008001E0FFF7C8FA012010BD12788F
:100E300000F124010A7000224A700122EDE71168D6
:100E40004FF0FF32E9E710B5436913B1AFF300800B
:100E500001E0FFF751FB012010BD128800F12401D1
:100E600082840022C2840122EDE711684FF0FF3234
:100E7000E9E770B516460C46054600F045F80368EC
:100E800093F80101012806D0FF2C0FD8185D68B136
:100E900001202C7070BDD3F807013246214603F2C1
:100EA000071303442846BDE8704018474FF0FF3051
:100EB00070BD000000487047140200207546FFF71F
:100EC000F9FFAE4605006946534620F00700854607
:100ED00018B020B5FFF7FEF9BDE820404FF000063E
:100EE0004FF000074FF000084FF0000B21F0070112
:100EF000AC46ACE8C009ACE8C009ACE8C009ACE855
:100F0000C0098D467047000010B500F005F8001DBF
:100F100010BD00BFC94100000048704734020020E6
:100F20002DE9F0411F46044603260168072A01F413
:100F3000006004DB08B116A505E016A503E008B1C2
:100F400015A500E015A521F010002060A069C01EC5
:100F5000A0610FB1401EA0612046FFF7F5F94FB127
:100F6000D4E9012138469047206A401C2062C01C09
:100F7000206206E0206AFAE7D4E9012115F8010BA6
:100F80009047761EF8D22046FFF7F4F9BDE8F081CD
:100F90004E414E006E616E00494E4600696E66001D
:100FA0002DE9F047814616468AB0334878440DC88B
:100FB0008DE80D0030487844801C03AC0DC884E8EF
:100FC0000D0041F69B300844372190FBF1F290FB75
:100FD000F1F5A5F1800501FB12041B3C02D564422A
:100FE000012000E00020DFF890A080460027FA44AE
:100FF000AAF1BE0A0DE0E00709D03246684607EBC9
:1010000047010AEB810100F00FFB8DE80700641037
:101010007F1C002CEFD1184F7F44AC3F18E0E8074D
:1010200014D007EB04100DF1180A90E80E008AE8BE
:101030000E00C068F04201D198190890324606A906
:1010400003A800F0F1FA03AB83E807006D10641CFD
:10105000002DE4D132466946B8F1000F03A802D052
:1010600000F0CEFA01E000F0DFFAC9E90001C9F8AA
:1010700008200AB0BDE8F0870456000010B5044609
:10108000AFF300802046BDE81040FFF70EB9000026
:101090004FF0013C50F8042B51F8043B9A4221D107
:1010A000A2EB0C03934313EACC1317D150F8042B93
:1010B00051F8043B9A4215D1A2EB0C03934313EA77
:1010C000CC130BD150F8042B51F8043B9A4209D1B0
:1010D000A2EB0C03934313EACC13DBD04FF00000D8
:1010E000704700BFD01A01BAB1FA81F101F01801BE
:1010F00022FA01F0CB40C1F12001DBB2C0B2C01A2C
:101100002CFA01F3D11A914311EAC311E6D17047C9
:1011100001491820ABBEFEE72600020070475FEAD7
:10112000400C08BF91F0000F4FEA8C234FEAC12218
:1011300043EA51514FEA1C5018BF00F5F0404FEA06
:10114000300018BF41F000415FEA6C5C00F029807C
:10115000BCF1FF3F08BF40F080407047130C06BF52
:1011600012044FF0100C4FF0000C130E04BF1202CB
:101170000CF1080C130F04BF12010CF1040C930FB7
:1011800004BF92000CF1020CD30F04BF52000CF10B
:10119000010C11464FF00002A0F11F00A0EB0C0063
:1011A000704711F0004F08BF704731F000413FF425
:1011B000D5AF0B0C06BF09044FF0100C4FF0000C1C
:1011C0000B0E04BF09020CF1080C0B0F04BF090140
:1011D0000CF1040C8B0F04BF89000CF1020CCB0F37
:1011E00004BF49000CF1010CCCF12003A0EB0C0072
:1011F00022FA03F302FA0CF241EA030100F10100C2
:10120000704720F07F4C80EA030023F07F47ACEB6F
:10121000070303F57C5300F0004003F1FF032DE9C1
:1012200080494FEA154B09B44FEA144325EA0B4EA7
:1012300024EA03480FF2042606EB132749083E78F8
:101240005FEA320203FB0667C7F5000707FB06F6F5
:101250004FEA54374FEAD64606F1020607FB066C02
:10126000CCF1005C4FEA1C472CEA074C07FB06F464
:101270000CFB06F504EB15464FEA961634BF00202A
:101280004FF000404FEAD13706FB07FC4FEA1C4CF9
:101290000CFB0BF7D21B03FB0CF761EB07010CFBFC
:1012A0000EF7B0EB074072EB17420CFB08F734BFA8
:1012B000A2EB0742B2EB074261EB17414FEA0C4445
:1012C0004FEA910706FB07FC4FEA1C4C0CFB0BF79F
:1012D000B0EBC74072EB573203FB0CF734BFA2EB05
:1012E000C742B2EBC74261EB57310CFB0EF7B0EBD4
:1012F000C70072EB57720CFB08F734BFA2EBC702B2
:10130000B2EBC70261EB5771039F4FEA816141EA7B
:10131000921104EBCC044FEAD1374FEA826206FB0C
:1013200007FC42EA90124FEA80604FEA1C4C0CFB2B
:101330000BF7D21B03FB0CF761EB07010CFB0EF75D
:10134000B0EB074072EB17420CFB08F734BFA2EB7F
:101350000742B2EB074261EB17414FEA8C554FEA67
:10136000910704EB9C2406FB07FC4FEA1C4C0CFB8A
:101370000BF7B0EBC74072EB573203FB0CF734BFEF
:10138000A2EBC742B2EBC74261EB57310CFB0EF741
:10139000B0EBC70072EB57720CFB08F734BFA2EB3F
:1013A000C702B2EBC70261EB577115EB4C254FEA50
:1013B000816141EA92114FEA82624FEAD13742EAF3
:1013C000901206FB07FC44F100044FEA80604FEAEC
:1013D0001C4C0CFB0BF7D21B03FB0CF761EB07015A
:1013E0000CFB0EF7B0EB074072EB17420CFB08F753
:1013F00034BFA2EB0742B2EB074261EB174115EB9A
:101400001C154FEA813141EA92414FEA823242EAA9
:1014100090424FEA80304FEA0C7644F1000448EAEB
:1014200003434EEA0B484FF0000EB2EB080C71EB91
:10143000030724BF624639464EEB0E0E4FF0000BF9
:101440000018524149414BEB0B0BB2EB080C71EB0E
:1014500003077BF1000B24BF624639464EEB0E0EAC
:101460004FF0000B0018524149414BEB0B0BB2EB14
:10147000080C71EB03077BF1000B24BF6246394671
:101480004EEB0E0E51EA020718BF46F0010616EBAE
:101490000E7655F1000254F1000103D5BDE8890133
:1014A000BDE80088BDE88901BDE80048B619524191
:1014B00041EB0101A3F10103704780807F7E7D7CB9
:1014C0007B7A7978777676757473727171706F6ED6
:1014D0006E6D6C6C6B6A6A69686867666665646481
:1014E000636362616160605F5F5E5E5D5D5C5C5B0B
:1014F0005B5A5A595958585757565655555554547A
:10150000535352525251515050504F4F4F4E4E4DD7
:101510004D4D4C4C4C4B4B4B4A4A4A494949484823
:101520004847474747464646454545444444444363
:1015300043434342424242414141002B26D477007B
:1015400021D01CB54FEA370703B44FF010004FF01D
:1015500010014FF000000FBCBDE810400BF1010B73
:10156000BBF1010F08BF5FEA170722BF12F10102AA
:1015700011F101014FF0004143F1000300F0004080
:1015800043EA00007047F9D35708DAE746EA06460F
:1015900013F1400F4FEA16461FDD13F1200FDFBF96
:1015A00016430A46002120335B42C8D0C3F120070E
:1015B00046EA064602FA07F74FEA164646EA0706E3
:1015C000C3F1200722FA03F201FA07F721FA03F127
:1015D0004FF0000342EA0702B1E746EA020646EA94
:1015E00006464FEA164646EA0106BCBF46EA0646EC
:1015F000360C4FF000034FF000024FF000019EE761
:101600002DE9C048934630B491E8380007C831EA64
:10161000400C48BF34EA430C03D5FFF7F2FDFFF757
:101620008CFFF0BCBDE800882DE9C048934630B47B
:1016300091E8380007C810F0804F08BF13F0804FC2
:1016400003D100F005F8FFF778FFF0BCBDE8008893
:1016500020F07F4780EA030023F07F4C07EB0C0368
:10166000A3F57C5300F00040A3F1FE0392F0000FBD
:1016700000F0B38095F0000F00F077802DE901496C
:101680004FEA11404FEA144621EA004800FB06FCED
:1016900024EA064708FB06F607FB08F800FB07F7F5
:1016A00018EB06484CEB164C4FEA124B18EB074868
:1016B0004FEA15464CEB174022EA0B4E0BFB06FC9B
:1016C00025EA06470EFB06F607FB0EFE0BFB07F7A7
:1016D0001EEB064E4CEB164C4FF000061EEB074E71
:1016E0004CEB174B18EB0B0840F1000018EB0E0BFE
:1016F00058EB000840F100008F1A4FF000013CBF8A
:10170000C943661B14BFB5EB040C00213CBFC943A1
:10171000F61B4FEA17444EEA8E0E27EA04454FEABD
:101720001C4704FB07622CEA074C05FB07F70CFB80
:1017300005F604FB0CFC16EB074642EB174216EBD2
:101740000C4642EB1C421BEB060658EB02024141E1
:1017500046EA9E0601D5BDE80189B619524141EB22
:101760000101A3F10103BDE801894FEA14454FEAE5
:10177000114724EA054621EA074C05FB07F406FB5E
:1017800007F70CFB06F105FB0CFC11EB074144EBE2
:1017900017444FEA124711EB0C4144EB1C4422EA78
:1017A000074C05FB07F206FB07F70CFB06F605FBEB
:1017B0000CFC16EB074642EB174216EB0C4642EBCD
:1017C0001C456A1854F1000148BF7047B6195241D0
:1017D00041EB0101A3F10103704795F0000F37D0F1
:1017E0004FEA11424FEA144721EA024624EA074C25
:1017F00002FB07F106FB07F70CFB06F402FB0CFCEF
:1018000014EB074441EB17414FEA154714EB0C4426
:1018100041EB1C4125EA074C02FB07F506FB07F7E5
:101820000CFB06F602FB0CFC16EB074645EB1745D6
:1018300016EB0C4645EB1C42121951F1000148BF52
:101840007047B619524141EB0101A3F10103704702
:101850004FEA14454FEA114724EA054621EA074CAE
:1018600005FB07F106FB07F70CFB06F24FF000063D
:1018700005FB0CFC12EB074241EB174112EB0C424B
:1018800051EB1C4148BF7047921841EB0101A3F195
:101890000103704700B589B00121084601F034FC0E
:1018A00001210D2001F050FC40F60840ADF8040085
:1018B00018208DF8070003208DF8060001A92B4899
:1018C00000F056FA4FF40040ADF8040001A9284892
:1018D00000F04EFA0121274800F0D6FA01212648EF
:1018E00000F0D2FA0020ADF81800ADF81A0040F66A
:1018F000FF70ADF81C000020ADF81E008DF8200030
:1019000006A94FF0804002F0BBF96020ADF8080056
:101910000120ADF80A000420ADF80C000020ADF85D
:101920000E00ADF810000820ADF812004001ADF82F
:1019300014000020ADF8160002A94FF0804002F01C
:1019400031F802A94FF0804002F082F802A94FF06E
:10195000804002F0CFF802A94FF0804002F01AF95F
:101960000121880701F09DFF09B000BD000C014076
:1019700000080140000318000002300000BFFEE72D
:1019800030B502460B464FF6FF70002112E0555C61
:10199000684000240AE000F0010525B14AF2010583
:1019A00085EA600000E04010651CECB2082CF2DB18
:1019B0004D1CE9B29942EADB30BD70472DE9F04198
:1019C000C9480078002850D101F072FA0746C7498B
:1019D00004F028FB0646C64904F0DAF9054604F08F
:1019E000B5FA84B221464FF0804002F011F9002090
:1019F00001F05EFA0746BD4904F014FB0646BC49F7
:101A000004F0C6F9054604F0A1FA84B221464FF06D
:101A1000804002F0FFF8002001F04AFA0746B3497F
:101A200004F000FB0646B24904F0B2F9054604F0A2
:101A30008DFA84B221464FF0804002F0EDF800208C
:101A400001F036FA0746A94904F0ECFA0646A8491F
:101A500004F09EF9054604F079FA84B221464FF06D
:101A6000804002F0DBF8BDE8F081A2480268A2489D
:101A70000168A24801F00CFBA1490860A149A048F7
:101A8000006804F09BFB03D29E489D49086008E073
:101A90009D499B48006804F091FA02D29A489849FF
:101AA00008609A4903C903F02FFB04462246984870
:101AB0000168984801F0ECFA974908609749964800
:101AC000006804F07BFB03D294489349086008E067
:101AD00093499148006804F071FA02D290488E4907
:101AE0000860904802688C4801688F4801F0D0FA7D
:101AF0008E4908608E4903C903F006FB044622465E
:101B00008C4801688C4801F0C3FA8C49086083490D
:101B10008A48006804F052FB03D280488749086075
:101B200008E07F498548006804F048FA02D27C4802
:101B3000824908608248026880480168814801F053
:101B4000A7FA81490860814800210268804801F0B5
:101B50009FFA804908607548006880F000487A481C
:101B60000168404604F0A6F807467A4801683846FE
:101B700004F0A0F8064678480168304604F09AF868
:101B80000546764904F096F804465D48016820460B
:101B900004F090F8724908606448006880F00047DB
:101BA00069480168384604F03BFB0646694801680D
:101BB000304604F035FB054667480168284604F0C6
:101BC00079F804464E480168204604F073F86549E8
:101BD00008605D4801685548006804F021FB06462E
:101BE0005C480168304604F065F805465A480168CB
:101BF000284604F05FF8044641480168204604F096
:101C000059F859490860504801684848006804F08C
:101C100051F806464F480168304604F001FB05467E
:101C20004D480168284604F045F8044634480168E8
:101C3000204604F03FF84D4908604948006801F02B
:101C400037F90746294904F0EDF90646284904F01A
:101C50009FF8054604F07AF984B221464FF080409F
:101C600001F0D6FF3F48006801F022F907461F49FE
:101C700004F0D8F906461E4904F08AF8054604F037
:101C800065F984B221464FF0804001F0C3FF364829
:101C9000006801F00DF90746144904F0C3F906463F
:101CA000134904F075F8054604F050F984B2214652
:101CB0004FF0804001F0B0FF2C48006801F0F8F8C8
:101CC00007460A4904F0AEF90646094904F060F8EF
:101CD000054604F03BF984B221464FF0804001F004
:101CE0009DFF00BFBFE60000DC00002000F07F4544
:101CF0000000C842E0010020C0000020B801002020
:101D0000D000002000004842000048C2A00000208F
:101D1000B80000202C010020D80000200000A041C5
:101D20000000A0C13400002080010020C400002079
:101D300098000020B400002048010020D4000020BA
:101D40003800002064010020C80000203C00002072
:101D50009C010020CC000020E00000200000E040BA
:101D6000E4000020E8000020EC000020F00000204B
:101D70002DE9F04102460025002600200023002422
:101D8000002791F803C00CF00F0591F803C00CF088
:101D9000100CBCF1000F03D091F802C04CEA05050D
:101DA00091F800C0BCF1000F31D0146800202BE086
:101DB0004FF0010C0CFA00F3B1F800C00CEA030676
:101DC0009E4220D183004FF00F0C0CFA03F7BC4366
:101DD00005FA03FC4CEA040491F803C0BCF1280F97
:101DE00006D14FF0010C0CFA00FCC2F814C00AE056
:101DF00091F803C0BCF1480F05D14FF0010C0CFA6B
:101E000000FCC2F810C0401C0828D1D31460B1F8FF
:101E100000C0BCF1FF0F34DD546800202EE000F15B
:101E2000080C4FF0010808FA0CF3B1F800C00CEAF6
:101E300003069E4221D183004FF00F0C0CFA03F7EA
:101E4000BC4305FA03FC4CEA040491F803C0BCF15E
:101E5000280F05D100F1080C08FA0CF8C2F814801C
:101E600091F803C0BCF1480F07D100F1080C4FF006
:101E7000010808FA0CF8C2F81080401C0828CED3DC
:101E80005460BDE8F0810000F0B50A46002300244C
:101E90000021002500F00046B6F1004F02D11D4E92
:101EA000F16901E01B4E7168C0F3034583B200F491
:101EB0004016B6F5401F08D121F07061154E7668C6
:101EC00026F07066134F7E6012E000F48016B6F5BF
:101ED000801F06D1032606FA05F4A14341F0706184
:101EE00006E0460D360103FA06F6B14341F0706193
:101EF00022B1460D360103FA06F6314300F00046E2
:101F0000B6F1004F02D1034EF16101E0014E716064
:101F1000F0BD000000000140416170470161704761
:101F20002DE9F05F01233B22D021354800F03EFA35
:101F30003449088001233D22D021314800F036FA8F
:101F40003149088001233F22D0212D4800F02EFA8C
:101F50002E4908802B48B0F9000004F017F883469A
:101F60004FF0804104F05EF8824603F077FE804631
:101F7000274A284B03F062FB06460022264B03F05B
:101F8000B1F9044603F0C0F8244908601E48B0F9CE
:101F9000000003F0FBFF83464FF0804104F042F85D
:101FA000824603F05BFE8046194A1A4B03F046FB5B
:101FB00006460022184B03F095F9044603F0A4F8F6
:101FC000174908601148B0F9000003F0DFFF8346AD
:101FD0004FF0804104F026F8824603F03FFE0646AB
:101FE0000B4A0C4B03F02AFB044600220A4B03F079
:101FF00079F9804603F088F80A490860BDE8F09F47
:102000000054004026000020280000202A00002064
:102010009A999999999923400000E0404000002046
:1020200044000020480000202DE9F05F01234322F6
:10203000D021344800F0BAF9334908800123452201
:10204000D021304800F0B2F93049088001234722FE
:10205000D0212C4800F0AAF92D4908802A48B0F96F
:10206000000003F093FF83462A4903F0DBFF82461A
:1020700003F0F4FD80460022274B03F033F90646B7
:10208000264A274B03F02EF9044603F03DF8254974
:1020900008601E48B0F9000003F078FF83461D4930
:1020A00003F0C0FF824603F0D9FD804600221A4BA0
:1020B00003F018F90646194A194B03F013F90446C0
:1020C00003F022F8184908601148B0F9000003F045
:1020D0005DFF83460F4903F0A5FF824603F0BEFD76
:1020E000064600220C4B03F0FDF804460B4A0C4B4D
:1020F00003F0F8F8804603F007F80C490860BDE8E3
:10210000F09F00000054004020000020220000202A
:10211000240000200000FA430000E040295C8FC248
:10212000F5A84C4034000020380000203C0000207E
:102130002DE9FF471748006803F02CFA0022164BE0
:10214000CDE9000103F07AFA06460022134B03F0B2
:1021500075FA04460022124B03F0C4F880460022B0
:102160004FF0804303F0BEF8CDE9020102F0CCFF4E
:1021700082460C49504603F021FF02D20A48C0F8BB
:1021800000A009480168094800F058FE06490860A7
:10219000BDE8FF87FC0100200000E03F009AE0401E
:1021A00080842E4100009643E0010020E4010020DD
:1021B00000BFFEE721B1028842F48062028004E0A1
:1021C00002884FF6FF331A40028070472DE9F04134
:1021D0000746884614461E46069D00BF4FF4003150
:1021E000384600F057F90028F8D10121384600F0B0
:1021F00039F900BF2C49384600F09AF80028F9D088
:1022000000224146384600F01DFA00BF27493846F3
:1022100000F08EF80028F9D00121384600F09DF832
:102220003146384600F017FA00BF2049891C38466D
:1022300000F07EF80028F8D00121384600F012F9AD
:1022400000BF1949384600F073F80028F9D0012280
:102250004146384600F0F6F900BF1349491C38469C
:1022600000F066F80028F8D016E0012D07D1002113
:102270003846FFF79FFF0121384600F0FFF80A4972
:102280003F31384600F054F830B1384600F0D6F906
:102290002070641C681E85B2002DE6D101213846ED
:1022A000FFF788FFBDE8F08101000300820007000E
:1022B0002DE9F04106460F4614461D4601213046E1
:1022C00000F0D0F800BF1849304600F031F800287F
:1022D000F9D000223946304600F0B4F900BF134966
:1022E000304600F025F80028F9D02946304600F0A5
:1022F000B2F900BF0D49891C304600F019F80028DA
:10230000F8D02146304600F0A6F900BF0749891CE5
:10231000304600F00DF80028F8D00121304600F0DA
:10232000ADF8BDE8F0810000010003008200070065
:1023300070B502460024002500230020958A138BE7
:102340001B0445EA030626F07F4404EA01068E4298
:1023500001D1012000E0002070BD21B1028842F0CF
:102360000102028004E002884FF6FE731A400280E8
:102370007047000010B504460B48844209D1012182
:10238000480500F0D1FE00214FF4001000F0CCFE13
:1023900008E00121880500F0C7FE00214FF480000D
:1023A00000F0C2FE10BD0000005400402DE9FC41C9
:1023B00006460F4614461D460220234601AA39460A
:1023C00000903046FFF702FF012D08D19DF805006F
:1023D0009DF8041000EB012000B2BDE8FC819DF8DF
:1023E00004009DF8051040EA012000B2F5E7000066
:1023F00070B506461948864202D1C414051501E09D
:10240000802440250DE029461548FFF787FD0A2066
:1024100002F070FD29461248FFF77EFD0A2002F007
:1024200069FD0F480C30006820400028EBD0294699
:102430000B48FFF773FD21460948FFF76DFD0A20A1
:1024400002F058FD21460648FFF768FD0A2002F019
:1024500051FD0121304600F000F970BD00580040E8
:10246000000C014021B1028842F48072028004E035
:1024700002884FF6FF631A400280704721B102883C
:1024800042F40072028004E002884FF6FF531A40C3
:10249000028070470CB50246002000230193009390
:1024A00000920B0F019321F07F41019B1BB1009B18
:1024B0001433009303E0090C009B18330093009B36
:1024C0001B680B400BB1012000E000200CBD1AB1CD
:1024D00083880B43838002E083888B43838070472B
:1024E0002DE9F04385B004460D460026B146042789
:1024F000DFF8CC80A6884FF6C0700640684600F032
:1025000033FEDDF808802F48B8FBF0F01FFA80F9A1
:1025100046EA0906A68020884FF6FE710840208012
:1025200000262949286888420CD828684000B8FB52
:10253000F0F087B2042F00DA04273E4309F10100CE
:10254000208427E0E8884BF6FF71884206D128688E
:1025500000EB4000B8FBF0F087B209E0286800EB20
:10256000C00101EB0010B8FBF0F087B247F48047E0
:10257000C7F30B0008B947F0010747F400400643D2
:102580004FF4967009FB00F04FF47A7190FBF1F074
:10259000401C2084A683208840F0010020802688EB
:1025A0004FF6F5300640A88869890843064326801F
:1025B000A88929890843208105B0BDE8F08300007F
:1025C00000127A0040420F00A086010038B5044690
:1025D0000A48844204D14FF44060ADF8000002E0A4
:1025E000C020ADF8000003208DF802001C208DF8FB
:1025F000030069460248FFF7BBFB38BD00580040A6
:10260000000C014038B504460A48844204D14FF416
:102610004060ADF8000002E0C020ADF800000320EB
:102620008DF8020014208DF8030069460248FFF778
:102630009FFB38BD00580040000C01400146088A4D
:10264000C0B2704712B141F0010102E04FF6FE73D3
:102650001940018270470182704721B1028842F41B
:102660000042028003E00288C2F30E02028070473B
:1026700010B586B004462D48844204D10121880556
:1026800000F042FD03E00121480500F03DFD01217D
:10269000082000F059FD2548844204D14FF44060E1
:1026A000ADF8140002E0C020ADF8140003208DF84E
:1026B00016001C208DF8170005A91D48FFF758FBD0
:1026C0000020ADF808004BF6FF70ADF80A000020BE
:1026D000ADF80C004FF48060ADF80E000001ADF8CD
:1026E0001000144801902046FFF744FE01A920463F
:1026F000FFF7F6FE01212046FFF72FFE01224FF4DF
:10270000C0612046FFF7E3FE4FF400312046FFF79B
:10271000C1FE28B12046FFF775FF2046FFF768FE8F
:102720002046FFF753FF06B010BD000000580040E0
:10273000000C0140A08601000FB5A3B0FE4801685F
:10274000006803F06FFC1D90FC480168FA480068BF
:1027500003F068FC1C90FA480168F748006803F031
:1027600061FC1B90F5480168006803F05BFC1A905F
:10277000F4480168F148006803F054FC1990F048EF
:102780000168006803F04EFC1890EE480168EC48C0
:10279000006803F047FC1790EA480168006803F0FE
:1027A00041FC1690E6480168E448006803F03AFCF2
:1027B0001590E4480168E048006803F033FC149089
:1027C0002599084603F02EFC08902499084603F04A
:1027D00029FC06902399084603F024FC05900699ED
:1027E00003F068FA0790089903F064FA099003F07F
:1027F00035FACDE90A0102F007FCCDE90C0102F03F
:1028000083FC2190219803F029FACF4ACF4BCDE9E0
:102810000C0102F0D7FE01D227B000BD2199239808
:1028200003F0B6FA23902199249803F0B1FA24908A
:102830002199259803F0ACFA25901B99199803F07B
:10284000EFFC4FF080410D9003F0ECFB20901799C6
:102850001C9803F02FFA4FF080410D9003F0E2FB3B
:102860001F901A991D9803F0DBFC0C90189903F047
:10287000D7FC0D90169903F01DFA1E901F9925980C
:1028800003F0D0FB0D901E99249803F0CBFB0C9025
:102890000D9903F0C5FC13901E99239803F0C2FB19
:1028A0000D902099259803F0BDFB0C900D9903F035
:1028B000B7FC12902099249803F0B4FB0D901F9957
:1028C000239803F0AFFB0C900D9903F0A9FC119035
:1028D0009F480168139803F0A5FB059003F0BEF92B
:1028E0009C4A9D4BCDE9060102F0A8FECDE90A0104
:1028F000109803F0B3F9CDE90801DDE90A2302F0ED
:1029000035FCCDE90C0102F0FFFB10909048016806
:10291000129803F087FB059003F0A0F98D4A8E4BC7
:10292000CDE9060102F08AFECDE90A010F9803F015
:1029300095F9CDE90801DDE90A2302F017FCCDE99C
:102940000C0102F0E1FB0F9081480168119803F03F
:1029500069FB059003F082F97E4A7F4BCDE90601C1
:1029600002F06CFECDE90A010E9803F077F9CDE98B
:102970000801DDE90A2302F0F9FBCDE90C0102F0C0
:10298000C3FB0E9075480168139803F04BFB0C9045
:10299000109903F08FF90D90269903F08BF926908A
:1029A0006E480168129803F03DFB0C900F9903F0FC
:1029B00081F90D90289903F07DF928906748016806
:1029C000119803F02FFB0C900E9903F073F90D9002
:1029D000299903F06FF929905A482999006803F062
:1029E00021FB049056482899006803F01BFB0290D5
:1029F0005248006880F000400090269903F012FBD6
:102A00000190029903F00CFC0390049903F008FC78
:102A1000059003F023F94F4A514BCDE9060102F02E
:102A20000DFECDE90A014448006803F017F9CDE92D
:102A30000801DDE90A2302F099FBCDE90C0102F05F
:102A400063FB3D4908603F482899006803F0EAFAB3
:102A500004903B482999006803F0E4FA0290364854
:102A60002699006803F0DEFA0190029903F022F93A
:102A70000390049903F0D4FB059003F0EFF8354A76
:102A8000374BCDE9060102F0D9FDCDE90A012B480B
:102A9000006803F0E3F8CDE90801DDE90A2302F05C
:102AA00065FBCDE90C0102F02FFB244908602548A5
:102AB0002699006803F0B6FA049020482999006826
:102AC00003F0B0FA02901C482899006803F0AAFAB3
:102AD0000190029903F0A4FB0390049903F0EAF833
:102AE000059003F0BBF81B4A1D4BCDE9060102F02F
:102AF000A5FDCDE90A011248006803F0AFF8CDE961
:102B00000801DDE90A2302F031FBCDE90C0102F0F6
:102B1000FBFA0B4908600A482699006803F082FA1C
:102B2000049006482899006803F07CFA0290024855
:102B30002999006816E000007C0000208000002039
:102B400084000020880000208DEDB5A0F7C6B03EBF
:102B5000900000207B14AE47E17A743F8C00002087
:102B6000E17A643F03F05EFA0190029903F0A2F863
:102B70000390049903F054FB059003F06FF8A24A08
:102B8000A24BCDE9060102F059FDCDE90A01A048AA
:102B9000006803F063F8CDE90801DDE90A2302F0DB
:102BA000E5FACDE90C0102F0AFFA99490860084650
:102BB0000168006803F036FA0890964801680068DA
:102BC00003F030FA069094480168006803F02AFA8E
:102BD000049092480168006803F024FA0390049975
:102BE00003F068F80590069903F064F807900899D7
:102BF00003F060F8099003F031F8CDE90A0102F022
:102C000003FACDE90C0102F07FFA2190219803F03C
:102C100025F8834A834BCDE90C0102F0D3FC00D2A6
:102C2000FAE57E482199006803F0B2F87B49086014
:102C300079482199006803F0ABF877490860754836
:102C40002199006803F0A4F872490860704821993E
:102C5000006803F09DF86E490860704801684FF005
:102C6000804003F0DFF906906A480168069803F097
:102C7000D9F90890684801684FF0404003F0D2F954
:102C8000069063480168069803F0CCF9079008990C
:102C900003F010F8099002F0E1FFCDE90A0101F01C
:102CA0000FFE4FF06632604BCDE90C0102F0C6FC1E
:102CB0005E4A03C2574801684FF0804003F0B2F902
:102CC000039054480168039803F0ACF9059052480A
:102CD00001684FF0404003F0A5F903904E480168A9
:102CE000039803F09FF90490059903F099FA4FF0C7
:102CF0007E51069002F0DEFF079002F0AFFFCDE9B3
:102D00000A01464801684FF0804003F08BF90490B7
:102D100041480168049803F085F906903D48016830
:102D20004FF0804003F07EF9049039480168049820
:102D300003F078F90590069902F0BCFF079002F0C5
:102D40008DFFCDE90801DDE90A2302F001F84FF01B
:102D50006632354BCDE90C0102F070FC344A03C2F7
:102D60004FF08040169903F05DF905904FF0404018
:102D7000189903F057F90490059903F051FA4FF0B0
:102D80007E51069002F096FF079002F067FFCDE9B2
:102D90000A014FF08040149903F044F906904FF077
:102DA0008040159903F03EF90590069902F082FFE4
:102DB000079002F053FFCDE90801DDE90A2301F095
:102DC000C7FF4FF06632184BCDE90C0102F036FC1C
:102DD000184A03C200221346154903C902F02CFD0C
:102DE00008D20022144B124903C902F04DFE104ACA
:102DF00003C207E00022104B0D4903C902F0B6F9E7
:102E00000B4A03C200BF07E57B14AE47E17A643F7B
:102E10008800002084000020800000207C0000202A
:102E20008DEDB5A0F7C6B03E66A64C4098000020D8
:102E3000A0000020A8000020008066402DE9F04797
:102E400004460D462168206903F0ECF881462168AC
:102E5000606903F0E7F88246216803F0E3F88046F2
:102E6000A16802F027FF06463046E16802F022FF23
:102E700080464146304602F08BFF074649462846C9
:102E800003F0CEF98246394603F0CCF88046494635
:102E900002F010FF206139464FF07E5003F0C0F978
:102EA0008046314603F0BEF860612069BDE8F087D6
:102EB00070B50546094C0A48007800B1094C214616
:102EC000284603F07BF901D2254605E0002128467B
:102ED00003F074F800D20025284670BD0000C842F7
:102EE000DC0100200000484210B51248FFF7C0FB8B
:102EF000114801F0FFFF6B230022D0210D48FFF79E
:102F0000D7F919230722D0210A48FFF7D1F91A234C
:102F10000622D0210748FFF7CBF91B230822D02136
:102F20000448FFF7C5F91C230122D0210148FFF70F
:102F3000BFF910BD0054004020A1070000BFFEE70C
:102F40007047000070B5002100230F22C47804B33D
:102F5000154C246804F4E064C4F5E064210AC1F16E
:102F60000403CA40447804FA03F1847814402143EE
:102F700009010E4C0678A155047804F01F050124C0
:102F8000AC4005786D11AD0005F1E025C5F80041B4
:102F900009E0047804F01F050124AC40044D0678D4
:102FA000761145F8264070BD0CED00E000E400E02D
:102FB00080E100E002490143024A116070470000CD
:102FC0000000FA050CED00E030B58BB00020079052
:102FD000089009900A900390049005900690009044
:102FE00001900290002500240DE0274850F82400AD
:102FF00007A941F8240007A850F8240003A941F8C4
:103000002400601CC4B2042CEFDB002410E003A8F1
:1030100010F824000DF8140003A830F82400C0F3C1
:103020000720012101EB44010DF80100601CC4B22E
:10303000042CECDB08216846FEF7A2FC0546284676
:10304000E91705EB11610912A5EB0121C9B28DF851
:103050000810E91705EB1161090A8DF80910002421
:103060000DE000BF8021094801F04EFA0028F9D098
:103070001DF80410054801F014FB601CC4B20A2CB2
:10308000EFDB0BB030BD000004020020004C00401C
:103090002DE9FC5F04460D4616463146284603F0EE
:1030A000BFF807463846216903F0BAF80190276156
:1030B0003846A16902F0B6FF8146E16802F0FAFDE8
:1030C000E0606169E06803F079F801D26069E0606E
:1030D000D4E9021002F0A6FF82466168019802F06E
:1030E000A1FF83463846216802F09CFF59460090B4
:1030F00002F0E0FD8146514602F0DCFD804640468C
:10310000BDE8FC9F7047000029B1064AD26902431E
:10311000044BDA6104E0034AD2698243014BDA616D
:10312000704700000010024029B1064A12690243AC
:10313000044B1A6104E0034A12698243014B1A618D
:10314000704700000010024029B1064A926902430C
:10315000044B9A6104E0034A92698243014B9A61ED
:10316000704700000010024030B50021002200240A
:1031700000232D4D6D6805F00C0121B1042905D007
:10318000082923D105E0294D056022E0274D05607F
:103190001FE0254D6D6805F47012234D6D6805F430
:1031A0008034022505EB92421CB9214D5543056040
:1031B0000BE01D4D6D6805F400351DB11C4D5543E8
:1031C000056002E0194D5543056002E0174D0560AA
:1031D00000BF00BF144D6D6805F0F0010909154DE1
:1031E0006B5C0568DD4045600F4D6D6805F4E0617E
:1031F000090A104D6B5C4568DD4085600A4D6D68BD
:1032000005F46051C90A0B4D6B5C4568DD40C56033
:10321000054D6D6805F44041890B074D6B5CC56831
:10322000B5FBF3F5056130BD0010024000127A00D5
:1032300000093D00000000201000002008B5012119
:103240000420FFF781FF1020ADF800008DF8030087
:1032500003208DF8020069460648FEF789FD4020EC
:10326000ADF8000004208DF8030069460148FEF720
:103270007FFD08BD0008014010B510210548FEF78C
:103280004DFE0F2001F036FE10210248FEF744FEED
:1032900010BD000000080140704710B500F002F8B2
:1032A00010BD00000CB5002001900090334800686C
:1032B00040F480303149086000BF3048006800F4B5
:1032C000003000900198401C0190009818B90198B6
:1032D000B0F5A06FF1D12948006800F4003010B1BA
:1032E0000120009001E0002000900098012843D1C7
:1032F0002348006840F01000214908600846006833
:1033000020F0030008600846006840F002000860F2
:103310001A484068194948600846406848600846AD
:10332000406840F4806048600846406820F47C10A3
:1033300048600846406840F4E81048600846006865
:1033400040F08070086000BF0C48006800F000701A
:103350000028F9D00948406820F003000749486078
:103360000846406840F00200486000BF03484068DB
:1033700000F00C000828F9D10CBD0000001002403C
:10338000002002407047000010B51348006840F06C
:1033900001001149086008464068104908400E497C
:1033A0004860084600680E4908400B490860084616
:1033B000006820F4802008600846406820F4FE0081
:1033C00048604FF41F008860FFF767FF4FF0006010
:1033D0000449086010BD0000001002400000FFF822
:1033E000FFFFF6FE08ED00E0F0B50C4615460022A2
:1033F0000021068C4FF6FE773E400684028B018C3E
:103400004FF60C7632407E1C06EA03162E433243FA
:10341000104EB0420ED0104EB0420BD0B0F1804FE3
:1034200008D00E4EB04205D00D4EB04202D00D4E27
:10343000B04206D14FF6FD76314044F001063143EB
:1034400005E04FF6F576314044F001063143028342
:103450000184F0BD002C0140003401400004004014
:1034600000080040000C0040F0B50C461546002254
:1034700000210026078C4FF6EF7C07EA0C07078433
:10348000028B018C4FF6FF7707EA041640F6FF47E0
:103490003A404FF6FF7707EA03373A434FF6FF7794
:1034A00007EA05273A43114FB8420ED0104FB842F1
:1034B0000BD0B0F1804F08D00E4FB84205D00E4F60
:1034C000B84202D00D4FB84206D14FF6DF773940EF
:1034D00046F01007394305E04FF65F77394044F076
:1034E0001007394302830184F0BD0000002C014025
:1034F000003401400004004000080040000C00407F
:10350000F0B50C461546002200210026078C4FF628
:10351000FF6C07EA0C070784828B018C4FF6FF775C
:1035200007EA04264FF60C773A404FF6FF7707EA92
:1035300003172F433A43114FB8420ED0104FB842F1
:103540000BD0B0F1804F08D00E4FB84205D00E4FCF
:10355000B84202D00D4FB84206D14FF6FF5739405E
:1035600046F48077394305E04FF2FF57394044F481
:103570008077394382830184F0BD0000002C014034
:10358000003401400004004000080040000C0040EE
:10359000F0B50C461546002200210026078C4EF699
:1035A000FF7C07EA0C070784828B018C4FF6FF77BC
:1035B00007EA043640F6FF473A404FF6FF7707EA3E
:1035C00005273A434FF6FF7707EA03373A43114F8F
:1035D000B8420ED0104FB8420BD0B0F1804F08D097
:1035E0000E4FB84205D00E4FB84202D00D4FB84230
:1035F00006D14DF6FF77394046F48057394305E050
:1036000047F6FF57394044F4805739438283018499
:10361000F0BD0000002C01400034014000040040D7
:1036200000080040000C004000B587B001210220D6
:10363000FFF76AFD4FF4FA60ADF808002320ADF8FB
:1036400004000020ADF80A00ADF8060001A91748F3
:1036500000F016FB0020ADF81000ADF812000120BC
:10366000ADF814000020ADF81600ADF8180004A95C
:103670000E4800F037F91D208DF8000003208DF86A
:10368000010000208DF8020001208DF8030068463B
:10369000FFF758FC01220321044800F079F90121C9
:1036A000024800F0FEF807B000BD00000004004032
:1036B00010B50121234800F003F920B12248007819
:1036C000401C2149087002211E4800F0F9F8A0B3FF
:1036D0001E48007870B900201B4908700021194865
:1036E00000F09FFA0120194908700221154800F0E6
:1036F000A5F922E01548007801281ED1114800F0F4
:10370000DCF8134908601048007800EB4001C1EB79
:10371000C0100F49096801EB00100D490860002036
:10372000094908700021074800F07BFA002007498A
:1037300008700021034800F081F90321014800F0DE
:10374000ADF810BD00040040180000201900002052
:10375000FC0100201CB50121244800F0B1F800282C
:1037600042D00121214800F099F8002201211F4890
:1037700000F00EF91E480068012806D0022809D082
:10378000032818D004281ED118E0FEF74DFCFEF7E0
:10379000C7FB19E01748006817490968CDE9001010
:1037A00016480368164802681648016816480068FB
:1037B000FEF7C2FF08E0FEF701F905E0FFF75CFD48
:1037C000FEF7B6FC00E000BF00BF09480068401CDF
:1037D000052190FBF1F201FB12000549086001226E
:1037E0001146024800F0D4F81CBD00000010004053
:1037F0001C0000203C000020380000203400002085
:103800004800002044000020400000201FB504466E
:103810002048844203D02048844200D01FBD1D4868
:10382000844207D101211020FFF76EFC36208DF86D
:103830000C0009E01848844206D101212020FFF73E
:1038400063FC37208DF80C0000208DF80D0001205E
:103850008DF80E008DF80F0003A8FFF773FB4FF4EF
:10386000FA60ADF804002320ADF800000020ADF8A8
:103870000600ADF802006946204600F001FA012278
:103880001146204600F084F80121204600F009F896
:1038900000BFC3E70010004000140040CA4302828A
:1038A000704721B1028842F00102028004E00288E0
:1038B0004FF6FE731A40028070470146888E7047AB
:1038C00030B50246002000230024158A05EA0103D2
:1038D000958905EA010413B10CB1012000E0002034
:1038E00030BD000070B505460C46244885420ED018
:1038F000234885420BD0B5F1804F08D0214885423E
:1039000005D02148854202D02048854200D100E000
:1039100000BF208850B92389A28861882846FFF714
:1039200063FDE188284600F07EF925E02088042820
:103930000AD12389A28861882846FFF795FDE1888E
:10394000284600F079F917E0208808280AD1238951
:10395000A28861882846FFF7D3FDE188284600F059
:1039600078F909E02389A28861882846FFF710FECC
:10397000E188284600F076F970BD0000002C014077
:10398000003401400004004000080040000C0040EA
:103990001AB183890B43838102E083898B4383813E
:1039A0007047000070B5002400220023058C4FF6FC
:1039B000FE7635400584028C8388048B4FF68F7524
:1039C0002C40B51E2C400D882C43751E2A400D89B5
:1039D0002A434D882A43144DA8420BD0134DA842C8
:1039E00008D0134DA84205D0124DA84202D0124D66
:1039F000A84213D14FF6F7752A404D892A434FF656
:103A0000FB752A408D882A434FF6FF652B404FF601
:103A1000FF552B408D892B43CD892B438380048315
:103A2000CD888586028470BD002C014000340140A1
:103A30000040014000440140004801400A46002186
:103A4000018C4FF6FD73194011430184704700004B
:103A500070B5002400220023058C4FF6EF76354028
:103A60000584028C8388048B48F6FF752C404FF642
:103A7000FF452C400D884FF6FF7606EA05252C43BE
:103A80004FF6DF752A400D8906EA05152A434D8851
:103A900006EA05152A43154DA84202D0144DA84246
:103AA0001DD14FF67F752A404D894FF6FF7606EA05
:103AB00005152A434FF6BF752A408D8806EA05157D
:103AC0002A434FF6FF352B404FF2FF752B408D896F
:103AD00006EA85052B43CD8906EA85052B438380BD
:103AE0000483CD880587028470BD0000002C01404E
:103AF0000034014070B5002400220023058C4FF6ED
:103B0000FF6635400584028C8388848B4FF68F7561
:103B10002C404FF6FC752C400D882C434FF6FF557A
:103B20002A400D894FF6FF7606EA05252A434D887F
:103B300006EA05252A43154DA84202D0144DA84295
:103B40001DD14FF2FF752A404D894FF6FF7606EAE8
:103B500005252A434FF6FF352A408D8806EA0525BC
:103B60002A434EF6FF752B404DF6FF752B408D898D
:103B700006EA05152B43CD8906EA05152B438380FC
:103B80008483CD888587028470BD0000002C0140AD
:103B90000034014070B5002200230024058C4EF64D
:103BA000FF7635400584038C8488828B48F6FF7548
:103BB0002A404FF6FF452A400D884FF6FF7606EA69
:103BC00005252A434DF6FF752B400D8906EA05357C
:103BD0002B434D8806EA05352B430B4DA84202D0F6
:103BE0000A4DA84208D14BF6FF752C408D894FF63F
:103BF000FF7606EA85152C4384808283CD88A0F861
:103C00004050038470BD0000002C0140003401408E
:103C1000818670470187704781877047A0F8401000
:103C2000704781847047028B4FF6F3731A4002830A
:103C3000028B0A4302837047028B4FF2FF331A4014
:103C40000283028B4FF6FF7303EA01231A430283B8
:103C50007047828B4FF6F3731A408283828B0A433C
:103C600082837047828B4FF2FF331A408283828BAC
:103C70004FF6FF7303EA01231A4382837047000063
:103C8000002202881D4B98420ED01D4B98420BD04B
:103C9000B0F1804F08D01B4B984205D01A4B984288
:103CA00002D01A4B984204D14FF68F731A404B88BA
:103CB0001A43174B984207D0164B984204D04FF640
:103CC000FF431A40CB881A4302808B8883850B8878
:103CD00003850A4B98420BD0094B984208D00E4BF3
:103CE000984205D00D4B984202D00D4B984201D11D
:103CF0000B7A03860123838270470000002C014069
:103D0000003401400004004000080040000C004066
:103D100000100040001400400040014000440140F9
:103D20000048014000B587B040F22551F84800F046
:103D3000F8FB00287ED040F22551F54800F0C9FB81
:103D4000F34800F0A9FCC0B20690069861381A2822
:103D500071D2DFE800F0B5D3FE1DFD2CFCFBFF7037
:103D6000F9F8F7F6F53C7AF4340D70F370F270F16F
:103D7000E848007808B9012000E00020E549087013
:103D80000020E549C860E5A1E14801F063F956E388
:103D9000E648007808B9012000E00020E3490870F7
:103DA00008460278E2A1DA4801F054F947E301201D
:103DB000E3490870E3A1D64801F04CF93FE3002045
:103DC000DF490870E3A1D24801F044F937E3E44841
:103DD0000068019001F042FFE24AE34BCDE90201A5
:103DE00001F0C4F9CDE9040101F08EF9DC49086065
:103DF000DE480068019001F031FFDA4ADA4BCDE984
:103E0000020101F041FECDE9040101F07DF9D7493D
:103E10000860D3480068019001F020FFCDE904015B
:103E2000D2480068019001F019FFCDE90201DDE9F7
:103E3000040101E004E301E3CDE90001CCA1B448B1
:103E4000DDE9022301F006F9F9E2C54800680190B6
:103E500001F004FFC34AC44BCDE9020101F014FE96
:103E6000CDE9040101F050F9BD490860BF48006880
:103E7000019001F0F3FEBB4ABB4BCDE9020101F01A
:103E800075F9CDE9040101F03FF9B8490860B4487B
:103E90000068019001F0E2FECDE90401B34800683A
:103EA000019001F0DBFECDE90201DDE90401CDE97D
:103EB0000001AFA19648DDE9022301F0CBF8BEE294
:103EC000B248006801F0CAFE4FF03332B04BCDE982
:103ED000020101F04BF9CDE9040101F015F9AB49FC
:103EE00008600846006801F0B9FE02460B46CDE9BD
:103EF0000401A8A1864801F0ADF8A0E2A34800683B
:103F000001F0ACFE4FF03332A14BCDE9020101F0DC
:103F1000BBFDCDE9040101F0F7F89C4908600846B3
:103F2000006801F09BFE02460B46CDE9040199A111
:103F3000774801F08FF882E280E0B4E07DE160E054
:103F400025E099E1CBE11CE2FCE103E057E237E236
:103F50003AE053E19348006801F080FE0022924B62
:103F6000CDE9020101F002F9CDE9040101F0CCF83C
:103F70008C4908600846006801F070FE02460B4656
:103F8000CDE9040189A1624801F064F857E285484F
:103F9000006801F063FE0022834BCDE9020101F0CD
:103FA00073FDCDE9040101F0AFF87E4908600846D1
:103FB000006801F053FE02460B46CDE904017BA1E7
:103FC000534801F047F83AE27D48006801F046FEA8
:103FD0000022754BCDE9020101F0C8F8CDE90401DA
:103FE00001F092F8764908600846006801F036FE54
:103FF00002460B46CDE9040172A1454801F02AF8BA
:104000001DE26F48006801F029FE0022664BCDE9F1
:10401000020101F039FDCDE9040101F075F86849AC
:1040200008600846006801F019FE02460B46CDE91B
:10403000040164A1364801F00DF800E2664880688A
:10404000019001F00BFE654A654BCDE9020101F0DC
:104050001BFDCDE9040101F057F85F498860614814
:104060008068019001F0FAFD5C4A5D4BCDE90201E8
:1040700001F00AFDCDE9040101F046F859498860D4
:1040800000205549C8605749C8605348806803906C
:1040900001F0E4FD02460B46CDE9040152A11C48A3
:1040A00000F0D8FFCBE14C488068019001F0D6FDCC
:1040B0004A4A4B4BCDE9020101F058F8CDE9040121
:1040C00001F022F84449886046488068019001F078
:1040D000C5FD424A424BCDE9020101F047F8CDE966
:1040E000040101F011F83F49886000203A49C86096
:1040F0003C49C86038488068039001F0AFFD024633
:104100000B46CDE9040138A1014800F0A3FF96E178
:10411000004C0040DD010020B801002053454E4412
:10412000206368616E6765210D0A0000DC010020D4
:1041300044656275673D202025640D0A000000007B
:10414000DC000020737461727420666C79210D0AA2
:104150000000000073746F7020666C79210D0A00F6
:104160002C0100207B14AE47E17A843F48010020F7
:1041700070697463685F503D256620202020726F4F
:104180006C6C5F503D2566200D0A0000E0000020A9
:104190003333D33F626173655F647574793D25661F
:1041A0000D0A0000B40000200000E03F7069746355
:1041B000685F7461726765743D25660D0A000000D2
:1041C000B8000020726F6C6C5F7461726765743D3B
:1041D00025660D0A0000000080010020FCA9F1D234
:1041E0004D62503F64010020616E676C655F7370C3
:1041F0006565645F6B693D25660D0A00914800683E
:10420000019001F02BFD904A904BCDE9020100F0A6
:10421000ADFFCDE9040100F077FF8A490860084648
:104220000068039001F01AFD02460B46CDE9040137
:1042300087A18A4800F00EFF01E1824800680190E2
:1042400001F00CFD804A814BCDE9020101F01CFC1C
:10425000CDE9040100F058FF7A490860084600687B
:10426000039001F0FBFC02460B46CDE9040178A166
:104270007A4800F0EFFEE2E079488068019001F0B2
:10428000EDFC784A784BCDE9020100F06FFFCDE9F3
:10429000040100F039FF72498860084680680146D1
:1042A0000590724801F074FD6D4948610846406907
:1042B000019001F0D3FCCDE90401694880680190C8
:1042C00001F0CCFCCDE90201DDE90401CDE90001FA
:1042D00067A16248DDE9022300F0BCFEAFE0604860
:1042E0008068019001F0BAFC5E4A5F4BCDE90201A3
:1042F00001F0CAFBCDE9040100F006FF58498860CF
:104300000846806801460590584801F041FD54492F
:10431000486108464069019001F0A0FCCDE9040124
:104320004F488068019001F099FCCDE90201DDE978
:104330000401CDE900014EA14848DDE9022300F067
:1043400089FE7CE046480068019001F087FC3E4A07
:104350003E4BCDE9020100F009FFCDE9040100F078
:10436000D3FE3F49086008460068039001F076FCE0
:1043700002460B46CDE9040147A1384800F06AFE29
:104380005DE037480068019001F068FC2E4A2F4B31
:10439000CDE9020101F078FBCDE9040100F0B4FEA3
:1043A0002F49086008460068039001F057FC024658
:1043B0000B46CDE9040138A1284800F04BFE3EE051
:1043C00027484068019001F049FC1F4A1F4BCDE986
:1043D000020100F0CBFECDE9040100F095FE20497A
:1043E000486008464068039001F038FC02460B46DE
:1043F000CDE904012DA1194800F02CFE1FE018485A
:104400004068019001F02AFC0F4A104BCDE90201EF
:1044100001F03AFBCDE9040100F076FE1049486056
:1044200008464068039001F019FC02460B46CDE9AE
:1044300004011EA1094800F00DFE00E000BF00BF0E
:1044400007B000BD9C0100209A9999999999B93FAC
:104450007961775F4B503D25660D0A00004C0040A6
:10446000B8010020FCA9F1D24D62503F0000484243
:104470006865696768745F4B493D25662020202088
:10448000204865696768745F5049442E695F6D61B3
:10449000783D25660D0A00004865696768745F50BD
:1044A00049442E4B503D25660D0A0000486569675A
:1044B00068745F5049442E4B443D25660D0A000048
:1044C00001F40072B2F5007F00D100BFCA43028040
:1044D000704710B50022002340F66A14A14200D1B3
:1044E00000BF0A1201249440A3B2DC43048010BD33
:1044F00021B1828942F40052828104E082894DF622
:10450000FF731A408281704702460020B1F5007F98
:1045100000D100BF13880B400BB1012000E0002048
:10452000704770B50246002400230025002040F6A5
:104530006A16B14200D100BFC1F3421501F01F035A
:10454000012606FA03F3012D02D19689334006E0D5
:10455000022D02D1168A334001E0968A33400C12B4
:10456000012606FA04F41688344013B10CB1012078
:1045700000E0002070BDF0B50346002400260025B1
:10458000002040F66A17B94200D100BF1846C1F3B7
:10459000421401F01F06012707FA06F5012C01D18C
:1045A0000C3004E0022C01D1103000E014301AB1BC
:1045B00007682F43076002E00768AF430760F0BD5C
:1045C0002DE9F04786B005460E460024A24600BFFE
:1045D000A1460027B08900B100BF2F462C8A4CF6B7
:1045E000FF700440F08804432C82AC894EF6F3102F
:1045F0000440B08831890843718908430443AC8181
:10460000AC8A4FF6FF400440B0890443AC8201A855
:10461000FEF7AAFD1F48874202D1DDF810A001E095
:10462000DDF80CA0A88900F4004040B10AEBCA00F4
:1046300000EB0A1031684900B0FBF1F807E00AEB23
:10464000CA0000EB0A1031688900B0FBF1F8642061
:10465000B8FBF0F004012009642101FB1089A8894E
:1046600000F4004040B1322000EBC900B0FBF1F093
:1046700000F00700044308E0322000EB0910642139
:10468000B0FBF1F000F00F0004432C8106B0BDE850
:10469000F08700000038014001468888C0F3080018
:1046A0007047C1F308028280704700BFFEE7000038
:1046B00030B587B004460D4602950020ADF80C00D9
:1046C000ADF80E00ADF81000ADF814000C20ADF8F8
:1046D00012004FF4E060FEF76DFC00208DF806003C
:1046E00001208DF807003048844225D101210420A3
:1046F000FEF72AFD01218803FEF726FD18208DF81C
:104700001B0003208DF81A006015ADF8180006A9EB
:104710002648FDF72DFB2015ADF8180048208DF830
:104720001B0006A92148FDF723FB25208DF8040076
:1047300001A8FEF707FC27E01D48844224D101218F
:104740001020FEF701FD0121C804FEF7DDFC182052
:104750008DF81B0003208DF81A002015ADF8180005
:1047600006A91448FDF704FBE014ADF81800482032
:104770008DF81B0006A90F48FDF7FAFA34208DF8D2
:10478000040001A8FEF7DEFB02A92046FFF718FF90
:1047900001212046FFF7ACFE012240F225512046C0
:1047A000FFF7E9FE07B030BD0038014000080140C6
:1047B000004C004000100140490050EAC12018BFE1
:1047C00004204A0D18BF40F0010040F2FF72B2EB26
:1047D000515F08BF40F00200012808BF0520704764
:1047E0002DE9F0414F1E00EBC7010446D1E900015D
:1047F00015461E4637F006020DD02A46334600F015
:104800001DFF7F1E04EBC703D3E9002300F0AEFCBD
:1048100037F00602F1D1022F25D0042F13D0062F36
:1048200018BFBDE8F0812A46334600F007FFD4E9FF
:104830000A2300F09BFC2A46334600F0FFFED4E931
:10484000082300F093FC2A46334600F0F7FED4E933
:10485000062300F08BFC2A46334600F0EFFED4E935
:10486000042300F083FC2A46334600F0E7FED4E937
:10487000022300F07BFC2A46334600F0DFFED4E939
:104880000023BDE8F04100F071BC012201F071BDD0
:1048900000F06CBC002213461046114600F022BD09
:1048A000024A0020110701F064BD000001FDFFFF76
:1048B00030380A2801D201207047002070470000DC
:1048C0002DE9F04D8D4F21F0004A86B005460C468B
:1048D000BA452ADBAAEB070028430AD0884882455C
:1048E00001DC1AD1CDB106B02846BDE8F04DFFF786
:1048F000CCBF844A844B284600F0A0FE07460E46F3
:10490000824A834B2846214600F098FE06B03A467C
:104910003346BDE8F04D00F029BC0120FBF70EFD49
:1049200006B0BDE8F04DFFF7B5BF7A48824542DAE0
:10493000BAF1795F0BDA2846FFF73EFF042808BF7B
:10494000FFF7AEFF284606B02146BDE8F08D2A46A7
:104950000B46104600F072FE834602466E480E4635
:104960000B4606217844FFF73BFF5A46334600F0DA
:1049700065FE804669488A465A4633460421784493
:10498000FFF72EFF5A46334600F058FE00223B4602
:1049900000F0ECFB02460B464046514600F0A2FCFC
:1049A0002A46234600F04AFE06B02A462346BDE8C2
:1049B000F04D00F0DBBB284624F0004100223D46CC
:1049C0003B4600F06FFF4FF0FF3201F0D2FC06468D
:1049D000024653480F460B4606217844FFF700FF76
:1049E00032463B4600F02AFECDE900014D483246F2
:1049F0003B4604217844FFF7F3FE32463B4600F085
:104A00001DFE00222B4600F0B1FB8346029130468A
:104A1000394600F0F9FA804643480D46504517DC08
:104A2000DDE900015A46029B00F05CFC42462B4641
:104A300000F004FE42462B4600F098FB012201F0F4
:104A400098FC304A304B01F01FF8304A304B4CE0B4
:104A50004FF0000A52460B46404600F087FBCDE976
:104A6000031052462B461046194600F0E7FD324629
:104A70003B4600F017FFDDE9033200F033FC064649
:104A80000F46DDE900015A46029B00F02BFC8346ED
:104A9000009101223046394601F06BFC194A1A4B4D
:104AA00000F000FF06460F4601224046294601F06D
:104AB00060FC5A46009B00F0C1FD32463B4600F0C8
:104AC000E3FF06460F4601225046294601F051FCFD
:104AD0000E4DDFF858802A46434600F0E3FE32468A
:104AE0003B4600F0DFFE2A46434600F0DBFE002C8A
:104AF000D8BF81F0004106B0BDE8F08D0000F03F66
:104B00000000F07F075C143326A6913C182D445416
:104B1000FB21F93F0000E03F981A0000AE1A0000A8
:104B2000221A0000381A00003333EF3FFB21E93F1F
:104B30002DE9F84F04460D4621F0004000917349DD
:104B4000814211DC7249884201DC06D12CB1204639
:104B50002946BDE8F84FFFF798BE6E48002DCCBF40
:104B60006D496E49BDE8F88F6D49814211DD6D498F
:104B70008142D8BF4FF0FF366DDD20462946FFF752
:104B80001BFE042808BFFFF78BFE20462946BDE820
:104B9000F88F6549654F25F00045814233DD644952
:104BA000814219DD002632464FF0804320462946D7
:104BB00000F0DCFA80468A4601222046294601F0B0
:104BC000D8FB00223B4600F05FFF4246534600F010
:104BD00089FB04460D463EE001260022BA463B46CC
:104BE0002046294600F0C2FA80460F46002253466E
:104BF0002046294600F048FF42463B4600F072FB43
:104C000004460D4627E04B4981421BDDDFF828A111
:104C10000226002253462046294600F00FFD0022BE
:104C20003B4600F0A3FA80460F460022534620463A
:104C3000294600F029FF42463B4600F053FB04465C
:104C40000D4608E0032622462B4600203B4900F093
:104C500049FB04460D4622462B461046194600F0F5
:104C6000EDFC8B46824602460B4600F0E7FC074609
:104C70000246334888460B4606217844FFF7B0FDCC
:104C800052465B4600F0DAFC82462E488B463A4696
:104C9000434605217844FFF7A3FD3A46434600F01A
:104CA000CDFC02460B46002E504659460CDA00F069
:104CB0005DFA22462B4600F0C1FC01B022462B468D
:104CC000BDE8F04F00F0EEBD00F050FA22462B4652
:104CD00000F0B4FC1C4A7A4402EBC603D3E900237B
:104CE00000F0D2FE22462B4600F0CEFE174A7A4450
:104CF00002EBC603D3E9002300F0D4FD009A002A9A
:104D0000B8BF81F00041BDE8F88F000000001044FA
:104D10000000F07F182D4454FB21F93FFB21F9BF1F
:104D20000000DC3F0000203E0000F33F0000F03FA9
:104D30000000E63F008003400000F83F0000F0BFA5
:104D40008218000040180000DE170000A6170000BF
:104D50002DE9F04D9446CCF1000423F000464CEAD6
:104D60000404524F46EAD4749A46884621F0004221
:104D7000BC4206D8454240EA050442EAD474BC422B
:104D800004D9BDE8F04D6246FFF782BDAAF1405557
:104D9000A5F17F6555EA0C040BD0022404EAAA743D
:104DA000434DDFF810E144EAD87452EA000B04D016
:104DB0000CE0BDE8F04DFFF7BBBE002C14BF012C8A
:104DC000BDE8F08D022C30D0032C32D056EA0C0B0B
:104DD0000AD0BE4220D1BA4209D126F0804622F044
:104DE00080423346114617E000291ADB25E0DFF840
:104DF000C8B0FB44002C04BFDBE90001BDE8F08D26
:104E0000012C02BFDBE9000181F00041BDE8F08D1B
:104E1000022C0AD0032C0CD0BA4212D1B8F1000FE8
:104E20000BDA23482549BDE8F08D28462449BDE822
:104E3000F08D28467146BDE8F08D1D482149BDE83A
:104E4000F08D921B12153C2AC4BF19481D490EDC77
:104E5000BAF1000FBEBF12F13C0F0020014606DB85
:104E6000624600F03FFA21F00041FFF761FE002C9E
:104E700008BFBDE8F08D012C04BF81F00041BDE802
:104E8000F08D114A114B022C07D000F0FDFD2A468F
:104E9000BDE8F04D0A4B00F0F7BD00F0F5FD2A46E5
:104EA000BDE8F04D064B00F0FDBC00000000F07FB7
:104EB000182D4454FB2109C03A170000FB21F9BF0B
:104EC000FB210940FB21F93F075C143326A6A13CD6
:104ED0004FF0E021096921F004014FF0E022116157
:104EE0000146C21700EB5272D210014B1A60704794
:104EF000B000002001460D4A12684A434FF0E023FB
:104F00005A6100229A6101221A6100BF4FF0E0222B
:104F1000106900F001021AB100F48032002AF5D0C5
:104F200000224FF0E0231A619A617047B000002020
:104F3000FEF72AFA4FF4E1311B48FFF7B9FB1BA13A
:104F4000194800F087F84820FFF7C2FFFDF7CCFFB3
:104F50001A48FEF75BFCFEF767FBFEF76FF9FCF7FC
:104F600099FC17A1104800F075F81BE0184800786C
:104F7000C0B11848006800F0CDFF0446164800682C
:104F800000F0C8FF05461548006800F0C3FF06465C
:104F90001348006800F0BEFF074623462A46314604
:104FA00000F020F8E2E70000004C004048656C6C1F
:104FB0006F2C776F726C64210D0A000000100040A6
:104FC000696E20206974206F6B210D0A00000000BB
:104FD000DD010020C8000020C4000020D80000200F
:104FE000D40000202DE9F04107460C4615461E4628
:104FF0000448076044608560C660FDF7E5FFBDE8D2
:10500000F0810000040200202DE9F04106460F4621
:1050100000F054FC041E0D4618BF0120284320F068
:105020000040C0F17F6000F1E040C00F0ED0301CA6
:1050300018BF0120384320F00040C0F17F6000F12C
:10504000E040C00F04BF0120FBF778F92046294655
:10505000BDE8F0810FB430B59BB00546002420A810
:105060000090652101A8009B1F9AFBF745F980215C
:105070002846FFF725FA0EE000BF80212846FFF7FB
:1050800043FA0028F9D02046621CD4B201AA115C70
:105090002846FFF706FB642C03DA01A8005D002810
:1050A000EAD1002000901BB030BC5DF814FB00007A
:1050B00010B500290AD00878002807D005487844A0
:1050C000FBF7E6FF002801D0002010BD024878441D
:1050D00010BD00002E1500002615000010B5002997
:1050E0000AD00878002807D005487844FBF7D0FF9D
:1050F000002801D0002010BD0248784410BD0000F7
:105100001E1500001615000021F00042A2F16052A9
:10511000B2F5801F01F0004328BFD2F17F6C0BD99C
:105120005FEA001C43EAC20242EB507018BF7047AE
:1051300028BF20F001007047B2F5801FBCBF1846A1
:1051400070474FEA410C1CF5001F02D2084601F0DF
:1051500030B870B500F01CFB00000089FFF7F6BF07
:105160004FF00040A0F580007047000010B591EAB4
:10517000030F48BF83F0004300F18E84841A71EB63
:10518000030C05D2121943EB0C03001B61EB0C015D
:10519000DFF824E14FEA1154A4EB135C1EEA430F3D
:1051A00018BF9EEA445F73D023EA0E03DCF1200EA1
:1051B00021EA045143F4801332D322FA0CFE10EB9F
:1051C0000E0023FA0CFE41EB0E01CCF1200E03FA87
:1051D0000EFE10EB0E0051F10001B1F5801FCCF175
:1051E000200E32D201EB045112FA0EF2BDE810404B
:1051F00058BF7047401C38BF5FEA420218BF704773
:10520000002814BF20F0010041F100014FEA4103E2
:1052100013F5001F38BF7047A1F1C04100F006BB75
:10522000012A43EB0302ACF1200CDCF11F0E32BF6C
:105230004FF0000E23FA0CF310EB030041EB045186
:10524000B4EB115FD0D0A1EB045101F580114908F6
:105250005FEA300001EB04510ED350F1000038BF7B
:1052600012FA0EFE08D1BDE81040C9E7401C38BF55
:105270005FEA4202CAD1C3E7BDE810404FEA4103EA
:1052800013F5001F38BF7047A1F1C04100F0CEBA3E
:105290009EEA445F08D011EA5E0FBDE8104004BFEB
:1052A00001F0004100207047BDE8104070B500F0EB
:1052B0006FFA00BF64FBBE3E0000E0FF02494FF002
:1052C000000001F024B800BF0000F87F491058BF6B
:1052D000C1F140415B1058BFC3F140438B42EFF333
:1052E000008070472DE9C04130B4DFF8A0C23CEA2D
:1052F000111418BF3CEA131400F0EC8081EA030596
:105300001CEA111444EAD57418BF1CEA131500F006
:10531000C780A4EB05044FF0004545EAC12145EAEA
:10532000C32341EA505143EA525304F17F74994236
:1053300004F500344FEAC0204FEAC22208BF904271
:1053400000F09C804FEA13650FF24016765D4FEA3D
:10535000134506FB05F7C7F1807706FB07F74FEA11
:10536000D737A7FB03687642C8F58038A7FB06CE7F
:1053700038BFA8F1010807FB08E64FF0000EA6FBB6
:10538000028CE6FB03CEDCF1000CCEF1004E38BF00
:10539000AEF1010EA6FB0C584FF000074FF00005D0
:1053A000E6FB0E87A1FB08C6A0FB07CE16EB0E0698
:1053B00045F10005E1FB076515F1E04E7EBFA4F560
:1053C00080345FEA46066D4116F1800745F100051D
:1053D0004FEA17274FEA066647EA0567A6F1DE4659
:1053E000B6F1805F4FEA15251FD9384624F0010C2D
:1053F00005EBC471BCF1FE6F01EB0C1102D8F0BCDF
:10540000BDE8008124425CBF01F5801E9EEAC47F96
:1054100002D4F0BCBDE80081244238D4F0BCA1F134
:10542000C041BDE8004100F001BA4FEAD22242EA91
:1054300043524FEAD323A7FB02864FEAD02040EA2B
:10544000415007FB03661EEA0E0F4FEAD12105FB10
:10545000026658BFA6EB0056B6EB00564FEA520E56
:105460004EEAC37E18EB0E0E56EB530EBDD518EB6D
:1054700002085E417F1C55F10005B6E74FF4801528
:105480004FF000074FF000064FF00008ADE7F0BC0A
:105490004FF0000001F1C04101F00041BDE8008182
:1054A00011EA0C1F0CEA131500D00CE013EA0C1FD4
:1054B00000F025804FF00000F0BC81EA030101F00C
:1054C0000041BDE80081F0BCBDE8004181EA030174
:1054D00000F0ACB9F0BCBDE8004170B500F058F97F
:1054E000097EFC3E00F007B881EA03014FF000009E
:1054F00001F00041704781EA030100F097B9F0BC68
:10550000BDE800414FF0000021497047FFFDFBF965
:10551000F7F5F4F2F0EEEDEBE9E8E6E4E3E1E0DEE6
:10552000DDDBDAD8D7D5D4D3D1D0CFCDCCCBCAC858
:10553000C7C6C5C4C2C1C0BFBEBDBCBBBAB9B8B77F
:10554000B6B5B4B3B2B1B0AFAEADACABAAA9A8A872
:10555000A7A6A5A4A3A3A2A1A09F9F9E9D9C9C9B40
:105560009A999998979796959594939392919190EB
:105570008F8F8E8E8D8C8C8B8B8A8989888887877C
:105580008685858484838382828181800000FF07F1
:105590000000F87F10F0004248BF4042B0FA80F3AC
:1055A00010FA03F10AD0C3F11D0303F580634FEA3B
:1055B000415002EB035202EBD12170474FF0000043
:1055C0007047000051EA030C17D41CF5801F58BF28
:1055D000BCF5801F00F10680994218BF704708BFD4
:1055E0009042704707D711F5801F58BF13F5801FF1
:1055F00019D499427047894270471CF5801F08D51D
:10560000BCF5801FF7D58B4218BF704708BF824298
:1056100070474FF4001C1CEB410F38BF1CEB430FCD
:1056200001D28B42704770B500F0B2F89224490065
:105630004FF000514FF08053FFF748BEDFF848C1EC
:1056400070B51CEA111E1EBF1CEA13159EEA0C0F52
:1056500095EA0C0F00F06F8081EA030423EA4C13F3
:105660004EEAD47E21EA4C1141F4801143F48013B8
:10567000AE44A1FB024CA0FB0365AEF17F7E361960
:1056800055EB0C05A1FB034C4CF10003A0FB021CE5
:1056900016EB0C06654153F10003094218BF46F0B2
:1056A000010613F4007F0BD14FEA03314FEA0530B6
:1056B000340341EA155140EA16506FF003020AE044
:1056C0004FEAC3214FEAC520F40241EA555140EAAE
:1056D00056506FF0020202EB2E4201EB025585EAB2
:1056E000CE710AD05FEA440C18BF24F0004450F198
:1056F000000041F1000120EAD47040F2FE7C6245D6
:1057000000D270BDA84214BF4FF080444FF0404417
:10571000002E08BF0024BEF1806FA8BFA1F1C041D8
:10572000BDE8704080F282804FF0000001F1C0417E
:1057300001F0004170479EEA0C0F0CEA131518BFE8
:1057400095EA0C0F06D04FF0000081EA030E0EF030
:10575000004170BD00F01CF88900013E00F007B860
:1057600000F009B84FEA430C5FEA5C5C08D081EABC
:10577000030100F05BB84FEA410C5FEA5C5CF6D1D4
:105780004FF00000014970470000FF070000F87F5C
:105790000EF1020E2EF0030E5EF8046B364205D4B5
:1057A000012A43EB030515F5001F12D8012841EB30
:1057B000010C1CF5001F0CD80ED14FEAD17C15F559
:1057C000001F0CEB4C0C0CF1020C08BF4CEBD37C13
:1057D00004E04FF0080C01E04FEAD37C0CEB4C05E1
:1057E00026FA05F606F00706B6F1040C06D20EEB13
:1057F000860CBDE870404CF0010C6047DFE80CF00F
:10580000090B02024FF000414FF00000A1F500210A
:1058100070BD19461046012851EB010418BFD4F59C
:10582000001484BF002001F0004170BD0808A0F5FD
:1058300000114FEA3101704753EA010C17D41CF5EF
:10584000801F58BFBCF5801F00F106808B4218BF37
:10585000704708BF8242704707D713F5801F58BFB3
:1058600011F5801F19D48B4270479B4270471CF57D
:10587000801F08D5BCF5801FF7D5994218BF704727
:1058800008BF904270474FF4001C1CEB430F38BF19
:105890001CEB410F01D2994270470FB40CBC03BC02
:1058A000FFF7C1BE91EA030F10B581F000413FF54B
:1058B00065AC83F0004300F0EFB800002DE9F04143
:1058C00001F5801CBCF5001FC0F2C3804FEA115CDB
:1058D00021EA0C510CF1FD0C41F480115FEA5C0CE3
:1058E0000CF5C07C01D3400049413DA4890241EA46
:1058F000905187028E0E0A0CA45D04FB04F602FB95
:1059000006F6C6F14046A4FB0662F60D46EA4226BC
:1059100006FB06F4A4FB01235242C3F1404338BF07
:105920005B1EA6FB02420024E6FB0324D20B42EAE4
:105930004446A6FB0623A1FB02E2A3FB07E4A4184E
:105940004FF0000252F10002E3FB01426442C2F157
:10595000404E38BFAEF1010EA6FB04234FF000020B
:10596000E6FB0E32A2FB03464FF00004B61954F1D9
:105970000004E2FB0264A1FB06E6A4FB07E816EBC9
:1059800008064FF0000858F10008E4FB0168764271
:10599000C8F1405838BFA8F10108A2FB06E4A3FBF8
:1059A00008E52D194FF0000454F10004E2FB0854FF
:1059B000A1FB05E6A7FB04E818EB06084FF000067C
:1059C00056F10006E1FB048618F1200556F10006A9
:1059D000A809A8F11B08B10908F03F08B8F10A0F9F
:1059E00040EA86601CD901EB0C51BDE8F08100BF94
:1059F000FCF5EEE8E2DDD8D3CFCBC7C3C0BDB9B666
:105A0000B4B1AEACA9A7A5A3A19F9D9B9A9896956A
:105A10009392908F8D8C8B898887868584838281F1
:105A2000A0FB006800FB01F208EB4208B8EB8728F6
:105A300007D5341858EB0104D5D5401C51F10001AD
:105A4000D1E7341A78EB0104CDD4401E71F1000186
:105A5000C9E75FEA4C0C5FEA9C5C0DD105D34FF0BF
:105A6000000001F00041BDE8F081BDE8F04170B5F3
:105A7000FFF78EFE6DDBFFBEBDE8F0414FF000008A
:105A8000004970470000F87F10B591EA030F48BF46
:105A900083F000433FF572AB841A71EB030C07D21D
:105AA00012198CF0004C43EB0C03001B61EB0C0152
:105AB000DFF8A4E14FEA1154A4EB135C1EEA430F94
:105AC00018BF9EEA445F00F0B08023EA6E035242A2
:105AD00021EA0451C3EB6E0338BF5B1EDCF1200EDC
