:020000040800F2
:1000000080110020790200081D2C0008011F000843
:10001000192C00083D1900089B370008000000005B
:10002000000000000000000000000000112F000888
:100030007B19000800000000D92D0008FD2F0008E2
:10004000930200089302000893020008930200083C
:10005000930200089302000893020008930200082C
:10006000930200089302000893020008930200081C
:10007000930200089302000893020008930200080C
:1000800093020008930200089302000893020008FC
:1000900093020008930200089302000893020008EC
:1000A00093020008930200089302000893020008DC
:1000B00093020008930200089302000893020008CC
:1000C00093020008930200089302000893020008BC
:1000D00093020008930200089302000893020008AC
:1000E000930200089302000893020008930200089C
:1000F000930200089302000893020008930200088C
:10010000930200089302000893020008930200087B
:10011000FD340008930200086130000893020008D3
:10012000930200089302000893020008930200085B
:1001300000F002F800F090F80AA090E8000C824469
:100140008344AAF10107DA4501D100F085F8AFF246
:10015000090EBAE80F0013F0010F18BFFB1A43F0A5
:10016000010318474855000068550000103A24BFA5
:1001700078C878C1FAD8520724BF30C830C144BF0C
:1001800004680C607047000000230024002500264E
:10019000103A28BF78C1FBD8520728BF30C148BFEA
:1001A0000B6070476E2900F04D81702900F0978236
:1001B000662905F01881652905F01581672905F084
:1001C00012816129AFF3008003681B0A28BF41F048
:1001D0008001692900F0FA80642900F0F780752910
:1001E00000F0F4806F2900F02582782900F0638206
:1001F000E92900F0BF81E42900F0BC81F52900F075
:10020000B981EF2900F02282F82900F062820368A8
:10021000DB0928BF41F08001632900F0E8857329DC
:1002200000F0ED85E32900F0F885F32900F0FD8565
:10023000002070471FB500F04FFE04000020002191
:1002400003F0BEFF401C60600020002103F0A2FF0D
:10025000E0601FBD10B510BD00F010FE1146FFF7A5
:10026000E9FF03F0DDFE00F0E9FE03B4FFF7F2FF63
:1002700003BC00F02DFF00000948804709480047F3
:10028000FEE7FEE7FEE7FEE7FEE7FEE7FEE7FEE746
:10029000FEE7FEE704480549054A064B70470000A3
:1002A0000130000831010008800100208011002089
:1002B00080090020800900207CB51D4616460C00F0
:1002C000009001D02044401E074B7B442A466946DB
:1002D0000190304600F0CFF805461CB10020694679
:1002E00000F0DCF828467CBDD9010000704770475B
:1002F000704710B500F0C2FA006810BD10B5044692
:1003000000F0BCFA046010BD70B504468569006851
:10031000C10601D5302600E02026C00707D070BDF9
:10032000D4E9012130469047206A401C20626D1EAE
:10033000F6D570BD70B5044685690078C00707D151
:1003400070BDD4E9012120209047206A401C206222
:100350006D1EF6D570BD09684A0501D540B27047DB
:10036000C905FCD500B2704709684A0501D5C0B27D
:100370007047C905FCD580B2704770B50C4605467C
:10038000012A05D02878800600D5EA69002302E01A
:10039000012305E05B1C934202D2E05C0028F9D106
:1003A000A869E618C01AA861286A18442862284675
:1003B000FFF7AAFF04E0D5E9012114F8010B9047EB
:1003C000B442F8D32846FFF7B5FF70BD2DE9F041E0
:1003D0000646002410687529314616A510D0FFF78F
:1003E000BAFF002802DA404213A507E031688A0705
:1003F00001D512A502E0490704D511A5012401E0A9
:10040000FFF7B2FF00210A2206F1240709E0B0FB42
:10041000F2FCB0FBF2F302FB1C00303078541846BB
:10042000491C0028F3D123462A463046BDE8F04156
:1004300000F06DBA000000002D0000002B0000004D
:100440002000000011680268006A530501D5087099
:100450000AE0D30501D5088006E0130603D5C217CC
:10046000C1E9000200E008600120704701694A1CF0
:1004700002610878704700B58FB0CDE901310021E5
:10048000059105497944CDE903101146684600F00D
:1004900031F90FB000BD0000E5FFFFFF0A6802F868
:1004A000010B0A607047D1E900239A4202D2531C23
:1004B0000B601070704700002DE9FF5F15468A46FB
:1004C0000446DFF8AC80F8440027D8E900103E4627
:1004D000CDE9001010E03AF816106A4602A800F0C4
:1004E000A8FC411C07D02178890603D5E269391898
:1004F00091420DD80744761C2078800602D5E06929
:10050000B84205DDAE42E6DB3AF816000028E2D13B
:10051000A069C01BA0612046FFF7F6FED8E90010D5
:10052000CDE90010002017E03AF818106A4602A83A
:1005300000F07FFCB0F1FF3F81460BD000250DF1AC
:10054000080B05E0D4E901211BF8050090476D1C5C
:100550004D45F7D308F10100B0428046E4DB206A44
:10056000384420622046FFF7E5FEBDE8FF9F00000B
:10057000665000002DE9F0418046D21D22F00702AE
:100580000025D2E90002F52915A614D0011E72F14A
:10059000000106DA0023D0EB030063EB020211A690
:1005A00008E0D8F800108B0701D50FA602E0490734
:1005B00001D50EA601251146002408F1240704E008
:1005C00000F060F930323A55641C50EA0102F7D16C
:1005D0002B46324621464046BDE8F04100F097B92F
:1005E000000000002D0000002B0000002000000093
:1005F00030B4002100F1240408E002F00705D2081D
:10060000303542EA4372DB086554491C52EA03055F
:10061000F3D10468002310A2250708D504F02004B4
:100620000C4304D0C46901230CA2641EC46130BC15
:1006300000F06DB910B5044621461068FFF794FE2E
:1006400002462046BDE810400023D1E7D21D22F02B
:100650000701D1E90023CBE70000000030000000D3
:10066000F0B40D460188090502D5214C7C4402E016
:100670001F4C7C440E34002100F1240608E002F0F7
:100680000F071209E75D42EA03721B097754491C00
:1006900052EA0307F3D102780023120704D5702D24
:1006A00006D009B1022311342246F0BC00F02FB964
:1006B00001231034F8E770B504460D462146106852
:1006C000FFF752FE024629462046BDE8704000234F
:1006D000C6E7D21D22F00703D3E90023C0E7036871
:1006E000126843F0200303600823C3610023B7E7C7
:1006F000C84E00002DE9F05F894604464FF0000A1D
:10070000DFF874B1FB44C0F820A02046E1688847B8
:10071000002874D0252806D0D4E901219047206A0A
:10072000401C2062F1E700265F462046E1688847CA
:100730002028054607DB312D05D2781910F8200C4A
:1007400008B10643F1E7B00701D526F00406C4F866
:100750001CA00027C4F818A02A2D09D0284603F0B1
:100760001FF938B304EB8708303DC8F8185019E07A
:1007700059F8041B204604EB87029161E168884721
:10078000012F054618D1E069002820DA26F020065E
:100790001DE0D8F8180000EB800005EB4000303871
:1007A000C8F818002046E1688847054603F0F8F8C5
:1007B0000028EED1012F0AD02E2D08D12046E16865
:1007C00088477F1C0546022F46F02006C4DBA0693F
:1007D000002803DA404246F00106A061F00701D08C
:1007E00026F010066C2D0BD0682D09D04C2D39D079
:1007F0006A2D35D0742D35D07A2D33D016E038E0FF
:10080000E1682F4620468847B842054609D16C2F3B
:1008100026D04FF48060E1680643204688470546AD
:1008200004E06C2F1AD04FF4807006430DB3A5F18D
:100830004100192802D8203546F400664A46294668
:10084000204626604E46FFF7ADFC80B101280BD054
:10085000F61D26F0070000F1080956E74020E4E7FE
:100860008020D8E70020D6E706F104094DE72846A6
:1008700052E7206ABDE8F09F584E000000487047DC
:100880001C01002030B5B0F10A024FEA900E71F160
:1008900000034EEA817EB0EB0E0061EB91014FEA5E
:1008A000101E4EEA017E10EB0E0041EB11114FEAD3
:1008B000102E4EEA016E10EB0E0041EB11214FEAB3
:1008C000104E4EEA014E10EB0E0041EB1141401864
:1008D00041F100014FEAD00040EA41704FEAD101F6
:1008E00010EB80054FEA810444EA907444EB010464
:1008F0006D1944EB0404521BA3414FF0000348BFA1
:100900000A3200D530BD401C41F1000130BD2DE957
:10091000F0470D4699469246044600F124080168C6
:10092000880604D5E06921F01001216000E0012073
:10093000A84201DD471B00E00027A1697A1902EBFC
:100940000900081AA0612078C00602D42046FFF7EB
:10095000DBFC002608E0D4E901211AF806009047E4
:10096000206A401C761C20624E45F4DB2078C006CD
:100970000AD52046FFF7C8FC06E0D4E90121302063
:100980009047206A401C2062381EA7F10107F4DC62
:1009900007E0D4E9012118F805009047206A401CBF
:1009A0002062281EA5F10105F3DC2046FFF7C2FCFA
:1009B0002078000602D50220BDE8F0870120FBE781
:1009C00070472DE9FF4F0C461E464FF0FF378BB0A6
:1009D000D2E90001DDF860800A908A46C1F30A5529
:1009E00005B93D46002108464FF00000BAF1000F5E
:1009F00000F4400005DA00EB80004FF4400101EA0A
:100A000050004FEA9059B9F1010F00DDB9460A983C
:100A100050EA4A000ED044F61050A5F2FF35454387
:100A20002F14B8F1000F1ED07542291E1EDDC9F12A
:100A300000021CE0B8F1010F4FF0000001D030219E
:100A400003E0F24305E02154401CB042FBDB30469A
:100A50000022002121540B99C1F80880C1E900202F
:100A60000FB0BDE8F08FBD1B6D1CDEE74A4600DA13
:100A7000694206A800F074FA06AB93E8070003ABDE
:100A800083E8070050460A9900F029FB8DE807002B
:100A9000A0F500501F3800900398002D09DD42F2A8
:100AA0001F014A46084403A90390684600F088FDE8
:100AB00008E0A0F500504A461F3803A90390684695
:100AC00000F092FD8DE807000004000C03D04FF009
:100AD000FF30410800E01046B8F1000F03D00022BB
:100AE000009215461EE0751E05D4FFF7CBFE30328E
:100AF00062556D1EF9D5B3460122084302D000228B
:100B00007F1C04E02078302801D100227F1E002ABB
:100B1000099786D01DE0112D07DAFFF7B3FE3032BA
:100B200062556D1C50EA0102F5D1084302D00098CD
:100B3000C8B10EE00021681E05E0235C625C6354CE
:100B40002254401E491C8142F7DBAB46A81B401EC5
:100B50000990002004F80B000B98099AC0F808804F
:100B6000C0E9002B7CE711264FF0000859E72DE97A
:100B7000F04F88460446D21D22F0070191B0D1E91A
:100B80000001CDE90A0102F08FFE02460B98C00F6A
:100B900001D02D2007E02068810701D52B2002E03D
:100BA000202101EAC000032A099001D0072A05DBB1
:100BB00003464146204600F093F90BE12078800679
:100BC00001D5E06900E00620B8F1650F814606D046
:100BD000B8F1660F18D0B8F1670F70D131E000207E
:100BE000B9F1110F009001DB112301E009F10103BC
:100BF0000AAA01A90CA8FFF7E4FEDDE90C700026A3
:100C000009F10105834647E001204B4600904FF073
:100C100000470AAA01A90CA8FFF7D3FEDDE90DB031
:100C20000C995D46002610B909F101000D18B9EBC9
:100C3000050003D4C0F1FF3609F10105A5EB090059
:100C40002BE0B9F1010F01DA4FF001090020B9F1F1
:100C5000110F0090484601DD112300E003460AAA67
:100C600001A90CA8FFF7ADFEDDE90C704D4600268A
:100C70008346207800070AD4AB4500DA5D4601A818
:100C8000012D04DD411911F8011C302907D04F4511
:100C900002DA17F1040F04DA012082460FE06D1E1C
:100CA000EEE7002F02DCED1B3E4403E0781CA84277
:100CB00000DD7D1CB81B00F1010A4FF000472078D1
:100CC000000703D4AA4501DB4FF0FF3A0021B7F13A
:100CD000004F0DF143088DF8431024D002202B2340
:100CE000002F01DA7F422D230A21021EA0F101000C
:100CF00000DC5FB197FBF1FC97FBF1F201FB1C7C80
:100D000017460CF1300C08F801CDEEE7A8F1010010
:100D100003702188090501D5452100E06521A0F176
:100D2000010800F8011C09980FA9A1EB0807FF1D95
:100D300000B10120411901EBEA70A1693844081A99
:100D4000401EA0612078C00602D42046FFF7DCFADE
:100D5000099828B1D4E901219047206A401C2062FB
:100D60002078C00622D52046FFF7CEFA1EE0002EDE
:100D700004DBB34502DD01A8805D00E03020D4E94A
:100D800001219047206A401C2062761CAAF10100D4
:100D90005FEA000A0AD100F09FF8C0680168405C71
:100DA000D4E901219047206A401C2062281EA5F149
:100DB0000105DCDC07E0D4E9012118F8010B9047BC
:100DC000206A401C2062381EA7F10107F3DC204690
:100DD000FFF7B0FA032011B043E610B5436913B131
:100DE000AFF3008001E0FFF7C8FA012010BD1278D0
:100DF00000F124010A7000224A700122EDE7116817
:100E00004FF0FF32E9E710B5436913B1AFF300804B
:100E100001E0FFF751FB012010BD128800F1240111
:100E200082840022C2840122EDE711684FF0FF3274
:100E3000E9E770B516460C46054600F045F803682C
:100E400093F80101012806D0FF2C0FD8185D68B176
:100E500001202C7070BDD3F807013246214603F201
:100E6000071303442846BDE8704018474FF0FF3091
:100E700070BD0000004870471C0100207546FFF758
:100E8000F9FFAE4605006946534620F00700854647
:100E900018B020B5FFF7FEF9BDE820404FF000067E
:100EA0004FF000074FF000084FF0000B21F0070152
:100EB000AC46ACE8C009ACE8C009ACE8C009ACE895
:100EC000C0098D467047000010B500F005F8001D00
:100ED00010BD00BFED320000004870473C0100200B
:100EE0002DE9F0411F46044603260168072A01F454
:100EF000006004DB08B116A505E016A503E008B103
:100F000015A500E015A521F010002060A069C01E05
:100F1000A0610FB1401EA0612046FFF7F5F94FB167
:100F2000D4E9012138469047206A401C2062C01C49
:100F3000206206E0206AFAE7D4E9012115F8010BE6
:100F40009047761EF8D22046FFF7F4F9BDE8F0810D
:100F50004E414E006E616E00494E4600696E66005D
:100F60002DE9F047814616468AB0334878440DC8CB
:100F70008DE80D0030487844801C03AC0DC884E82F
:100F80000D0041F69B300844372190FBF1F290FBB5
:100F9000F1F5A5F1800501FB12041B3C02D564426A
:100FA000012000E00020DFF890A080460027FA44EE
:100FB000AAF1BE0A0DE0E00709D03246684607EB09
:100FC00047010AEB810100F00FFB8DE80700641078
:100FD0007F1C002CEFD1184F7F44AC3F18E0E8078E
:100FE00014D007EB04100DF1180A90E80E008AE8FF
:100FF0000E00C068F04201D198190890324606A947
:1010000003A800F0F1FA03AB83E807006D10641C3D
:10101000002DE4D132466946B8F1000F03A802D092
:1010200000F0CEFA01E000F0DFFAC9E90001C9F8EA
:1010300008200AB0BDE8F0872447000010B5044638
:10104000AFF300802046BDE81040FFF70EB9000066
:101050004FF0013C50F8042B51F8043B9A4221D147
:10106000A2EB0C03934313EACC1317D150F8042BD3
:1010700051F8043B9A4215D1A2EB0C03934313EAB7
:10108000CC130BD150F8042B51F8043B9A4209D1F0
:10109000A2EB0C03934313EACC13DBD04FF0000018
:1010A000704700BFD01A01BAB1FA81F101F01801FE
:1010B00022FA01F0CB40C1F12001DBB2C0B2C01A6C
:1010C0002CFA01F3D11A914311EAC311E6D170470A
:1010D00001491820ABBEFEE72600020070475FEA18
:1010E000400C08BF91F0000F4FEA8C234FEAC12259
:1010F00043EA51514FEA1C5018BF00F5F0404FEA47
:10110000300018BF41F000415FEA6C5C00F02980BC
:10111000BCF1FF3F08BF40F080407047130C06BF92
:1011200012044FF0100C4FF0000C130E04BF12020B
:101130000CF1080C130F04BF12010CF1040C930FF7
:1011400004BF92000CF1020CD30F04BF52000CF14B
:10115000010C11464FF00002A0F11F00A0EB0C00A3
:10116000704711F0004F08BF704731F000413FF465
:10117000D5AF0B0C06BF09044FF0100C4FF0000C5C
:101180000B0E04BF09020CF1080C0B0F04BF090180
:101190000CF1040C8B0F04BF89000CF1020CCB0F77
:1011A00004BF49000CF1010CCCF12003A0EB0C00B2
:1011B00022FA03F302FA0CF241EA030100F1010002
:1011C000704720F07F4C80EA030023F07F47ACEBB0
:1011D000070303F57C5300F0004003F1FF032DE902
:1011E00080494FEA154B09B44FEA144325EA0B4EE8
:1011F00024EA03480FF2042606EB132749083E7839
:101200005FEA320203FB0667C7F5000707FB06F635
:101210004FEA54374FEAD64606F1020607FB066C42
:10122000CCF1005C4FEA1C472CEA074C07FB06F4A4
:101230000CFB06F504EB15464FEA961634BF00206A
:101240004FF000404FEAD13706FB07FC4FEA1C4C39
:101250000CFB0BF7D21B03FB0CF761EB07010CFB3C
:101260000EF7B0EB074072EB17420CFB08F734BFE8
:10127000A2EB0742B2EB074261EB17414FEA0C4485
:101280004FEA910706FB07FC4FEA1C4C0CFB0BF7DF
:10129000B0EBC74072EB573203FB0CF734BFA2EB45
:1012A000C742B2EBC74261EB57310CFB0EF7B0EB14
:1012B000C70072EB57720CFB08F734BFA2EBC702F2
:1012C000B2EBC70261EB5771039F4FEA816141EABC
:1012D000921104EBCC044FEAD1374FEA826206FB4D
:1012E00007FC42EA90124FEA80604FEA1C4C0CFB6C
:1012F0000BF7D21B03FB0CF761EB07010CFB0EF79E
:10130000B0EB074072EB17420CFB08F734BFA2EBBF
:101310000742B2EB074261EB17414FEA8C554FEAA7
:10132000910704EB9C2406FB07FC4FEA1C4C0CFBCA
:101330000BF7B0EBC74072EB573203FB0CF734BF2F
:10134000A2EBC742B2EBC74261EB57310CFB0EF781
:10135000B0EBC70072EB57720CFB08F734BFA2EB7F
:10136000C702B2EBC70261EB577115EB4C254FEA90
:10137000816141EA92114FEA82624FEAD13742EA33
:10138000901206FB07FC44F100044FEA80604FEA2C
:101390001C4C0CFB0BF7D21B03FB0CF761EB07019A
:1013A0000CFB0EF7B0EB074072EB17420CFB08F793
:1013B00034BFA2EB0742B2EB074261EB174115EBDA
:1013C0001C154FEA813141EA92414FEA823242EAEA
:1013D00090424FEA80304FEA0C7644F1000448EA2C
:1013E00003434EEA0B484FF0000EB2EB080C71EBD2
:1013F000030724BF624639464EEB0E0E4FF0000B3A
:101400000018524149414BEB0B0BB2EB080C71EB4E
:1014100003077BF1000B24BF624639464EEB0E0EEC
:101420004FF0000B0018524149414BEB0B0BB2EB54
:10143000080C71EB03077BF1000B24BF62463946B1
:101440004EEB0E0E51EA020718BF46F0010616EBEE
:101450000E7655F1000254F1000103D5BDE8890173
:10146000BDE80088BDE88901BDE80048B6195241D1
:1014700041EB0101A3F10103704780807F7E7D7CF9
:101480007B7A7978777676757473727171706F6E16
:101490006E6D6C6C6B6A6A696868676666656464C1
:1014A000636362616160605F5F5E5E5D5D5C5C5B4B
:1014B0005B5A5A59595858575756565555555454BA
:1014C000535352525251515050504F4F4F4E4E4D18
:1014D0004D4D4C4C4C4B4B4B4A4A4A494949484864
:1014E00048474747474646464545454444444443A4
:1014F00043434342424242414141002B26D47700BC
:1015000021D01CB54FEA370703B44FF010004FF05D
:1015100010014FF000000FBCBDE810400BF1010BB3
:10152000BBF1010F08BF5FEA170722BF12F10102EA
:1015300011F101014FF0004143F1000300F00040C0
:1015400043EA00007047F9D35708DAE746EA06464F
:1015500013F1400F4FEA16461FDD13F1200FDFBFD6
:1015600016430A46002120335B42C8D0C3F120074E
:1015700046EA064602FA07F74FEA164646EA070623
:10158000C3F1200722FA03F201FA07F721FA03F167
:101590004FF0000342EA0702B1E746EA020646EAD4
:1015A00006464FEA164646EA0106BCBF46EA06462C
:1015B000360C4FF000034FF000024FF000019EE7A1
:1015C0002DE9C048934630B491E8380007C831EAA5
:1015D000400C48BF34EA430C03D5FFF7F2FDFFF798
:1015E0008CFFF0BCBDE800882DE9C048934630B4BC
:1015F00091E8380007C810F0804F08BF13F0804F03
:1016000003D100F005F8FFF778FFF0BCBDE80088D3
:1016100020F07F4780EA030023F07F4C07EB0C03A8
:10162000A3F57C5300F00040A3F1FE0392F0000FFD
:1016300000F0B38095F0000F00F077802DE90149AC
:101640004FEA11404FEA144621EA004800FB06FC2D
:1016500024EA064708FB06F607FB08F800FB07F735
:1016600018EB06484CEB164C4FEA124B18EB0748A8
:101670004FEA15464CEB174022EA0B4E0BFB06FCDB
:1016800025EA06470EFB06F607FB0EFE0BFB07F7E7
:101690001EEB064E4CEB164C4FF000061EEB074EB1
:1016A0004CEB174B18EB0B0840F1000018EB0E0B3E
:1016B00058EB000840F100008F1A4FF000013CBFCA
:1016C000C943661B14BFB5EB040C00213CBFC943E2
:1016D000F61B4FEA17444EEA8E0E27EA04454FEAFE
:1016E0001C4704FB07622CEA074C05FB07F70CFBC1
:1016F00005F604FB0CFC16EB074642EB174216EB13
:101700000C4642EB1C421BEB060658EB0202414121
:1017100046EA9E0601D5BDE80189B619524141EB62
:101720000101A3F10103BDE801894FEA14454FEA25
:10173000114724EA054621EA074C05FB07F406FB9E
:1017400007F70CFB06F105FB0CFC11EB074144EB22
:1017500017444FEA124711EB0C4144EB1C4422EAB8
:10176000074C05FB07F206FB07F70CFB06F605FB2B
:101770000CFC16EB074642EB174216EB0C4642EB0D
:101780001C456A1854F1000148BF7047B619524110
:1017900041EB0101A3F10103704795F0000F37D031
:1017A0004FEA11424FEA144721EA024624EA074C65
:1017B00002FB07F106FB07F70CFB06F402FB0CFC2F
:1017C00014EB074441EB17414FEA154714EB0C4467
:1017D00041EB1C4125EA074C02FB07F506FB07F726
:1017E0000CFB06F602FB0CFC16EB074645EB174517
:1017F00016EB0C4645EB1C42121951F1000148BF93
:101800007047B619524141EB0101A3F10103704742
:101810004FEA14454FEA114724EA054621EA074CEE
:1018200005FB07F106FB07F70CFB06F24FF000067D
:1018300005FB0CFC12EB074241EB174112EB0C428B
:1018400051EB1C4148BF7047921841EB0101A3F1D5
:101850000103704700B589B00121084601F0BEFAC6
:1018600001210D2001F0DAFA40F60840ADF804003D
:1018700018208DF8070003208DF8060001A92B48D9
:1018800000F05EF94FF40040ADF8040001A92848CB
:1018900000F056F90121274800F0DEF90121264821
:1018A00000F0DAF90020ADF81800ADF81A0040F6A3
:1018B000FF70ADF81C000020ADF81E008DF8200070
:1018C00006A94FF0804001F0C7FD6020ADF8080088
:1018D0000120ADF80A000420ADF80C000020ADF89E
:1018E0000E00ADF810000820ADF812004001ADF870
:1018F00014000020ADF8160002A94FF0804001F05E
:1019000075FC02A94FF0804001F0BCFC02A94FF029
:10191000804001F009FD02A94FF0804001F054FD24
:101920000121880701F03BFC09B000BD000C01401B
:1019300000080140000318000002300000BFFEE76D
:1019400030B502460B464FF6FF70002112E0555CA1
:10195000684000240AE000F0010525B14AF20105C3
:1019600085EA600000E04010651CECB2082CF2DB58
:101970004D1CE9B29942EADB30BD70472DE9FC5FAE
:101980000024694903C902F031FC81464A46674890
:101990000168674801F0EAF905462946204603F048
:1019A000ADFC019084F000492946484603F0A6FCAE
:1019B000064684F000492946484603F005FA0746E2
:1019C0002946204603F000FA80465A48007800284D
:1019D00054D0019801F0DAF85749009003F090FBD9
:1019E0008346564903F05EFA824603F01DFB1FFA58
:1019F00080F949464FF0804001F024FD304601F067
:101A0000C5F84D49009003F07BFB83464B4903F03A
:101A100049FA824603F008FB1FFA80F949464FF065
:101A2000804001F011FD384601F0B0F842490090C5
:101A300003F066FB8346414903F034FA824603F023
:101A4000F3FA1FFA80F949464FF0804001F0FEFC9E
:101A5000404601F09BF83849009003F051FB834663
:101A6000364903F01FFA824603F0DEFA1FFA80F9C6
:101A700049464FF0804001F0EBFC53E0002001F0BC
:101A800085F82D49009003F03BFB83462B4903F07A
:101A900009FA824603F0C8FA1FFA80F949464FF066
:101AA000804001F0CFFC002001F070F82249009046
:101AB00003F026FB8346214903F0F4F9824603F044
:101AC000B3FA1FFA80F949464FF0804001F0BCFCA0
:101AD000002001F05BF81849009003F011FB8346E9
:101AE000164903F0DFF9824603F09EFA1FFA80F9E7
:101AF00049464FF0804001F0A9FC002001F046F873
:101B00000D49009003F0FCFA83460C4903F0CAF932
:101B1000824603F089FA1FFA80F949464FF0804067
:101B200001F096FCBDE8FC9FA0000020B80000205A
:101B3000DC000020C000002000F07F450000C8420B
:101B40002DE9F04102460025002600200023002454
:101B5000002791F803C00CF00F0591F803C00CF0BA
:101B6000100CBCF1000F03D091F802C04CEA05053F
:101B700091F800C0BCF1000F31D0146800202BE0B8
:101B80004FF0010C0CFA00F3B1F800C00CEA0306A8
:101B90009E4220D183004FF00F0C0CFA03F7BC4398
:101BA00005FA03FC4CEA040491F803C0BCF1280FC9
:101BB00006D14FF0010C0CFA00FCC2F814C00AE088
:101BC00091F803C0BCF1480F05D14FF0010C0CFA9D
:101BD00000FCC2F810C0401C0828D1D31460B1F832
:101BE00000C0BCF1FF0F34DD546800202EE000F18E
:101BF000080C4FF0010808FA0CF3B1F800C00CEA29
:101C000003069E4221D183004FF00F0C0CFA03F71C
:101C1000BC4305FA03FC4CEA040491F803C0BCF190
:101C2000280F05D100F1080C08FA0CF8C2F814804E
:101C300091F803C0BCF1480F07D100F1080C4FF038
:101C4000010808FA0CF8C2F81080401C0828CED30E
:101C50005460BDE8F0810000F0B50A46002300247E
:101C60000021002500F00046B6F1004F02D11D4EC4
:101C7000F16901E01B4E7168C0F3034583B200F4C3
:101C80004016B6F5401F08D121F07061154E7668F8
:101C900026F07066134F7E6012E000F48016B6F5F1
:101CA000801F06D1032606FA05F4A14341F07061B6
:101CB00006E0460D360103FA06F6B14341F07061C5
:101CC00022B1460D360103FA06F6314300F0004614
:101CD000B6F1004F02D1034EF16101E0014E716097
:101CE000F0BD000000000140416170470161704794
:101CF0002DE9F05F01233B22D021354800F0FEF9A9
:101D00003449088001233D22D021314800F0F6F902
:101D10003149088001233F22D0212D4800F0EEF9FF
:101D20002E4908802B48B0F9000003F09DF9834646
:101D30004FF0804103F0E4F9824603F019F8804641
:101D4000274A284B02F004FD06460022264B02F0EB
:101D50003BFB044602F04AFA244908601E48B0F9E9
:101D6000000003F081F983464FF0804103F0C8F989
:101D7000824602F0FDFF8046194A1A4B02F0E8FC49
:101D800006460022184B02F01FFB044602F02EFA12
:101D9000174908601148B0F9000003F065F983465F
:101DA0004FF0804103F0ACF9824602F0E1FF0646B5
:101DB0000B4A0C4B02F0CCFC044600220A4B02F00A
:101DC00003FB804602F012FA0A490860BDE8F09F62
:101DD0000054004026000020280000202A00002097
:101DE0009A999999999923400000E0404000002079
:101DF00044000020480000202DE9F05F0123432229
:101E0000D021344800F07AF9334908800123452273
:101E1000D021304800F072F9304908800123472270
:101E2000D0212C4800F06AF92D4908802A48B0F9E1
:101E3000000003F019F983462A4903F061F982464C
:101E400002F096FF80460022274B02F0BDFA0646BC
:101E5000264A274B02F0B8FA044602F0C7F9254992
:101E600008601E48B0F9000003F0FEF883461D49E3
:101E700003F046F9824602F07BFF804600221A4BAF
:101E800002F0A2FA0646194A194B02F09DFA0446DE
:101E900002F0ACF9184908601148B0F9000003F0ED
:101EA000E3F883460F4903F02BF9824602F060FF06
:101EB000064600220C4B02F087FA04460B4A0C4BF4
:101EC00002F082FA804602F091F90C490860BDE800
:101ED000F09F00000054004020000020220000205D
:101EE000240000200000FA430000E040295C8FC27B
:101EF000F5A84C4034000020380000203C000020B1
:101F000000BFFEE721B1028842F48062028004E053
:101F100002884FF6FF331A40028070472DE9F041E6
:101F20000746884614461E46069D00BF4FF4003102
:101F3000384600F057F90028F8D10121384600F062
:101F400039F900BF2C49384600F09AF80028F9D03A
:101F500000224146384600F01DFA00BF27493846A6
:101F600000F08EF80028F9D00121384600F09DF8E5
:101F70003146384600F017FA00BF2049891C384620
:101F800000F07EF80028F8D00121384600F012F960
:101F900000BF1949384600F073F80028F9D0012233
:101FA0004146384600F0F6F900BF1349491C38464F
:101FB00000F066F80028F8D016E0012D07D10021C6
:101FC0003846FFF79FFF0121384600F0FFF80A4925
:101FD0003F31384600F054F830B1384600F0D6F9B9
:101FE0002070641C681E85B2002DE6D101213846A0
:101FF000FFF788FFBDE8F0810100030082000700C1
:102000002DE9F04106460F4614461D460121304693
:1020100000F0D0F800BF1849304600F031F8002831
:10202000F9D000223946304600F0B4F900BF134918
:10203000304600F025F80028F9D02946304600F057
:10204000B2F900BF0D49891C304600F019F800288C
:10205000F8D02146304600F0A6F900BF0749891C98
:10206000304600F00DF80028F8D00121304600F08D
:10207000ADF8BDE8F0810000010003008200070018
:1020800070B502460024002500230020958A138B9A
:102090001B0445EA030626F07F4404EA01068E424B
:1020A00001D1012000E0002070BD21B1028842F082
:1020B0000102028004E002884FF6FE731A4002809B
:1020C0007047000010B504460B48844209D1012135
:1020D000480500F093FE00214FF4001000F08EFE42
:1020E00008E00121880500F089FE00214FF48000FE
:1020F00000F084FE10BD0000005400402DE9FC41BA
:1021000006460F4614461D460220234601AA3946BC
:1021100000903046FFF702FF012D08D19DF8050021
:102120009DF8041000EB012000B2BDE8FC819DF891
:1021300004009DF8051040EA012000B2F5E7000018
:1021400070B506461948864202D1C414051501E04F
:10215000802440250DE029461548FFF7C7FD0A20D9
:1021600001F040FF29461248FFF7BEFD0A2001F0AA
:1021700039FF0F480C30006820400028EBD029467A
:102180000B48FFF7B3FD21460948FFF7ADFD0A20D4
:1021900001F028FF21460648FFF7A8FD0A2001F0BC
:1021A00021FF0121304600F000F970BD00580040C9
:1021B000000C014021B1028842F48072028004E0E8
:1021C00002884FF6FF631A400280704721B10288EF
:1021D00042F40072028004E002884FF6FF531A4076
:1021E000028070470CB50246002000230193009343
:1021F00000920B0F019321F07F41019B1BB1009BCB
:102200001433009303E0090C009B18330093009BE8
:102210001B680B400BB1012000E000200CBD1AB17F
:1022200083880B43838002E083888B4383807047DD
:102230002DE9F04385B004460D460026B14604273B
:10224000DFF8CC80A6884FF6C0700640684600F0E4
:10225000F5FDDDF808802F48B8FBF0F01FFA80F993
:1022600046EA0906A68020884FF6FE7108402080C5
:1022700000262949286888420CD828684000B8FB05
:10228000F0F087B2042F00DA04273E4309F1010081
:10229000208427E0E8884BF6FF71884206D1286841
:1022A00000EB4000B8FBF0F087B209E0286800EBD3
:1022B000C00101EB0010B8FBF0F087B247F4804793
:1022C000C7F30B0008B947F0010747F40040064385
:1022D0004FF4967009FB00F04FF47A7190FBF1F027
:1022E000401C2084A683208840F00100208026889E
:1022F0004FF6F5300640A8886989084306432680D2
:10230000A88929890843208105B0BDE8F083000031
:1023100000127A0040420F00A086010038B5044642
:102320000A48844204D14FF44060ADF8000002E056
:10233000C020ADF8000003208DF802001C208DF8AD
:10234000030069460248FFF7FBFB38BD0058004018
:10235000000C014038B504460A48844204D14FF4C9
:102360004060ADF8000002E0C020ADF8000003209E
:102370008DF8020014208DF8030069460248FFF72B
:10238000DFFB38BD00580040000C01400146088AC0
:10239000C0B2704712B141F0010102E04FF6FE7386
:1023A0001940018270470182704721B1028842F4CE
:1023B0000042028003E00288C2F30E0202807047EE
:1023C00010B586B004462D48844204D10121880509
:1023D00000F004FD03E00121480500F0FFFC0121AD
:1023E000082000F01BFD2548844204D14FF44060D2
:1023F000ADF8140002E0C020ADF8140003208DF801
:1024000016001C208DF8170005A91D48FFF798FB42
:102410000020ADF808004BF6FF70ADF80A00002070
:10242000ADF80C004FF48060ADF80E000001ADF87F
:102430001000144801902046FFF744FE01A92046F1
:10244000FFF7F6FE01212046FFF72FFE01224FF491
:10245000C0612046FFF7E3FE4FF400312046FFF74E
:10246000C1FE28B12046FFF775FF2046FFF768FE42
:102470002046FFF753FF06B010BD00000058004093
:10248000000C0140A08601000FB5A3B0FE48016812
:10249000006802F035FE1D90FC480168FA480068AB
:1024A00002F02EFE1C90FA480168F748006802F01E
:1024B00027FE1B90F5480168006802F021FE1A9083
:1024C000F4480168F148006802F01AFE1990F048DB
:1024D0000168006802F014FE1890EE480168EC48AC
:1024E000006802F00DFE1790EA480168006802F0EB
:1024F00007FE1690E6480168E448006802F000FE16
:102500001590E4480168E048006802F0F9FD149075
:102510002599084602F0F4FD08902499084602F037
:10252000EFFD06902399084602F0EAFD0590069912
:1025300002F04AFC0790089902F046FC099002F06C
:1025400017FCCDE90A0101F0D1FDCDE90C0101F044
:102550004DFE2190219802F00BFCCF4ACF4BCDE9E4
:102560000C0102F0B9F801D227B000BD21992398DF
:1025700002F098FC23902199249802F093FC249077
:102580002199259802F08EFC25901B99199802F04C
:10259000B5FE4FF080410D9002F0B2FD20901799EA
:1025A0001C9802F011FC4FF080410D9002F0A8FD44
:1025B0001F901A991D9802F0A1FE0C90189902F034
:1025C0009DFE0D90169902F0FFFB1E901F99259815
:1025D00002F096FD0D901E99249802F091FD0C904A
:1025E0000D9902F08BFE13901E99239802F088FD3E
:1025F0000D902099259802F083FD0C900D9902F022
:102600007DFE12902099249802F07AFD0D901F997A
:10261000239802F075FD0C900D9902F06FFE119059
:102620009F480168139802F06BFD059002F0A0FB33
:102630009C4A9D4BCDE9060102F08AF8CDE90A01DA
:10264000109802F095FBCDE90801DDE90A2301F0BD
:10265000FFFDCDE90C0101F0C9FD10909048016823
:10266000129802F04DFD059002F082FB8D4A8E4BD0
:10267000CDE9060102F06CF8CDE90A010F9802F0ED
:1026800077FBCDE90801DDE90A2301F0E1FDCDE9A1
:102690000C0101F0ABFD0F9081480168119802F028
:1026A0002FFD059002F064FB7E4A7F4BCDE90601C9
:1026B00002F04EF8CDE90A010E9802F059FBCDE97F
:1026C0000801DDE90A2301F0C3FDCDE90C0101F0A9
:1026D0008DFD0E9075480168139802F011FD0C9065
:1026E000109902F071FB0D90269902F06DFB269077
:1026F0006E480168129802F003FD0C900F9902F0E9
:1027000063FB0D90289902F05FFB289067480168F1
:10271000119802F0F5FC0C900E9902F055FB0D900B
:10272000299902F051FB29905A482999006802F032
:10273000E7FC049056482899006802F0E1FC0290FA
:102740005248006880F000400090269902F0D8FCC2
:102750000190029902F0D2FD0390049902F0CEFD9F
:10276000059002F005FB4F4A514BCDE9060101F0FF
:10277000EFFFCDE90A014448006802F0F9FACDE91B
:102780000801DDE90A2301F063FDCDE90C0101F048
:102790002DFD3D4908603F482899006802F0B0FCD3
:1027A00004903B482999006802F0AAFC0290364840
:1027B0002699006802F0A4FC0190029902F004FB43
:1027C0000390049902F09AFD059002F0D1FA354A7F
:1027D000374BCDE9060101F0BBFFCDE90A012B48DB
:1027E000006802F0C5FACDE90801DDE90A2301F02D
:1027F0002FFDCDE90C0101F0F9FC244908602548C2
:102800002699006802F07CFC049020482999006811
:1028100002F076FC02901C482899006802F070FCD7
:102820000190029902F06AFD0390049902F0CCFA3B
:10283000059002F09DFA1B4A1D4BCDE9060101F0FF
:1028400087FFCDE90A011248006802F091FACDE94C
:102850000801DDE90A2301F0FBFCCDE90C0101F0E0
:10286000C5FC0B4908600A482699006802F048FC3C
:10287000049006482899006802F042FC0290024841
:102880002999006816E000007C00002080000020EC
:1028900084000020880000208DEDB5A0F7C6B03E72
:1028A000900000207B14AE47E17A743F8C0000203A
:1028B000E17A643F02F024FC0190029902F084FA6C
:1028C0000390049902F01AFD059002F051FAA24A11
:1028D000A24BCDE9060101F03BFFCDE90A01A0487A
:1028E000006802F045FACDE90801DDE90A2301F0AC
:1028F000AFFCCDE90C0101F079FC9949086008466C
:102900000168006802F0FCFB0890964801680068C6
:1029100002F0F6FB069094480168006802F0F0FBB4
:10292000049092480168006802F0EAFB0390049961
:1029300002F04AFA0590069902F046FA07900899C3
:1029400002F042FA099002F013FACDE90A0101F00F
:10295000CDFBCDE90C0101F049FC2190219802F05A
:1029600007FA834A834BCDE90C0101F0B5FE00D292
:10297000FAE57E482199006802F094FA7B490860E4
:1029800079482199006802F08DFA77490860754806
:102990002199006802F086FA72490860704821990E
:1029A000006802F07FFA6E490860704801684FF0D5
:1029B000804002F0A5FB06906A480168069802F084
:1029C0009FFB0890684801684FF0404002F098FB78
:1029D000069063480168069802F092FB07900899F8
:1029E00002F0F2F9099002F0C3F9CDE90A0100F012
:1029F000DFFF4FF06632604BCDE90C0101F0A8FE1D
:102A00005E4A03C2574801684FF0804002F078FBED
:102A1000039054480168039802F072FB05905248F5
:102A200001684FF0404002F06BFB03904E48016894
:102A3000039802F065FB0490059902F05FFC4FF0EB
:102A40007E51069002F0C0F9079002F091F9CDE9AD
:102A50000A01464801684FF0804002F051FB0490A3
:102A600041480168049802F04BFB06903D4801681C
:102A70004FF0804002F044FB04903948016804980C
:102A800002F03EFB0590069902F09EF9079002F0D5
:102A90006FF9CDE90801DDE90A2301F0D1F94FF022
:102AA0006632354BCDE90C0101F052FE344A03C2C7
:102AB0004FF08040169902F023FB05904FF0404004
:102AC000189902F01DFB0490059902F017FC4FF0D5
:102AD0007E51069002F078F9079002F049F9CDE9AD
:102AE0000A014FF08040149902F00AFB06904FF063
:102AF0008040159902F004FB0590069902F064F9F4
:102B0000079002F035F9CDE90801DDE90A2301F06B
:102B100097F94FF06632184BCDE90C0101F018FE21
:102B2000184A03C200221346154903C901F00EFFDB
:102B300008D20022144B124903C902F02FF8104AA0
:102B400003C207E00022104B0D4903C901F080FBCE
:102B50000B4A03C200BF07E57B14AE47E17A643F2E
:102B60008800002084000020800000207C000020DD
:102B70008DEDB5A0F7C6B03E66A64C40980000208B
:102B8000A0000020A80000200080664070B5054627
:102B9000094C0A48007800B1094C2146284602F049
:102BA0007BFB01D2254605E00021284602F074FA9D
:102BB00000D20025284670BD0000C0420801002058
:102BC0000000F04110B51248FFF7FAFB114801F080
:102BD00009FA6B230022D0210D48FFF711FA1923BF
:102BE0000722D0210A48FFF70BFA1A230622D02128
:102BF0000748FFF705FA1B230822D0210448FFF7F6
:102C0000FFF91C230122D0210148FFF7F9F910BD7B
:102C10000054004020A1070000BFFEE770470000FD
:102C200070B5002100230F22C47804B3154C24682A
:102C300004F4E064C4F5E064210AC1F10403CA406D
:102C4000447804FA03F184781440214309010E4CBE
:102C50000678A155047804F01F050124AC400578DE
:102C60006D11AD0005F1E025C5F8004109E00478DB
:102C700004F01F050124AC40044D0678761145F898
:102C8000264070BD0CED00E000E400E080E100E0D3
:102C900002490143024A1160704700000000FA0532
:102CA0000CED00E030B58BB0002007900890099043
:102CB0000A90039004900590069000900190029075
:102CC000002500240DE0274850F8240007A941F80A
:102CD000240007A850F8240003A941F82400601C30
:102CE000C4B2042CEFDB002410E003A810F8240089
:102CF0000DF8140003A830F82400C0F307200121C8
:102D000001EB44010DF80100601CC4B2042CECDBA3
:102D100008216846FEF714FE05462846E91705EB2C
:102D200011610912A5EB0121C9B28DF80810E9174C
:102D300005EB1161090A8DF8091000240DE000BFB0
:102D40008021094800F058FC0028F9D01DF8041033
:102D5000054800F01EFD601CC4B20A2CEFDB0BB06E
:102D600030BD00000C010020004C00402DE9FC5F4C
:102D700004460E4617463946304602F0BFFA05466D
:102D80002846216902F0BAFA019025612946E068D7
:102D900002F01AF8E0606169E06802F07DFA01D2A1
:102DA0006069E060D4E9021002F0AAF98246616825
:102DB000019802F0A5F900902846216802F0A0F9D8
:102DC0008346009902F000F88146514601F0FCFF6D
:102DD00080464046BDE8FC9F7047000029B1064A86
:102DE000D2690243044BDA6104E0034AD2698243A8
:102DF000014BDA61704700000010024029B1064A19
:102E000012690243044B1A6104E0034A12698243C7
:102E1000014B1A61704700000010024029B1064AB8
:102E200092690243044B9A6104E0034A9269824327
:102E3000014B9A61704700000010024030B500213C
:102E40000022002400232D4D6D6805F00C0121B1F6
:102E5000042905D0082923D105E0294D056022E089
:102E6000274D05601FE0254D6D6805F47012234D58
:102E70006D6805F48034022505EB92421CB9214DA2
:102E8000554305600BE01D4D6D6805F400351DB11F
:102E90001C4D5543056002E0194D5543056002E0A5
:102EA000174D056000BF00BF144D6D6805F0F001BF
:102EB0000909154D6B5C0568DD4045600F4D6D6877
:102EC00005F4E061090A104D6B5C4568DD408560E2
:102ED0000A4D6D6805F46051C90A0B4D6B5C45687D
:102EE000DD40C560054D6D6805F44041890B074D17
:102EF0006B5CC568B5FBF3F5056130BD00100240A1
:102F000000127A0000093D0000000020100000209F
:102F1000704710B500F002F810BD00000CB500209D
:102F2000019000903348006840F4803031490860D7
:102F300000BF3048006800F4003000900198401C49
:102F40000190009818B90198B0F5A06FF1D1294807
:102F5000006800F4003010B10120009001E0002072
:102F600000900098012843D12348006840F01000E9
:102F7000214908600846006820F003000860084600
:102F8000006840F0020008601A484068194948602B
:102F90000846406848600846406840F480604860E1
:102FA0000846406820F47C1048600846406840F4B9
:102FB000E81048600846006840F08070086000BF74
:102FC0000C48006800F000700028F9D009484068FB
:102FD00020F00300074948600846406840F00200BE
:102FE000486000BF0348406800F00C000828F9D191
:102FF0000CBD00000010024000200240704700009D
:1030000010B51348006840F00100114908600846F7
:103010004068104908400E494860084600680E495B
:1030200008400B4908600846006820F480200860CA
:103030000846406820F4FE0048604FF41F00886096
:10304000FFF767FF4FF000600449086010BD000003
:10305000001002400000FFF8FFFFF6FE08ED00E060
:103060001CB50121204800F0A6F800283BD0012122
:103070001D4800F091F8002201211B4800F0ACF837
:103080001A480068012804D0022807D0032819D163
:1030900015E0FEF7B1FEFEF72BFE14E014480068C1
:1030A00014490968CDE90010134803681348026801
:1030B0001348016813480068FFF7E6F903E0FEF7DC
:1030C0005DFC00E000BF00BF08480068401C05210F
:1030D00090FBF1F201FB1200044908600122114645
:1030E000014800F079F81CBD0010004018000020D5
:1030F0003C00002038000020340000204800002060
:1031000044000020400000201FB5044620488442AF
:1031100003D02048844200D01FBD1D48844207D1FF
:1031200001211020FFF75AFE36208DF80C0009E02F
:103130001848844206D101212020FFF74FFE372096
:103140008DF80C0000208DF80D0001208DF80E0088
:103150008DF80F0003A8FFF763FD4FF4FA60ADF898
:1031600004002320ADF800000020ADF80600ADF803
:1031700002006946204600F06FF901221146204600
:1031800000F02AF80121204600F009F800BFC3E74B
:103190000010004000140040CA430282704721B171
:1031A000028842F00102028004E002884FF6FE73BA
:1031B0001A400280704730B50246002000230024E8
:1031C000158A05EA0103958905EA010413B10CB1DA
:1031D000012000E0002030BD1AB183890B438381B8
:1031E00002E083898B4383817047000070B500241F
:1031F00000220023058C4FF6FE7635400584028CB4
:103200008388048B4FF68F752C40B51E2C400D889B
:103210002C43751E2A400D892A434D882A43144D9C
:10322000A8420BD0134DA84208D0134DA84205D098
:10323000124DA84202D0124DA84213D14FF6F77595
:103240002A404D892A434FF6FB752A408D882A4330
:103250004FF6FF652B404FF6FF552B408D892B43D2
:10326000CD892B4383800483CD888586028470BDFD
:10327000002C014000340140004001400044014066
:103280000048014070B5002400220023058C4FF651
:10329000EF7635400584028C8388048B48F6FF75F1
:1032A0002C404FF6FF452C400D884FF6FF7606EA7E
:1032B00005252C434FF6DF752A400D8906EA0515D2
:1032C0002A434D8806EA05152A43154DA84202D027
:1032D000144DA8421DD14FF67F752A404D894FF6F7
:1032E000FF7606EA05152A434FF6BF752A408D88FA
:1032F00006EA05152A434FF6FF352B404FF2FF75BE
:103300002B408D8906EA85052B43CD8906EA850584
:103310002B4383800483CD880587028470BD000021
:10332000002C01400034014070B50024002200232D
:10333000058C4FF6FF6635400584028C8388848BAC
:103340004FF68F752C404FF6FC752C400D882C43A2
:103350004FF6FF552A400D894FF6FF7606EA052500
:103360002A434D8806EA05252A43154DA84202D076
:10337000144DA8421DD14FF2FF752A404D894FF6DA
:10338000FF7606EA05252A434FF6FF352A408D8849
:1033900006EA05252A434EF6FF752B404DF6FF75CC
:1033A0002B408D8906EA05152B43CD8906EA0515C4
:1033B0002B4383808483CD888587028470BD000081
:1033C000002C01400034014070B50022002300248D
:1033D000058C4EF6FF7635400584038C8488828BFD
:1033E00048F6FF752A404FF6FF452A400D884FF6F4
:1033F000FF7606EA05252A434DF6FF752B400D8919
:1034000006EA05352B434D8806EA05352B430B4D5F
:10341000A84202D00A4DA84208D14BF6FF752C40B5
:103420008D894FF6FF7606EA85152C4384808283CA
:10343000CD88A0F84050038470BD0000002C0140EE
:10344000003401408186704701877047818770474B
:10345000A0F8401070470000002202881D4B9842DF
:103460000ED01D4B98420BD0B0F1804F08D01B4BB3
:10347000984205D01A4B984202D01A4B984204D178
:103480004FF68F731A404B881A43174B984207D058
:10349000164B984204D04FF6FF431A40CB881A438C
:1034A00002808B8883850B8803850A4B98420BD05A
:1034B000094B984208D00E4B984205D00D4B9842CC
:1034C00002D00D4B984201D10B7A038601238382EF
:1034D00070470000002C014000340140000400400F
:1034E00000080040000C00400010004000140040A4
:1034F00000400140004401400048014010B540F246
:1035000025511D4800F085F8002833D040F22551A0
:10351000194800F056F8184800F036F9C4B2612C8A
:1035200006D0642C05D0662C12D0732C20D117E065
:103530001FE01248007808B9012000E000200F4980
:103540000870084602780EA10B4800F0F5FD10E067
:1035500001200F4908700FA1074800F0EDFD08E0B9
:1035600000200B4908700FA1034800F0E5FD00E0C2
:1035700000BF00BF10BD0000004C0040080100204B
:1035800044656275673D202025640D0A0000000037
:10359000C0000020737461727420666C79210D0A7A
:1035A0000000000073746F7020666C79210D0A00B2
:1035B00001F40072B2F5007F00D100BFCA4302805F
:1035C000704710B50022002340F66A14A14200D1D2
:1035D00000BF0A1201249440A3B2DC43048010BD52
:1035E00021B1828942F40052828104E082894DF641
:1035F000FF731A408281704702460020B1F5007FB8
:1036000000D100BF13880B400BB1012000E0002067
:10361000704770B50246002400230025002040F6C4
:103620006A16B14200D100BFC1F3421501F01F0379
:10363000012606FA03F3012D02D19689334006E0F4
:10364000022D02D1168A334001E0968A33400C12D3
:10365000012606FA04F41688344013B10CB1012097
:1036600000E0002070BDF0B50346002400260025D0
:10367000002040F66A17B94200D100BF1846C1F3D6
:10368000421401F01F06012707FA06F5012C01D1AB
:103690000C3004E0022C01D1103000E014301AB1DB
:1036A00007682F43076002E00768AF430760F0BD7B
:1036B0002DE9F04786B005460E460024A24600BF1D
:1036C000A1460027B08900B100BF2F462C8A4CF6D6
:1036D000FF700440F08804432C82AC894EF6F3104E
:1036E0000440B08831890843718908430443AC81A0
:1036F000AC8A4FF6FF400440B0890443AC8201A875
:10370000FFF79CFB1F48874202D1DDF810A001E0C3
:10371000DDF80CA0A88900F4004040B10AEBCA0013
:1037200000EB0A1031684900B0FBF1F807E00AEB42
:10373000CA0000EB0A1031688900B0FBF1F8642080
:10374000B8FBF0F004012009642101FB1089A8896D
:1037500000F4004040B1322000EBC900B0FBF1F0B2
:1037600000F00700044308E0322000EB0910642158
:10377000B0FBF1F000F00F0004432C8106B0BDE86F
:10378000F08700000038014001468888C0F3080037
:103790007047C1F308028280704700BFFEE7000057
:1037A00030B587B004460D4602950020ADF80C00F8
:1037B000ADF80E00ADF81000ADF814000C20ADF817
:1037C00012004FF4E060FFF763FA00208DF8060066
:1037D00001208DF807003048844225D101210420C2
:1037E000FFF71CFB01218803FFF718FB18208DF859
:1037F0001B0003208DF81A006015ADF8180006A90B
:103800002648FEF79DF92015ADF8180048208DF8E0
:103810001B0006A92148FEF793F925208DF8040026
:1038200001A8FFF7FDF927E01D48844224D10121BA
:103830001020FFF7F3FA0121C804FFF7CFFA182090
:103840008DF81B0003208DF81A002015ADF8180024
:1038500006A91448FEF774F9E014ADF818004820E2
:103860008DF81B0006A90F48FEF76AF934208DF881
:10387000040001A8FFF7D4F902A92046FFF718FFBA
:1038800001212046FFF7ACFE012240F225512046DF
:10389000FFF7E9FE07B030BD0038014000080140E5
:1038A000004C004000100140490050EAC12018BF00
:1038B00004204A0D18BF40F0010040F2FF72B2EB45
:1038C000515F08BF40F00200012808BF0520704783
:1038D0002DE9F0414F1E00EBC7010446D1E900017C
:1038E00015461E4637F006020DD02A46334600F034
:1038F0002FFF7F1E04EBC703D3E9002300F0A8FCD1
:1039000037F00602F1D1022F25D0042F13D0062F55
:1039100018BFBDE8F0812A46334600F019FFD4E90C
:103920000A2300F095FC2A46334600F011FFD4E943
:10393000082300F08DFC2A46334600F009FFD4E945
:10394000062300F085FC2A46334600F001FFD4E947
:10395000042300F07DFC2A46334600F0F9FED4E94A
:10396000022300F075FC2A46334600F0F1FED4E94C
:103970000023BDE8F04100F06BBC012201F067BDFF
:1039800000F066BC002213461046114600F01CBD34
:10399000024A0020110701F05ABD000001FDFFFF9F
:1039A00030380A2801D201207047002070470000FB
:1039B0002DE9F04D8D4F21F0004A86B005460C46AA
:1039C000BA452ADBAAEB070028430AD0884882457B
:1039D00001DC1AD1CDB106B02846BDE8F04DFFF7A5
:1039E000CCBF844A844B284600F0B2FE07460E4600
:1039F000824A834B2846214600F0AAFE06B03A468A
:103A00003346BDE8F04D00F023BC0120FCF776FC06
:103A100006B0BDE8F04DFFF7B5BF7A48824542DAFF
:103A2000BAF1795F0BDA2846FFF73EFF042808BF9A
:103A3000FFF7AEFF284606B02146BDE8F08D2A46C6
:103A40000B46104600F084FE834602466E480E4642
:103A50000B4606217844FFF73BFF5A46334600F0F9
:103A600077FE804669488A465A46334604217844A0
:103A7000FFF72EFF5A46334600F06AFE00223B460F
:103A800000F0E6FB02460B464046514600F09CFC27
:103A90002A46234600F05CFE06B02A462346BDE8CF
:103AA000F04D00F0D5BB284624F0004100223D46F1
:103AB0003B4600F081FF4FF0FF3201F0C8FC0646A4
:103AC000024653480F460B4606217844FFF700FF95
:103AD00032463B4600F03CFECDE900014D483246FF
:103AE0003B4604217844FFF7F3FE32463B4600F0A4
:103AF0002FFE00222B4600F0ABFB8346029130469E
:103B0000394600F0F3FA804643480D46504517DC2D
:103B1000DDE900015A46029B00F056FC42462B4666
:103B200000F016FE42462B4600F092FB012201F007
:103B30008EFC304A304B01F031F8304A304B4CE0CB
:103B40004FF0000A52460B46404600F081FBCDE99B
:103B5000031052462B461046194600F0F9FD324636
:103B60003B4600F029FFDDE9033200F02DFC06465C
:103B70000F46DDE900015A46029B00F025FC834612
:103B8000009101223046394601F061FC194A1A4B76
:103B900000F012FF06460F4601224046294601F07A
:103BA00056FC5A46009B00F0D3FD32463B4600F0DF
:103BB000F5FF06460F4601225046294601F047FC14
:103BC0000E4DDFF858802A46434600F0F5FE324697
:103BD0003B4600F0F1FE2A46434600F0EDFE002C85
:103BE000D8BF81F0004106B0BDE8F08D0000F03F85
:103BF0000000F07F075C143326A6913C182D445436
:103C0000FB21F93F0000E03F881A00009E1A0000E7
:103C1000121A0000281A00003333EF3FFB21E93F5E
:103C20002DE9F84F04460D4621F0004000917349FC
:103C3000814211DC7249884201DC06D12CB1204658
:103C40002946BDE8F84FFFF798BE6E48002DCCBF5F
:103C50006D496E49BDE8F88F6D49814211DD6D49AE
:103C60008142D8BF4FF0FF366DDD20462946FFF771
:103C70001BFE042808BFFFF78BFE20462946BDE83F
:103C8000F88F6549654F25F00045814233DD644971
:103C9000814219DD002632464FF0804320462946F6
:103CA00000F0D6FA80468A4601222046294601F0D5
:103CB000CEFB00223B4600F071FF4246534600F027
:103CC00083FB04460D463EE001260022BA463B46F1
:103CD0002046294600F0BCFA80460F460022534693
:103CE0002046294600F05AFF42463B4600F06CFB56
:103CF00004460D4627E04B4981421BDDDFF828A131
:103D00000226002253462046294600F021FD0022CB
:103D10003B4600F09DFA80460F460022534620465F
:103D2000294600F03BFF42463B4600F04DFB04466F
:103D30000D4608E0032622462B4600203B4900F0B2
:103D400043FB04460D4622462B461046194600F01A
:103D5000FFFC8B46824602460B4600F0F9FC074604
:103D60000246334888460B4606217844FFF7B0FDEB
:103D700052465B4600F0ECFC82462E488B463A46A3
:103D8000434605217844FFF7A3FD3A46434600F039
:103D9000DFFC02460B46002E504659460CDA00F076
:103DA00057FA22462B4600F0D3FC01B022462B46A0
:103DB000BDE8F04F00F000BE00F04AFA22462B4664
:103DC00000F0C6FC1C4A7A4402EBC603D3E9002388
:103DD00000F0E4FE22462B4600F0E0FE174A7A444B
:103DE00002EBC603D3E9002300F0E6FD009A002AA7
:103DF000B8BF81F00041BDE8F88F0000000010441A
:103E00000000F07F182D4454FB21F93FFB21F9BF3E
:103E10000000DC3F0000203E0000F33F0000F03FC8
:103E20000000E63F008003400000F83F0000F0BFC4
:103E30007218000030180000CE170000961700001E
:103E40002DE9F04D9446CCF1000423F000464CEAF5
:103E50000404524F46EAD4749A46884621F0004240
:103E6000BC4206D8454240EA050442EAD474BC424A
:103E700004D9BDE8F04D6246FFF782BDAAF1405576
:103E8000A5F17F6555EA0C040BD0022404EAAA745C
:103E9000434DDFF810E144EAD87452EA000B04D035
:103EA0000CE0BDE8F04DFFF7BBBE002C14BF012CA9
:103EB000BDE8F08D022C30D0032C32D056EA0C0B2A
:103EC0000AD0BE4220D1BA4209D126F0804622F063
:103ED00080423346114617E000291ADB25E0DFF85F
:103EE000C8B0FB44002C04BFDBE90001BDE8F08D45
:103EF000012C02BFDBE9000181F00041BDE8F08D3B
:103F0000022C0AD0032C0CD0BA4212D1B8F1000F07
:103F10000BDA23482549BDE8F08D28462449BDE841
:103F2000F08D28467146BDE8F08D1D482149BDE859
:103F3000F08D921B12153C2AC4BF19481D490EDC96
:103F4000BAF1000FBEBF12F13C0F0020014606DBA4
:103F5000624600F039FA21F00041FFF761FE002CC3
:103F600008BFBDE8F08D012C04BF81F00041BDE821
:103F7000F08D114A114B022C07D000F00FFE2A469B
:103F8000BDE8F04D0A4B00F009BE00F007FE2A46DE
:103F9000BDE8F04D064B00F00FBD00000000F07FC3
:103FA000182D4454FB2109C02A170000FB21F9BF3A
:103FB000FB210940FB21F93F075C143326A6A13CF5
:103FC0004FF0E021096921F004014FF0E022116176
:103FD0000146C21700EB5272D210014B1A607047B3
:103FE000B000002001460D4A12684A434FF0E0231A
:103FF0005A6100229A6101221A6100BF4FF0E0224B
:10400000106900F001021AB100F48032002AF5D0E4
:1040100000224FF0E0231A619A617047B00000203F
:10402000FEF7EEFF4FF4E1311848FFF7B9FB18A196
:10403000164800F081F84820FFF7C2FFFEF7C2FDE6
:104040001748FFF761F8FDF705FC16A10F4800F0CF
:1040500073F819E017480078B0B11748007898B1A4
:10406000164903C900F008FB0446154903C900F0CE
:1040700003FB0546134903C900F0FEFA0646002378
:104080002246294600F020F8E4E70000004C0040FA
:1040900048656C6C6F2C776F726C64210D0A0000A0
:1040A00000100040696E20206974206F6B210D0A9A
:1040B000000000000801002009010020A8000020E5
:1040C000A0000020980000202DE9F04107460C4692
:1040D00015461E460448076044608560C660FEF7CA
:1040E000E1FDBDE8F08100000C0100202DE9F04168
:1040F00006460F4600F06CFC041E0D4618BF01205A
:10410000284320F00040C0F17F6000F1E040C00F84
:104110000ED0301C18BF0120384320F00040C0F101
:104120007F6000F1E040C00F04BF0120FCF7E6F81B
:1041300020462946BDE8F0810FB430B59BB0054656
:10414000002420A80090652101A8009B1F9AFCF77D
:10415000B3F880212846FFF72BFA0EE000BF80213C
:104160002846FFF749FA0028F9D02046621CD4B24D
:1041700001AA115C2846FFF70CFB642C03DA01A8A6
:10418000005D0028EAD1002000901BB030BC5DF833
:1041900014FB000010B500290AD00878002807D0C9
:1041A00005487844FCF754FF002801D0002010BDDA
:1041B0000248784410BD00002A15000022150000B6
:1041C00010B500290AD00878002807D0054878449F
:1041D000FCF73EFF002801D0002010BD02487844C3
:1041E00010BD00001A1500001215000021F0004259
:1041F000A2F16052B2F5801F01F0004328BFD2F156
:104200007F6C0BD95FEA001C43EAC20242EB50709C
:1042100018BF704728BF20F001007047B2F5801F1B
:10422000BCBF184670474FEA410C1CF5001F02D274
:10423000084601F02CB870B500F034FB000000898E
:10424000FFF7F6BF4FF00040A0F580007047000078
:1042500010B591EA030F48BF83F0004300F1A68434
:10426000841A71EB030C05D2121943EB0C03001BEB
:1042700061EB0C01DFF824E14FEA1154A4EB135C6D
:104280001EEA430F18BF9EEA445F73D023EA0E0371
:10429000DCF1200E21EA045143F4801332D322FAD8
:1042A0000CFE10EB0E0023FA0CFE41EB0E01CCF1DC
:1042B000200E03FA0EFE10EB0E0051F10001B1F5D5
:1042C000801FCCF1200E32D201EB045112FA0EF213
:1042D000BDE8104058BF7047401C38BF5FEA42023B
:1042E00018BF7047002814BF20F0010041F1000101
:1042F0004FEA410313F5001F38BF7047A1F1C041D9
:1043000000F01EBB012A43EB0302ACF1200CDCF1F0
:104310001F0E32BF4FF0000E23FA0CF310EB030018
:1043200041EB0451B4EB115FD0D0A1EB045101F586
:10433000801149085FEA300001EB04510ED350F1BF
:10434000000038BF12FA0EFE08D1BDE81040C9E7E0
:10435000401C38BF5FEA4202CAD1C3E7BDE8104043
:104360004FEA410313F5001F38BF7047A1F1C04168
:1043700000F0E6BA9EEA445F08D011EA5E0FBDE89D
:10438000104004BF01F0004100207047BDE810401C
:1043900070B500F087FA00BF64FBBE3E0000E0FF8E
:1043A00002494FF0000001F020B800BF0000F87F84
:1043B000491058BFC1F140415B1058BFC3F14043A1
:1043C0008B42EFF3008070472DE9C04130B4DFF835
:1043D000A0C23CEA111418BF3CEA131400F0EC80B0
:1043E00081EA03051CEA111444EAD57418BF1CEADB
:1043F000131500F0C780A4EB05044FF0004545EA13
:10440000C12145EAC32341EA505143EA525304F122
:104410007F74994204F500344FEAC0204FEAC2226B
:1044200008BF904200F09C804FEA13650FF24016DF
:10443000765D4FEA134506FB05F7C7F1807706FB6B
:1044400007F74FEAD737A7FB03687642C8F58038ED
:10445000A7FB06CE38BFA8F1010807FB08E64FF01E
:10446000000EA6FB028CE6FB03CEDCF1000CCEF1C5
:10447000004E38BFAEF1010EA6FB0C584FF00007FE
:104480004FF00005E6FB0E87A1FB08C6A0FB07CE98
:1044900016EB0E0645F10005E1FB076515F1E04E50
:1044A0007EBFA4F580345FEA46066D4116F18007B1
:1044B00045F100054FEA17274FEA066647EA056708
:1044C000A6F1DE46B6F1805F4FEA15251FD93846C2
:1044D00024F0010C05EBC471BCF1FE6F01EB0C1173
:1044E00002D8F0BCBDE8008124425CBF01F5801E0B
:1044F0009EEAC47F02D4F0BCBDE80081244238D4D7
:10450000F0BCA1F1C041BDE8004100F019BA4FEA8A
:10451000D22242EA43524FEAD323A7FB02864FEA54
:10452000D02040EA415007FB03661EEA0E0F4FEA17
:10453000D12105FB026658BFA6EB0056B6EB00562C
:104540004FEA520E4EEAC37E18EB0E0E56EB530E98
:10455000BDD518EB02085E417F1C55F10005B6E79A
:104560004FF480154FF000074FF000064FF00008A1
:10457000ADE7F0BC4FF0000001F1C04101F0004197
:10458000BDE8008111EA0C1F0CEA131500D00CE005
:1045900013EA0C1F00F025804FF00000F0BC81EA08
:1045A000030101F00041BDE80081F0BCBDE800411D
:1045B00081EA030100F0C4B9F0BCBDE8004170B568
:1045C00000F070F9097EFC3E00F007B881EA0301B3
:1045D0004FF0000001F00041704781EA030100F054
:1045E000AFB9F0BCBDE800414FF000002149704771
:1045F000FFFDFBF9F7F5F4F2F0EEEDEBE9E8E6E4A8
:10460000E3E1E0DEDDDBDAD8D7D5D4D3D1D0CFCD2E
:10461000CCCBCAC8C7C6C5C4C2C1C0BFBEBDBCBB67
:10462000BAB9B8B7B6B5B4B3B2B1B0AFAEADACAB62
:10463000AAA9A8A8A7A6A5A4A3A3A2A1A09F9F9E3C
:104640009D9C9C9B9A9999989797969595949393EE
:10465000929191908F8F8E8E8D8C8C8B8B8A898985
:104660008888878786858584848383828281818008
:104670000000FF070000F87F4FEA41034FEA535361
:10468000A3F58063D3F11E03C8BFD3F1210C0CDD69
:104690004FF0004242EAC12242EA505232FA03FC91
:1046A0008CEAE17CACEBE1707047102BC4BF0020BA
:1046B000704703F5787CBCF1FF3F04D06FF00042F7
:1046C00082EA2100704770B500F0ECF8499224802E
:1046D00000207047F2E7000051EA030C17D41CF5E4
:1046E000801F58BFBCF5801F00F10680994218BF9B
:1046F000704708BF9042704707D711F5801F58BF19
:1047000013F5801F19D499427047894270471CF5F0
:10471000801F08D5BCF5801FF7D58B4218BF7047A6
:1047200008BF824270474FF4001C1CEB410F38BF9A
:104730001CEB430F01D28B42704770B500F0B2F80A
:10474000922449004FF000514FF08053FFF730BEE4
:10475000DFF848C170B51CEA111E1EBF1CEA131514
:104760009EEA0C0F95EA0C0F00F06F8081EA0304BB
:1047700023EA4C134EEAD47E21EA4C1141F4801115
:1047800043F48013AE44A1FB024CA0FB0365AEF1E1
:104790007F7E361955EB0C05A1FB034C4CF1000351
:1047A000A0FB021C16EB0C06654153F10003094205
:1047B00018BF46F0010613F4007F0BD14FEA033116
:1047C0004FEA0530340341EA155140EA16506FF0C4
:1047D00003020AE04FEAC3214FEAC520F40241EA8E
:1047E000555140EA56506FF0020202EB2E4201EBA7
:1047F000025585EACE710AD05FEA440C18BF24F056
:10480000004450F1000041F1000120EAD47040F270
:10481000FE7C624500D270BDA84214BF4FF08044B8
:104820004FF04044002E08BF0024BEF1806FA8BFA7
:10483000A1F1C041BDE8704080F282804FF00000DD
:1048400001F1C04101F0004170479EEA0C0F0CEAF3
:10485000131518BF95EA0C0F06D04FF0000081EA3F
:10486000030E0EF0004170BD00F01CF88900013EFF
:1048700000F007B800F009B84FEA430C5FEA5C5C4F
:1048800008D081EA030100F05BB84FEA410C5FEA0F
:104890005C5CF6D14FF00000014970470000FF0753
:1048A0000000F87F0EF1020E2EF0030E5EF8046B8E
:1048B000364205D4012A43EB030515F5001F12D833
:1048C000012841EB010C1CF5001F0CD80ED14FEA5A
:1048D000D17C15F5001F0CEB4C0C0CF1020C08BF41
:1048E0004CEBD37C04E04FF0080C01E04FEAD37CA2
:1048F0000CEB4C0526FA05F606F00706B6F1040C9B
:1049000006D20EEB860CBDE870404CF0010C6047FF
:10491000DFE80CF0090B02024FF000414FF00000FD
:10492000A1F5002170BD19461046012851EB010484
:1049300018BFD4F5001484BF002001F0004170BD01
:104940000808A0F500114FEA3101704753EA010C45
:1049500017D41CF5801F58BFBCF5801F00F10680DE
:104960008B4218BF704708BF8242704707D713F5C4
:10497000801F58BF11F5801F19D48B4270479B428E
:1049800070471CF5801F08D5BCF5801FF7D59942EC
:1049900018BF704708BF904270474FF4001C1CEBD3
:1049A000430F38BF1CEB410F01D2994270470FB43F
:1049B0000CBC03BCFFF7C1BE91EA030F10B581F038
:1049C00000413FF54DAC83F0004300F0EFB800002C
:1049D0002DE9F04101F5801CBCF5001FC0F2C38039
:1049E0004FEA115C21EA0C510CF1FD0C41F48011ED
:1049F0005FEA5C0C0CF5C07C01D3400049413DA44A
:104A0000890241EA905187028E0E0A0CA45D04FBD4
:104A100004F602FB06F6C6F14046A4FB0662F60D5C
:104A200046EA422606FB06F4A4FB01235242C3F1E8
:104A3000404338BF5B1EA6FB02420024E6FB032472
:104A4000D20B42EA4446A6FB0623A1FB02E2A3FBEB
:104A500007E4A4184FF0000252F10002E3FB014208
:104A60006442C2F1404E38BFAEF1010EA6FB0423F2
:104A70004FF00002E6FB0E32A2FB03464FF00004AB
:104A8000B61954F10004E2FB0264A1FB06E6A4FBA4
:104A900007E816EB08064FF0000858F10008E4FBA1
:104AA00001687642C8F1405838BFA8F10108A2FB5E
:104AB00006E4A3FB08E52D194FF0000454F10004AF
:104AC000E2FB0854A1FB05E6A7FB04E818EB060887
:104AD0004FF0000656F10006E1FB048618F12005B0
:104AE00056F10006A809A8F11B08B10908F03F0813
:104AF000B8F10A0F40EA86601CD901EB0C51BDE801
:104B0000F08100BFFCF5EEE8E2DDD8D3CFCBC7C320
:104B1000C0BDB9B6B4B1AEACA9A7A5A3A19F9D9BDA
:104B20009A9896959392908F8D8C8B89888786859D
:104B300084838281A0FB006800FB01F208EB42083D
:104B4000B8EB872807D5341858EB0104D5D5401C9D
:104B500051F10001D1E7341A78EB0104CDD4401EA5
:104B600071F10001C9E75FEA4C0C5FEA9C5C0DD172
:104B700005D34FF0000001F00041BDE8F081BDE831
:104B8000F04170B5FFF78EFE6DDBFFBEBDE8F04172
:104B90004FF00000004970470000F87F10B591EA1F
:104BA000030F48BF83F000433FF55AAB841A71EB03
:104BB000030C07D212198CF0004C43EB0C03001BC2
:104BC00061EB0C01DFF8A4E14FEA1154A4EB135C94
:104BD0001EEA430F18BF9EEA445F00F0B08023EA4C
:104BE0006E03524221EA0451C3EB6E0338BF5B1ED1
:104BF000DCF1200E25D322FA0CFE10EB0E0043FA56
:104C00000CFE41EB0E01CCF1200E03FA0EFE10EB70
:104C10000E0051F10001CCF1200E29D412FA0EF24F
:104C200001EB0451BDE8104058BF7047401C1CBF49
:104C3000B2F1004F704700280CBF491C20F0010062
:104C4000704712EB020E43EB030218BF4FF0010E48
:104C50004EEA4202ACF1200CDCF11E0E54D943FAAC
:104C60000CFE10EB0E0051F1FF31CCF11E0ED5D52C
:104C70000EF1010E12FA0EFE404141EB010101EB73
:104C8000445C5FEA5C5C10D910EBDE7001EB045110
:104C900038BFBEF1004FBDE8104018BF7047002874
:104CA0000CBF491C20F00100704730D24FEAD42CD1
:104CB00011F5001124F400641BD0B1FA81F20B3A13
:104CC000A41AA41ED2F12003914030FA03F3194331
:104CD000904001EBCC71002C01EB0451BDE8104079
:104CE000A8BF704701F1C0414FF0000001F0004142
:104CF0007047B0FA80F310FA03F100D110BDE41A46
:104D0000173C4805C90AE4E701EB045110BD4910FE
:104D100001EB0451BDE810404FEA300002E04FF0D3
:104D2000000170474A0008BF0042F8D0B2F5001FEA
:104D300028BF704701F000414FF0000070479EEA25
:104D4000445F07D011EA5E0FBDE8104004BF0021A8
:104D500000207047BDE8104070B5FFF7A3FD00BF0D
:104D600040DFF63E83F00041104670470000E0FF50
:104D700043004FEAD30C4FEA3C0C43401FBF4007AF
:104D80000CF1605113F0FE4F70471CF0006F03D11F
:104D900000200CF0004170470CF0004343EA5070D3
:104DA00010B540EACC0000F02CFA00BF00000092E1
:104DB0004FEA0001FFF7C4BD4FF000414FF0000083
:104DC000A1F500217047000090EA010F48BF81F073
:104DD000004100F19A82421A3CBF801A89184FEABA
:104DE000D0524FF07F4C1CEA410FA2EBD15318BFB9
:104DF0009CEA026F00F03B804FF0004C4CEA002030
:104E00004CEA012121FA03FC10EB0C0C1ED202F13A
:104E1000FF325FEA1C2040EBC25038BF70471CF0E5
:104E20007F0F4FEA400C18BFBCF17F4F38BF70476F
:104E3000C3F12003994008BF20F00100BCF17F4F6F
:104E400038BF7047A0F1C04000F021BA4FEA3C00E3
:104E5000000A40EBC25028BF1CF0FF0F4FEA400C85
:104E6000E6D018BFBCF17F4F38BF7047EAE79CEA35
:104E7000026F05D010EA5C0F08BF00F000407047D9
:104E800010B500F0BEF900BF64FBBE3E401058BF35
:104E9000C0F14040491058BFC1F140418142EFF399
:104EA000008070474FF47F0C1CEAD0121EBF1CEA32
:104EB000D11392EA0C0F93EA0C0F00F0858090EA70
:104EC000010F48BF42F4807240F4000C41F400002E
:104ED0002CF07F4120F07F4000B58142A2EB03021D
:104EE0000FF2081CACEB504EC0F100009EF800E041
:104EF0004FEA4E0E00FB0EFC38BF49004FEA2C1C57
:104F000002F5FA020CFB0EF34FEACE1E4FEA112C0B
:104F10004FEAC1210EEB635E42EB22420EFB0CFC1A
:104F20004FEA1C5300FB03114FEA112C4FEA0131E9
:104F30000EFB0CFC4FEADC4C00FB0C11C14228BFFD
:104F400009184CEB03335DF804EB10EB410143EB24
:104F5000C250B2F57C0F38BF704729D512F0F00F60
:104F60001CBF00F1C04000F0004070470081828308
:104F70008485868788898B8C8D8E8F919293959668
:104F800097999A9C9D9FA0A2A3A5A7A8AAACAEB0F2
:104F9000B2B3B5B7B9BCBEC0C2C5C7C9CCCED1D4F7
:104FA000D7D9DCDFE2E6E9ECF0F3F7FAFE00000027
:104FB0004FEA400C0CF1807CBCF17E4F28BF70475B
:104FC000B0F1C04000F063B990EA010F0CEAD113D0
:104FD00048BF42F48072624538BF634507D213F47C
:104FE0007F0F16D080EA010000F00040704710B536
:104FF00000F007F9097EFC3E00F005B880EA0100E8
:1050000000F00040704780EA010000F0004000F02E
:105010003EB912F47F0F04BF0248704780EA0100D6
:1050200000F035B90000C07FC10DD1F19E0206DB52
:105030004FEA002343F0004323FA02F07047004296
:1050400007D54FEA4001B1F1FE4F02D24FF0000008
:10505000704710B500F0D5F84992248000207047C1
:105060006FEA20007047000010F0004148BF404246
:10507000B0FA80F310FA03F2C3F19D030BD051EAAA
:10508000C35101EB1220530638BF704700F10100F5
:1050900008BF20F00100704750EA010C00F11380B6
:1050A0001CF5000F58BFBCF5000F01D488427047B3
:1050B00007D710F5000F58BF11F5000F15D488421F
:1050C0007047894270471CF5000F04D5BCF5000FEE
:1050D000F7D5814270474FF0807C1CEB400F38BF02
:1050E0001CEB410F01D28142704710B500F089F8E6
:1050F000922449004FF000504FF08051FFF7C6BE98
:105100004FF47F0C1CEAD0121EBF1CEAD11392EAA6
:105110000C0F93EA0C0F00F0478090EA010F48BF94
:1051200042F480724FF0004C4CEA00204CEA01211E
:1051300002EB0302A0FB0113A2F50002002918BF35
:1051400043F001035B0028BF4FEA330342EB2242E6
:105150005FEA132C4CEBC2502EBFBCEB436FB2F591
:105160007C0F70474FEA036CBCF1004F08BF20F082
:105170000100B2F57C0F38BF70470BD582F0FF02FB
:1051800012F5803FC8BF704700F1C040D8BF00F0A3
:105190000040704700F5000C5FEA4C0C48BF7047B8
:1051A000B0F1C04000F073B890EA010F0CEAD113DF
:1051B00048BF42F48072624538BF634504D280EA3A
:1051C000010000F00040704710B500F01AF800BF71
:1051D0008900013E00F007B800F009B85FEA410C11
:1051E0005FEA1C6C08D080EA010000F050B85FEA6A
:1051F000400C5FEA1C6CF6D14FF00040A0F5800037
:1052000070470EF1020E2EF0030E5EF8044B24429E
:1052100004D44FEA4102B2F17F4F11D84FEA400364
:10522000B3F17F4F0CD80ED14FEAD07CB2F17F4F53
:105230000CEB4C0C0CF1020C08BF4CEBD17C04E0E5
:105240004FF0080C01E04FEAD17C0CEB4C0324FA40
:1052500003F404F00704B4F1040C06D20EEB840C42
:10526000BDE810404CF0010C6047DFE80CF0070887
:1052700002024FF00040A0F5800010BD0846420039
:1052800018BFD2F1807288BF00F0004010BDFF212E
:1052900041EAD050C005704751EA000C00F113807C
:1052A0001CF5000F58BFBCF5000F01D481427047B8
:1052B00007D711F5000F58BF10F5000F15D4814224
:1052C0007047894270471CF5000F04D5BCF5000FEC
:1052D000F7D5884270474FF0807C1CEB410F38BFF8
:1052E0001CEB400F01D28842704780EA010081EA3E
:1052F000000180EA0100FFF7F8BE000090EA010F0C
:1053000048BF81F000413FF566AD421A04D882F0F3
:105310000042A0EB020011444FEAD0524FF07F4C04
:105320001CEA410FA2EBD15318BF9CEA026F4AD08E
:105330004FF0004C4CEA00204CEA012121FA03FC1A
:10534000B0EB0C0C0FD412F0FE0F36D05FEA4C001D
:105350001DD5001240EBC25038BF70471CF03F0F04
:1053600018BF70470BE0A2F101025FEA1C2040EB7E
:10537000C25038BF70471CF07F0F18BF7047C3F191
:105380002003994014BF401E20F0010070478008A0
:105390004FEA122308BF7047B0FA80FCA2EB0C0260
:1053A000CCF1280C60FA0CF093EA122F04BF00EB4A
:1053B000C25070474FEAC3707047130A5FEADC10AF
:1053C00008BF7047F6E79CEA026F04D010EA5C0F52
:1053D00008BF0020704710B5FFF713FF40DFF63E0F
:1053E00081F000407047FBF7C2BB0CF00F03092BA4
:1053F00008BF082000F059800A2B0BD0082B18BFDB
:10540000704708BF1CF0400F0AD04FF000004FF06B
:10541000000170471CF0400F18BF4FF0004070476C
:105420001CF0100F08D020F0704300F07F4242EAD9
:10543000D3014FEA4370704700F0604021F07F4293
:1054400042EA000201F07F4040EA727070474FF07C
:10545000FF0C4CF4E06C1CEA11531CBF9CEA030CDB
:105460009445C2BFDA4201EB02517047002B0DD0C8
:10547000BCF1000F0FD0002A01F00041A4BF41F0A1
:10548000E04141F07F614FF00000704701F00041C2
:105490004FF00000704750EA01334FF09B0C18BFEB
:1054A0004CF0806C7EF47CAF70471CF4801F11D0F0
:1054B0001CF4E02F03D06FEACC31490070474FF065
:1054C0004050EFF3008222F0704242EA000282F381
:1054D000008870474FF00000704700000000000097
:1054E000555555555555C53F7D6FEB0312D6D4BF65
:1054F0005544880E55C1C93F3B8F68B52882A4BF6B
:1055000088B20175E0EF493F09F7FD0DE13D023F2B
:105510004B2D8A1C273A03C0C88A599CE52A0040B3
:1055200059018D1B6C06E6BF82922EB1C5B8B33F00
:1055300000000000000000003031323334353637CF
:1055400038394142434445464030580030313233C7
:1055500034353637383961626364656640307800C7
:10556000040000080000000000000002000100002C
:1055700010000000000000004FBB610567ACDD3F7C
:10558000182D4454FB21E93F9BF681D20B73EF3F6A
:10559000182D4454FB21F93FE2652F227F2B7A3CE2
:1055A000075C143326A6813CBDCBF07A8807703C9B
:1055B000075C143326A6913CC4EB98999999C9BF0E
:1055C000711623FEC671BCBF6D9A74AFF2B0B3BF43
:1055D0009AFDDE522DDEADBF2F6C6A2C44B4A2BF03
:1055E0000D5555555555D53FFF8300922449C23F6F
:1055F0006E204CC5CD45B73F513DD0A0660DB13FA3
:10560000EB0D76244B7BA93F11DA22E33AAD903FB4
:10561000000000000000000002400000000000A0A8
:105620000000000005400000000000C8000000006D
:105630000C4000000000409C0000000019400000E9
:105640000020BCBE0000000034400000BFC91B8E1B
:1056500000000004B5400000504BCFD06607E2CFF9
:10566000010000006C4100003E8251AADFEEA73429
:1056700001000000D9420000DCB5A0E23A301F97DB
:10568000FFFFFFFFB4450000FD25A0C8E9A3C14FFF
:10569000FFFFFFFFFF3F0000000000800000000050
:1056A000FF3F00000000008000000000F8570008E5
:1056B000000000200C0100006C01000804590008E3
:1056C0000C01002074100000880100081C0000007C
:1056D00043000000F8FFFFFF0C0000000E00000078
:1056E0000F0000002E000000100100004300000029
:1056F000F8FFFFFF004040404040404040404141F3
:105700004141414040404040404040404040404096
:105710004040404040050202020202020202020230
:10572000020202020220202020202020202020022D
:1057300002020202020290909090909010101010BD
:105740001010101010101010101010101010101059
:1057500002020202020288888888888808080808ED
:1057600008080808080808080808080808080808B9
:1057700002020202400000000000000000000000E1
:105780000000000000000000000000000000000019
:105790000000000000000000000000000000000009
:1057A00000000000000000000000000000000000F9
:1057B00000000000000000000000000000000000E9
:1057C00000000000000000000000000000000000D9
:1057D00000000000000000000000000000000000C9
:1057E00000000000000000000000000000000000B9
:1057F000000000000000000000000000010203049F
:10580000010203040607080902040608000000005C
:105810000000000000000000000000000000000088
:105820000000000000000000000000000000000078
:105830000000000000000000000000000000000068
:105840000000000000000000000000000000000058
:105850000000000000000000000000000000000048
:105860000000000000000000000000000000000038
:10587000000000000000803F000000000000000069
:1058800000000000000000400AD7A33B0000000019
:105890000000000000000000000000000000000008
:1058A0000000000000000000000000000000A04018
:1058B000000080BF00000000000000000000004069
:1058C00000000000000000000000000000000000D8
:1058D00000007A44000000C000000000000000004A
:1058E000000000000000000000007A4400000040BA
:1058F00000000000000000000000000000000000A8
:0459000001000000A2
:0400000508000131BD
:00000001FF
