:020000040800F2
:1000000030120020B9020008192E0008FD20000857
:10001000152E00087D19000893420008000000001A
:10002000000000000000000000000000693100082E
:10003000BB19000800000000D52F00085532000849
:10004000D3020008D3020008D3020008D30200083C
:10005000D3020008D3020008D3020008D30200082C
:10006000D3020008D3020008D3020008D30200081C
:10007000D3020008D3020008D3020008D30200080C
:10008000D3020008D3020008D3020008D3020008FC
:10009000D3020008D3020008D3020008D3020008EC
:1000A000D3020008D3020008D3020008D3020008DC
:1000B000D302000881350008D3020008D3020008EB
:1000C000D3020008D3020008D3020008D3020008BC
:1000D000D3020008D3020008D3020008D3020008AC
:1000E000D3020008D3020008D3020008D30200089C
:1000F000D3020008D3020008D3020008D30200088C
:10010000D3020008D3020008D3020008D30200087B
:10011000F13B0008D302000825360008D30200088E
:10012000D3020008D3020008D3020008D30200085B
:1001300000F002F800F0B0F80AA090E8000C824449
:100140008344AAF10107DA4501D100F0A5F8AFF226
:10015000090EBAE80F0013F0010F18BFFB1A43F0A5
:100160000103184750600000706000000A444FF01F
:10017000000C10F8013B13F0070408BF10F8014B06
:100180001D1108BF10F8015B641E05D010F8016B4B
:10019000641E01F8016BF9D113F0080F1EBF10F8AF
:1001A000014BAD1C0C1B09D16D1E58BF01F801CBD2
:1001B000FAD505E014F8016B01F8016B6D1EF9D555
:1001C0009142D6D37047000000230024002500266A
:1001D000103A28BF78C1FBD8520728BF30C148BFAA
:1001E0000B6070476E2900F04D81702900F09782F6
:1001F000662905F07E86652905F07B86672905F06E
:1002000078866129AFF3008003681B0A28BF41F09C
:100210008001692900F0FA80642900F0F7807529CF
:1002200000F0F4806F2900F02582782900F06382C5
:10023000E92900F0BF81E42900F0BC81F52900F034
:10024000B981EF2900F02282F82900F06282036868
:10025000DB0928BF41F08001632900F0E88573299C
:1002600000F0ED85E32900F0F885F32900F0FD8525
:10027000002070471FB500F04FFE04000020002151
:1002800004F020FD401C60600020002104F004FD0B
:10029000E0601FBD10B510BD00F010FE1146FFF765
:1002A000E9FF04F039FC00F0E9FE03B4FFF7F2FFC8
:1002B00003BC00F02DFF00000948804709480047B3
:1002C000FEE7FEE7FEE7FEE7FEE7FEE7FEE7FEE706
:1002D000FEE7FEE704480549054A064B7047000063
:1002E000593200083101000830020020301200208D
:1002F000300A0020300A00207CB51D4616460C004E
:10030000009001D02044401E074B7B442A4669469A
:100310000190304600F0CFF805461CB10020694638
:1003200000F0DCF828467CBDD9010000704770471A
:10033000704710B500F0C2FA006810BD10B5044651
:1003400000F0BCFA046010BD70B504468569006811
:10035000C10601D5302600E02026C00707D070BDB9
:10036000D4E9012130469047206A401C20626D1E6E
:10037000F6D570BD70B5044685690078C00707D111
:1003800070BDD4E9012120209047206A401C2062E2
:100390006D1EF6D570BD09684A0501D540B270479B
:1003A000C905FCD500B2704709684A0501D5C0B23D
:1003B0007047C905FCD580B2704770B50C4605463C
:1003C000012A05D02878800600D5EA69002302E0DA
:1003D000012305E05B1C934202D2E05C0028F9D1C6
:1003E000A869E618C01AA861286A18442862284635
:1003F000FFF7AAFF04E0D5E9012114F8010B9047AB
:10040000B442F8D32846FFF7B5FF70BD2DE9F0419F
:100410000646002410687529314616A510D0FFF74E
:10042000BAFF002802DA404213A507E031688A07C4
:1004300001D512A502E0490704D511A5012401E068
:10044000FFF7B2FF00210A2206F1240709E0B0FB02
:10045000F2FCB0FBF2F302FB1C003030785418467B
:10046000491C0028F3D123462A463046BDE8F04116
:1004700000F06DBA000000002D0000002B0000000D
:100480002000000011680268006A530501D5087059
:100490000AE0D30501D5088006E0130603D5C2178C
:1004A000C1E9000200E008600120704701694A1CB0
:1004B00002610878704700B58FB0CDE901310021A5
:1004C000059105497944CDE903101146684600F0CD
:1004D00031F90FB000BD0000E5FFFFFF0A6802F828
:1004E000010B0A607047D1E900239A4202D2531CE3
:1004F0000B601070704700002DE9FF5F15468A46BB
:100500000446DFF8AC80F8440027D8E900103E46E6
:10051000CDE9001010E03AF816106A4602A800F083
:10052000A8FC411C07D02178890603D5E269391857
:1005300091420DD80744761C2078800602D5E069E8
:10054000B84205DDAE42E6DB3AF816000028E2D1FB
:10055000A069C01BA0612046FFF7F6FED8E9001095
:10056000CDE90010002017E03AF818106A4602A8FA
:1005700000F07FFCB0F1FF3F81460BD000250DF16C
:10058000080B05E0D4E901211BF8050090476D1C1C
:100590004D45F7D308F10100B0428046E4DB206A04
:1005A000384420622046FFF7E5FEBDE8FF9F0000CB
:1005B0002E5B00002DE9F0418046D21D22F007029B
:1005C0000025D2E90002F52915A614D0011E72F10A
:1005D000000106DA0023D0EB030063EB020211A650
:1005E00008E0D8F800108B0701D50FA602E04907F4
:1005F00001D50EA601251146002408F1240704E0C8
:1006000000F060F930323A55641C50EA0102F7D12B
:100610002B46324621464046BDE8F04100F097B9EE
:10062000000000002D0000002B0000002000000052
:1006300030B4002100F1240408E002F00705D208DC
:10064000303542EA4372DB086554491C52EA03051F
:10065000F3D10468002310A2250708D504F0200474
:100660000C4304D0C46901230CA2641EC46130BCD5
:1006700000F06DB910B5044621461068FFF794FEEE
:1006800002462046BDE810400023D1E7D21D22F0EB
:100690000701D1E90023CBE7000000003000000093
:1006A000F0B40D460188090502D5214C7C4402E0D6
:1006B0001F4C7C440E34002100F1240608E002F0B7
:1006C0000F071209E75D42EA03721B097754491CC0
:1006D00052EA0307F3D102780023120704D5702DE4
:1006E00006D009B1022311342246F0BC00F02FB924
:1006F00001231034F8E770B504460D462146106812
:10070000FFF752FE024629462046BDE8704000230E
:10071000C6E7D21D22F00703D3E90023C0E7036830
:10072000126843F0200303600823C3610023B7E786
:10073000905900002DE9F05F894604464FF0000A09
:10074000DFF874B1FB44C0F820A02046E168884778
:10075000002874D0252806D0D4E901219047206ACA
:10076000401C2062F1E700265F462046E16888478A
:100770002028054607DB312D05D2781910F8200C0A
:1007800008B10643F1E7B00701D526F00406C4F826
:100790001CA00027C4F818A02A2D09D0284603F071
:1007A0007BFE38B304EB8708303DC8F8185019E0D9
:1007B00059F8041B204604EB87029161E1688847E1
:1007C000012F054618D1E069002820DA26F020061E
:1007D0001DE0D8F8180000EB800005EB4000303831
:1007E000C8F818002046E1688847054603F054FE23
:1007F0000028EED1012F0AD02E2D08D12046E16825
:1008000088477F1C0546022F46F02006C4DBA069FE
:10081000002803DA404246F00106A061F00701D04B
:1008200026F010066C2D0BD0682D09D04C2D39D038
:100830006A2D35D0742D35D07A2D33D016E038E0BE
:10084000E1682F4620468847B842054609D16C2FFB
:1008500026D04FF48060E16806432046884705466D
:1008600004E06C2F1AD04FF4807006430DB3A5F14D
:100870004100192802D8203546F400664A46294628
:10088000204626604E46FFF7ADFC80B101280BD014
:10089000F61D26F0070000F1080956E74020E4E7BE
:1008A0008020D8E70020D6E706F104094DE7284666
:1008B00052E7206ABDE8F09F2059000000487047C9
:1008C000CC01002030B5B0F10A024FEA900E71F170
:1008D00000034EEA817EB0EB0E0061EB91014FEA1E
:1008E000101E4EEA017E10EB0E0041EB11114FEA93
:1008F000102E4EEA016E10EB0E0041EB11214FEA73
:10090000104E4EEA014E10EB0E0041EB1141401823
:1009100041F100014FEAD00040EA41704FEAD101B5
:1009200010EB80054FEA810444EA907444EB010423
:100930006D1944EB0404521BA3414FF0000348BF60
:100940000A3200D530BD401C41F1000130BD2DE917
:10095000F0470D4699469246044600F12408016886
:10096000880604D5E06921F01001216000E0012033
:10097000A84201DD471B00E00027A1697A1902EBBC
:100980000900081AA0612078C00602D42046FFF7AB
:10099000DBFC002608E0D4E901211AF806009047A4
:1009A000206A401C761C20624E45F4DB2078C0068D
:1009B0000AD52046FFF7C8FC06E0D4E90121302023
:1009C0009047206A401C2062381EA7F10107F4DC22
:1009D00007E0D4E9012118F805009047206A401C7F
:1009E0002062281EA5F10105F3DC2046FFF7C2FCBA
:1009F0002078000602D50220BDE8F0870120FBE741
:100A000070472DE9FF4F0C461E464FF0FF378BB065
:100A1000D2E90001DDF860800A908A46C1F30A55E8
:100A200005B93D46002108464FF00000BAF1000F1D
:100A300000F4400005DA00EB80004FF4400101EAC9
:100A400050004FEA9059B9F1010F00DDB9460A98FC
:100A500050EA4A000ED044F61050A5F2FF35454347
:100A60002F14B8F1000F1ED07542291E1EDDC9F1EA
:100A700000021CE0B8F1010F4FF0000001D030215E
:100A800003E0F24305E02154401CB042FBDB30465A
:100A90000022002121540B99C1F80880C1E90020EF
:100AA0000FB0BDE8F08FBD1B6D1CDEE74A4600DAD3
:100AB000694206A800F074FA06AB93E8070003AB9E
:100AC00083E8070050460A9900F029FB8DE80700EB
:100AD000A0F500501F3800900398002D09DD42F268
:100AE0001F014A46084403A90390684600F088FDA8
:100AF00008E0A0F500504A461F3803A90390684655
:100B000000F092FD8DE807000004000C03D04FF0C8
:100B1000FF30410800E01046B8F1000F03D000227A
:100B2000009215461EE0751E05D4FFF7CBFE30324D
:100B300062556D1EF9D5B3460122084302D000224A
:100B40007F1C04E02078302801D100227F1E002A7B
:100B5000099786D01DE0112D07DAFFF7B3FE30327A
:100B600062556D1C50EA0102F5D1084302D000988D
:100B7000C8B10EE00021681E05E0235C625C63548E
:100B80002254401E491C8142F7DBAB46A81B401E85
:100B90000990002004F80B000B98099AC0F808800F
:100BA000C0E9002B7CE711264FF0000859E72DE93A
:100BB000F04F88460446D21D22F0070191B0D1E9DA
:100BC0000001CDE90A0103F0EBFB02460B98C00FD0
:100BD00001D02D2007E02068810701D52B2002E0FD
:100BE000202101EAC000032A099001D0072A05DB71
:100BF00003464146204600F093F90BE12078800639
:100C000001D5E06900E00620B8F1650F814606D005
:100C1000B8F1660F18D0B8F1670F70D131E000203D
:100C2000B9F1110F009001DB112301E009F101037B
:100C30000AAA01A90CA8FFF7E4FEDDE90C70002662
:100C400009F10105834647E001204B4600904FF033
:100C500000470AAA01A90CA8FFF7D3FEDDE90DB0F1
:100C60000C995D46002610B909F101000D18B9EB89
:100C7000050003D4C0F1FF3609F10105A5EB090019
:100C80002BE0B9F1010F01DA4FF001090020B9F1B1
:100C9000110F0090484601DD112300E003460AAA27
:100CA00001A90CA8FFF7ADFEDDE90C704D4600264A
:100CB0008346207800070AD4AB4500DA5D4601A8D8
:100CC000012D04DD411911F8011C302907D04F45D1
:100CD00002DA17F1040F04DA012082460FE06D1EDC
:100CE000EEE7002F02DCED1B3E4403E0781CA84237
:100CF00000DD7D1CB81B00F1010A4FF00047207891
:100D0000000703D4AA4501DB4FF0FF3A0021B7F1F9
:100D1000004F0DF143088DF8431024D002202B23FF
:100D2000002F01DA7F422D230A21021EA0F10100CB
:100D300000DC5FB197FBF1FC97FBF1F201FB1C7C3F
:100D400017460CF1300C08F801CDEEE7A8F10100D0
:100D500003702188090501D5452100E06521A0F136
:100D6000010800F8011C09980FA9A1EB0807FF1D55
:100D700000B10120411901EBEA70A1693844081A59
:100D8000401EA0612078C00602D42046FFF7DCFA9E
:100D9000099828B1D4E901219047206A401C2062BB
:100DA0002078C00622D52046FFF7CEFA1EE0002E9E
:100DB00004DBB34502DD01A8805D00E03020D4E90A
:100DC00001219047206A401C2062761CAAF1010094
:100DD0005FEA000A0AD100F09FF8C0680168405C31
:100DE000D4E901219047206A401C2062281EA5F109
:100DF0000105DCDC07E0D4E9012118F8010B90477C
:100E0000206A401C2062381EA7F10107F3DC20464F
:100E1000FFF7B0FA032011B043E610B5436913B1F0
:100E2000AFF3008001E0FFF7C8FA012010BD12788F
:100E300000F124010A7000224A700122EDE71168D6
:100E40004FF0FF32E9E710B5436913B1AFF300800B
:100E500001E0FFF751FB012010BD128800F12401D1
:100E600082840022C2840122EDE711684FF0FF3234
:100E7000E9E770B516460C46054600F045F80368EC
:100E800093F80101012806D0FF2C0FD8185D68B136
:100E900001202C7070BDD3F807013246214603F2C1
:100EA000071303442846BDE8704018474FF0FF3051
:100EB00070BD000000487047CC0100207546FFF768
:100EC000F9FFAE4605006946534620F00700854607
:100ED00018B020B5FFF7FEF9BDE820404FF000063E
:100EE0004FF000074FF000084FF0000B21F0070112
:100EF000AC46ACE8C009ACE8C009ACE8C009ACE855
:100F0000C0098D467047000010B500F005F8001DBF
:100F100010BD00BFB13D000000487047EC0100204B
:100F20002DE9F0411F46044603260168072A01F413
:100F3000006004DB08B116A505E016A503E008B1C2
:100F400015A500E015A521F010002060A069C01EC5
:100F5000A0610FB1401EA0612046FFF7F5F94FB127
:100F6000D4E9012138469047206A401C2062C01C09
:100F7000206206E0206AFAE7D4E9012115F8010BA6
:100F80009047761EF8D22046FFF7F4F9BDE8F081CD
:100F90004E414E006E616E00494E4600696E66001D
:100FA0002DE9F047814616468AB0334878440DC88B
:100FB0008DE80D0030487844801C03AC0DC884E8EF
:100FC0000D0041F69B300844372190FBF1F290FB75
:100FD000F1F5A5F1800501FB12041B3C02D564422A
:100FE000012000E00020DFF890A080460027FA44AE
:100FF000AAF1BE0A0DE0E00709D03246684607EBC9
:1010000047010AEB810100F00FFB8DE80700641037
:101010007F1C002CEFD1184F7F44AC3F18E0E8074D
:1010200014D007EB04100DF1180A90E80E008AE8BE
:101030000E00C068F04201D198190890324606A906
:1010400003A800F0F1FA03AB83E807006D10641CFD
:10105000002DE4D132466946B8F1000F03A802D052
:1010600000F0CEFA01E000F0DFFAC9E90001C9F8AA
:1010700008200AB0BDE8F087EC51000010B5044626
:10108000AFF300802046BDE81040FFF70EB9000026
:101090004FF0013C50F8042B51F8043B9A4221D107
:1010A000A2EB0C03934313EACC1317D150F8042B93
:1010B00051F8043B9A4215D1A2EB0C03934313EA77
:1010C000CC130BD150F8042B51F8043B9A4209D1B0
:1010D000A2EB0C03934313EACC13DBD04FF00000D8
:1010E000704700BFD01A01BAB1FA81F101F01801BE
:1010F00022FA01F0CB40C1F12001DBB2C0B2C01A2C
:101100002CFA01F3D11A914311EAC311E6D17047C9
:1011100001491820ABBEFEE72600020070475FEAD7
:10112000400C08BF91F0000F4FEA8C234FEAC12218
:1011300043EA51514FEA1C5018BF00F5F0404FEA06
:10114000300018BF41F000415FEA6C5C00F029807C
:10115000BCF1FF3F08BF40F080407047130C06BF52
:1011600012044FF0100C4FF0000C130E04BF1202CB
:101170000CF1080C130F04BF12010CF1040C930FB7
:1011800004BF92000CF1020CD30F04BF52000CF10B
:10119000010C11464FF00002A0F11F00A0EB0C0063
:1011A000704711F0004F08BF704731F000413FF425
:1011B000D5AF0B0C06BF09044FF0100C4FF0000C1C
:1011C0000B0E04BF09020CF1080C0B0F04BF090140
:1011D0000CF1040C8B0F04BF89000CF1020CCB0F37
:1011E00004BF49000CF1010CCCF12003A0EB0C0072
:1011F00022FA03F302FA0CF241EA030100F10100C2
:10120000704720F07F4C80EA030023F07F47ACEB6F
:10121000070303F57C5300F0004003F1FF032DE9C1
:1012200080494FEA154B09B44FEA144325EA0B4EA7
:1012300024EA03480FF2042606EB132749083E78F8
:101240005FEA320203FB0667C7F5000707FB06F6F5
:101250004FEA54374FEAD64606F1020607FB066C02
:10126000CCF1005C4FEA1C472CEA074C07FB06F464
:101270000CFB06F504EB15464FEA961634BF00202A
:101280004FF000404FEAD13706FB07FC4FEA1C4CF9
:101290000CFB0BF7D21B03FB0CF761EB07010CFBFC
:1012A0000EF7B0EB074072EB17420CFB08F734BFA8
:1012B000A2EB0742B2EB074261EB17414FEA0C4445
:1012C0004FEA910706FB07FC4FEA1C4C0CFB0BF79F
:1012D000B0EBC74072EB573203FB0CF734BFA2EB05
:1012E000C742B2EBC74261EB57310CFB0EF7B0EBD4
:1012F000C70072EB57720CFB08F734BFA2EBC702B2
:10130000B2EBC70261EB5771039F4FEA816141EA7B
:10131000921104EBCC044FEAD1374FEA826206FB0C
:1013200007FC42EA90124FEA80604FEA1C4C0CFB2B
:101330000BF7D21B03FB0CF761EB07010CFB0EF75D
:10134000B0EB074072EB17420CFB08F734BFA2EB7F
:101350000742B2EB074261EB17414FEA8C554FEA67
:10136000910704EB9C2406FB07FC4FEA1C4C0CFB8A
:101370000BF7B0EBC74072EB573203FB0CF734BFEF
:10138000A2EBC742B2EBC74261EB57310CFB0EF741
:10139000B0EBC70072EB57720CFB08F734BFA2EB3F
:1013A000C702B2EBC70261EB577115EB4C254FEA50
:1013B000816141EA92114FEA82624FEAD13742EAF3
:1013C000901206FB07FC44F100044FEA80604FEAEC
:1013D0001C4C0CFB0BF7D21B03FB0CF761EB07015A
:1013E0000CFB0EF7B0EB074072EB17420CFB08F753
:1013F00034BFA2EB0742B2EB074261EB174115EB9A
:101400001C154FEA813141EA92414FEA823242EAA9
:1014100090424FEA80304FEA0C7644F1000448EAEB
:1014200003434EEA0B484FF0000EB2EB080C71EB91
:10143000030724BF624639464EEB0E0E4FF0000BF9
:101440000018524149414BEB0B0BB2EB080C71EB0E
:1014500003077BF1000B24BF624639464EEB0E0EAC
:101460004FF0000B0018524149414BEB0B0BB2EB14
:10147000080C71EB03077BF1000B24BF6246394671
:101480004EEB0E0E51EA020718BF46F0010616EBAE
:101490000E7655F1000254F1000103D5BDE8890133
:1014A000BDE80088BDE88901BDE80048B619524191
:1014B00041EB0101A3F10103704780807F7E7D7CB9
:1014C0007B7A7978777676757473727171706F6ED6
:1014D0006E6D6C6C6B6A6A69686867666665646481
:1014E000636362616160605F5F5E5E5D5D5C5C5B0B
:1014F0005B5A5A595958585757565655555554547A
:10150000535352525251515050504F4F4F4E4E4DD7
:101510004D4D4C4C4C4B4B4B4A4A4A494949484823
:101520004847474747464646454545444444444363
:1015300043434342424242414141002B26D477007B
:1015400021D01CB54FEA370703B44FF010004FF01D
:1015500010014FF000000FBCBDE810400BF1010B73
:10156000BBF1010F08BF5FEA170722BF12F10102AA
:1015700011F101014FF0004143F1000300F0004080
:1015800043EA00007047F9D35708DAE746EA06460F
:1015900013F1400F4FEA16461FDD13F1200FDFBF96
:1015A00016430A46002120335B42C8D0C3F120070E
:1015B00046EA064602FA07F74FEA164646EA0706E3
:1015C000C3F1200722FA03F201FA07F721FA03F127
:1015D0004FF0000342EA0702B1E746EA020646EA94
:1015E00006464FEA164646EA0106BCBF46EA0646EC
:1015F000360C4FF000034FF000024FF000019EE761
:101600002DE9C048934630B491E8380007C831EA64
:10161000400C48BF34EA430C03D5FFF7F2FDFFF757
:101620008CFFF0BCBDE800882DE9C048934630B47B
:1016300091E8380007C810F0804F08BF13F0804FC2
:1016400003D100F005F8FFF778FFF0BCBDE8008893
:1016500020F07F4780EA030023F07F4C07EB0C0368
:10166000A3F57C5300F00040A3F1FE0392F0000FBD
:1016700000F0B38095F0000F00F077802DE901496C
:101680004FEA11404FEA144621EA004800FB06FCED
:1016900024EA064708FB06F607FB08F800FB07F7F5
:1016A00018EB06484CEB164C4FEA124B18EB074868
:1016B0004FEA15464CEB174022EA0B4E0BFB06FC9B
:1016C00025EA06470EFB06F607FB0EFE0BFB07F7A7
:1016D0001EEB064E4CEB164C4FF000061EEB074E71
:1016E0004CEB174B18EB0B0840F1000018EB0E0BFE
:1016F00058EB000840F100008F1A4FF000013CBF8A
:10170000C943661B14BFB5EB040C00213CBFC943A1
:10171000F61B4FEA17444EEA8E0E27EA04454FEABD
:101720001C4704FB07622CEA074C05FB07F70CFB80
:1017300005F604FB0CFC16EB074642EB174216EBD2
:101740000C4642EB1C421BEB060658EB02024141E1
:1017500046EA9E0601D5BDE80189B619524141EB22
:101760000101A3F10103BDE801894FEA14454FEAE5
:10177000114724EA054621EA074C05FB07F406FB5E
:1017800007F70CFB06F105FB0CFC11EB074144EBE2
:1017900017444FEA124711EB0C4144EB1C4422EA78
:1017A000074C05FB07F206FB07F70CFB06F605FBEB
:1017B0000CFC16EB074642EB174216EB0C4642EBCD
:1017C0001C456A1854F1000148BF7047B6195241D0
:1017D00041EB0101A3F10103704795F0000F37D0F1
:1017E0004FEA11424FEA144721EA024624EA074C25
:1017F00002FB07F106FB07F70CFB06F402FB0CFCEF
:1018000014EB074441EB17414FEA154714EB0C4426
:1018100041EB1C4125EA074C02FB07F506FB07F7E5
:101820000CFB06F602FB0CFC16EB074645EB1745D6
:1018300016EB0C4645EB1C42121951F1000148BF52
:101840007047B619524141EB0101A3F10103704702
:101850004FEA14454FEA114724EA054621EA074CAE
:1018600005FB07F106FB07F70CFB06F24FF000063D
:1018700005FB0CFC12EB074241EB174112EB0C424B
:1018800051EB1C4148BF7047921841EB0101A3F195
:101890000103704700B589B00121084601F09CFBA7
:1018A00001210D2001F0B8FB40F60840ADF804001E
:1018B00018208DF8070003208DF8060001A92B4899
:1018C00000F00CFA4FF40040ADF8040001A92848DC
:1018D00000F004FA0121274800F08CFA0121264883
:1018E00000F088FA0020ADF81800ADF81A0040F6B4
:1018F000FF70ADF81C000020ADF81E008DF8200030
:1019000006A94FF0804002F021F96020ADF80800F0
:101910000120ADF80A000420ADF80C000020ADF85D
:101920000E00ADF810000820ADF812004001ADF82F
:1019300014000020ADF8160002A94FF0804001F01D
:1019400097FF02A94FF0804001F0E8FF02A94FF095
:10195000804002F035F802A94FF0804002F080F894
:101960000121880701F003FF09B000BD000C014010
:1019700000080140000318000002300000BFFEE72D
:1019800030B502460B464FF6FF70002112E0555C61
:10199000684000240AE000F0010525B14AF2010583
:1019A00085EA600000E04010651CECB2082CF2DB18
:1019B0004D1CE9B29942EADB30BD70472DE9F04792
:1019C00000240025A9480268A9480168A94801F037
:1019D000CBFAA9490860A94903C903F089F9064669
:1019E0003246A7480168A74801F0BEFA0546A64955
:1019F000284604F0D7F901D2A34D05E0A3492846B3
:101A000004F0D0F800D2A14DA14829460268A148AF
:101A100001F0AAFAA0490860A04903C903F068F9D7
:101A2000064632469E4801689E4801F09DFA0446EB
:101A30009549204604F0B6F901D2934C05E093494C
:101A4000204604F0AFF800D2904C97482146026837
:101A5000964801F089FA9649086096480021026884
:101A6000954801F081FA954908608B48006880F03C
:101A700000488F480168404603F010FF07468F4832
:101A80000168384603F00AFF06467B480168304685
:101A900003F004FF8A4908607F48006880F000482E
:101AA00083480168404604F0AFF90746834801685F
:101AB000384604F0A9F906466F480168304603F03D
:101AC000EDFE804908607A4801687348006804F0B8
:101AD0009BF9074679480168384603F0DFFE064661
:101AE00065480168304603F0D9FE774908607048C0
:101AF00001686948006803F0D1FE07466F48016835
:101B0000384604F081F906465B480168304603F028
:101B1000C5FE6E4908606E480078002854D06848B9
:101B2000006801F031F981466A4904F06FF8804697
:101B3000694903F021FF074603F0FCFF86B23146F6
:101B40004FF0804001F0CAFF5E48006801F01CF9C8
:101B50008146604904F05AF880465F4903F00CFF63
:101B6000074603F0E7FF86B231464FF0804001F0B0
:101B7000B7FF5548006801F007F98146554904F060
:101B800045F88046544903F0F7FE074603F0D2FFBC
:101B900086B231464FF0804001F0A4FF4B48006808
:101BA00001F0F2F881464B4904F030F880464A498A
:101BB00003F0E2FE074603F0BDFF86B231464FF068
:101BC000804001F091FF4FE0002001F0DDF88146F8
:101BD000404904F01BF880463F4903F0CDFE07461C
:101BE00003F0A8FF86B231464FF0804001F076FF47
:101BF000002001F0C9F88146364904F007F807468D
:101C0000354903F0B9FE804603F094FF86B23146B1
:101C10004FF0804001F064FF002001F0B5F88146EC
:101C20002C4903F0F3FF06462B4903F0A5FE80463E
:101C300003F080FF87B239464FF0804001F052FF39
:101C4000002001F0A1F88146224903F0DFFF06469B
:101C5000214903F091FE804603F06CFF87B23946BC
:101C60004FF0804001F040FFBDE8F087B401002054
:101C7000C800002098010020DC000020A8000020FF
:101C8000C0000020200100200000A0410000A0C1F1
:101C90003C00002068010020CC000020A0000020B3
:101CA000BC0000203801002040000020500100202E
:101CB000D00000204400002080010020D40000203B
:101CC000E0000020E4000020E8000020EC000020FC
:101CD000D800002000F07F450000C8422DE9F04107
:101CE000024600250026002000230024002791F84A
:101CF00003C00CF00F0591F803C00CF0100CBCF100
:101D0000000F03D091F802C04CEA050591F800C01D
:101D1000BCF1000F31D0146800202BE04FF0010C13
:101D20000CFA00F3B1F800C00CEA03069E4220D181
:101D300083004FF00F0C0CFA03F7BC4305FA03FCC9
:101D40004CEA040491F803C0BCF1280F06D14FF00F
:101D5000010C0CFA00FCC2F814C00AE091F803C0B0
:101D6000BCF1480F05D14FF0010C0CFA00FCC2F891
:101D700010C0401C0828D1D31460B1F800C0BCF1D9
:101D8000FF0F34DD546800202EE000F1080C4FF006
:101D9000010808FA0CF3B1F800C00CEA03069E42F1
:101DA00021D183004FF00F0C0CFA03F7BC4305FA66
:101DB00003FC4CEA040491F803C0BCF1280F05D1E0
:101DC00000F1080C08FA0CF8C2F8148091F803C06E
:101DD000BCF1480F07D100F1080C4FF0010808FAD8
:101DE0000CF8C2F81080401C0828CED35460BDE81F
:101DF000F0810000F0B50A460023002400210025F0
:101E000000F00046B6F1004F02D11D4EF16901E02D
:101E10001B4E7168C0F3034583B200F44016B6F55B
:101E2000401F08D121F07061154E766826F070666B
:101E3000134F7E6012E000F48016B6F5801F06D1C5
:101E4000032606FA05F4A14341F0706106E0460D51
:101E5000360103FA06F6B14341F0706122B1460D36
:101E6000360103FA06F6314300F00046B6F1004FA2
:101E700002D1034EF16101E0014E7160F0BD00003E
:101E80000000014041617047016170472DE9F05F3A
:101E900001233B22D021354800F02EFA3449088036
:101EA00001233D22D021314800F026FA3149088033
:101EB00001233F22D0212D4800F01EFA2E49088030
:101EC0002B48B0F9000003F055FE83464FF08041E7
:101ED00003F09CFE824603F0B5FC8046274A284B5F
:101EE00003F0A0F906460022264B02F0EFFF04465D
:101EF00002F0FEFE244908601E48B0F9000003F01D
:101F000039FE83464FF0804103F080FE824603F0A5
:101F100099FC8046194A1A4B03F084F906460022C0
:101F2000184B02F0D3FF044602F0E2FE17490860A6
:101F30001148B0F9000003F01DFE83464FF08041C8
:101F400003F064FE824603F07DFC06460B4A0C4B10
:101F500003F068F9044600220A4B02F0B7FF8046FE
:101F600002F0C6FE0A490860BDE8F09F0054004038
:101F70002E00002030000020320000209A9999990C
:101F8000999923400000E040480000204C000020C8
:101F9000500000202DE9F05F01234322D021344876
:101FA00000F0AAF93349088001234522D0213048A6
:101FB00000F0A2F93049088001234722D0212C48A3
:101FC00000F09AF92D4908802A48B0F9000003F082
:101FD000D1FD83462A4903F019FE824603F032FC04
:101FE00080460022274B02F071FF0646264A274B07
:101FF00002F06CFF044602F07BFE254908601E4893
:10200000B0F9000003F0B6FD83461D4903F0FEFD64
:10201000824603F017FC804600221A4B02F056FF5E
:102020000646194A194B02F051FF044602F060FEC1
:10203000184908601148B0F9000003F09BFD834681
:102040000F4903F0E3FD824603F0FCFB0646002245
:102050000C4B02F03BFF04460B4A0C4B02F036FFE0
:10206000804602F045FE0C490860BDE8F09F000084
:1020700000540040280000202A0000202C000020EE
:102080000000FA430000E040295C8FC2F5A84C40F4
:102090003C00002040000020440000202DE9FC5FAF
:1020A0001148006803F06AF8804600220F4B03F0E5
:1020B000B9F8064600220E4B03F0B4F8044600229D
:1020C0000C4B02F003FF824600224FF0804302F0E7
:1020D000FDFECDE9000102F00BFE0749086001F0AA
:1020E00033F8BDE8FC9F0000B80100200000E03F8D
:1020F000009AE04080842E41B401002000BFFEE73A
:1021000021B1028842F48062028004E002884FF626
:10211000FF331A40028070472DE9F0410746884698
:1021200014461E46069D00BF4FF40031384600F0AD
:1021300057F90028F8D10121384600F039F900BFDD
:102140002C49384600F09AF80028F9D00022414680
:10215000384600F01DFA00BF2749384600F08EF8D7
:102160000028F9D00121384600F09DF83146384664
:1021700000F017FA00BF2049891C384600F07EF8AD
:102180000028F8D00121384600F012F900BF1949A3
:10219000384600F073F80028F9D00122414638464D
:1021A00000F0F6F900BF1349491C384600F066F804
:1021B0000028F8D016E0012D07D100213846FFF79E
:1021C0009FFF0121384600F0FFF80A493F313846A9
:1021D00000F054F830B1384600F0D6F92070641C95
:1021E000681E85B2002DE6D101213846FFF788FF31
:1021F000BDE8F08101000300820007002DE9F041F5
:1022000006460F4614461D460121304600F0D0F820
:1022100000BF1849304600F031F80028F9D00022FC
:102220003946304600F0B4F900BF1349304600F09B
:1022300025F80028F9D02946304600F0B2F900BF51
:102240000D49891C304600F019F80028F8D02146C5
:10225000304600F0A6F900BF0749891C304600F05F
:102260000DF80028F8D00121304600F0ADF8BDE8A7
:10227000F0810000010003008200070070B50246F3
:102280000024002500230020958A138B1B0445EAB7
:10229000030626F07F4404EA01068E4201D10120A4
:1022A00000E0002070BD21B1028842F001020280EE
:1022B00004E002884FF6FE731A4002807047000067
:1022C00010B504460B48844209D10121480500F0AD
:1022D00093FE00214FF4001000F08EFE08E0012173
:1022E000880500F089FE00214FF4800000F084FE94
:1022F00010BD0000005400402DE9FC4106460F4689
:1023000014461D460220234601AA39460090304655
:10231000FFF702FF012D08D19DF805009DF804107C
:1023200000EB012000B2BDE8FC819DF804009DF89F
:10233000051040EA012000B2F5E7000070B506463E
:102340001948864202D1C414051501E080244025B5
:102350000DE029461548FFF797FD0A2002F0BEFB65
:1023600029461248FFF78EFD0A2002F0B7FB0F48FE
:102370000C30006820400028EBD029460B48FFF7BE
:1023800083FD21460948FFF77DFD0A2002F0A6FBE8
:1023900021460648FFF778FD0A2002F09FFB012145
:1023A000304600F000F970BD00580040000C0140BC
:1023B00021B1028842F48072028004E002884FF664
:1023C000FF631A400280704721B1028842F4007214
:1023D000028004E002884FF6FF531A4002807047E3
:1023E0000CB50246002000230193009300920B0FCE
:1023F000019321F07F41019B1BB1009B143300939B
:1024000003E0090C009B18330093009B1B680B40F2
:102410000BB1012000E000200CBD1AB183880B43F2
:10242000838002E083888B43838070472DE9F043EB
:1024300085B004460D460026B1460427DFF8CC805F
:10244000A6884FF6C0700640684600F0F5FDDDF83E
:1024500008802F48B8FBF0F01FFA80F946EA090619
:10246000A68020884FF6FE7108402080002629496A
:10247000286888420CD828684000B8FBF0F087B282
:10248000042F00DA04273E4309F10100208427E0ED
:10249000E8884BF6FF71884206D1286800EB4000BF
:1024A000B8FBF0F087B209E0286800EBC00101EB4F
:1024B0000010B8FBF0F087B247F48047C7F30B0079
:1024C00008B947F0010747F4004006434FF49670FF
:1024D00009FB00F04FF47A7190FBF1F0401C20846E
:1024E000A683208840F00100208026884FF6F53032
:1024F0000640A8886989084306432680A889298957
:102500000843208105B0BDE8F083000000127A0086
:1025100040420F00A086010038B504460A488442B4
:1025200004D14FF44060ADF8000002E0C020ADF8E7
:10253000000003208DF802001C208DF8030069467E
:102540000248FFF7CBFB38BD00580040000C0140AB
:1025500038B504460A48844204D14FF44060ADF8CF
:10256000000002E0C020ADF8000003208DF802005A
:1025700014208DF8030069460248FFF7AFFB38BD11
:1025800000580040000C01400146088AC0B2704764
:1025900012B141F0010102E04FF6FE7319400182D1
:1025A00070470182704721B1028842F400420280E4
:1025B00003E00288C2F30E020280704710B586B0B5
:1025C00004462D48844204D10121880500F004FD11
:1025D00003E00121480500F0FFFC0121082000F084
:1025E0001BFD2548844204D14FF44060ADF814002F
:1025F00002E0C020ADF8140003208DF816001C2066
:102600008DF8170005A91D48FFF768FB0020ADF8FD
:1026100008004BF6FF70ADF80A000020ADF80C0082
:102620004FF48060ADF80E000001ADF810001448C2
:1026300001902046FFF744FE01A92046FFF7F6FE71
:1026400001212046FFF72FFE01224FF4C0612046F2
:10265000FFF7E3FE4FF400312046FFF7C1FE28B13B
:102660002046FFF775FF2046FFF768FE2046FFF77C
:1026700053FF06B010BD000000580040000C0140A0
:10268000A08601000FB5A3B0FE480168006803F002
:10269000BDFA1D90FC480168FA48006803F0B6FADC
:1026A0001C90FA480168F748006803F0AFFA1B90E5
:1026B000F5480168006803F0A9FA1A90F448016827
:1026C000F148006803F0A2FA1990F0480168006828
:1026D00003F09CFA1890EE480168EC48006803F09B
:1026E00095FA1790EA480168006803F08FFA16908F
:1026F000E6480168E448006803F088FA1590E44869
:102700000168E048006803F081FA149025990846B2
:1027100003F07CFA08902499084603F077FA0690B3
:102720002399084603F072FA0590069903F0B6F86B
:102730000790089903F0B2F8099003F083F8CDE907
:102740000A0102F055FACDE90C0102F0D1FA21900C
:10275000219803F077F8CF4ACF4BCDE90C0102F076
:1027600025FD01D227B000BD2199239803F004F97B
:1027700023902199249803F0FFF82490219925981B
:1027800003F0FAF825901B99199803F03DFB4FF0E0
:1027900080410D9003F03AFA209017991C9803F0AD
:1027A0007DF84FF080410D9003F030FA1F901A9998
:1027B0001D9803F029FB0C90189903F025FB0D9050
:1027C000169903F06BF81E901F99259803F01EFAD6
:1027D0000D901E99249803F019FA0C900D9903F0AE
:1027E00013FB13901E99239803F010FA0D90209973
:1027F000259803F00BFA0C900D9903F005FB12904D
:102800002099249803F002FA0D901F99239803F061
:10281000FDF90C900D9903F0F7FA11909F480168AB
:10282000139803F0F3F9059003F00CF89C4A9D4BC4
:10283000CDE9060102F0F6FCCDE90A01109803F09B
:1028400001F8CDE90801DDE90A2302F083FACDE9B8
:102850000C0102F04DFA109090480168129803F0B4
:10286000D5F9059002F0EEFF8D4A8E4BCDE90601B9
:1028700002F0D8FCCDE90A010F9802F0E3FFCDE9A0
:102880000801DDE90A2302F065FACDE90C0102F046
:102890002FFA0F9081480168119803F0B7F905905D
:1028A00002F0D0FF7E4A7F4BCDE9060102F0BAFC70
:1028B000CDE90A010E9802F0C5FFCDE90801DDE976
:1028C0000A2302F047FACDE90C0102F011FA0E904A
:1028D00075480168139803F099F90C90109902F06B
:1028E000DDFF0D90269902F0D9FF26906E48016811
:1028F000129803F08BF90C900F9902F0CFFF0D9016
:10290000289902F0CBFF289067480168119803F0DE
:102910007DF90C900E9902F0C1FF0D90299902F0FB
:10292000BDFF29905A482999006803F06FF9049077
:1029300056482899006803F069F9029052480068E7
:1029400080F000400090269903F060F90190029910
:1029500003F05AFA0390049903F056FA059002F036
:1029600071FF4F4A514BCDE9060102F05BFCCDE906
:102970000A014448006802F065FFCDE90801DDE97D
:102980000A2302F0E7F9CDE90C0102F0B1F93D4963
:1029900008603F482899006803F038F904903B48E4
:1029A0002999006803F032F90290364826990068A8
:1029B00003F02CF90190029902F070FF0390049942
:1029C00003F022FA059002F03DFF354A374BCDE97E
:1029D000060102F027FCCDE90A012B48006802F04D
:1029E00031FFCDE90801DDE90A2302F0B3F9CDE9B1
:1029F0000C0102F07DF924490860254826990068F9
:102A000003F004F9049020482999006803F0FEF8C7
:102A100002901C482899006803F0F8F80190029988
:102A200003F0F2F90390049902F038FF059002F0E8
:102A300009FF1B4A1D4BCDE9060102F0F3FBCDE96E
:102A40000A011248006802F0FDFECDE90801DDE947
:102A50000A2302F07FF9CDE90C0102F049F90B4994
:102A600008600A482699006803F0D0F804900648E8
:102A70002899006803F0CAF8029002482999006872
:102A800016E0000084000020880000208C00002058
:102A9000900000208DEDB5A0F7C6B03E9800002054
:102AA0007B14AE47E17A743F94000020E17A643FE2
:102AB00003F0ACF80190029902F0F0FE0390049943
:102AC00003F0A2F9059002F0BDFEA24AA24BCDE9A7
:102AD000060102F0A7FBCDE90A01A048006802F058
:102AE000B1FECDE90801DDE90A2302F033F9CDE9B1
:102AF0000C0102F0FDF89949086008460168006879
:102B000003F084F8089096480168006803F07EF8A6
:102B1000069094480168006803F078F804909248A1
:102B20000168006803F072F80390049902F0B6FEA1
:102B30000590069902F0B2FE0790089902F0AEFEE9
:102B4000099002F07FFECDE90A0102F051F8CDE9CB
:102B50000C0102F0CDF82190219802F073FE834A17
:102B6000834BCDE90C0102F021FB00D2FAE57E484F
:102B70002199006802F000FF7B490860794821999B
:102B8000006802F0F9FE77490860754821990068ED
:102B900002F0F2FE7249086070482199006802F064
:102BA000EBFE6E490860704801684FF0804003F00A
:102BB0002DF806906A480168069803F027F80890F7
:102BC000684801684FF0404003F020F806906348E1
:102BD0000168069803F01AF80790089902F05EFE63
:102BE000099002F02FFECDE90A0101F05DFC4FF0E3
:102BF0006632604BCDE90C0102F014FB5E4A03C261
:102C0000574801684FF0804003F000F803905448A3
:102C10000168039802F0FAFF0590524801684FF0EE
:102C2000404002F0F3FF03904E480168039802F021
:102C3000EDFF0490059903F0E7F84FF07E51069000
:102C400002F02CFE079002F0FDFDCDE90A01464896
:102C500001684FF0804002F0D9FF049041480168BC
:102C6000049802F0D3FF06903D4801684FF0804081
:102C700002F0CCFF049039480168049802F0C6FFC6
:102C80000590069902F00AFE079002F0DBFDCDE9FF
:102C90000801DDE90A2301F04FFE4FF06632354BA3
:102CA000CDE90C0102F0BEFA344A03C24FF0804075
:102CB000169902F0ABFF05904FF04040189902F0D2
:102CC000A5FF0490059903F09FF84FF07E51069000
:102CD00002F0E4FD079002F0B5FDCDE90A014FF0E6
:102CE0008040149902F092FF06904FF080401599B1
:102CF00002F08CFF0590069902F0D0FD079002F0DB
:102D0000A1FDCDE90801DDE90A2301F015FE4FF030
:102D10006632184BCDE90C0102F084FA184A03C25E
:102D200000221346154903C902F07AFB08D200229B
:102D3000144B124903C902F09BFC104A03C207E07E
:102D40000022104B0D4903C902F004F80B4A03C2DC
:102D500000BF07E57B14AE47E17A643F9000002096
:102D60008C00002088000020840000208DEDB5A09C
:102D7000F7C6B03E66A64C40A0000020A800002088
:102D8000B00000200080664070B50546094C0A4836
:102D9000007800B1094C2146284603F003F801D21F
:102DA000254605E00021284602F0FCFE00D2002561
:102DB000284670BD0000C842B00100200000484213
:102DC00010B51248FFF7FAFB114801F087FE6B239C
:102DD0000022D0210D48FFF711FA19230722D02134
:102DE0000A48FFF70BFA1A230622D0210748FFF7FB
:102DF00005FA1B230822D0210448FFF7FFF91C2302
:102E00000122D0210148FFF7F9F910BD005400401C
:102E100020A1070000BFFEE77047000070B5002149
:102E200000230F22C47804B3154C246804F4E06432
:102E3000C4F5E064210AC1F10403CA40447804FAED
:102E400003F184781440214309010E4C0678A15502
:102E5000047804F01F050124AC4005786D11AD0025
:102E600005F1E025C5F8004109E0047804F01F05EC
:102E70000124AC40044D0678761145F8264070BD1B
:102E80000CED00E000E400E080E100E002490143D5
:102E9000024A1160704700000000FA050CED00E0E6
:102EA00030B58BB000200790089009900A900390ED
:102EB0000490059006900090019002900025002457
:102EC0000DE0274850F8240007A941F8240007A87E
:102ED00050F8240003A941F82400601CC4B2042C5B
:102EE000EFDB002410E003A810F824000DF8140014
:102EF00003A830F82400C0F30720012101EB4401AE
:102F00000DF80100601CC4B2042CECDB08216846FB
:102F1000FEF736FD05462846E91705EB1161091253
:102F2000A5EB0121C9B28DF80810E91705EB116175
:102F3000090A8DF8091000240DE000BF802109481E
:102F400001F0D6F80028F9D01DF80410054801F06A
:102F50009CF9601CC4B20A2CEFDB0BB030BD000042
:102F6000BC010020004C00402DE9FC5F04460E46E9
:102F700017463946304602F047FF05462846216984
:102F800002F042FF019025612946E06802F086FCCC
:102F9000E0606169E06802F005FF01D26069E0600D
:102FA000D4E9021002F032FE82466168019802F014
:102FB0002DFE00902846216802F028FE83460099E5
:102FC00002F06CFC8146514602F068FC80464046A7
:102FD000BDE8FC9F7047000029B1064AD269024350
:102FE000044BDA6104E0034AD2698243014BDA619F
:102FF000704700000010024029B1064A12690243DE
:10300000044B1A6104E0034A12698243014B1A61BE
:10301000704700000010024029B1064A926902433D
:10302000044B9A6104E0034A92698243014B9A611E
:10303000704700000010024030B50021002200243B
:1030400000232D4D6D6805F00C0121B1042905D038
:10305000082923D105E0294D056022E0274D0560B0
:103060001FE0254D6D6805F47012234D6D6805F461
:103070008034022505EB92421CB9214D5543056071
:103080000BE01D4D6D6805F400351DB11C4D554319
:10309000056002E0194D5543056002E0174D0560DB
:1030A00000BF00BF144D6D6805F0F0010909154D12
:1030B0006B5C0568DD4045600F4D6D6805F4E061AF
:1030C000090A104D6B5C4568DD4085600A4D6D68EE
:1030D00005F46051C90A0B4D6B5C4568DD40C56065
:1030E000054D6D6805F44041890B074D6B5CC56863
:1030F000B5FBF3F5056130BD0010024000127A0007
:1031000000093D00000000201000002008B501214A
:103110000420FFF781FF1020ADF800008DF80300B8
:1031200003208DF8020069460648FEF7D7FD4020CF
:10313000ADF8000004208DF8030069460148FEF751
:10314000CDFD08BD0008014010B510210548FEF76F
:103150009BFE642001F0C2FC10210248FEF792FEA3
:1031600010BD000000080140704710B500F002F8E3
:1031700010BD00000CB5002001900090334800689D
:1031800040F480303149086000BF3048006800F4E6
:10319000003000900198401C0190009818B90198E7
:1031A000B0F5A06FF1D12948006800F4003010B1EB
:1031B0000120009001E0002000900098012843D1F8
:1031C0002348006840F01000214908600846006864
:1031D00020F0030008600846006840F00200086024
:1031E0001A484068194948600846406848600846DF
:1031F000406840F4806048600846406820F47C10D5
:1032000048600846406840F4E81048600846006896
:1032100040F08070086000BF0C48006800F000704B
:103220000028F9D00948406820F0030007494860A9
:103230000846406840F00200486000BF034840680C
:1032400000F00C000828F9D10CBD0000001002406D
:10325000002002407047000010B51348006840F09D
:1032600001001149086008464068104908400E49AD
:103270004860084600680E4908400B490860084647
:10328000006820F4802008600846406820F4FE00B2
:1032900048604FF41F008860FFF767FF4FF0006041
:1032A0000449086010BD0000001002400000FFF853
:1032B000FFFFF6FE08ED00E0F0B50C4615460022D3
:1032C0000021068C4FF6FE773E400684028B018C6F
:1032D0004FF60C7632407E1C06EA03162E4332432C
:1032E000104EB0420ED0104EB0420BD0B0F1804F15
:1032F00008D00E4EB04205D00D4EB04202D00D4E59
:10330000B04206D14FF6FD76314044F0010631431C
:1033100005E04FF6F576314044F001063143028373
:103320000184F0BD002C0140003401400004004045
:1033300000080040000C0040F0B50C461546002285
:1033400000210026078C4FF6EF7C07EA0C07078464
:10335000028B018C4FF6FF7707EA041640F6FF4711
:103360003A404FF6FF7707EA03373A434FF6FF77C5
:1033700007EA05273A43114FB8420ED0104FB84222
:103380000BD0B0F1804F08D00E4FB84205D00E4F91
:10339000B84202D00D4FB84206D14FF6DF77394020
:1033A00046F01007394305E04FF65F77394044F0A7
:1033B0001007394302830184F0BD0000002C014056
:1033C000003401400004004000080040000C0040B0
:1033D000F0B50C461546002200210026078C4FF65A
:1033E000FF6C07EA0C070784828B018C4FF6FF778E
:1033F00007EA04264FF60C773A404FF6FF7707EAC4
:1034000003172F433A43114FB8420ED0104FB84222
:103410000BD0B0F1804F08D00E4FB84205D00E4F00
:10342000B84202D00D4FB84206D14FF6FF5739408F
:1034300046F48077394305E04FF2FF57394044F4B2
:103440008077394382830184F0BD0000002C014065
:10345000003401400004004000080040000C00401F
:10346000F0B50C461546002200210026078C4EF6CA
:10347000FF7C07EA0C070784828B018C4FF6FF77ED
:1034800007EA043640F6FF473A404FF6FF7707EA6F
:1034900005273A434FF6FF7707EA03373A43114FC0
:1034A000B8420ED0104FB8420BD0B0F1804F08D0C8
:1034B0000E4FB84205D00E4FB84202D00D4FB84261
:1034C00006D14DF6FF77394046F48057394305E081
:1034D00047F6FF57394044F48057394382830184CB
:1034E000F0BD0000002C0140003401400004004009
:1034F00000080040000C004000B587B00121022008
:10350000FFF76AFD4FF4FA60ADF808002320ADF82C
:1035100004000020ADF80A00ADF8060001A9174824
:1035200000F014FB0020ADF81000ADF812000120EF
:10353000ADF814000020ADF81600ADF8180004A98D
:103540000E4800F035F91D208DF8000003208DF89D
:10355000010000208DF8020001208DF8030068466C
:10356000FFF75CFC01220321044800F077F90121F8
:10357000024800F0FCF807B000BD00000004004065
:1035800010B50121234800F001F920B1224800784C
:10359000401C2149087002211E4800F0F7F8A0B332
:1035A0001E48007870B900201B4908700021194896
:1035B00000F09DFA0120194908700221154800F019
:1035C000A3F922E01548007801281ED1114800F027
:1035D000DAF8134908601048007800EB4001C1EBAD
:1035E000C0100F49096801EB00100D490860002068
:1035F000094908700021074800F079FA00200749BE
:1036000008700021034800F07FF90321014800F011
:10361000ABF810BD00040040180000201900002085
:10362000B80100201CB50121234800F0AFF80028A4
:1036300040D00121204800F097F8002201211E48C7
:1036400000F00CF91D480068012806D0022809D0B6
:10365000032818D004281CD118E0FEF79BFCFEF7C5
:1036600015FC17E01648006816490968CDE90010F6
:103670001548036815480268154801681548006830
:10368000FFF700F806E0FEF799F903E0FEF706FD04
:1036900000E000BF00BF09480068401C052190FB06
:1036A000F1F201FB120005490860012211460248AF
:1036B00000F0D4F81CBD00000010004020000020E5
:1036C00044000020400000203C000020500000206A
:1036D0004C000020480000201FB5044620488442CA
:1036E00003D02048844200D01FBD1D48844207D12A
:1036F00001211020FFF770FC36208DF80C0009E046
:103700001848844206D101212020FFF765FC3720AC
:103710008DF80C0000208DF80D0001208DF80E00B2
:103720008DF80F0003A8FFF779FB4FF4FA60ADF8AE
:1037300004002320ADF800000020ADF80600ADF82D
:1037400002006946204600F001FA01221146204697
:1037500000F084F80121204600F009F800BFC3E71B
:103760000010004000140040CA430282704721B19B
:10377000028842F00102028004E002884FF6FE73E4
:103780001A40028070470146888E704730B5024665
:10379000002000230024158A05EA0103958905EA23
:1037A000010413B10CB1012000E0002030BD000085
:1037B00070B505460C46244885420ED02348854204
:1037C0000BD0B5F1804F08D02148854205D0214863
:1037D000854202D02048854200D100E000BF208809
:1037E00050B92389A28861882846FFF765FDE188E2
:1037F000284600F07EF925E0208804280AD1238994
:10380000A28861882846FFF797FDE188284600F0E6
:1038100079F917E0208808280AD12389A2886188CD
:103820002846FFF7D5FDE188284600F078F909E041
:103830002389A28861882846FFF712FEE18828467E
:1038400000F076F970BD0000002C0140003401400A
:103850000004004000080040000C00401AB18389B9
:103860000B43838102E083898B438381704700008F
:1038700070B5002400220023058C4FF6FE763540FB
:103880000584028C8388048B4FF68F752C40B51EFF
:103890002C400D882C43751E2A400D892A434D88E3
:1038A0002A43144DA8420BD0134DA84208D0134D03
:1038B000A84205D0124DA84202D0124DA84213D101
:1038C0004FF6F7752A404D892A434FF6FB752A407B
:1038D0008D882A434FF6FF652B404FF6FF552B404E
:1038E0008D892B43CD892B4383800483CD888586A6
:1038F000028470BD002C01400034014000400140B2
:1039000000440140004801400A460021018C4FF666
:10391000FD731940114301847047000070B5002405
:1039200000220023058C4FF6EF7635400584028C8B
:103930008388048B48F6FF752C404FF6FF452C40DA
:103940000D884FF6FF7606EA05252C434FF6DF7506
:103950002A400D8906EA05152A434D8806EA051511
:103960002A43154DA84202D0144DA8421DD14FF64E
:103970007F752A404D894FF6FF7606EA05152A43E2
:103980004FF6BF752A408D8806EA05152A434FF683
:10399000FF352B404FF2FF752B408D8906EA8505D8
:1039A0002B43CD8906EA85052B4383800483CD888C
:1039B0000587028470BD0000002C014000340140E6
:1039C00070B5002400220023058C4FF6FF663540B9
:1039D0000584028C8388848B4FF68F752C404FF6BC
:1039E000FC752C400D882C434FF6FF552A400D895D
:1039F0004FF6FF7606EA05252A434D8806EA052597
:103A00002A43154DA84202D0144DA8421DD14FF2B1
:103A1000FF752A404D894FF6FF7606EA05252A43B1
:103A20004FF6FF352A408D8806EA05252A434EF6D3
:103A3000FF752B404DF6FF752B408D8906EA051565
:103A40002B43CD8906EA05152B4383808483CD88DB
:103A50008587028470BD0000002C014000340140C5
:103A600070B5002200230024058C4EF6FF76354009
:103A70000584038C8488828B48F6FF752A404FF6B4
:103A8000FF452A400D884FF6FF7606EA05252A43B2
:103A90004DF6FF752B400D8906EA05352B434D8801
:103AA00006EA05352B430B4DA84202D00A4DA84229
:103AB00008D14BF6FF752C408D894FF6FF7606EA4C
:103AC00085152C4384808283CD88A0F840500384E0
:103AD00070BD0000002C0140003401408186704719
:103AE0000187704781877047A0F840107047818434
:103AF0007047028B4FF6F3731A400283028B0A431E
:103B000002837047028B4FF2FF331A400283028B0D
:103B10004FF6FF7303EA01231A4302837047828B37
:103B20004FF6F3731A408283828B0A438283704775
:103B3000828B4FF2FF331A408283828B4FF6FF73E2
:103B400003EA01231A43828370470000002202889F
:103B50001D4B98420ED01D4B98420BD0B0F1804FB8
:103B600008D01B4B984205D01A4B984202D01A4BF2
:103B7000984204D14FF68F731A404B881A43174B63
:103B8000984207D0164B984204D04FF6FF431A4094
:103B9000CB881A4302808B8883850B8803850A4B68
:103BA00098420BD0094B984208D00E4B984205D052
:103BB0000D4B984202D00D4B984201D10B7A0386EF
:103BC0000123838270470000002C01400034014033
:103BD0000004004000080040000C004000100040BD
:103BE00000140040004001400044014000480140F2
:103BF0002DE9FC4140F22551EB4800F086FA0028FF
:103C000077D040F22551E84800F057FAE64800F036
:103C100037FBC4B2A4F161001A286BD2DFE800F0D0
:103C20009BB6F11AF0296A6AD16A6A6A6A6AF2393D
:103C30006BEE310D6AED6AEC6AEBDC48007808B98E
:103C4000012000E00020D9490870D9A1D64800F031
:103C5000F5FFA6E1DA48007808B9012000E000206D
:103C6000D749087008460278D6A1CF4800F0E6FF91
:103C700097E10120D7490870D7A1CB4800F0DEFFBB
:103C80008FE10020D3490870D7A1C74800F0D6FFC4
:103C900087E1D849086801F0D5FD0746D64AD74BD9
:103CA00001F058F8054601F023F8D2490860D449DC
:103CB000086801F0C7FD0746CF4AD04B01F0D8FC99
:103CC000054601F015F8CE490860CA49086801F0B8
:103CD000B9FD05460E46CA49086801F0B3FD07461E
:103CE0003A460B46C7A1B048CDE9005600F0A6FF02
:103CF00057E157E154E1BF49086801F0A3FD0746C9
:103D0000BD4ABE4B01F0B4FC054600F0F1FFB949D5
:103D10000860BB49086801F095FD0746B64AB74BF5
:103D200001F018F8054600F0E3FFB5490860B14915
:103D3000086801F087FD05460E46B149086801F0A4
:103D400081FD07463A460B46AEA19748CDE900569D
:103D500000F074FF25E1B248006801F073FD0546EC
:103D60004FF03332AF4B00F0F5FF074600F0C0FFD5
:103D7000AB4908600846006801F064FD05462A4624
:103D80000B46A9A1884800F059FF0AE1A448006841
:103D900001F058FD05464FF03332A24B01F068FCAC
:103DA000074600F0A5FF9E4908600846006801F03C
:103DB00049FD05462A460B469BA17B4800F03EFF85
:103DC000EFE09D48006801F03DFD054600229B4B59
:103DD00000F0C0FF074600F08BFF974908600846D7
:103DE000006801F02FFD05462A460B4694A16E4857
:103DF00000F024FFD5E053E079E0B8E036E001E0E0
:103E00001AE09BE08C48006801F01CFD054600228A
:103E10008A4B01F02DFC074600F06AFF86490860D6
:103E20000846006801F00EFD05462A460B4684A1AF
:103E30005D4800F003FFB4E08648006801F002FD31
:103E4000054600227D4B00F085FF074600F050FF3D
:103E5000804908600846006801F0F4FC05462A46DF
:103E60000B467DA1504800F0E9FE9AE079480068D1
:103E700001F0E8FC05460022704B01F0F9FB074613
:103E800000F036FF734908600846006801F0DAFC6C
:103E900005462A460B4670A1434800F0CFFE80E05D
:103EA0007249886801F0CEFC0746714A714B00F0F8
:103EB00051FF054600F01CFF6C4988606E49886818
:103EC00001F0C0FC07466A4A6A4B00F043FF054612
:103ED00000F00EFF68498860886801F0B3FC054671
:103EE0002A460B4665A1304800F0A8FE59E05F491C
:103EF000886801F0A7FC07465D4A5E4B01F0B8FBFD
:103F0000054600F0F5FE594988605B49886801F074
:103F100099FC0746564A574B01F0AAFB054600F0AC
:103F2000E7FE55498860886801F08CFC05462A4602
:103F30000B4652A11C4800F081FE32E0544908684B
:103F400001F080FC0746534A534B00F003FF05463F
:103F500000F0CEFE4E490860086801F073FC05468B
:103F60002A460B464DA1104800F068FE19E048496A
:103F7000086801F067FC0746464A474B01F078FBAA
:103F8000054600F0B5FE42490860086801F05AFC99
:103F900005462A460B4641A1034800F04FFE00E0CB
:103FA00000BF00BFBDE8FC81004C0040B101002013
:103FB00053454E44206368616E6765210D0A000019
:103FC000B001002044656275673D202025640D0A1C
:103FD00000000000D8000020737461727420666CC9
:103FE00079210D0A0000000073746F7020666C79EF
:103FF000210D0A00200100207B14AE47E17A843FA6
:104000003801002070697463685F503D2566202088
:104010002020726F6C6C5F503D2566200D0A0000F9
:10402000DC0000203333D33F626173655F647574D5
:10403000793D25660D0A0000BC0000200000E03F2D
:1040400070697463685F7461726765743D25660D9D
:104050000A000000C0000020726F6C6C5F74617217
:104060006765743D25660D0A0000000050010020C0
:10407000FCA9F1D24D62503F68010020616E676C6F
:10408000655F73706565645F6B693D25660D0A0049
:10409000800100209A9999999999B93F7961775F40
:1040A0004B503D25660D0A0001F40072B2F5007F09
:1040B00000D100BFCA430280704710B50022002320
:1040C00040F66A14A14200D100BF0A1201249440B4
:1040D000A3B2DC43048010BD21B1828942F40052B6
:1040E000828104E082894DF6FF731A408281704715
:1040F00002460020B1F5007F00D100BF13880B40BD
:104100000BB1012000E00020704770B5024600248A
:1041100000230025002040F66A16B14200D100BFFE
:10412000C1F3421501F01F03012606FA03F3012D26
:1041300002D19689334006E0022D02D1168A33401F
:1041400001E0968A33400C12012606FA04F4168820
:10415000344013B10CB1012000E0002070BDF0B577
:104160000346002400260025002040F66A17B942C5
:1041700000D100BF1846C1F3421401F01F06012709
:1041800007FA06F5012C01D10C3004E0022C01D114
:10419000103000E014301AB107682F43076002E0C6
:1041A0000768AF430760F0BD2DE9F04786B00546CC
:1041B0000E460024A24600BFA1460027B08900B1E8
:1041C00000BF2F462C8A4CF6FF700440F088044351
:1041D0002C82AC894EF6F3100440B0883189084334
:1041E000718908430443AC81AC8A4FF6FF40044018
:1041F000B0890443AC8201A8FEF71EFF1F48874226
:1042000002D1DDF810A001E0DDF80CA0A88900F4CF
:10421000004040B10AEBCA0000EB0A1031684900C7
:10422000B0FBF1F807E00AEBCA0000EB0A103168B6
:104230008900B0FBF1F86420B8FBF0F0040120091C
:10424000642101FB1089A88900F4004040B13220AC
:1042500000EBC900B0FBF1F000F00700044308E0F8
:10426000322000EB09106421B0FBF1F000F00F00E8
:1042700004432C8106B0BDE8F087000000380140FF
:1042800001468888C0F308007047C1F308028280A5
:10429000704700BFFEE7000030B587B004460D460A
:1042A00002950020ADF80C00ADF80E00ADF810003E
:1042B000ADF814000C20ADF812004FF4E060FEF7EA
:1042C000E5FD00208DF8060001208DF8070030483C
:1042D000844225D101210420FEF79EFE012188039E
:1042E000FEF79AFE18208DF81B0003208DF81A00A7
:1042F0006015ADF8180006A92648FDF7EFFC20155B
:10430000ADF8180048208DF81B0006A92148FDF7DC
:10431000E5FC25208DF8040001A8FEF77FFD27E0CD
:104320001D48844224D101211020FEF775FE012191
:10433000C804FEF751FE18208DF81B0003208DF8ED
:104340001A002015ADF8180006A91448FDF7C6FCA0
:10435000E014ADF8180048208DF81B0006A90F489E
:10436000FDF7BCFC34208DF8040001A8FEF756FDD3
:1043700002A92046FFF718FF01212046FFF7ACFEF7
:10438000012240F225512046FFF7E9FE07B030BD7B
:104390000038014000080140004C0040001001407E
:1043A000490050EAC12018BF04204A0D18BF40F050
:1043B000010040F2FF72B2EB515F08BF40F0020013
:1043C000012808BF052070472DE9F0414F1E00EB82
:1043D000C7010446D1E9000115461E4637F0060222
:1043E0000DD02A46334600F01DFF7F1E04EBC703A5
:1043F000D3E9002300F0AEFC37F00602F1D1022F22
:1044000025D0042F13D0062F18BFBDE8F0812A460F
:10441000334600F007FFD4E90A2300F09BFC2A464C
:10442000334600F0FFFED4E9082300F093FC2A464F
:10443000334600F0F7FED4E9062300F08BFC2A4651
:10444000334600F0EFFED4E9042300F083FC2A4653
:10445000334600F0E7FED4E9022300F07BFC2A4655
:10446000334600F0DFFED4E90023BDE8F04100F060
:1044700071BC012201F071BD00F06CBC002213463A
:104480001046114600F022BD024A0020110701F03B
:1044900064BD000001FDFFFF30380A2801D2012071
:1044A00070470020704700002DE9F04D8D4F21F03E
:1044B000004A86B005460C46BA452ADBAAEB07003F
:1044C00028430AD08848824501DC1AD1CDB106B014
:1044D0002846BDE8F04DFFF7CCBF844A844B284600
:1044E00000F0A0FE07460E46824A834B284621462E
:1044F00000F098FE06B03A463346BDE8F04D00F0B5
:1045000029BC0120FBF71AFF06B0BDE8F04DFFF70C
:10451000B5BF7A48824542DABAF1795F0BDA2846AC
:10452000FFF73EFF042808BFFFF7AEFF284606B09E
:104530002146BDE8F08D2A460B46104600F072FE7B
:10454000834602466E480E460B4606217844FFF726
:104550003BFF5A46334600F065FE804669488A466E
:104560005A46334604217844FFF72EFF5A46334615
:1045700000F058FE00223B4600F0ECFB02460B46E2
:104580004046514600F0A2FC2A46234600F04AFE6F
:1045900006B02A462346BDE8F04D00F0DBBB2846B6
:1045A00024F0004100223D463B4600F06FFF4FF0F3
:1045B000FF3201F0D2FC0646024653480F460B4636
:1045C00006217844FFF700FF32463B4600F02AFE02
:1045D000CDE900014D4832463B4604217844FFF7BF
:1045E000F3FE32463B4600F01DFE00222B4600F053
:1045F000B1FB834602913046394600F0F9FA804615
:1046000043480D46504517DCDDE900015A46029B40
:1046100000F05CFC42462B4600F004FE42462B466E
:1046200000F098FB012201F098FC304A304B01F079
:104630001FF8304A304B4CE04FF0000A52460B4610
:10464000404600F087FBCDE9031052462B4610464A
:10465000194600F0E7FD32463B4600F017FFDDE962
:10466000033200F033FC06460F46DDE900015A46EE
:10467000029B00F02BFC8346009101223046394614
:1046800001F06BFC194A1A4B00F000FF06460F467A
:1046900001224046294601F060FC5A46009B00F08A
:1046A000C1FD32463B4600F0E3FF06460F460122BD
:1046B0005046294601F051FC0E4DDFF858802A463D
:1046C000434600F0E3FE32463B4600F0DFFE2A465A
:1046D000434600F0DBFE002CD8BF81F0004106B05D
:1046E000BDE8F08D0000F03F0000F07F075C143360
:1046F00026A6913C182D4454FB21F93F0000E03FD1
:10470000981A0000AE1A0000221A0000381A0000A1
:104710003333EF3FFB21E93F2DE9F84F04460D46C7
:1047200021F0004000917349814211DC72498842B6
:1047300001DC06D12CB120462946BDE8F84FFFF731
:1047400098BE6E48002DCCBF6D496E49BDE8F88F0C
:104750006D49814211DD6D498142D8BF4FF0FF366E
:104760006DDD20462946FFF71BFE042808BFFFF732
:104770008BFE20462946BDE8F88F6549654F25F038
:104780000045814233DD6449814219DD002632460D
:104790004FF080432046294600F0DCFA80468A46E6
:1047A00001222046294601F0D8FB00223B4600F0BA
:1047B0005FFF4246534600F089FB04460D463EE04B
:1047C00001260022BA463B462046294600F0C2FA9E
:1047D00080460F46002253462046294600F048FFF7
:1047E00042463B4600F072FB04460D4627E04B492B
:1047F00081421BDDDFF828A1022600225346204615
:10480000294600F00FFD00223B4600F0A3FA804647
:104810000F46002253462046294600F029FF424613
:104820003B4600F053FB04460D4608E003262246B3
:104830002B4600203B4900F049FB04460D4622462A
:104840002B461046194600F0EDFC8B468246024688
:104850000B4600F0E7FC07460246334888460B4605
:1048600006217844FFF7B0FD52465B4600F0DAFCC3
:1048700082462E488B463A46434605217844FFF748
:10488000A3FD3A46434600F0CDFC02460B46002EFF
:10489000504659460CDA00F05DFA22462B4600F0ED
:1048A000C1FC01B022462B46BDE8F04F00F0EEBD42
:1048B00000F050FA22462B4600F0B4FC1C4A7A4421
:1048C00002EBC603D3E9002300F0D2FE22462B46BA
:1048D00000F0CEFE174A7A4402EBC603D3E9002368
:1048E00000F0D4FD009A002AB8BF81F00041BDE875
:1048F000F88F0000000010440000F07F182D445491
:10490000FB21F93FFB21F9BF0000DC3F0000203E06
:104910000000F33F0000F03F0000E63F008003404E
:104920000000F83F0000F0BF8218000040180000AF
:10493000DE170000A61700002DE9F04D9446CCF1DB
:10494000000423F000464CEA0404524F46EAD474B3
:104950009A46884621F00042BC4206D8454240EAC9
:10496000050442EAD474BC4204D9BDE8F04D624665
:10497000FFF782BDAAF14055A5F17F6555EA0C0409
:104980000BD0022404EAAA74434DDFF810E144EA94
:10499000D87452EA000B04D00CE0BDE8F04DFFF7EC
:1049A000BBBE002C14BF012CBDE8F08D022C30D012
:1049B000032C32D056EA0C0B0AD0BE4220D1BA42A8
:1049C00009D126F0804622F080423346114617E096
:1049D00000291ADB25E0DFF8C8B0FB44002C04BF37
:1049E000DBE90001BDE8F08D012C02BFDBE900012D
:1049F00081F00041BDE8F08D022C0AD0032C0CD0D0
:104A0000BA4212D1B8F1000F0BDA23482549BDE8AC
:104A1000F08D28462449BDE8F08D28467146BDE852
:104A2000F08D1D482149BDE8F08D921B12153C2ADE
:104A3000C4BF19481D490EDCBAF1000FBEBF12F108
:104A40003C0F0020014606DB624600F03FFA21F0F1
:104A50000041FFF761FE002C08BFBDE8F08D012C7E
:104A600004BF81F00041BDE8F08D114A114B022CCA
:104A700007D000F0FDFD2A46BDE8F04D0A4B00F0DE
:104A8000F7BD00F0F5FD2A46BDE8F04D064B00F0FD
:104A9000FDBC00000000F07F182D4454FB2109C02C
:104AA0003A170000FB21F9BFFB210940FB21F93F28
:104AB000075C143326A6A13C4FF0E021096921F0E0
:104AC00004014FF0E02211610146C21700EB52725F
:104AD000D210014B1A607047B800002001460D4A01
:104AE00012684A434FF0E0235A6100229A61012282
:104AF0001A6100BF4FF0E022106900F001021AB104
:104B000000F48032002AF5D000224FF0E0231A6131
:104B10009A617047B8000020FEF79EFB4FF4E13128
:104B20001B48FFF7B9FB1BA1194800F087F8482084
:104B3000FFF7C2FFFEF744F91A48FEF7CDFDFEF776
:104B4000DBFCFEF7E3FAFCF7A5FE17A1104800F026
:104B500075F81BE018480078C0B11848006800F0EC
:104B6000CDFF04461648006800F0C8FF054615480A
:104B7000006800F0C3FF06461348006800F0BEFF5F
:104B8000074623462A46314600F020F8E2E70000B7
:104B9000004C004048656C6C6F2C776F726C642120
:104BA0000D0A000000100040696E20206974206F1B
:104BB0006B210D0A00000000B1010020EC00002074
:104BC000E8000020E4000020E00000202DE9F04192
:104BD00007460C4615461E4604480760446085603B
:104BE000C660FEF75DF9BDE8F0810000BC01002061
:104BF0002DE9F04106460F4600F054FC041E0D4618
:104C000018BF0120284320F00040C0F17F6000F170
:104C1000E040C00F0ED0301C18BF0120384320F0F8
:104C20000040C0F17F6000F1E040C00F04BF0120F0
:104C3000FBF784FB20462946BDE8F0810FB430B570
:104C40009BB00546002420A80090652101A8009B88
:104C50001F9AFBF751FB80212846FFF725FA0EE04B
:104C600000BF80212846FFF743FA0028F9D02046EC
:104C7000621CD4B201AA115C2846FFF706FB642C23
:104C800003DA01A8005D0028EAD1002000901BB0E3
:104C900030BC5DF814FB000010B500290AD008787C
:104CA000002807D005487844FCF7F2F9002801D025
:104CB000002010BD0248784410BD00002E150000F1
:104CC0002615000010B500290AD00878002807D062
:104CD00005487844FCF7DCF9002801D0002010BD1D
:104CE0000248784410BD00001E1500001615000093
:104CF00021F00042A2F16052B2F5801F01F00043A2
:104D000028BFD2F17F6C0BD95FEA001C43EAC202D4
:104D100042EB507018BF704728BF20F00100704769
:104D2000B2F5801FBCBF184670474FEA410C1CF516
:104D3000001F02D2084601F030B870B500F01CFB2D
:104D400000000089FFF7F6BF4FF00040A0F580009B
:104D50007047000010B591EA030F48BF83F000438D
:104D600000F18E84841A71EB030C05D2121943EB07
:104D70000C03001B61EB0C01DFF824E14FEA115436
:104D8000A4EB135C1EEA430F18BF9EEA445F73D086
:104D900023EA0E03DCF1200E21EA045143F48013D0
:104DA00032D322FA0CFE10EB0E0023FA0CFE41EB7C
:104DB0000E01CCF1200E03FA0EFE10EB0E0051F1A5
:104DC0000001B1F5801FCCF1200E32D201EB04516D
:104DD00012FA0EF2BDE8104058BF7047401C38BFB1
:104DE0005FEA420218BF7047002814BF20F001009C
:104DF00041F100014FEA410313F5001F38BF70472E
:104E0000A1F1C04100F006BB012A43EB0302ACF163
:104E1000200CDCF11F0E32BF4FF0000E23FA0CF312
:104E200010EB030041EB0451B4EB115FD0D0A1EBC8
:104E3000045101F5801149085FEA300001EB04518B
:104E40000ED350F1000038BF12FA0EFE08D1BDE8B3
:104E50001040C9E7401C38BF5FEA4202CAD1C3E72D
:104E6000BDE810404FEA410313F5001F38BF7047FB
:104E7000A1F1C04100F0CEBA9EEA445F08D011EA29
:104E80005E0FBDE8104004BF01F0004100207047F4
:104E9000BDE8104070B500F06FFA00BF64FBBE3E85
:104EA0000000E0FF02494FF0000001F024B800BF0D
:104EB0000000F87F491058BFC1F140415B1058BF56
:104EC000C3F140438B42EFF3008070472DE9C041AE
:104ED00030B4DFF8A0C23CEA111418BF3CEA131446
:104EE00000F0EC8081EA03051CEA111444EAD57451
:104EF00018BF1CEA131500F0C780A4EB05044FF09F
:104F0000004545EAC12145EAC32341EA505143EA3D
:104F1000525304F17F74994204F500344FEAC020E3
:104F20004FEAC22208BF904200F09C804FEA13650E
:104F30000FF24016765D4FEA134506FB05F7C7F101
:104F4000807706FB07F74FEAD737A7FB036876425F
:104F5000C8F58038A7FB06CE38BFA8F1010807FBCB
:104F600008E64FF0000EA6FB028CE6FB03CEDCF158
:104F7000000CCEF1004E38BFAEF1010EA6FB0C586E
:104F80004FF000074FF00005E6FB0E87A1FB08C6B7
:104F9000A0FB07CE16EB0E0645F10005E1FB076509
:104FA00015F1E04E7EBFA4F580345FEA46066D4100
:104FB00016F1800745F100054FEA17274FEA06660C
:104FC00047EA0567A6F1DE46B6F1805F4FEA152590
:104FD0001FD9384624F0010C05EBC471BCF1FE6FFB
:104FE00001EB0C1102D8F0BCBDE8008124425CBF8B
:104FF00001F5801E9EEAC47F02D4F0BCBDE80081AA
:10500000244238D4F0BCA1F1C041BDE8004100F019
:1050100001BA4FEAD22242EA43524FEAD323A7FB16
:1050200002864FEAD02040EA415007FB03661EEAA1
:105030000E0F4FEAD12105FB026658BFA6EB0056C2
:10504000B6EB00564FEA520E4EEAC37E18EB0E0E38
:1050500056EB530EBDD518EB02085E417F1C55F18F
:105060000005B6E74FF480154FF000074FF000063B
:105070004FF00008ADE7F0BC4FF0000001F1C04177
:1050800001F00041BDE8008111EA0C1F0CEA131584
:1050900000D00CE013EA0C1F00F025804FF0000058
:1050A000F0BC81EA030101F00041BDE80081F0BCE1
:1050B000BDE8004181EA030100F0ACB9F0BCBDE8F5
:1050C000004170B500F058F9097EFC3E00F007B8C9
:1050D00081EA03014FF0000001F00041704781EACE
:1050E000030100F097B9F0BCBDE800414FF00000AB
:1050F00021497047FFFDFBF9F7F5F4F2F0EEEDEB17
:10510000E9E8E6E4E3E1E0DEDDDBDAD8D7D5D4D3C5
:10511000D1D0CFCDCCCBCAC8C7C6C5C4C2C1C0BF11
:10512000BEBDBCBBBAB9B8B7B6B5B4B3B2B1B0AF17
:10513000AEADACABAAA9A8A8A7A6A5A4A3A3A2A1FB
:10514000A09F9F9E9D9C9C9B9A99999897979695B6
:1051500095949393929191908F8F8E8E8D8C8C8B52
:105160008B8A8989888887878685858484838382DA
:10517000828181800000FF070000F87F10F000426C
:1051800048BF4042B0FA80F310FA03F10AD0C3F1ED
:105190001D0303F580634FEA415002EB035202EB1B
:1051A000D12170474FF000007047000051EA030C16
:1051B00017D41CF5801F58BFBCF5801F00F1068076
:1051C000994218BF704708BF9042704707D711F542
:1051D000801F58BF13F5801F19D499427047894228
:1051E00070471CF5801F08D5BCF5801FF7D58B4292
:1051F00018BF704708BF824270474FF4001C1CEB79
:10520000410F38BF1CEB430F01D28B42704770B582
:1052100000F0B2F8922449004FF000514FF0805353
:10522000FFF748BEDFF848C170B51CEA111E1EBF6B
:105230001CEA13159EEA0C0F95EA0C0F00F06F8024
:1052400081EA030423EA4C134EEAD47E21EA4C118E
:1052500041F4801143F48013AE44A1FB024CA0FB47
:105260000365AEF17F7E361955EB0C05A1FB034CAF
:105270004CF10003A0FB021C16EB0C06654153F138
:105280000003094218BF46F0010613F4007F0BD15A
:105290004FEA03314FEA0530340341EA155140EA41
:1052A00016506FF003020AE04FEAC3214FEAC5200F
:1052B000F40241EA555140EA56506FF0020202EB07
:1052C0002E4201EB025585EACE710AD05FEA440C0A
:1052D00018BF24F0004450F1000041F1000120EA21
:1052E000D47040F2FE7C624500D270BDA84214BF6B
:1052F0004FF080444FF04044002E08BF0024BEF120
:10530000806FA8BFA1F1C041BDE8704080F28280EB
:105310004FF0000001F1C04101F0004170479EEAEA
:105320000C0F0CEA131518BF95EA0C0F06D04FF0BE
:10533000000081EA030E0EF0004170BD00F01CF881
:105340008900013E00F007B800F009B84FEA430CAD
:105350005FEA5C5C08D081EA030100F05BB84FEAC9
:10536000410C5FEA5C5CF6D14FF0000001497047E8
:105370000000FF070000F87F0EF1020E2EF0030E72
:105380005EF8046B364205D4012A43EB030515F59C
:10539000001F12D8012841EB010C1CF5001F0CD88E
:1053A0000ED14FEAD17C15F5001F0CEB4C0C0CF123
:1053B000020C08BF4CEBD37C04E04FF0080C01E07A
:1053C0004FEAD37C0CEB4C0526FA05F606F00706EF
:1053D000B6F1040C06D20EEB860CBDE870404CF022
:1053E000010C6047DFE80CF0090B02024FF00041AE
:1053F0004FF00000A1F5002170BD194610460128AC
:1054000051EB010418BFD4F5001484BF002001F053
:10541000004170BD0808A0F500114FEA3101704746
:1054200053EA010C17D41CF5801F58BFBCF5801F30
:1054300000F106808B4218BF704708BF8242704758
:1054400007D713F5801F58BF11F5801F19D48B4261
:1054500070479B4270471CF5801F08D5BCF5801F24
:10546000F7D5994218BF704708BF904270474FF474
:10547000001C1CEB430F38BF1CEB410F01D29942BB
:1054800070470FB40CBC03BCFFF7C1BE91EA030F19
:1054900010B581F000413FF565AC83F0004300F0AA
:1054A000EFB800002DE9F04101F5801CBCF5001FAC
:1054B000C0F2C3804FEA115C21EA0C510CF1FD0CE3
:1054C00041F480115FEA5C0C0CF5C07C01D3400014
:1054D00049413DA4890241EA905187028E0E0A0C8F
:1054E000A45D04FB04F602FB06F6C6F14046A4FBED
:1054F0000662F60D46EA422606FB06F4A4FB0123EB
:105500005242C3F1404338BF5B1EA6FB0242002457
:10551000E6FB0324D20B42EA4446A6FB0623A1FB8A
:1055200002E2A3FB07E4A4184FF0000252F10002CC
:10553000E3FB01426442C2F1404E38BFAEF1010EBE
:10554000A6FB04234FF00002E6FB0E32A2FB03464B
:105550004FF00004B61954F10004E2FB0264A1FB11
:1055600006E6A4FB07E816EB08064FF0000858F122
:105570000008E4FB01687642C8F1405838BFA8F142
:105580000108A2FB06E4A3FB08E52D194FF0000477
:1055900054F10004E2FB0854A1FB05E6A7FB04E874
:1055A00018EB06084FF0000656F10006E1FB0486F2
:1055B00018F1200556F10006A809A8F11B08B10949
:1055C00008F03F08B8F10A0F40EA86601CD901EBE9
:1055D0000C51BDE8F08100BFFCF5EEE8E2DDD8D368
:1055E000CFCBC7C3C0BDB9B6B4B1AEACA9A7A5A354
:1055F000A19F9D9B9A9896959392908F8D8C8B8965
:105600008887868584838281A0FB006800FB01F285
:1056100008EB4208B8EB872807D5341858EB01048B
:10562000D5D5401C51F10001D1E7341A78EB0104C3
:10563000CDD4401E71F10001C9E75FEA4C0C5FEA6E
:105640009C5C0DD105D34FF0000001F00041BDE896
:10565000F081BDE8F04170B5FFF78EFE6DDBFFBE57
:10566000BDE8F0414FF00000004970470000F87FAE
:1056700010B591EA030F48BF83F000433FF572ABCA
:10568000841A71EB030C07D212198CF0004C43EB17
:105690000C03001B61EB0C01DFF8A4E14FEA11548D
:1056A000A4EB135C1EEA430F18BF9EEA445F00F0B0
:1056B000B08023EA6E03524221EA0451C3EB6E0329
:1056C00038BF5B1EDCF1200E25D322FA0CFE10EB56
:1056D0000E0043FA0CFE41EB0E01CCF1200E03FA52
:1056E0000EFE10EB0E0051F10001CCF1200E29D47A
:1056F00012FA0EF201EB0451BDE8104058BF70479A
:10570000401C1CBFB2F1004F704700280CBF491C61
:1057100020F00100704712EB020E43EB030218BFAA
:105720004FF0010E4EEA4202ACF1200CDCF11E0EED
:1057300054D943FA0CFE10EB0E0051F1FF31CCF1BD
:105740001E0ED5D50EF1010E12FA0EFE404141EBB0
:10575000010101EB445C5FEA5C5C10D910EBDE7088
:1057600001EB045138BFBEF1004FBDE8104018BF37
:10577000704700280CBF491C20F00100704730D250
:105780004FEAD42C11F5001124F400641BD0B1FAB7
:1057900081F20B3AA41AA41ED2F12003914030FAF0
:1057A00003F31943904001EBCC71002C01EB045141
:1057B000BDE81040A8BF704701F1C0414FF00000A4
:1057C00001F000417047B0FA80F310FA03F100D104
:1057D00010BDE41A173C4805C90AE4E701EB04517F
:1057E00010BD491001EB0451BDE810404FEA3000F4
:1057F00002E04FF0000170474A0008BF0042F8D0B5
:10580000B2F5001F28BF704701F000414FF00000C3
:1058100070479EEA445F07D011EA5E0FBDE8104072
:1058200004BF002100207047BDE8104070B5FFF7AD
:10583000A3FD00BF40DFF63E83F0004110467047F5
:105840000000E0FF43004FEAD30C4FEA3C0C43401A
:105850001FBF40070CF1605113F0FE4F70471CF062
:10586000006F03D100200CF0004170470CF00043A2
:1058700043EA507010B540EACC0000F048FA00BF8F
:10588000000000924FEA0001FFF7C4BD4FF0004155
:105890004FF00000A1F500217047000090EA010FD1
:1058A00048BF81F0004100F1B682421A3CBF801A25
:1058B00089184FEAD0524FF07F4C1CEA410FA2EBFF
:1058C000D15318BF9CEA026F00F03B804FF0004CB0
:1058D0004CEA00204CEA012121FA03FC10EB0C0CED
:1058E0001ED202F1FF325FEA1C2040EBC25038BFEB
:1058F00070471CF07F0F4FEA400C18BFBCF17F4F80
:1059000038BF7047C3F12003994008BF20F0010061
:10591000BCF17F4F38BF7047A0F1C04000F03DBAE6
:105920004FEA3C00000A40EBC25028BF1CF0FF0FBA
:105930004FEA400CE6D018BFBCF17F4F38BF70472C
:10594000EAE79CEA026F05D010EA5C0F08BF00F09E
:105950000040704710B500F0DAF900BF64FBBE3EAE
:10596000401058BFC0F14040491058BFC1F14041FC
:105970008142EFF3008070474FF47F0C1CEAD01295
:105980001EBF1CEAD11392EA0C0F93EA0C0F00F031
:10599000858090EA010F48BF42F4807240F4000C09
:1059A00041F400002CF07F4120F07F4000B581429F
:1059B000A2EB03020FF2081CACEB504EC0F100004A
:1059C0009EF800E04FEA4E0E00FB0EFC38BF490087
:1059D0004FEA2C1C02F5FA020CFB0EF34FEACE1E26
:1059E0004FEA112C4FEAC1210EEB635E42EB2242DB
:1059F0000EFB0CFC4FEA1C5300FB03114FEA112C69
:105A00004FEA01310EFB0CFC4FEADC4C00FB0C11A1
:105A1000C14228BF09184CEB03335DF804EB10EBCF
:105A2000410143EBC250B2F57C0F38BF704729D516
:105A300012F0F00F1CBF00F1C04000F000407047B2
:105A4000008182838485868788898B8C8D8E8F9157
:105A50009293959697999A9C9D9FA0A2A3A5A7A87B
:105A6000AAACAEB0B2B3B5B7B9BCBEC0C2C5C7C9A7
:105A7000CCCED1D4D7D9DCDFE2E6E9ECF0F3F7FA0B
:105A8000FE0000004FEA400C0CF1807CBCF17E4F20
:105A900028BF7047B0F1C04000F07FB990EA010F15
:105AA0000CEAD11348BF42F48072624538BF6345A7
:105AB00007D213F47F0F16D080EA010000F00040F7
:105AC000704710B500F023F9097EFC3E00F005B8E0
:105AD00080EA010000F00040704780EA010000F019
