:020000040800F2
:1000000038130020B9020008A13200084523000877
:100010009D320008791A00087351000800000000A2
:100020000000000000000000000000009D360008F5
:10003000B71A0008000000000935000895380008CC
:10004000D3020008D3020008D3020008D30200083C
:10005000D3020008D3020008D3020008D30200082C
:10006000D3020008D3020008D3020008D30200081C
:10007000D3020008D3020008D3020008D30200080C
:10008000D3020008D3020008D3020008D3020008FC
:10009000D3020008D3020008D3020008D3020008EC
:1000A000D3020008D3020008D3020008D3020008DC
:1000B000D3020008C13B0008D3020008D3020008A5
:1000C000D3020008D3020008D3020008D3020008BC
:1000D000D3020008D3020008D3020008D3020008AC
:1000E000D3020008D3020008D3020008D30200089C
:1000F000D3020008D3020008D3020008D30200088C
:10010000D3020008D3020008D3020008D30200087B
:1001100055430008D3020008693D0008D3020008D7
:10012000D3020008D3020008D3020008D30200085B
:1001300000F002F800F0B0F80AA090E8000C824449
:100140008344AAF10107DA4501D100F0A5F8AFF226
:10015000090EBAE80F0013F0010F18BFFB1A43F0A5
:100160000103184700700000207000000A444FF09F
:10017000000C10F8013B13F0070408BF10F8014B06
:100180001D1108BF10F8015B641E05D010F8016B4B
:10019000641E01F8016BF9D113F0080F1EBF10F8AF
:1001A000014BAD1C0C1B09D16D1E58BF01F801CBD2
:1001B000FAD505E014F8016B01F8016B6D1EF9D555
:1001C0009142D6D37047000000230024002500266A
:1001D000103A28BF78C1FBD8520728BF30C148BFAA
:1001E0000B6070476E2900F04D81702900F09782F6
:1001F000662906F05486652906F05186672906F0BF
:100200004E866129AFF3008003681B0A28BF41F0C6
:100210008001692900F0FA80642900F0F7807529CF
:1002200000F0F4806F2900F02582782900F06382C5
:10023000E92900F0BF81E42900F0BC81F52900F034
:10024000B981EF2900F02282F82900F06282036868
:10025000DB0928BF41F08001632900F0E88573299C
:1002600000F0ED85E32900F0F885F32900F0FD8525
:10027000002070471FB500F04FFE04000020002151
:1002800005F0FAFC401C60600020002105F0DEFC57
:10029000E0601FBD10B510BD00F010FE1146FFF765
:1002A000E9FF05F001FC00F0E9FE03B4FFF7F2FFFF
:1002B00003BC00F02DFF00000948804709480047B3
:1002C000FEE7FEE7FEE7FEE7FEE7FEE7FEE7FEE706
:1002D000FEE7FEE704480549054A064B7047000063
:1002E0009938000831010008380300203813002035
:1002F000380B0020380B00207CB51D4616460C003C
:10030000009001D02044401E074B7B442A4669469A
:100310000190304600F0CFF805461CB10020694638
:1003200000F0DCF828467CBDD9010000704770471A
:10033000704710B500F0C2FA006810BD10B5044651
:1003400000F0BCFA046010BD70B504468569006811
:10035000C10601D5302600E02026C00707D070BDB9
:10036000D4E9012130469047206A401C20626D1E6E
:10037000F6D570BD70B5044685690078C00707D111
:1003800070BDD4E9012120209047206A401C2062E2
:100390006D1EF6D570BD09684A0501D540B270479B
:1003A000C905FCD500B2704709684A0501D5C0B23D
:1003B0007047C905FCD580B2704770B50C4605463C
:1003C000012A05D02878800600D5EA69002302E0DA
:1003D000012305E05B1C934202D2E05C0028F9D1C6
:1003E000A869E618C01AA861286A18442862284635
:1003F000FFF7AAFF04E0D5E9012114F8010B9047AB
:10040000B442F8D32846FFF7B5FF70BD2DE9F0419F
:100410000646002410687529314616A510D0FFF74E
:10042000BAFF002802DA404213A507E031688A07C4
:1004300001D512A502E0490704D511A5012401E068
:10044000FFF7B2FF00210A2206F1240709E0B0FB02
:10045000F2FCB0FBF2F302FB1C003030785418467B
:10046000491C0028F3D123462A463046BDE8F04116
:1004700000F06DBA000000002D0000002B0000000D
:100480002000000011680268006A530501D5087059
:100490000AE0D30501D5088006E0130603D5C2178C
:1004A000C1E9000200E008600120704701694A1CB0
:1004B00002610878704700B58FB0CDE901310021A5
:1004C000059105497944CDE903101146684600F0CD
:1004D00031F90FB000BD0000E5FFFFFF0A6802F828
:1004E000010B0A607047D1E900239A4202D2531CE3
:1004F0000B601070704700002DE9FF5F15468A46BB
:100500000446DFF8AC80F8440027D8E900103E46E6
:10051000CDE9001010E03AF816106A4602A800F083
:10052000A8FC411C07D02178890603D5E269391857
:1005300091420DD80744761C2078800602D5E069E8
:10054000B84205DDAE42E6DB3AF816000028E2D1FB
:10055000A069C01BA0612046FFF7F6FED8E9001095
:10056000CDE90010002017E03AF818106A4602A8FA
:1005700000F07FFCB0F1FF3F81460BD000250DF16C
:10058000080B05E0D4E901211BF8050090476D1C1C
:100590004D45F7D308F10100B0428046E4DB206A04
:1005A000384420622046FFF7E5FEBDE8FF9F0000CB
:1005B000DE6A00002DE9F0418046D21D22F00702DC
:1005C0000025D2E90002F52915A614D0011E72F10A
:1005D000000106DA0023D0EB030063EB020211A650
:1005E00008E0D8F800108B0701D50FA602E04907F4
:1005F00001D50EA601251146002408F1240704E0C8
:1006000000F060F930323A55641C50EA0102F7D12B
:100610002B46324621464046BDE8F04100F097B9EE
:10062000000000002D0000002B0000002000000052
:1006300030B4002100F1240408E002F00705D208DC
:10064000303542EA4372DB086554491C52EA03051F
:10065000F3D10468002310A2250708D504F0200474
:100660000C4304D0C46901230CA2641EC46130BCD5
:1006700000F06DB910B5044621461068FFF794FEEE
:1006800002462046BDE810400023D1E7D21D22F0EB
:100690000701D1E90023CBE7000000003000000093
:1006A000F0B40D460188090502D5214C7C4402E0D6
:1006B0001F4C7C440E34002100F1240608E002F0B7
:1006C0000F071209E75D42EA03721B097754491CC0
:1006D00052EA0307F3D102780023120704D5702DE4
:1006E00006D009B1022311342246F0BC00F02FB924
:1006F00001231034F8E770B504460D462146106812
:10070000FFF752FE024629462046BDE8704000230E
:10071000C6E7D21D22F00703D3E90023C0E7036830
:10072000126843F0200303600823C3610023B7E786
:10073000406900002DE9F05F894604464FF0000A49
:10074000DFF874B1FB44C0F820A02046E168884778
:10075000002874D0252806D0D4E901219047206ACA
:10076000401C2062F1E700265F462046E16888478A
:100770002028054607DB312D05D2781910F8200C0A
:1007800008B10643F1E7B00701D526F00406C4F826
:100790001CA00027C4F818A02A2D09D0284604F070
:1007A00043FE38B304EB8708303DC8F8185019E011
:1007B00059F8041B204604EB87029161E1688847E1
:1007C000012F054618D1E069002820DA26F020061E
:1007D0001DE0D8F8180000EB800005EB4000303831
:1007E000C8F818002046E1688847054604F01CFE5A
:1007F0000028EED1012F0AD02E2D08D12046E16825
:1008000088477F1C0546022F46F02006C4DBA069FE
:10081000002803DA404246F00106A061F00701D04B
:1008200026F010066C2D0BD0682D09D04C2D39D038
:100830006A2D35D0742D35D07A2D33D016E038E0BE
:10084000E1682F4620468847B842054609D16C2FFB
:1008500026D04FF48060E16806432046884705466D
:1008600004E06C2F1AD04FF4807006430DB3A5F14D
:100870004100192802D8203546F400664A46294628
:10088000204626604E46FFF7ADFC80B101280BD014
:10089000F61D26F0070000F1080956E74020E4E7BE
:1008A0008020D8E70020D6E706F104094DE7284666
:1008B00052E7206ABDE8F09FD0680000004870470A
:1008C000D802002030B5B0F10A024FEA900E71F163
:1008D00000034EEA817EB0EB0E0061EB91014FEA1E
:1008E000101E4EEA017E10EB0E0041EB11114FEA93
:1008F000102E4EEA016E10EB0E0041EB11214FEA73
:10090000104E4EEA014E10EB0E0041EB1141401823
:1009100041F100014FEAD00040EA41704FEAD101B5
:1009200010EB80054FEA810444EA907444EB010423
:100930006D1944EB0404521BA3414FF0000348BF60
:100940000A3200D530BD401C41F1000130BD2DE917
:10095000F0470D4699469246044600F12408016886
:10096000880604D5E06921F01001216000E0012033
:10097000A84201DD471B00E00027A1697A1902EBBC
:100980000900081AA0612078C00602D42046FFF7AB
:10099000DBFC002608E0D4E901211AF806009047A4
:1009A000206A401C761C20624E45F4DB2078C0068D
:1009B0000AD52046FFF7C8FC06E0D4E90121302023
:1009C0009047206A401C2062381EA7F10107F4DC22
:1009D00007E0D4E9012118F805009047206A401C7F
:1009E0002062281EA5F10105F3DC2046FFF7C2FCBA
:1009F0002078000602D50220BDE8F0870120FBE741
:100A000070472DE9FF4F0C461E464FF0FF378BB065
:100A1000D2E90001DDF860800A908A46C1F30A55E8
:100A200005B93D46002108464FF00000BAF1000F1D
:100A300000F4400005DA00EB80004FF4400101EAC9
:100A400050004FEA9059B9F1010F00DDB9460A98FC
:100A500050EA4A000ED044F61050A5F2FF35454347
:100A60002F14B8F1000F1ED07542291E1EDDC9F1EA
:100A700000021CE0B8F1010F4FF0000001D030215E
:100A800003E0F24305E02154401CB042FBDB30465A
:100A90000022002121540B99C1F80880C1E90020EF
:100AA0000FB0BDE8F08FBD1B6D1CDEE74A4600DAD3
:100AB000694206A800F074FA06AB93E8070003AB9E
:100AC00083E8070050460A9900F029FB8DE80700EB
:100AD000A0F500501F3800900398002D09DD42F268
:100AE0001F014A46084403A90390684600F088FDA8
:100AF00008E0A0F500504A461F3803A90390684655
:100B000000F092FD8DE807000004000C03D04FF0C8
:100B1000FF30410800E01046B8F1000F03D000227A
:100B2000009215461EE0751E05D4FFF7CBFE30324D
:100B300062556D1EF9D5B3460122084302D000224A
:100B40007F1C04E02078302801D100227F1E002A7B
:100B5000099786D01DE0112D07DAFFF7B3FE30327A
:100B600062556D1C50EA0102F5D1084302D000988D
:100B7000C8B10EE00021681E05E0235C625C63548E
:100B80002254401E491C8142F7DBAB46A81B401E85
:100B90000990002004F80B000B98099AC0F808800F
:100BA000C0E9002B7CE711264FF0000859E72DE93A
:100BB000F04F88460446D21D22F0070191B0D1E9DA
:100BC0000001CDE90A0104F0ABFB02460B98C00F0F
:100BD00001D02D2007E02068810701D52B2002E0FD
:100BE000202101EAC000032A099001D0072A05DB71
:100BF00003464146204600F093F90BE12078800639
:100C000001D5E06900E00620B8F1650F814606D005
:100C1000B8F1660F18D0B8F1670F70D131E000203D
:100C2000B9F1110F009001DB112301E009F101037B
:100C30000AAA01A90CA8FFF7E4FEDDE90C70002662
:100C400009F10105834647E001204B4600904FF033
:100C500000470AAA01A90CA8FFF7D3FEDDE90DB0F1
:100C60000C995D46002610B909F101000D18B9EB89
:100C7000050003D4C0F1FF3609F10105A5EB090019
:100C80002BE0B9F1010F01DA4FF001090020B9F1B1
:100C9000110F0090484601DD112300E003460AAA27
:100CA00001A90CA8FFF7ADFEDDE90C704D4600264A
:100CB0008346207800070AD4AB4500DA5D4601A8D8
:100CC000012D04DD411911F8011C302907D04F45D1
:100CD00002DA17F1040F04DA012082460FE06D1EDC
:100CE000EEE7002F02DCED1B3E4403E0781CA84237
:100CF00000DD7D1CB81B00F1010A4FF00047207891
:100D0000000703D4AA4501DB4FF0FF3A0021B7F1F9
:100D1000004F0DF143088DF8431024D002202B23FF
:100D2000002F01DA7F422D230A21021EA0F10100CB
:100D300000DC5FB197FBF1FC97FBF1F201FB1C7C3F
:100D400017460CF1300C08F801CDEEE7A8F10100D0
:100D500003702188090501D5452100E06521A0F136
:100D6000010800F8011C09980FA9A1EB0807FF1D55
:100D700000B10120411901EBEA70A1693844081A59
:100D8000401EA0612078C00602D42046FFF7DCFA9E
:100D9000099828B1D4E901219047206A401C2062BB
:100DA0002078C00622D52046FFF7CEFA1EE0002E9E
:100DB00004DBB34502DD01A8805D00E03020D4E90A
:100DC00001219047206A401C2062761CAAF1010094
:100DD0005FEA000A0AD100F09FF8C0680168405C31
:100DE000D4E901219047206A401C2062281EA5F109
:100DF0000105DCDC07E0D4E9012118F8010B90477C
:100E0000206A401C2062381EA7F10107F3DC20464F
:100E1000FFF7B0FA032011B043E610B5436913B1F0
:100E2000AFF3008001E0FFF7C8FA012010BD12788F
:100E300000F124010A7000224A700122EDE71168D6
:100E40004FF0FF32E9E710B5436913B1AFF300800B
:100E500001E0FFF751FB012010BD128800F12401D1
:100E600082840022C2840122EDE711684FF0FF3234
:100E7000E9E770B516460C46054600F045F80368EC
:100E800093F80101012806D0FF2C0FD8185D68B136
:100E900001202C7070BDD3F807013246214603F2C1
:100EA000071303442846BDE8704018474FF0FF3051
:100EB00070BD000000487047D80200207546FFF75B
:100EC000F9FFAE4605006946534620F00700854607
:100ED00018B020B5FFF7FEF9BDE820404FF000063E
:100EE0004FF000074FF000084FF0000B21F0070112
:100EF000AC46ACE8C009ACE8C009ACE8C009ACE855
:100F0000C0098D467047000010B500F005F8001DBF
:100F100010BD00BF654D000000487047F80200207A
:100F20002DE9F0411F46044603260168072A01F413
:100F3000006004DB08B116A505E016A503E008B1C2
:100F400015A500E015A521F010002060A069C01EC5
:100F5000A0610FB1401EA0612046FFF7F5F94FB127
:100F6000D4E9012138469047206A401C2062C01C09
:100F7000206206E0206AFAE7D4E9012115F8010BA6
:100F80009047761EF8D22046FFF7F4F9BDE8F081CD
:100F90004E414E006E616E00494E4600696E66001D
:100FA0002DE9F047814616468AB0334878440DC88B
:100FB0008DE80D0030487844801C03AC0DC884E8EF
:100FC0000D0041F69B300844372190FBF1F290FB75
:100FD000F1F5A5F1800501FB12041B3C02D564422A
:100FE000012000E00020DFF890A080460027FA44AE
:100FF000AAF1BE0A0DE0E00709D03246684607EBC9
:1010000047010AEB810100F00FFB8DE80700641037
:101010007F1C002CEFD1184F7F44AC3F18E0E8074D
:1010200014D007EB04100DF1180A90E80E008AE8BE
:101030000E00C068F04201D198190890324606A906
:1010400003A800F0F1FA03AB83E807006D10641CFD
:10105000002DE4D132466946B8F1000F03A802D052
:1010600000F0CEFA01E000F0DFFAC9E90001C9F8AA
:1010700008200AB0BDE8F0879C61000010B5044666
:10108000AFF300802046BDE81040FFF70EB9000026
:101090004FF0013C50F8042B51F8043B9A4221D107
:1010A000A2EB0C03934313EACC1317D150F8042B93
:1010B00051F8043B9A4215D1A2EB0C03934313EA77
:1010C000CC130BD150F8042B51F8043B9A4209D1B0
:1010D000A2EB0C03934313EACC13DBD04FF00000D8
:1010E000704700BFD01A01BAB1FA81F101F01801BE
:1010F00022FA01F0CB40C1F12001DBB2C0B2C01A2C
:101100002CFA01F3D11A914311EAC311E6D17047C9
:1011100001491820ABBEFEE72600020070475FEAD7
:10112000400C08BF91F0000F4FEA8C234FEAC12218
:1011300043EA51514FEA1C5018BF00F5F0404FEA06
:10114000300018BF41F000415FEA6C5C00F029807C
:10115000BCF1FF3F08BF40F080407047130C06BF52
:1011600012044FF0100C4FF0000C130E04BF1202CB
:101170000CF1080C130F04BF12010CF1040C930FB7
:1011800004BF92000CF1020CD30F04BF52000CF10B
:10119000010C11464FF00002A0F11F00A0EB0C0063
:1011A000704711F0004F08BF704731F000413FF425
:1011B000D5AF0B0C06BF09044FF0100C4FF0000C1C
:1011C0000B0E04BF09020CF1080C0B0F04BF090140
:1011D0000CF1040C8B0F04BF89000CF1020CCB0F37
:1011E00004BF49000CF1010CCCF12003A0EB0C0072
:1011F00022FA03F302FA0CF241EA030100F10100C2
:10120000704720F07F4C80EA030023F07F47ACEB6F
:10121000070303F57C5300F0004003F1FF032DE9C1
:1012200080494FEA154B09B44FEA144325EA0B4EA7
:1012300024EA03480FF2042606EB132749083E78F8
:101240005FEA320203FB0667C7F5000707FB06F6F5
:101250004FEA54374FEAD64606F1020607FB066C02
:10126000CCF1005C4FEA1C472CEA074C07FB06F464
:101270000CFB06F504EB15464FEA961634BF00202A
:101280004FF000404FEAD13706FB07FC4FEA1C4CF9
:101290000CFB0BF7D21B03FB0CF761EB07010CFBFC
:1012A0000EF7B0EB074072EB17420CFB08F734BFA8
:1012B000A2EB0742B2EB074261EB17414FEA0C4445
:1012C0004FEA910706FB07FC4FEA1C4C0CFB0BF79F
:1012D000B0EBC74072EB573203FB0CF734BFA2EB05
:1012E000C742B2EBC74261EB57310CFB0EF7B0EBD4
:1012F000C70072EB57720CFB08F734BFA2EBC702B2
:10130000B2EBC70261EB5771039F4FEA816141EA7B
:10131000921104EBCC044FEAD1374FEA826206FB0C
:1013200007FC42EA90124FEA80604FEA1C4C0CFB2B
:101330000BF7D21B03FB0CF761EB07010CFB0EF75D
:10134000B0EB074072EB17420CFB08F734BFA2EB7F
:101350000742B2EB074261EB17414FEA8C554FEA67
:10136000910704EB9C2406FB07FC4FEA1C4C0CFB8A
:101370000BF7B0EBC74072EB573203FB0CF734BFEF
:10138000A2EBC742B2EBC74261EB57310CFB0EF741
:10139000B0EBC70072EB57720CFB08F734BFA2EB3F
:1013A000C702B2EBC70261EB577115EB4C254FEA50
:1013B000816141EA92114FEA82624FEAD13742EAF3
:1013C000901206FB07FC44F100044FEA80604FEAEC
:1013D0001C4C0CFB0BF7D21B03FB0CF761EB07015A
:1013E0000CFB0EF7B0EB074072EB17420CFB08F753
:1013F00034BFA2EB0742B2EB074261EB174115EB9A
:101400001C154FEA813141EA92414FEA823242EAA9
:1014100090424FEA80304FEA0C7644F1000448EAEB
:1014200003434EEA0B484FF0000EB2EB080C71EB91
:10143000030724BF624639464EEB0E0E4FF0000BF9
:101440000018524149414BEB0B0BB2EB080C71EB0E
:1014500003077BF1000B24BF624639464EEB0E0EAC
:101460004FF0000B0018524149414BEB0B0BB2EB14
:10147000080C71EB03077BF1000B24BF6246394671
:101480004EEB0E0E51EA020718BF46F0010616EBAE
:101490000E7655F1000254F1000103D5BDE8890133
:1014A000BDE80088BDE88901BDE80048B619524191
:1014B00041EB0101A3F10103704780807F7E7D7CB9
:1014C0007B7A7978777676757473727171706F6ED6
:1014D0006E6D6C6C6B6A6A69686867666665646481
:1014E000636362616160605F5F5E5E5D5D5C5C5B0B
:1014F0005B5A5A595958585757565655555554547A
:10150000535352525251515050504F4F4F4E4E4DD7
:101510004D4D4C4C4C4B4B4B4A4A4A494949484823
:101520004847474747464646454545444444444363
:1015300043434342424242414141002B26D477007B
:1015400021D01CB54FEA370703B44FF010004FF01D
:1015500010014FF000000FBCBDE810400BF1010B73
:10156000BBF1010F08BF5FEA170722BF12F10102AA
:1015700011F101014FF0004143F1000300F0004080
:1015800043EA00007047F9D35708DAE746EA06460F
:1015900013F1400F4FEA16461FDD13F1200FDFBF96
:1015A00016430A46002120335B42C8D0C3F120070E
:1015B00046EA064602FA07F74FEA164646EA0706E3
:1015C000C3F1200722FA03F201FA07F721FA03F127
:1015D0004FF0000342EA0702B1E746EA020646EA94
:1015E00006464FEA164646EA0106BCBF46EA0646EC
:1015F000360C4FF000034FF000024FF000019EE761
:101600002DE9C048934630B491E8380007C831EA64
:10161000400C48BF34EA430C03D5FFF7F2FDFFF757
:101620008CFFF0BCBDE800882DE9C048934630B47B
:1016300091E8380007C810F0804F08BF13F0804FC2
:1016400003D100F005F8FFF778FFF0BCBDE8008893
:1016500020F07F4780EA030023F07F4C07EB0C0368
:10166000A3F57C5300F00040A3F1FE0392F0000FBD
:1016700000F0B38095F0000F00F077802DE901496C
:101680004FEA11404FEA144621EA004800FB06FCED
:1016900024EA064708FB06F607FB08F800FB07F7F5
:1016A00018EB06484CEB164C4FEA124B18EB074868
:1016B0004FEA15464CEB174022EA0B4E0BFB06FC9B
:1016C00025EA06470EFB06F607FB0EFE0BFB07F7A7
:1016D0001EEB064E4CEB164C4FF000061EEB074E71
:1016E0004CEB174B18EB0B0840F1000018EB0E0BFE
:1016F00058EB000840F100008F1A4FF000013CBF8A
:10170000C943661B14BFB5EB040C00213CBFC943A1
:10171000F61B4FEA17444EEA8E0E27EA04454FEABD
:101720001C4704FB07622CEA074C05FB07F70CFB80
:1017300005F604FB0CFC16EB074642EB174216EBD2
:101740000C4642EB1C421BEB060658EB02024141E1
:1017500046EA9E0601D5BDE80189B619524141EB22
:101760000101A3F10103BDE801894FEA14454FEAE5
:10177000114724EA054621EA074C05FB07F406FB5E
:1017800007F70CFB06F105FB0CFC11EB074144EBE2
:1017900017444FEA124711EB0C4144EB1C4422EA78
:1017A000074C05FB07F206FB07F70CFB06F605FBEB
:1017B0000CFC16EB074642EB174216EB0C4642EBCD
:1017C0001C456A1854F1000148BF7047B6195241D0
:1017D00041EB0101A3F10103704795F0000F37D0F1
:1017E0004FEA11424FEA144721EA024624EA074C25
:1017F00002FB07F106FB07F70CFB06F402FB0CFCEF
:1018000014EB074441EB17414FEA154714EB0C4426
:1018100041EB1C4125EA074C02FB07F506FB07F7E5
:101820000CFB06F602FB0CFC16EB074645EB1745D6
:1018300016EB0C4645EB1C42121951F1000148BF52
:101840007047B619524141EB0101A3F10103704702
:101850004FEA14454FEA114724EA054621EA074CAE
:1018600005FB07F106FB07F70CFB06F24FF000063D
:1018700005FB0CFC12EB074241EB174112EB0C424B
:1018800051EB1C4148BF7047921841EB0101A3F195
:10189000010370472DE9F0410025002600270022B2
:1018A0000121264802F096FB002427E000F09CFC72
:1018B000234801682348006804F0B2FF80462946A7
:1018C00004F0AEFF0546204801682048006804F097
:1018D000A7FF8046314604F0A3FF06461C48016876
:1018E0001C48006804F09CFF8046394604F098FFCD
:1018F00007464FF4FA6004F0B9F8641C642CD5DB99
:101900001549284604F0FAFF0D490860124930468F
:1019100004F0F4FF0C4908600F49384604F0EEFF6C
:101920000B4908600DA11D4804F062F9012211461F
:10193000024802F04FFBBDE8F081000000100040BB
:1019400044000020640000204800002068000020BF
:101950004C0000206C0000200000C84261646A75E1
:101960007374206779726F20737563636573736630
:10197000756C2120646F6E277420666F72676574C2
:1019800020746F20777269746520746F20746865A5
:10199000207072616D73210D0A000000004C004040
:1019A00000B589B0012140F6040001F0CFFD4FF4ED
:1019B0007060ADF8040018208DF8070003208DF842
:1019C000060001A92A4800F0FBFA2320ADF8180010
:1019D0000020ADF81A0041F28730ADF81C0000205D
:1019E000ADF81E008DF8200006A9224802F060FC28
:1019F0006020ADF808000120ADF80A000420ADF821
:101A00000C000020ADF80E00ADF810000820ADF875
:101A100012004001ADF814000020ADF8160002A934
:101A2000144802F0E1FA02A9124802F033FB02A9BD
:101A3000104802F081FB02A90E4802F0CDFB012103
:101A40000C4802F042FA01210A4802F04AFA41F237
:101A5000883004F00BF81420064934310880091D41
:101A60000880091D0880091D088009B000BD00001C
:101A700000080140002C014000BFFEE730B50246DF
:101A80000B464FF6FF70002112E0555C68400024C1
:101A90000AE000F0010525B14AF2010585EA60007F
:101AA00000E04010651CECB2082CF2DB4D1CE9B2E2
:101AB0009942EADB30BD70470149C86070470000B9
:101AC0000020024030B5044604254FF4302000F0D9
:101AD00085F80546042D17D10C48006940F0020036
:101AE0000A49086108464461006940F04000086105
:101AF0004FF4302000F072F805460448006941F6C2
:101B0000FD71084001490861284630BD00200240AF
:101B100004200B49C96801F0010109B101200EE060
:101B20000749C96801F0040109B1022007E004492E
:101B3000C96801F0100109B1032000E004207047DA
:101B4000002002400348006940F08000014908611C
:101B5000704700000020024078B506460C46042578
:101B600000200090E80200F039F80546042D24D149
:101B70001348006940F00100114908613480E8020F
:101B800000F02CF80546042D10D1B01C0090200C5C
:101B900000990880E80200F021F80546084800692D
:101BA00041F6FE7108400649086106E004480069F4
:101BB00041F6FE71084002490861284678BD0000E0
:101BC00000200240024803494860034848607047CB
:101BD0002301674500200240AB89EFCD00B50246E6
:101BE0000423FFF795FF034603E0FFF791FF034649
:101BF000521E012B01D1002AF7D102B90523184644
:101C000000BD00002DE9F041A0480078032802D073
:101C10009F48007850B1E6209E490880091D088041
:101C2000091D0880091D0880BDE8F08100F088F9D1
:101C30009648007888B395480078012837D19648AF
:101C4000026896480168964801F0D2FB9549086001
:101C500095499448006805F07BF803D29248914971
:101C6000086008E091498F48006804F071FF02D2D3
:101C70008E488C4908608E4802688A4801688D4801
:101C800001F0B6FB8C4908608C498B48006805F070
:101C90005FF803D289488849086008E08849864887
:101CA000006804F055FF02D28548834908608549E1
:101CB00003C903F0F7FF04462246834801688348BE
:101CC00001F096FB8249086082498148006805F06E
:101CD0003FF803D27F487E49086008E07E497C488F
:101CE000006804F035FF02D27B48794908607B48E0
:101CF0000268774801687A4801F07AFB7949086000
:101D0000794903C903F0CEFF0446224677480168AB
:101D1000774801F06DFB774908606E4975480068A7
:101D200005F016F803D26B487249086008E06A496A
:101D30007048006804F00CFF02D267486D490860E3
:101D40006D4802686B4801686C4801F051FB6C49B2
:101D500008606C48002102686B4801F049FB6B4940
:101D600008606048006880F00047654801683846B0
:101D700004F056FD064665480168304604F050FD03
:101D8000054663480168284604F04AFD04464A486F
:101D90000168204604F044FD5E490860514800682F
:101DA00080F0004756480168384605F003F80646BB
:101DB00056480168304604F0FDFF05465448016866
:101DC000284604F02DFD04463B480168204604F0F7
:101DD00027FD514908604A4801684248006804F0FC
:101DE000E9FF064649480168304604F019FD0546FA
:101DF00047480168284604F013FD04462E48016850
:101E0000204604F00DFD454908603D48016835480D
:101E1000006804F005FD06463C480168304604F0C1
:101E2000C9FF05463A480168284604F0F9FC044613
:101E300021480168204604F0F3FC39490860354820
:101E4000006804F01DFE04462146012001F09CFCC0
:101E50003148006804F014FE04462146022001F0D7
:101E600093FC2E48006804F00BFE04462146032034
:101E700001F08AFC2A48006804F002FE044621466C
:101E8000042001F081FC00BFCEE600004C020020DF
:101E900070020020342C014074020020F400002065
:101EA000140200200801002000002042000020C28F
:101EB0007802002030020020140100200000F041D0
:101EC0000000F0C1D0000020EC0000206C010020D8
:101ED0001001002000002041000020C1640000200B
:101EE000DC010020F8000020C8000020E8000020ED
:101EF000880100200C01002068000020C0010020A3
:101F0000FC0000206C000020F801002000010020EF
:101F10002001002024010020280100202C010020A5
:101F2000300100200020034908700348034908607D
:101F3000704700004C0200200000E041200100201A
:101F40002DE9F04111480078022801D0BDE8F08168
:101F50000F491048006804F0FBFE0ED20D480068DF
:101F600004F032FC06460C4A0C4B04F043FB0446DA
:101F700003F098FE0749086005E005480549086038
:101F800007480849086000BFE0E700004C02002055
:101F900000005041F40000209A9999999999C93FFD
:101FA0000000A04120010020032001490870704773
:101FB0004C02002001200149087070474C020020AB
:101FC0002DE9F041024600250026002000230024D0
:101FD000002791F803C00CF00F0591F803C00CF036
:101FE000100CBCF1000F03D091F802C04CEA0505BB
:101FF00091F800C0BCF1000F31D0146800202BE034
:102000004FF0010C0CFA00F3B1F800C00CEA030623
:102010009E4220D183004FF00F0C0CFA03F7BC4313
:1020200005FA03FC4CEA040491F803C0BCF1280F44
:1020300006D14FF0010C0CFA00FCC2F814C00AE003
:1020400091F803C0BCF1480F05D14FF0010C0CFA18
:1020500000FCC2F810C0401C0828D1D31460B1F8AD
:1020600000C0BCF1FF0F34DD546800202EE000F109
:10207000080C4FF0010808FA0CF3B1F800C00CEAA4
:1020800003069E4221D183004FF00F0C0CFA03F798
:10209000BC4305FA03FC4CEA040491F803C0BCF10C
:1020A000280F05D100F1080C08FA0CF8C2F81480CA
:1020B00091F803C0BCF1480F07D100F1080C4FF0B4
:1020C000010808FA0CF8C2F81080401C0828CED38A
:1020D0005460BDE8F08141617047016170470000C4
:1020E0002DE9F05F01233B22D021354800F028FA8A
:1020F0003449088001233D22D021314800F020FAE4
:102100003149088001233F22D0212D4800F018FAE0
:102110002E4908802B48B0F9000004F0EDFC8346FE
:102120004FF0804104F048FD824604F04DFB8046AC
:10213000274A284B04F038F806460022264B03F0C5
:102140009FFE044603F0AEFD244908601E48B0F926
:10215000000004F0D1FC83464FF0804104F02CFDD8
:10216000824604F031FB8046194A1A4B04F01CF8F1
:1021700006460022184B03F083FE044603F092FD4E
:10218000174908601148B0F9000004F0B5FC834617
:102190004FF0804104F010FD824604F015FB064626
:1021A0000B4A0C4B04F000F8044600220A4B03F0E3
:1021B00067FE804603F076FD0A490860BDE8F09F9F
:1021C0000054004056000020580000205A00002013
:1021D0009A999999999923400000E0407000002055
:1021E00074000020780000202DE9FF5F01234322C6
:1021F000D021464800F0A4F9454908800123452232
:10220000D021424800F09CF942490880012347222E
:10221000D0213E4800F094F93F4908803F480068CB
:1022200004F0D2FA06460F463948B0F9000004F02F
:1022300063FC83463A4904F0BFFC824604F0C4FACA
:102240000022384BCDE9000103F01AFE364A374B25
:10225000CDE9020103F014FE804632463B4604F00D
:10226000C9F9044603F01EFD314908603148006891
:1022700004F0AAFA804689462648B0F9000004F026
:102280003BFC2749009004F097FC019004F09CFA75
:1022900082460022234B03F0F3FD234A234BCDE972
:1022A000020103F0EDFD064642464B4604F0A2F95A
:1022B000044603F0F7FC204908602048006804F059
:1022C00083FA04460D461448B0F9000004F014FCEB
:1022D0001349009004F070FC019004F075FA00229C
:1022E000104BCDE9020103F0CBFD80460E4A0F4BA7
:1022F00003F0C6FD064622462B4604F07BF98246D3
:1023000003F0D0FC0E490860BDE8FF9F0054004078
:102310005000002052000020540000204400002003
:102320000000FA430000E040295C8FC2F5A84C4051
:102330006400002048000020680000204C000020BD
:102340006C00002000BFFEE721B1028842F48062E9
:10235000028004E002884FF6FF331A400280704783
:102360002DE9F0410746884614461E46069D00BFEB
:102370004FF40031384600F057F90028F8D1012118
:10238000384600F039F900BF2C49384600F09AF879
:102390000028F9D000224146384600F01DFA00BF5F
:1023A0002749384600F08EF80028F9D00121384638
:1023B00000F09DF83146384600F017FA00BF20497A
:1023C000891C384600F07EF80028F8D001213846F4
:1023D00000F012F900BF1949384600F073F80028E0
:1023E000F9D001224146384600F0F6F900BF134902
:1023F000491C384600F066F80028F8D016E0012D98
:1024000007D100213846FFF79FFF0121384600F031
:10241000FFF80A493F31384600F054F830B13846E9
:1024200000F0D6F92070641C681E85B2002DE6D13C
:1024300001213846FFF788FFBDE8F0810100030065
:10244000820007002DE9F04106460F4614461D465E
:102450000121304600F0D0F800BF1849304600F0A6
:1024600031F80028F9D000223946304600F0B4F99E
:1024700000BF1349304600F025F80028F9D029465E
:10248000304600F0B2F900BF0D49891C304600F01B
:1024900019F80028F8D02146304600F0A6F900BF10
:1024A0000749891C304600F00DF80028F8D00121BA
:1024B000304600F0ADF8BDE8F081000001000300F7
:1024C0008200070070B5024600240025002300208A
:1024D000958A138B1B0445EA030626F07F4404EA21
:1024E00001068E4201D1012000E0002070BD21B123
:1024F000028842F00102028004E002884FF6FE7377
:102500001A4002807047000010B504460B48844210
:1025100009D10121480501F009F800214FF400100C
:1025200001F004F808E00121880500F0FFFF002118
:102530004FF4800000F0FAFF10BD0000005400408E
:102540002DE9FC4106460F4614461D46022023464F
:1025500001AA394600903046FFF702FF012D08D14D
:102560009DF805009DF8041000EB012000B2BDE8C5
:10257000FC819DF804009DF8051040EA012000B29E
:10258000F5E7000070B506461948864202D1C4142A
:10259000051501E0802440250DE029461548FFF788
:1025A0009CFD0A2003F062FA29461248FFF793FDCA
:1025B0000A2003F05BFA0F480C3000682040002826
:1025C000EBD029460B48FFF788FD21460948FFF765
:1025D00082FD0A2003F04AFA21460648FFF77DFDF6
:1025E0000A2003F043FA0121304600F000F970BDE3
:1025F00000580040000C014021B1028842F4807272
:10260000028004E002884FF6FF631A4002807047A0
:1026100021B1028842F40072028004E002884FF681
:10262000FF531A40028070470CB502460020002379
:102630000193009300920B0F019321F07F41019BC6
:102640001BB1009B1433009303E0090C009B18336B
:102650000093009B1B680B400BB1012000E00020A1
:102660000CBD1AB183880B43838002E083888B43BF
:10267000838070472DE9F04385B004460D4600265F
:10268000B1460427DFF8CC80A6884FF6C07006401C
:10269000684600F06BFFDDF808802F48B8FBF0F0CB
:1026A0001FFA80F946EA0906A68020884FF6FE71D7
:1026B0000840208000262949286888420CD82868CC
:1026C0004000B8FBF0F087B2042F00DA04273E4345
:1026D00009F10100208427E0E8884BF6FF71884269
:1026E00006D1286800EB4000B8FBF0F087B209E0A3
:1026F000286800EBC00101EB0010B8FBF0F087B2D6
:1027000047F48047C7F30B0008B947F0010747F4C7
:10271000004006434FF4967009FB00F04FF47A71C5
:1027200090FBF1F0401C2084A683208840F001003B
:10273000208026884FF6F5300640A888698908432E
:1027400006432680A88929890843208105B0BDE871
:10275000F083000000127A0040420F00A0860100C2
:1027600038B504460A48844204D14FF44060ADF8BD
:10277000000002E0C020ADF8000003208DF8020048
:102780001C208DF8030069460248FFF719FC38BD8C
:1027900000580040000C014038B504460A48844205
:1027A00004D14FF44060ADF8000002E0C020ADF865
:1027B000000003208DF8020014208DF80300694604
:1027C0000248FFF7FDFB38BD00580040000C0140F7
:1027D0000146088AC0B2704712B141F0010102E01F
:1027E0004FF6FE731940018270470182704721B194
:1027F000028842F40042028003E00288C2F30E0223
:102800000280704710B586B004462D48844204D13A
:102810000121880500F07AFE03E00121480500F05F
:1028200075FE0121082000F091FE2548844204D164
:102830004FF44060ADF8140002E0C020ADF8140081
:1028400003208DF816001C208DF8170005A91D48DF
:10285000FFF7B6FB0020ADF808004BF6FF70ADF8AF
:102860000A000020ADF80C004FF48060ADF80E00B7
:102870000001ADF81000144801902046FFF744FE17
:1028800001A92046FFF7F6FE01212046FFF72FFEA3
:1028900001224FF4C0612046FFF7E3FE4FF4003100
:1028A0002046FFF7C1FE28B12046FFF775FF2046FE
:1028B000FFF768FE2046FFF753FF06B010BD00008B
:1028C00000580040000C0140A08601000FB5A3B0E5
:1028D000FE480168006804F06FF91D90FC4801682B
:1028E000FA48006804F068F91C90FA480168F74853
:1028F000006804F061F91B90F5480168006804F075
:102900005BF91A90F4480168F148006804F054F942
:102910001990F0480168006804F04EF91890EE48EC
:102920000168EC48006804F047F91790EA4801682C
:10293000006804F041F91690E6480168E448006830
:1029400004F03AF91590E4480168E048006804F0A2
:1029500033F914902599084604F02EF9089024992B
:10296000084604F029F906902399084604F024F952
:102970000590069903F054FF0790089903F050FF63
:10298000099003F021FFCDE90A0103F00BF9CDE92D
:102990000C0103F087F92190219803F015FFCF4A2D
:1029A000CF4BCDE90C0103F0C3FB01D227B000BD32
:1029B0002199239803F0A2FF23902199249803F0F2
:1029C0009DFF24902199259803F098FF25901B994D
:1029D000199804F0EFF94FF080410D9004F0ECF8F5
:1029E000209017991C9803F01BFF4FF080410D9029
:1029F00004F0E2F81F901A991D9804F0DBF90C908E
:102A0000189904F0D7F90D90169903F009FF1E905C
:102A10001F99259804F0D0F80D901E99249804F081
:102A2000CBF80C900D9904F0C5F913901E992398DA
:102A300004F0C2F80D902099259804F0BDF80C9090
:102A40000D9904F0B7F912902099249804F0B4F885
:102A50000D901F99239804F0AFF80C900D9904F095
:102A6000A9F911909F480168139804F0A5F8059002
:102A700003F0AAFE9C4A9D4BCDE9060103F094FBAE
:102A8000CDE90A01109803F09FFECDE90801DDE9C8
:102A90000A2303F039F9CDE90C0103F003F9109092
:102AA00090480168129804F087F8059003F08CFEB6
:102AB0008D4A8E4BCDE9060103F076FBCDE90A0184
:102AC0000F9803F081FECDE90801DDE90A2303F048
:102AD0001BF9CDE90C0103F0E5F80F90814801687E
:102AE000119804F069F8059003F06EFE7E4A7F4B62
:102AF000CDE9060103F058FBCDE90A010E9803F079
:102B000063FECDE90801DDE90A2303F0FDF8CDE914
:102B10000C0103F0C7F80E9075480168139804F093
:102B20004BF80C90109903F07BFE0D90269903F062
:102B300077FE26906E480168129804F03DF80C90DC
:102B40000F9903F06DFE0D90289903F069FE28900F
:102B500067480168119804F02FF80C900E9903F063
:102B60005FFE0D90299903F05BFE29905A48299940
:102B7000006804F021F8049056482899006804F091
:102B80001BF802905248006880F00040009026999F
:102B900004F012F80190029904F00CF903900499E2
:102BA00004F008F9059003F00FFE4F4A514BCDE9B0
:102BB000060103F0F9FACDE90A014448006803F080
:102BC00003FECDE90801DDE90A2303F09DF8CDE914
:102BD0000C0103F067F83D4908603F4828990068F8
:102BE00003F0EAFF04903B482999006803F0E4FFF2
:102BF000029036482699006803F0DEFF01900299A2
:102C000003F00EFE0390049904F0D4F8059003F04D
:102C1000DBFD354A374BCDE9060103F0C5FACDE9B6
:102C20000A012B48006803F0CFFDCDE90801DDE97A
:102C30000A2303F069F8CDE90C0103F033F82449C5
:102C4000086025482699006803F0B6FF04902048E4
:102C50002999006803F0B0FF02901C482899006889
:102C600003F0AAFF0190029904F0A4F803900499DC
:102C700003F0D6FD059003F0A7FD1B4A1D4BCDE9DF
:102C8000060103F091FACDE90A011248006803F049
:102C90009BFDCDE90801DDE90A2303F035F8CDE914
:102CA0000C0102F0FFFF0B4908600A4826990068F2
:102CB00003F082FF049006482899006803F07CFF27
:102CC000029002482999006816E00000AC0000203C
:102CD000B0000020B4000020B80000208DEDB5A0A9
:102CE000F7C6B03EC00000207B14AE47E17A743FC7
:102CF000BC000020E17A643F03F05EFF019002997E
:102D000003F08EFD0390049904F054F8059003F04D
:102D10005BFDA24AA24BCDE9060103F045FACDE9DD
:102D20000A01A048006803F04FFDCDE90801DDE984
:102D30000A2302F0E9FFCDE90C0102F0B3FF994943
:102D4000086008460168006803F036FF089096485E
:102D50000168006803F030FF06909448016800683D
:102D600003F02AFF049092480168006803F024FFF2
:102D70000390049903F054FD0590069903F050FD6B
:102D80000790089903F04CFD099003F01DFDCDE973
:102D90000A0102F007FFCDE90C0102F083FF219048
:102DA000219803F011FD834A834BCDE90C0103F018
:102DB000BFF900D2FAE57E482199006803F09EFD34
:102DC0007B49086079482199006803F097FD7749AD
:102DD000086075482199006803F090FD7249086009
:102DE00070482199006803F089FD6E4908607048B9
:102DF00001684FF0804003F0DFFE06906A480168EA
:102E0000069803F0D9FE0890684801684FF04040EA
:102E100003F0D2FE069063480168069803F0CCFEEA
:102E20000790089903F0FCFC099003F0CDFCCDE974
:102E30000A0102F001FB4FF06632604BCDE90C0154
:102E400003F0B2F95E4A03C2574801684FF0804070
:102E500003F0B2FE039054480168039803F0ACFEFF
:102E60000590524801684FF0404003F0A5FE0390E2
:102E70004E480168039803F09FFE0490059903F003
:102E800099FF4FF07E51069003F0CAFC079003F0C3
:102E90009BFCCDE90A01464801684FF0804003F0F1
:102EA0008BFE049041480168049803F085FE06906B
:102EB0003D4801684FF0804003F07EFE04903948A1
:102EC0000168049803F078FE0590069903F0A8FCC9
:102ED000079003F079FCCDE90801DDE90A2302F04F
:102EE000F3FC4FF06632354BCDE90C0103F05CF991
:102EF000344A03C24FF08040169903F05DFE0590FE
:102F00004FF04040189903F057FE0490059903F0E4
:102F100051FF4FF07E51069003F082FC079003F0C2
:102F200053FCCDE90A014FF08040149903F044FEB0
:102F300006904FF08040159903F03EFE05900699EB
:102F400003F06EFC079003F03FFCCDE90801DDE9DA
:102F50000A2302F0B9FC4FF06632184BCDE90C01A0
:102F600003F022F9184A03C200221346154903C987
:102F700003F018FA08D20022144B124903C903F0D7
:102F800039FB104A03C207E00022104B0D4903C968
:102F900002F0BAFE0B4A03C200BF07E57B14AE473E
:102FA000E17A643FB8000020B4000020B0000020A7
:102FB000AC0000208DEDB5A0F7C6B03E66A64C4033
:102FC000C8000020D0000020D8000020008066400B
:102FD0002DE9F04704460D462168206903F0ECFD19
:102FE00081462168606903F0E7FD8246216803F0AD
:102FF000E3FD8046A16803F013FC06463046E16815
:1030000003F00EFC80464146304603F077FC07464D
:103010004946284603F0CEFE8246394603F0CCFDF1
:103020008046494603F0FCFB206139464FF07E5054
:1030300003F0C0FE8046314603F0BEFD60612069AA
:10304000BDE8F08770B50546094C0A48007800B124
:10305000094C2146284603F07BFE01D2254605E0B7
:103060000021284603F074FD00D20025284670BDDB
:103070000000C842710200200000484270B50024E0
:1030800011E0544951F82400534941F8240051F803
:10309000240003F099FB05462A460B464FA15348EE
:1030A00002F0A6FD641C052CEBDB4B480068504980
:1030B0000860494840684F490860474880684E4961
:1030C00008604548C0684D490860434800694C495C
:1030D00008604C494648006803F03AFE0AD34A4962
:1030E0004348006803F034FD04D34148006802F00F
:1030F0002BF928B100203E4908600120434908709F
:1031000040493C48006803F023FE0AD33E49394851
:10311000006803F01DFD04D33648006802F014F97E
:1031200028B10020334908600120384908704FF069
:1031300080413748006803F00BFE0BD34FF040414D
:103140003348006803F004FD04D33148006802F0FE
:10315000FBF828B100202E49086001202B49087097
:103160004FF080412B48006803F0F2FD0BD34FF085
:1031700040412848006803F0EBFC04D32548006870
:1031800002F0E2F828B100202249086001201F491E
:1031900008704FF080412048006803F0D9FD0BD340
:1031A0004FF040411C48006803F0D2FC04D31A4899
:1031B000006802F0C9F828B1002017490860012012
:1031C000124908701148007818B114A1074802F09C
:1031D0000FFD70BD00900108C40200204C6F6164B7
:1031E000205072616D3A25660D0A0000004C0040C7
:1031F000E8000020EC0000204400002048000020EF
:103200004C0000200000A0400000A0C07002002080
:10321000380000203C000020400000206C6F6164FA
:10322000206F6666736574206572726F7221706CB0
:10323000656173652061646A757374206167616993
:103240006E210D0A0000000010B51248FFF7DAFAEF
:10325000114802F00BFC6B230022D0210D48FFF730
:10326000F1F819230022D0210A48FFF7EBF81A23BE
:103270000222D0210748FFF7E5F81B230822D021BE
:103280000448FFF7DFF81C230122D0210148FFF793
:10329000D9F810BD0054004020A1070000BFFEE790
:1032A0007047000070B5002100230F22C47804B3DA
:1032B000154C246804F4E064C4F5E064210AC1F10B
:1032C0000403CA40447804FA03F18478144021438B
:1032D00009010E4C0678A155047804F01F0501245D
:1032E000AC4005786D11AD0005F1E025C5F8004151
:1032F00009E0047804F01F050124AC40044D067871
:10330000761145F8264070BD0CED00E000E400E0C9
:1033100080E100E002490143024A11607047000069
:103320000000FA050CED00E030B58BB000200790EE
:10333000089009900A9003900490059006900090E0
:1033400001900290002500240DE0274850F8240049
:1033500007A941F8240007A850F8240003A941F860
:103360002400601CC4B2042CEFDB002410E003A88E
:1033700010F824000DF8140003A830F82400C0F35E
:103380000720012101EB44010DF80100601CC4B2CB
:10339000042CECDB08216846FEF770FB0546284646
:1033A000E91705EB11610912A5EB0121C9B28DF8EE
:1033B0000810E91705EB1161090A8DF809100024BE
:1033C0000DE000BF8021094801F002FE0028F9D07D
:1033D0001DF80410054801F0C8FE601CC4B20A2C98
:1033E000EFDB0BB030BD0000B4020020004C004009
:1033F0002DE9F04F87B004460D4616463146284663
:1034000003F0D8FC81464846216903F0D3FC82468C
:10341000504603F0D9F9364A364BCDE9040102F0A3
:10342000C3FE074602F03EFC8246A06903F0CCF9D9
:103430000746314A314B02F0B7FECDE90201504652
:1034400003F0C2F9CDE90001DDE9022302F05CFCE2
:10345000CDE9040102F026FC8246C4F810904846EB
:1034600003F0B2F90746264A264B02F09DFECDE94D
:103470000201E06803F0A8F9CDE90001DDE90223CB
:1034800002F042FCCDE9040102F00CFCE06061694D
:10349000E06803F05DFC02D26069E0600BE0606907
:1034A00080F000473846E16803F052FC03D26069BF
:1034B00080F00040E060C4F818A0D4E9021003F0E6
:1034C0007BFB05905046616803F076FB80464846DA
:1034D000216803F071FB4146049003F0A1F907460F
:1034E000059903F09DF98346584607B0BDE8F08F73
:1034F000FA7E6ABC7493D83FAE47E17A14AEE33FDC
:103500007B14AE47E17A743F7047000029B1064A48
:10351000D2690243044BDA6104E0034AD269824370
:10352000014BDA61704700000010024029B1064AE1
:1035300012690243044B1A6104E0034A1269824390
:10354000014B1A61704700000010024029B1064A81
:1035500092690243044B9A6104E0034A92698243F0
:10356000014B9A61704700000010024030B5002105
:103570000022002400232D4D6D6805F00C0121B1BF
:10358000042905D0082923D105E0294D056022E052
:10359000274D05601FE0254D6D6805F47012234D21
:1035A0006D6805F48034022505EB92421CB9214D6B
:1035B000554305600BE01D4D6D6805F400351DB1E8
:1035C0001C4D5543056002E0194D5543056002E06E
:1035D000174D056000BF00BF144D6D6805F0F00188
:1035E0000909154D6B5C0568DD4045600F4D6D6840
:1035F00005F4E061090A104D6B5C4568DD408560AB
:103600000A4D6D6805F46051C90A0B4D6B5C456845
:10361000DD40C560054D6D6805F44041890B074DDF
:103620006B5CC568B5FBF3F5056130BD0010024069
:1036300000127A0000093D00000000201000002068
:1036400008B501210420FFF781FF1020ADF800002C
:103650008DF8030003208DF8020069460648FEF746
:10366000AFFC4020ADF8000004208DF8030069464F
:103670000148FEF7A5FC08BD0008014010B5102167
:103680000548FEF72AFD462002F0F0F91021024815
:10369000FEF721FD10BD000000080140704710B585
:1036A00000F002F810BD00000CB500200190009061
:1036B0003348006840F480303149086000BF30482A
:1036C000006800F4003000900198401C01900098C0
:1036D00018B90198B0F5A06FF1D12948006800F43D
:1036E000003010B10120009001E00020009000980F
:1036F000012843D12348006840F0100021490860A8
:103700000846006820F0030008600846006840F0A2
:10371000020008601A484068194948600846406835
:1037200048600846406840F4806048600846406849
:1037300020F47C1048600846406840F4E810486077
:103740000846006840F08070086000BF0C480068C0
:1037500000F000700028F9D00948406820F003000C
:10376000074948600846406840F00200486000BFD2
:103770000348406800F00C000828F9D10CBD000097
:1037800000100240002002402DE9F04704460D469B
:10379000042C01DC012C01DABDE8F087012C06D0F5
:1037A000022C1CD0032C33D0042C63D149E02846D2
:1037B00003F0A2F98246FFF745FC81462F4903F04A
:1037C000FBF980462E4903F099F807462D4903F08E
:1037D00027F8064603F070F92B4908804AE028468E
:1037E00003F08AF98246FFF72DFC8146274903F052
:1037F000E3F98046224903F081F80746244903F0A3
:103800000FF8064603F058F91F49091D088031E0FA
:10381000284603F071F98246FFF714FC81461B49E4
:1038200003F0CAF98046164903F068F807461849BC
:1038300002F0F6FF064603F03FF91349083108800D
:1038400018E0284603F058F98246FFF7FBFB814653
:103850000A4903F0B1F98046094903F04FF80746D9
:10386000084902F0DDFF064603F026F906490C314F
:10387000088000BF00BF00BF8EE7000000005C436F
:103880000000C84200009643342C014000007A43F7
:10389000000087437047000010B51348006840F0EF
:1038A00001001149086008464068104908400E4967
:1038B0004860084600680E4908400B490860084601
:1038C000006820F4802008600846406820F4FE006C
:1038D00048604FF41F008860FFF7E1FE4FF0006082
:1038E0000449086010BD0000001002400000FFF80D
:1038F000FFFFF6FE08ED00E0F0B50C46154600228D
:103900000021068C4FF6FE773E400684028B018C28
:103910004FF60C7632407E1C06EA03162E433243E5
:10392000104EB0420ED0104EB0420BD0B0F1804FCE
:1039300008D00E4EB04205D00D4EB04202D00D4E12
:10394000B04206D14FF6FD76314044F001063143D6
:1039500005E04FF6F576314044F00106314302832D
:103960000184F0BD002C01400034014000040040FF
:1039700000080040000C0040F0B50C46154600223F
:1039800000210026078C4FF6EF7C07EA0C0707841E
:10399000028B018C4FF6FF7707EA041640F6FF47CB
:1039A0003A404FF6FF7707EA03373A434FF6FF777F
:1039B00007EA05273A43114FB8420ED0104FB842DC
:1039C0000BD0B0F1804F08D00E4FB84205D00E4F4B
:1039D000B84202D00D4FB84206D14FF6DF773940DA
:1039E00046F01007394305E04FF65F77394044F061
:1039F0001007394302830184F0BD0000002C014010
:103A0000003401400004004000080040000C004069
:103A1000F0B50C461546002200210026078C4FF613
:103A2000FF6C07EA0C070784828B018C4FF6FF7747
:103A300007EA04264FF60C773A404FF6FF7707EA7D
:103A400003172F433A43114FB8420ED0104FB842DC
:103A50000BD0B0F1804F08D00E4FB84205D00E4FBA
:103A6000B84202D00D4FB84206D14FF6FF57394049
:103A700046F48077394305E04FF2FF57394044F46C
:103A80008077394382830184F0BD0000002C01401F
:103A9000003401400004004000080040000C0040D9
:103AA000F0B50C461546002200210026078C4EF684
:103AB000FF7C07EA0C070784828B018C4FF6FF77A7
:103AC00007EA043640F6FF473A404FF6FF7707EA29
:103AD00005273A434FF6FF7707EA03373A43114F7A
:103AE000B8420ED0104FB8420BD0B0F1804F08D082
:103AF0000E4FB84205D00E4FB84202D00D4FB8421B
:103B000006D14DF6FF77394046F48057394305E03A
:103B100047F6FF57394044F4805739438283018484
:103B2000F0BD0000002C01400034014000040040C2
:103B300000080040000C004000B587B001210220C1
:103B4000FFF7E4FC4FF6FF70ADF808004720ADF832
:103B500004000020ADF80A00ADF8060001A91748DE
:103B600000F0A6FB0020ADF81000ADF81200012017
:103B7000ADF814000020ADF81600ADF8180004A947
:103B80000E4800F0D1F91D208DF8000003208DF8BB
:103B9000010000208DF8020001208DF80300684626
:103BA000FFF780FB01220321044800F013FA0121F2
:103BB000024800F08AF907B000BD00000004004090
:103BC0002DE9FC5F0121584800F09DF940B15748AC
:103BD0000068401C554908600121534800F072F903
:103BE0000221514800F08FF900287CD0504800781D
:103BF00070B900204D49086000214B4800F02AFBB5
:103C000001204B4908700221474800F039FA84E04E
:103C1000474800780128FAD1434800F071F9054679
:103C200002F082FF4349086040490968C1EB014046
:103C300002F062FF05463F480168284602F0F0FDA9
:103C40003C4908600846006802F0BEFD07460022B5
:103C5000394B02F0A9FA05460022384B02F0A4FACB
:103C600082460022364B02F00BF9CDE9000102F04A
:103C700019F8044621463348FFF7AAF904463249A9
:103C8000204603F065F801D2304804682F480168E7
:103C9000204603F08FF8824602F096FD07462C4A34
:103CA0002C4B02F0EDF8054601F0FCFF8146494639
:103CB0002948FFF78DF981462849484603F048F81E
:103CC00007D32749484602F043FF02D32548C0F8EE
:103CD000009022492348006803F03AF804D21F48B4
:103CE0002049086009E01CE01D491E48006802F0F8
:103CF0002FFF02D21A481B490860144804600020B4
:103D00000A4908600021084800F0A4FA0020084988
:103D100008700021044800F0B3F90221024800F0C5
:103D2000D1F8BDE8FC9F0000000400402000002006
:103D300024000020AC0200200000E03F009AE04098
:103D400080842E417C0200200000964374020020F3
:103D5000B81E85EB51B88E3F940200200000484207
:103D6000000048C2780200201CB50121284800F05C
:103D7000CAF800284BD00121254800F0A3F8002202
:103D80000121234800F026F92248006805282DD299
:103D9000DFE800F02B0308191C00FEF725FAFEF7F8
:103DA0009FF924E01C4800681C490968CDE900100F
:103DB0001B4803681B4802681B4801681B480068D1
:103DC000FEF784FD13E0FDF71DFF10E018480068C2
:103DD000401C1749086008460068032804DBFFF709
:103DE0004DFC00201249086001E000E000BF00BF68
:103DF00008480068401C052190FBF1F201FB12000D
:103E00000449086001221146014800F0E3F81CBD96
:103E100000100040280000206C00002068000020F6
:103E20006400002078000020740000207000002052
:103E3000300000201FB504462048844203D02048AB
:103E4000844200D01FBD1D48844207D101211020AB
:103E5000FFF75CFB36208DF80C0009E0184884421F
:103E600006D101212020FFF751FB37208DF80C00EF
:103E700000208DF80D0001208DF80E008DF80F0048
:103E800003A8FFF70FFA4FF4FA60ADF804002320FF
:103E9000ADF800000020ADF80600ADF8020069465C
:103EA000204600F005FA01221146204600F092F863
:103EB0000121204600F009F800BFC3E700100040D0
:103EC00000140040CA430282704721B1028842F0C8
:103ED0000102028004E002884FF6FE731A4002805D
:103EE000704731B1B0F8442042F40042A0F84420B9
:103EF00005E0B0F84420C2F30E02A0F84420704759
:103F00000146888E704730B5024600200023002409
:103F1000158A05EA0103958905EA010413B10CB17C
:103F2000012000E0002030BD70B505460C46244855
:103F300085420ED0234885420BD0B5F1804F08D082
:103F40002148854205D02148854202D0204885423B
:103F500000D100E000BF208850B92389A288618881
:103F60002846FFF7C9FCE188284600F075F925E0EE
:103F7000208804280AD12389A28861882846FFF76F
:103F8000FBFCE188284600F070F917E0208808283B
:103F90000AD12389A28861882846FFF739FDE18884
:103FA000284600F06FF909E02389A2886188284635
:103FB000FFF776FDE188284600F06DF970BD00003E
:103FC000002C014000340140000400400008004083
:103FD000000C00401AB183890B43838102E083897E
:103FE0008B4383817047000070B5002400220023BA
:103FF000058C4FF6FE7635400584028C8388048B51
:104000004FF68F752C40B51E2C400D882C43751E25
:104010002A400D892A434D882A43144DA8420BD0CB
:10402000134DA84208D0134DA84205D0124DA84206
:1040300002D0124DA84213D14FF6F7752A404D8990
:104040002A434FF6FB752A408D882A434FF6FF65B9
:104050002B404FF6FF552B408D892B43CD892B43A9
:1040600083800483CD888586028470BD002C014046
:10407000003401400040014000440140004801403C
:104080000A460021018C4FF6FD731940114301844B
:104090007047000070B5002400220023058C4FF605
:1040A000EF7635400584028C8388048B48F6FF75D3
:1040B0002C404FF6FF452C400D884FF6FF7606EA60
:1040C00005252C434FF6DF752A400D8906EA0515B4
:1040D0002A434D8806EA05152A43154DA84202D009
:1040E000144DA8421DD14FF67F752A404D894FF6D9
:1040F000FF7606EA05152A434FF6BF752A408D88DC
:1041000006EA05152A434FF6FF352B404FF2FF759F
:104110002B408D8906EA85052B43CD8906EA850566
:104120002B4383800483CD880587028470BD000003
:10413000002C01400034014070B50024002200230F
:10414000058C4FF6FF6635400584028C8388848B8E
:104150004FF68F752C404FF6FC752C400D882C4384
:104160004FF6FF552A400D894FF6FF7606EA0525E2
:104170002A434D8806EA05252A43154DA84202D058
:10418000144DA8421DD14FF2FF752A404D894FF6BC
:10419000FF7606EA05252A434FF6FF352A408D882B
:1041A00006EA05252A434EF6FF752B404DF6FF75AE
:1041B0002B408D8906EA05152B43CD8906EA0515A6
:1041C0002B4383808483CD888587028470BD000063
:1041D000002C01400034014070B50022002300246F
:1041E000058C4EF6FF7635400584038C8488828BDF
:1041F00048F6FF752A404FF6FF452A400D884FF6D6
:10420000FF7606EA05252A434DF6FF752B400D89FA
:1042100006EA05352B434D8806EA05352B430B4D41
:10422000A84202D00A4DA84208D14BF6FF752C4097
:104230008D894FF6FF7606EA85152C4384808283AC
:10424000CD88A0F84050038470BD0000002C0140D0
:104250000034014081847047028B4FF6F3731A409B
:104260000283028B0A4302837047028B4FF2FF33B3
:104270001A400283028B4FF6FF7303EA01231A43AD
:1042800002837047828B4FF6F3731A408283828BCE
:104290000A4382837047828B4FF2FF331A40828336
:1042A000828B4FF6FF7303EA01231A438283704720
:1042B000002202881D4B98420ED01D4B98420BD015
:1042C000B0F1804F08D01B4B984205D01A4B984252
:1042D00002D01A4B984204D14FF68F731A404B8884
:1042E0001A43174B984207D0164B984204D04FF60A
:1042F000FF431A40CB881A4302808B8883850B8842
:1043000003850A4B98420BD0094B984208D00E4BBC
:10431000984205D00D4B984202D00D4B984201D1E6
:104320000B7A03860123838270470000002C014032
:10433000003401400004004000080040000C004030
:1043400000100040001400400040014000440140C3
:104350000048014000B587B040F22551FE4800F00A
:1043600044FE00287BD040F22551FB4800F015FEAA
:10437000F94800F0F5FEC0B20690069830384B2898
:104380006ED2DFE810F0C8044B006E00A704AA0448
:10439000AD046D00B004B804C0046D006D006D0084
:1043A0006D006D006D006D00D004EE040C052A0553
:1043B00066056D0062056D00480551055A055E05EC
:1043C0006D006A056D00730592056D006D006D004E
:1043D0006D006D006D006D006D006D006D006D0075
:1043E0006D006D006D006D0039015701E9029F00FD
:1043F000D501AE00A703C60375016D0069038803EC
:1044000048032703A501C300FE006202B5008F0028
:1044100015040803BC00B402E5037F02CF4880689E
:10442000019002F0D1F9CE4ACE4BCDE9020101F064
:104430006BFCCDE9040101F035FCC849886000201F
:10444000C86008468068039002F0BEF902460B4639
:10445000CDE90401C4A1C04801F0CAFB7BE2D7E367
:10446000D7E3BE488068019002F0AEF9BC4ABD4B6C
:10447000CDE9020102F0BEF8CDE9040101F012FC21
:10448000B64988600020C86008468068039002F042
:104490009BF902460B46CDE90401B3A1AE4801F0F9
:1044A000A7FBDBE7B448007808B9012000E0002052
:1044B000B14908700020B149C860B1A1A64801F017
:1044C00097FBCBE7B248007808B9012000E0002054
:1044D000AF49087008460278AEA19F4801F088FBFA
:1044E000BCE7FDF71FFDAFA19B4801F081FBB5E7DD
:1044F000FDF75AFDAFA1984801F07AFBAEE7FDF752
:1045000059FDAFA1944801F073FBA7E793480068F9
:10451000019002F059F9924A924BCDE9020101F063
:10452000F3FBCDE9040101F0BDFB8C490860A7480D
:104530000068019002F048F9894A8A4BCDE90201EE
:1045400002F058F8CDE9040101F0ACFB9F49086086
:1045500082480068019002F037F9CDE904019B48D8
:104560000068019002F030F9CDE90201DDE90401B3
:10457000CDE9000196A17848DDE9022301F038FB7E
:104580006CE776480068019002F01EF9744A754B9A
:10459000CDE9020102F02EF8CDE9040101F082FB21
:1045A0006E49086089480068019002F00DF96C4A74
:1045B0006C4BCDE9020101F0A7FBCDE9040101F04C
:1045C00071FB8249086065480068019002F0FCF8C0
:1045D000CDE904017D480068019002F0F5F8CDE9CD
:1045E0000201DDE90401CDE9000179A15A48DDE9C4
:1045F000022301F0FDFA31E77C48006802F0E4F89C
:104600004FF033327A4BCDE9020101F07DFBCDE969
:10461000040101F047FB754908600846006802F094
:10462000D3F802460B46CDE9040172A14A4801F0D5
:10463000DFFA13E76D48006802F0C6F84FF0333236
:104640006B4BCDE9020101F0D5FFCDE9040101F08A
:1046500029FB664908600846006802F0B5F8024682
:104660000B46CDE9040163A13B4801F0C1FAF5E630
:1046700064484068019002F0A7F8634A634BCDE9B3
:10468000020101F041FBCDE9040101F00BFB5D49A2
:1046900048605F484068019002F096F85A4A5B4BC8
:1046A000CDE9020101F030FBCDE9040101F0FAFA95
:1046B0005749486053484068039002F085F8024625
:1046C0000B46CDE9040153A1234801F091FAC5E658
:1046D0004C484068019002F077F84B4A4B4BCDE9CB
:1046E000020101F087FFCDE9040101F0DBFA454941
:1046F000486047484068019002F066F8424A434BE0
:10470000CDE9020101F076FFCDE9040101F0CAFA1A
:104710003F4948603B484068039002F055F8024624
:104720000B46CDE904013BA10B4801F061FADCE343
:104730003F48006802F048F8334A344BCDE90201A3
:1047400001F0E2FACDE9040101F0ACFA3849086061
:10475000084600686EE00000004C00406C0100203C
:104760007B14AE47E17A843F526F6C6C5F504944D2
:104770002E693D25660D0A007202002014020020F9
:1047800053454E44206368616E6765210D0A000041
:104790007102002044656275673D202025640D0A82
:1047A00000000000737461727420666C79210D0A38
:1047B0000000000073746F7020666C79210D0A0090
:1047C000666C792075702021210D0A008801002077
:1047D00070697463685F503D256620202020726FE9
:1047E0006C6C5F503D2566200D0A00002001002002
:1047F0003333D33F626173655F647574793D2566B9
:104800000D0A0000DC0100209A9999999999B93F05
:10481000C0010020414E474C455F53504545445F21
:10482000585F5049442E4B443D25660D0A00000058
:10483000EC00002001F0C8FF02460B46CDE9040160
:10484000F4A1F94801F0D4F94FE3F848006801F009
:10485000BBFFF74AF74BCDE9020101F0CBFECDE9F2
:10486000040101F01FFAF14908600846006801F0F0
:10487000ABFF02460B46CDE90401E6A1EA4801F090
:10488000B7F932E3EC488068019001F09DFFE84AF7
:10489000E84BCDE9020101F0ADFECDE9040101F0E4
:1048A00001FAE5498860E5488068019001F08CFFD5
:1048B000DF4AE04BCDE9020101F09CFECDE90401A5
:1048C00001F0F0F9DD4988600020DB49C860DB4970
:1048D000C860D9488068039001F076FF02460B4615
:1048E000CDE90401D6A1D04801F082F9FDE2D24819
:1048F0008068019001F068FFCD4ACE4BCDE90201FE
:1049000001F002FACDE9040101F0CCF9CA4988604E
:10491000CA488068019001F057FFC54AC54BCDE9F0
:10492000020101F0F1F9CDE9040101F0BBF9C3493D
:1049300088600020C049C860C049C860BE4880681F
:10494000039001F041FF02460B46CDE90401BCA1F2
:10495000B54801F04DF9C8E2BE480068019001F089
:1049600033FFB34AB34BCDE9020101F0CDF9CDE9F4
:10497000040101F097F9B749086008460068039000
:1049800001F022FF02460B46CDE90401B2A1A64880
:1049900001F02EF9A9E2AF480068019001F014FF80
:1049A000A34AA44BCDE9020101F024FECDE90401A4
:1049B00001F078F9A749086008460068039001F003
:1049C00003FF02460B46CDE90401A3A1964801F07E
:1049D0000FF98AE2A3488068019001F0F5FEA24A2F
:1049E000A24BCDE9020101F08FF9CDE9040101F0FC
:1049F00059F99C4988600020C86008468068039087
:104A000001F0E2FE02460B46CDE9040198A186487A
:104A100001F0EEF869E293488068019001F0D4FE5D
:104A2000914A924BCDE9020101F0E4FDCDE9040188
:104A300001F038F98B4988600020C860084680681A
:104A4000039001F0C1FE02460B46CDE9040188A1A6
:104A5000754801F0CDF848E282480068019001F005
:104A6000B3FE894A894BCDE9020101F04DF9CDE948
:104A7000040101F017F97B490860084600680390BB
:104A800001F0A2FE02460B46CDE9040180A1664872
:104A900001F0AEF829E273480068019001F094FE3D
:104AA000794A7A4BCDE9020101F0A4FDCDE9040178
:104AB00001F0F8F86B49086008460068039001F0BF
:104AC00083FE02460B46CDE9040171A1564801F070
:104AD0008FF80AE263484068019001F075FE544A7D
:104AE000544BCDE9020101F00FF9CDE9040101F0C9
:104AF000D9F85C49486008464068039001F064FEBC
:104B000002460B46CDE9040165A1474801F070F863
:104B1000EBE154484068019001F056FE444A454B91
:104B2000CDE9020101F066FDCDE9040101F0BAF81A
:104B30004C49486008464068039001F045FE024633
:104B40000B46CDE9040156A1374801F051F8CCE1FC
:104B500039480068019001F037FE354A354BCDE900
:104B6000020101F047FDCDE9040101F09BF8324953
:104B7000086032480068019001F026FE2C4A2D4B57
:104B8000CDE9020101F036FDCDE9040101F08AF81A
:104B90002A49086028480068039001F015FE024683
:104BA0000B46CDE9040144A11F4801F021F89CE126
:104BB00021480068019001F007FE1D4A1D4BCDE918
:104BC000020101F0A1F8CDE9040101F06BF81A49E6
:104BD00008601A480068019001F0F6FD144A154B70
:104BE000CDE9020101F090F8CDE9040101F05AF895
:104BF0001249086010480068039001F0E5FD024684
:104C00000B46CDE904012CA1074800F0F1FF6CE14F
:104C10006CE169E1726F6C6C5F7461726765743D21
:104C200025660D0A00000000004C0040EC0000204A
:104C30009A9999999999B93FDC010020C001002007
:104C4000616E676C655F73706565645F6B693D2558
:104C5000660D0A00F80100207961775F4B503D2511
:104C6000660D0A0030020020FCA9F1D24D62503FCF
:104C700056656C6F636974795F5049442E4B493DAA
:104C800025660D0A000000007B14AE47E17A843FE0
:104C9000565F5049442E4B503D25660D0A000000DA
:104CA00056656C6F636974795F5049442E4B443D7F
:104CB00025660D0A00000000414E474C455F5350E9
:104CC0004545445F585F5049442E4B503D25660D85
:104CD0000A000000FCF7DEFD07E1FEF7CFF904E172
:104CE00000F0CEFA01E182488249086082A187483B
:104CF00000F07EFFF9E000207E49086084A183482F
:104D000000F076FFF1E000208649086086A17F4828
:104D100000F06EFFE9E088488249086087A17B487F
:104D200000F066FFE1E08948006801F04DFD884A27
:104D3000884BCDE9020101F05DFCCDE9040100F0F2
:104D4000B1FF824908600846006801F03DFD024657
:104D50000B46CDE90401AFF238116C4800F048FF72
:104D6000C3E07A48006801F02FFD794A794BCDE91C
:104D7000020100F0C9FFCDE9040100F093FF73497F
:104D800008600846006801F01FFD02460B46CDE9A9
:104D90000401AFF274115D4800F02AFFA5E06E48EF
:104DA000006801F011FD6A4A6A4BCDE9020100F08A
:104DB000ABFFCDE9040100F075FF674908600846C4
:104DC000006801F001FD02460B46CDE90401AFF297
:104DD000B0114E4800F00CFF87E05F48006801F01A
:104DE000F3FC5B4A5B4BCDE9020101F003FCCDE92A
:104DF000040100F057FF584908600846006801F0B8
:104E0000E3FC02460B46CDE90401AFF2EC113F484A
:104E100000F0EEFE69E04FF07E515048006801F06E
:104E2000FFFC4E49086060E04FF07E514B4800683F
:104E300001F0C0FF4949086057E049484749086008
:104E400053E00020474908704FE0012045490870B1
:104E50004BE001204449086047E04348006820B126
:104E600000F00EFA0020404908603EE03F4800682C
:104E7000019001F0A9FC364A3D4BCDE9020100F05A
:104E800043FFCDE9040100F00DFF384908600846F2
:104E90000068039001F098FC02460B46CDE904013E
:104EA00034A11A4800F0A4FE1FE0304800680190C9
:104EB00001F08AFC264A2E4BCDE9020101F09AFB53
:104EC000CDE9040100F0EEFE2849086008460068BC
:104ED000039001F079FC02460B46CDE9040125A1BF
:104EE0000A4800F085FE00E000BF00BF07B000BD2B
:104EF00000007041080100206865696768745F6F91
:104F00007574203D313521210D0A0000004C004010
:104F10004865696768745F4F7574203D3021210DC5
:104F20000A00000010010020726F6C6C5F6F7574D6
:104F3000203D3021210D0A000000A040726F6C6CF2
:104F40005F6F7574203D3521210D0A00E8000020B7
:104F50009A9999999999A93FEC0000202001002085
:104F600000000C42180100202C0000201402002038
:104F70009999B93F6865696768745F5049442E4BD9
:104F8000503D25660D0A000001F40072B2F5007F65
:104F900000D100BFCA430280704710B50022002331
:104FA00040F66A14A14200D100BF0A1201249440C5
:104FB000A3B2DC43048010BD21B1828942F40052C7
:104FC000828104E082894DF6FF731A408281704726
:104FD00002460020B1F5007F00D100BF13880B40CE
:104FE0000BB1012000E00020704770B5024600249C
:104FF00000230025002040F66A16B14200D100BF10
:10500000C1F3421501F01F03012606FA03F3012D37
:1050100002D19689334006E0022D02D1168A334030
:1050200001E0968A33400C12012606FA04F4168831
:10503000344013B10CB1012000E0002070BDF0B588
:105040000346002400260025002040F66A17B942D6
:1050500000D100BF1846C1F3421401F01F0601271A
:1050600007FA06F5012C01D10C3004E0022C01D125
:10507000103000E014301AB107682F43076002E0D7
:105080000768AF430760F0BD2DE9F04786B00546DD
:105090000E460024A24600BFA1460027B08900B1F9
:1050A00000BF2F462C8A4CF6FF700440F088044362
:1050B0002C82AC894EF6F3100440B0883189084345
:1050C000718908430443AC81AC8A4FF6FF40044029
:1050D000B0890443AC8201A8FEF748FA1F48874212
:1050E00002D1DDF810A001E0DDF80CA0A88900F4E1
:1050F000004040B10AEBCA0000EB0A1031684900D9
:10510000B0FBF1F807E00AEBCA0000EB0A103168C7
:105110008900B0FBF1F86420B8FBF0F0040120092D
:10512000642101FB1089A88900F4004040B13220BD
:1051300000EBC900B0FBF1F000F00700044308E009
:10514000322000EB09106421B0FBF1F000F00F00F9
:1051500004432C8106B0BDE8F08700000038014010
:1051600001468888C0F308007047C1F308028280B6
:10517000704700BFFEE7000030B587B004460D461B
:1051800002950020ADF80C00ADF80E00ADF810004F
:10519000ADF814000C20ADF812004FF4E060FEF7FB
:1051A000B9F800208DF8060001208DF8070030487E
:1051B000844225D101210420FEF7C8F9012188038A
:1051C000FEF7C4F918208DF81B0003208DF81A0093
:1051D0006015ADF8180006A92648FCF7F1FE201569
:1051E000ADF8180048208DF81B0006A92148FCF7EF
:1051F000E7FE25208DF8040001A8FEF753F827E00C
:105200001D48844224D101211020FEF79FF901217D
:10521000C804FEF77BF918208DF81B0003208DF8D9
:105220001A002015ADF8180006A91448FCF7C8FEAE
:10523000E014ADF8180048208DF81B0006A90F48AF
:10524000FCF7BEFE34208DF8040001A8FEF72AF812
:1052500002A92046FFF718FF01212046FFF7ACFE08
:10526000012240F225512046FFF7E9FE07B030BD8C
:105270000038014000080140004C0040001001408F
:105280002DE9F041FCF79EFC3520FCF715FC194890
:10529000FCF718FC80461848006818490860184850
:1052A0000068486017480068886017480068C86050
:1052B000164800680861002416E0104850F8245091
:1052C0000C4901EB84002946FCF746FC80460B495B
:1052D00051F8240001F078FA064632460B460CA13C
:1052E0000E4800F085FC641C052CE6DBFCF72AFC6C
:1052F000BDE8F08100900108E8000020C402002011
:10530000EC00002044000020480000204C00002059
:1053100077726974652025660D0A0000004C004014
:10532000490050EAC12018BF04204A0D18BF40F0C0
:10533000010040F2FF72B2EB515F08BF40F0020083
:10534000012808BF05207047014621F00040C0F148
:10535000FF40C00F70472DE9F0414F1E00EBC70121
:105360000446D1E9000115461E4637F006020DD06D
:105370002A46334600F018FF7F1E04EBC703D3E92B
:10538000002300F0C1FC37F00602F1D1022F25D036
:10539000042F13D0062F18BFBDE8F0812A463346EC
:1053A00000F002FFD4E90A2300F0AEFC2A4633469F
:1053B00000F0FAFED4E9082300F0A6FC2A463346A2
:1053C00000F0F2FED4E9062300F09EFC2A463346A4
:1053D00000F0EAFED4E9042300F096FC2A463346A6
:1053E00000F0E2FED4E9022300F08EFC2A463346A8
:1053F00000F0DAFED4E90023BDE8F04100F084BCFF
:10540000012201F080BD00F07FBC0022134610464F
:10541000114600F035BD0000024A0020110701F0DE
:1054200072BD000001FDFFFF30380A2801D20120C3
:1054300070470020704700002DE9F04D8D4F21F09E
:10544000004A86B005460C46BA452ADBAAEB07009F
:1054500028430AD08848824501DC1AD1CDB106B074
:105460002846BDE8F04DFFF7CBBF844A844B284661
:1054700000F09AFE07460E46824A834B2846214694
:1054800000F092FE06B03A463346BDE8F04D00F01B
:105490003BBC0120FAF752FF06B0BDE8F04DFFF724
:1054A000B4BF7A48824542DABAF1795F0BDA28460E
:1054B000FFF736FF042808BFFFF7AEFF284606B007
:1054C0002146BDE8F08D2A460B46104600F06CFEE2
:1054D000834602466E480E460B4606217844FFF787
:1054E0003AFF5A46334600F05FFE804669488A46D6
:1054F0005A46334604217844FFF72DFF5A46334677
:1055000000F052FE00223B4600F0FEFB02460B4636
:105510004046514600F0B4FC2A46234600F044FEC3
:1055200006B02A462346BDE8F04D00F0EDBB284604
:1055300024F0004100223D463B4600F069FF4FF059
:10554000FF3201F0E0FC0646024653480F460B4688
:1055500006217844FFF7FFFE32463B4600F024FE6A
:10556000CDE900014D4832463B4604217844FFF71F
:10557000F2FE32463B4600F017FE00222B4600F0BA
:10558000C3FB834602913046394600F00BFB804650
:1055900043480D46504517DCDDE900015A46029BA1
:1055A00000F06EFC42462B4600F0FEFD42462B46C4
:1055B00000F0AAFB012201F0A6FC304A304B01F0BA
:1055C00019F8304A304B4CE04FF0000A52460B4677
:1055D000404600F099FBCDE9031052462B46104699
:1055E000194600F0E1FD32463B4600F011FFDDE9CF
:1055F000033200F045FC06460F46DDE900015A463D
:10560000029B00F03DFC8346009101223046394662
:1056100001F079FC194A1A4B00F0FAFE06460F46D3
:1056200001224046294601F06EFC5A46009B00F0DC
:10563000BBFD32463B4600F0DDFF06460F46012229
:105640005046294601F05FFC0E4DDFF858802A468F
:10565000434600F0DDFE32463B4600F0D9FE2A46C6
:10566000434600F0D5FE002CD8BF81F0004106B0C3
:10567000BDE8F08D0000F03F0000F07F075C1433C0
:1056800026A6913C182D4454FB21F93F0000E03F31
:10569000B81A0000CE1A0000421A0000581A000082
:1056A0003333EF3FFB21E93F2DE9F84F04460D4628
:1056B00021F0004000917349814211DC7249884217
:1056C00001DC06D12CB120462946BDE8F84FFFF792
:1056D00097BE6E48002DCCBF6D496E49BDE8F88F6E
:1056E0006D49814211DD6D498142D8BF4FF0FF36CF
:1056F0006DDD20462946FFF713FE042808BFFFF79B
:105700008BFE20462946BDE8F88F6549654F25F098
:105710000045814233DD6449814219DD002632466D
:105720004FF080432046294600F0EEFA80468A4634
:1057300001222046294601F0E6FB00223B4600F00C
:1057400059FF4246534600F09BFB04460D463EE09F
:1057500001260022BA463B462046294600F0D4FAEC
:1057600080460F46002253462046294600F042FF5D
:1057700042463B4600F084FB04460D4627E04B4979
:1057800081421BDDDFF828A1022600225346204675
:10579000294600F009FD00223B4600F0B5FA80469C
:1057A0000F46002253462046294600F023FF42467A
:1057B0003B4600F065FB04460D4608E00326224602
:1057C0002B4600203B4900F05BFB04460D46224679
:1057D0002B461046194600F0E7FC8B4682460246EF
:1057E0000B4600F0E1FC07460246334888460B466C
:1057F00006217844FFF7AFFD52465B4600F0D4FC2B
:1058000082462E488B463A46434605217844FFF7A8
:10581000A2FD3A46434600F0C7FC02460B46002E66
:10582000504659460CDA00F06FFA22462B4600F03B
:10583000BBFC01B022462B46BDE8F04F00F0E8BDAE
:1058400000F062FA22462B4600F0AEFC1C4A7A4475
:1058500002EBC603D3E9002300F0CCFE22462B4620
:1058600000F0C8FE174A7A4402EBC603D3E90023CE
:1058700000F0CEFD009A002AB8BF81F00041BDE8DB
:10588000F88F0000000010440000F07F182D4454F1
:10589000FB21F93FFB21F9BF0000DC3F0000203E67
:1058A0000000F33F0000F03F0000E63F00800340AF
:1058B0000000F83F0000F0BFA218000060180000D0
:1058C000FE170000C61700002DE9F04D9446CCF1FC
:1058D000000423F000464CEA0404524F46EAD47414
:1058E0009A46884621F00042BC4206D8454240EA2A
:1058F000050442EAD474BC4204D9BDE8F04D6246C6
:10590000FFF781BDAAF14055A5F17F6555EA0C046A
:105910000BD0022404EAAA74434DDFF810E144EAF4
:10592000D87452EA000B04D00CE0BDE8F04DFFF74C
:10593000BBBE002C14BF012CBDE8F08D022C30D072
:10594000032C32D056EA0C0B0AD0BE4220D1BA4208
:1059500009D126F0804622F080423346114617E0F6
:1059600000291ADB25E0DFF8C8B0FB44002C04BF97
:10597000DBE90001BDE8F08D012C02BFDBE900018D
:1059800081F00041BDE8F08D022C0AD0032C0CD030
:10599000BA4212D1B8F1000F0BDA23482549BDE80D
:1059A000F08D28462449BDE8F08D28467146BDE8B3
:1059B000F08D1D482149BDE8F08D921B12153C2A3F
:1059C000C4BF19481D490EDCBAF1000FBEBF12F169
:1059D0003C0F0020014606DB624600F051FA21F040
:1059E0000041FFF761FE002C08BFBDE8F08D012CDF
:1059F00004BF81F00041BDE8F08D114A114B022C2B
:105A000007D000F0F7FD2A46BDE8F04D0A4B00F044
:105A1000F1BD00F0EFFD2A46BDE8F04D064B00F069
:105A2000F7BC00000000F07F182D4454FB2109C092
:105A30005A170000FB21F9BFFB210940FB21F93F68
:105A4000075C143326A6A13C4FF0E021096921F040
:105A500004014FF0E02211610146C21700EB5272BF
:105A6000D210014B1A607047E400002001460D4A35
:105A700012684A434FF0E0235A6100229A610122E2
:105A80001A6100BF4FF0E022106900F001021AB164
:105A900000F48032002AF5D000224FF0E0231A6192
:105AA0009A617047E4000020FDF7F6FE4FF4E13103
:105AB0002048FFF761FB20A11E4800F099F848201C
:105AC000FFF7C2FFFDF7C0FB1F48FEF7B3F9FEF773
:105AD00033F8FDF7B5FDFBF763FFFDF7CFFA1B4881
