:020000040800F2
:10000000C8120020B9020008E9310008592200088E
:10001000E5310008551A0008CF4E00080000000026
:10002000000000000000000000000000E5350008AE
:10003000931A00080000000051340008DD37000862
:10004000D3020008D3020008D3020008D30200083C
:10005000D3020008D3020008D3020008D30200082C
:10006000D3020008D3020008D3020008D30200081C
:10007000D3020008D3020008D3020008D30200080C
:10008000D3020008D3020008D3020008D3020008FC
:10009000D3020008D3020008D3020008D3020008EC
:1000A000D3020008D3020008D3020008D3020008DC
:1000B000D3020008093B0008D3020008D30200085D
:1000C000D3020008D3020008D3020008D3020008BC
:1000D000D3020008D3020008D3020008D3020008AC
:1000E000D3020008D3020008D3020008D30200089C
:1000F000D3020008D3020008D3020008D30200088C
:10010000D3020008D3020008D3020008D30200087B
:1001100085410008D3020008AD3B0008D302000867
:10012000D3020008D3020008D3020008D30200085B
:1001300000F002F800F0B0F80AA090E8000C824449
:100140008344AAF10107DA4501D100F0A5F8AFF226
:10015000090EBAE80F0013F0010F18BFFB1A43F0A5
:1001600001031847A06E0000C06E00000A444FF063
:10017000000C10F8013B13F0070408BF10F8014B06
:100180001D1108BF10F8015B641E05D010F8016B4B
:10019000641E01F8016BF9D113F0080F1EBF10F8AF
:1001A000014BAD1C0C1B09D16D1E58BF01F801CBD2
:1001B000FAD505E014F8016B01F8016B6D1EF9D555
:1001C0009142D6D37047000000230024002500266A
:1001D000103A28BF78C1FBD8520728BF30C148BFAA
:1001E0000B6070476E2900F04D81702900F09782F6
:1001F000662906F0A485652906F0A185672906F021
:100200009E856129AFF3008003681B0A28BF41F077
:100210008001692900F0FA80642900F0F7807529CF
:1002200000F0F4806F2900F02582782900F06382C5
:10023000E92900F0BF81E42900F0BC81F52900F034
:10024000B981EF2900F02282F82900F06282036868
:10025000DB0928BF41F08001632900F0E88573299C
:1002600000F0ED85E32900F0F885F32900F0FD8525
:10027000002070471FB500F04FFE04000020002151
:1002800005F0E4FB401C60600020002105F0C8FB85
:10029000E0601FBD10B510BD00F010FE1146FFF765
:1002A000E9FF05F0E7FA00F0E9FE03B4FFF7F2FF1B
:1002B00003BC00F02DFF00000948804709480047B3
:1002C000FEE7FEE7FEE7FEE7FEE7FEE7FEE7FEE706
:1002D000FEE7FEE704480549054A064B7047000063
:1002E000E137000831010008C8020020C8120020D0
:1002F000C80A0020C80A00207CB51D4616460C001E
:10030000009001D02044401E074B7B442A4669469A
:100310000190304600F0CFF805461CB10020694638
:1003200000F0DCF828467CBDD9010000704770471A
:10033000704710B500F0C2FA006810BD10B5044651
:1003400000F0BCFA046010BD70B504468569006811
:10035000C10601D5302600E02026C00707D070BDB9
:10036000D4E9012130469047206A401C20626D1E6E
:10037000F6D570BD70B5044685690078C00707D111
:1003800070BDD4E9012120209047206A401C2062E2
:100390006D1EF6D570BD09684A0501D540B270479B
:1003A000C905FCD500B2704709684A0501D5C0B23D
:1003B0007047C905FCD580B2704770B50C4605463C
:1003C000012A05D02878800600D5EA69002302E0DA
:1003D000012305E05B1C934202D2E05C0028F9D1C6
:1003E000A869E618C01AA861286A18442862284635
:1003F000FFF7AAFF04E0D5E9012114F8010B9047AB
:10040000B442F8D32846FFF7B5FF70BD2DE9F0419F
:100410000646002410687529314616A510D0FFF74E
:10042000BAFF002802DA404213A507E031688A07C4
:1004300001D512A502E0490704D511A5012401E068
:10044000FFF7B2FF00210A2206F1240709E0B0FB02
:10045000F2FCB0FBF2F302FB1C003030785418467B
:10046000491C0028F3D123462A463046BDE8F04116
:1004700000F06DBA000000002D0000002B0000000D
:100480002000000011680268006A530501D5087059
:100490000AE0D30501D5088006E0130603D5C2178C
:1004A000C1E9000200E008600120704701694A1CB0
:1004B00002610878704700B58FB0CDE901310021A5
:1004C000059105497944CDE903101146684600F0CD
:1004D00031F90FB000BD0000E5FFFFFF0A6802F828
:1004E000010B0A607047D1E900239A4202D2531CE3
:1004F0000B601070704700002DE9FF5F15468A46BB
:100500000446DFF8AC80F8440027D8E900103E46E6
:10051000CDE9001010E03AF816106A4602A800F083
:10052000A8FC411C07D02178890603D5E269391857
:1005300091420DD80744761C2078800602D5E069E8
:10054000B84205DDAE42E6DB3AF816000028E2D1FB
:10055000A069C01BA0612046FFF7F6FED8E9001095
:10056000CDE90010002017E03AF818106A4602A8FA
:1005700000F07FFCB0F1FF3F81460BD000250DF16C
:10058000080B05E0D4E901211BF8050090476D1C1C
:100590004D45F7D308F10100B0428046E4DB206A04
:1005A000384420622046FFF7E5FEBDE8FF9F0000CB
:1005B0007E6900002DE9F0418046D21D22F007023D
:1005C0000025D2E90002F52915A614D0011E72F10A
:1005D000000106DA0023D0EB030063EB020211A650
:1005E00008E0D8F800108B0701D50FA602E04907F4
:1005F00001D50EA601251146002408F1240704E0C8
:1006000000F060F930323A55641C50EA0102F7D12B
:100610002B46324621464046BDE8F04100F097B9EE
:10062000000000002D0000002B0000002000000052
:1006300030B4002100F1240408E002F00705D208DC
:10064000303542EA4372DB086554491C52EA03051F
:10065000F3D10468002310A2250708D504F0200474
:100660000C4304D0C46901230CA2641EC46130BCD5
:1006700000F06DB910B5044621461068FFF794FEEE
:1006800002462046BDE810400023D1E7D21D22F0EB
:100690000701D1E90023CBE7000000003000000093
:1006A000F0B40D460188090502D5214C7C4402E0D6
:1006B0001F4C7C440E34002100F1240608E002F0B7
:1006C0000F071209E75D42EA03721B097754491CC0
:1006D00052EA0307F3D102780023120704D5702DE4
:1006E00006D009B1022311342246F0BC00F02FB924
:1006F00001231034F8E770B504460D462146106812
:10070000FFF752FE024629462046BDE8704000230E
:10071000C6E7D21D22F00703D3E90023C0E7036830
:10072000126843F0200303600823C3610023B7E786
:10073000E06700002DE9F05F894604464FF0000AAB
:10074000DFF874B1FB44C0F820A02046E168884778
:10075000002874D0252806D0D4E901219047206ACA
:10076000401C2062F1E700265F462046E16888478A
:100770002028054607DB312D05D2781910F8200C0A
:1007800008B10643F1E7B00701D526F00406C4F826
:100790001CA00027C4F818A02A2D09D0284604F070
:1007A00029FD38B304EB8708303DC8F8185019E02C
:1007B00059F8041B204604EB87029161E1688847E1
:1007C000012F054618D1E069002820DA26F020061E
:1007D0001DE0D8F8180000EB800005EB4000303831
:1007E000C8F818002046E1688847054604F002FD75
:1007F0000028EED1012F0AD02E2D08D12046E16825
:1008000088477F1C0546022F46F02006C4DBA069FE
:10081000002803DA404246F00106A061F00701D04B
:1008200026F010066C2D0BD0682D09D04C2D39D038
:100830006A2D35D0742D35D07A2D33D016E038E0BE
:10084000E1682F4620468847B842054609D16C2FFB
:1008500026D04FF48060E16806432046884705466D
:1008600004E06C2F1AD04FF4807006430DB3A5F14D
:100870004100192802D8203546F400664A46294628
:10088000204626604E46FFF7ADFC80B101280BD014
:10089000F61D26F0070000F1080956E74020E4E7BE
:1008A0008020D8E70020D6E706F104094DE7284666
:1008B00052E7206ABDE8F09F70670000004870476B
:1008C0006402002030B5B0F10A024FEA900E71F1D7
:1008D00000034EEA817EB0EB0E0061EB91014FEA1E
:1008E000101E4EEA017E10EB0E0041EB11114FEA93
:1008F000102E4EEA016E10EB0E0041EB11214FEA73
:10090000104E4EEA014E10EB0E0041EB1141401823
:1009100041F100014FEAD00040EA41704FEAD101B5
:1009200010EB80054FEA810444EA907444EB010423
:100930006D1944EB0404521BA3414FF0000348BF60
:100940000A3200D530BD401C41F1000130BD2DE917
:10095000F0470D4699469246044600F12408016886
:10096000880604D5E06921F01001216000E0012033
:10097000A84201DD471B00E00027A1697A1902EBBC
:100980000900081AA0612078C00602D42046FFF7AB
:10099000DBFC002608E0D4E901211AF806009047A4
:1009A000206A401C761C20624E45F4DB2078C0068D
:1009B0000AD52046FFF7C8FC06E0D4E90121302023
:1009C0009047206A401C2062381EA7F10107F4DC22
:1009D00007E0D4E9012118F805009047206A401C7F
:1009E0002062281EA5F10105F3DC2046FFF7C2FCBA
:1009F0002078000602D50220BDE8F0870120FBE741
:100A000070472DE9FF4F0C461E464FF0FF378BB065
:100A1000D2E90001DDF860800A908A46C1F30A55E8
:100A200005B93D46002108464FF00000BAF1000F1D
:100A300000F4400005DA00EB80004FF4400101EAC9
:100A400050004FEA9059B9F1010F00DDB9460A98FC
:100A500050EA4A000ED044F61050A5F2FF35454347
:100A60002F14B8F1000F1ED07542291E1EDDC9F1EA
:100A700000021CE0B8F1010F4FF0000001D030215E
:100A800003E0F24305E02154401CB042FBDB30465A
:100A90000022002121540B99C1F80880C1E90020EF
:100AA0000FB0BDE8F08FBD1B6D1CDEE74A4600DAD3
:100AB000694206A800F074FA06AB93E8070003AB9E
:100AC00083E8070050460A9900F029FB8DE80700EB
:100AD000A0F500501F3800900398002D09DD42F268
:100AE0001F014A46084403A90390684600F088FDA8
:100AF00008E0A0F500504A461F3803A90390684655
:100B000000F092FD8DE807000004000C03D04FF0C8
:100B1000FF30410800E01046B8F1000F03D000227A
:100B2000009215461EE0751E05D4FFF7CBFE30324D
:100B300062556D1EF9D5B3460122084302D000224A
:100B40007F1C04E02078302801D100227F1E002A7B
:100B5000099786D01DE0112D07DAFFF7B3FE30327A
:100B600062556D1C50EA0102F5D1084302D000988D
:100B7000C8B10EE00021681E05E0235C625C63548E
:100B80002254401E491C8142F7DBAB46A81B401E85
:100B90000990002004F80B000B98099AC0F808800F
:100BA000C0E9002B7CE711264FF0000859E72DE93A
:100BB000F04F88460446D21D22F0070191B0D1E9DA
:100BC0000001CDE90A0104F091FA02460B98C00F2A
:100BD00001D02D2007E02068810701D52B2002E0FD
:100BE000202101EAC000032A099001D0072A05DB71
:100BF00003464146204600F093F90BE12078800639
:100C000001D5E06900E00620B8F1650F814606D005
:100C1000B8F1660F18D0B8F1670F70D131E000203D
:100C2000B9F1110F009001DB112301E009F101037B
:100C30000AAA01A90CA8FFF7E4FEDDE90C70002662
:100C400009F10105834647E001204B4600904FF033
:100C500000470AAA01A90CA8FFF7D3FEDDE90DB0F1
:100C60000C995D46002610B909F101000D18B9EB89
:100C7000050003D4C0F1FF3609F10105A5EB090019
:100C80002BE0B9F1010F01DA4FF001090020B9F1B1
:100C9000110F0090484601DD112300E003460AAA27
:100CA00001A90CA8FFF7ADFEDDE90C704D4600264A
:100CB0008346207800070AD4AB4500DA5D4601A8D8
:100CC000012D04DD411911F8011C302907D04F45D1
:100CD00002DA17F1040F04DA012082460FE06D1EDC
:100CE000EEE7002F02DCED1B3E4403E0781CA84237
:100CF00000DD7D1CB81B00F1010A4FF00047207891
:100D0000000703D4AA4501DB4FF0FF3A0021B7F1F9
:100D1000004F0DF143088DF8431024D002202B23FF
:100D2000002F01DA7F422D230A21021EA0F10100CB
:100D300000DC5FB197FBF1FC97FBF1F201FB1C7C3F
:100D400017460CF1300C08F801CDEEE7A8F10100D0
:100D500003702188090501D5452100E06521A0F136
:100D6000010800F8011C09980FA9A1EB0807FF1D55
:100D700000B10120411901EBEA70A1693844081A59
:100D8000401EA0612078C00602D42046FFF7DCFA9E
:100D9000099828B1D4E901219047206A401C2062BB
:100DA0002078C00622D52046FFF7CEFA1EE0002E9E
:100DB00004DBB34502DD01A8805D00E03020D4E90A
:100DC00001219047206A401C2062761CAAF1010094
:100DD0005FEA000A0AD100F09FF8C0680168405C31
:100DE000D4E901219047206A401C2062281EA5F109
:100DF0000105DCDC07E0D4E9012118F8010B90477C
:100E0000206A401C2062381EA7F10107F3DC20464F
:100E1000FFF7B0FA032011B043E610B5436913B1F0
:100E2000AFF3008001E0FFF7C8FA012010BD12788F
:100E300000F124010A7000224A700122EDE71168D6
:100E40004FF0FF32E9E710B5436913B1AFF300800B
:100E500001E0FFF751FB012010BD128800F12401D1
:100E600082840022C2840122EDE711684FF0FF3234
:100E7000E9E770B516460C46054600F045F80368EC
:100E800093F80101012806D0FF2C0FD8185D68B136
:100E900001202C7070BDD3F807013246214603F2C1
:100EA000071303442846BDE8704018474FF0FF3051
:100EB00070BD000000487047640200207546FFF7CF
:100EC000F9FFAE4605006946534620F00700854607
:100ED00018B020B5FFF7FEF9BDE820404FF000063E
:100EE0004FF000074FF000084FF0000B21F0070112
:100EF000AC46ACE8C009ACE8C009ACE8C009ACE855
:100F0000C0098D467047000010B500F005F8001DBF
:100F100010BD00BF394B000000487047840200201C
:100F20002DE9F0411F46044603260168072A01F413
:100F3000006004DB08B116A505E016A503E008B1C2
:100F400015A500E015A521F010002060A069C01EC5
:100F5000A0610FB1401EA0612046FFF7F5F94FB127
:100F6000D4E9012138469047206A401C2062C01C09
:100F7000206206E0206AFAE7D4E9012115F8010BA6
:100F80009047761EF8D22046FFF7F4F9BDE8F081CD
:100F90004E414E006E616E00494E4600696E66001D
:100FA0002DE9F047814616468AB0334878440DC88B
:100FB0008DE80D0030487844801C03AC0DC884E8EF
:100FC0000D0041F69B300844372190FBF1F290FB75
:100FD000F1F5A5F1800501FB12041B3C02D564422A
:100FE000012000E00020DFF890A080460027FA44AE
:100FF000AAF1BE0A0DE0E00709D03246684607EBC9
:1010000047010AEB810100F00FFB8DE80700641037
:101010007F1C002CEFD1184F7F44AC3F18E0E8074D
:1010200014D007EB04100DF1180A90E80E008AE8BE
:101030000E00C068F04201D198190890324606A906
:1010400003A800F0F1FA03AB83E807006D10641CFD
:10105000002DE4D132466946B8F1000F03A802D052
:1010600000F0CEFA01E000F0DFFAC9E90001C9F8AA
:1010700008200AB0BDE8F0873C60000010B50446C7
:10108000AFF300802046BDE81040FFF70EB9000026
:101090004FF0013C50F8042B51F8043B9A4221D107
:1010A000A2EB0C03934313EACC1317D150F8042B93
:1010B00051F8043B9A4215D1A2EB0C03934313EA77
:1010C000CC130BD150F8042B51F8043B9A4209D1B0
:1010D000A2EB0C03934313EACC13DBD04FF00000D8
:1010E000704700BFD01A01BAB1FA81F101F01801BE
:1010F00022FA01F0CB40C1F12001DBB2C0B2C01A2C
:101100002CFA01F3D11A914311EAC311E6D17047C9
:1011100001491820ABBEFEE72600020070475FEAD7
:10112000400C08BF91F0000F4FEA8C234FEAC12218
:1011300043EA51514FEA1C5018BF00F5F0404FEA06
:10114000300018BF41F000415FEA6C5C00F029807C
:10115000BCF1FF3F08BF40F080407047130C06BF52
:1011600012044FF0100C4FF0000C130E04BF1202CB
:101170000CF1080C130F04BF12010CF1040C930FB7
:1011800004BF92000CF1020CD30F04BF52000CF10B
:10119000010C11464FF00002A0F11F00A0EB0C0063
:1011A000704711F0004F08BF704731F000413FF425
:1011B000D5AF0B0C06BF09044FF0100C4FF0000C1C
:1011C0000B0E04BF09020CF1080C0B0F04BF090140
:1011D0000CF1040C8B0F04BF89000CF1020CCB0F37
:1011E00004BF49000CF1010CCCF12003A0EB0C0072
:1011F00022FA03F302FA0CF241EA030100F10100C2
:10120000704720F07F4C80EA030023F07F47ACEB6F
:10121000070303F57C5300F0004003F1FF032DE9C1
:1012200080494FEA154B09B44FEA144325EA0B4EA7
:1012300024EA03480FF2042606EB132749083E78F8
:101240005FEA320203FB0667C7F5000707FB06F6F5
:101250004FEA54374FEAD64606F1020607FB066C02
:10126000CCF1005C4FEA1C472CEA074C07FB06F464
:101270000CFB06F504EB15464FEA961634BF00202A
:101280004FF000404FEAD13706FB07FC4FEA1C4CF9
:101290000CFB0BF7D21B03FB0CF761EB07010CFBFC
:1012A0000EF7B0EB074072EB17420CFB08F734BFA8
:1012B000A2EB0742B2EB074261EB17414FEA0C4445
:1012C0004FEA910706FB07FC4FEA1C4C0CFB0BF79F
:1012D000B0EBC74072EB573203FB0CF734BFA2EB05
:1012E000C742B2EBC74261EB57310CFB0EF7B0EBD4
:1012F000C70072EB57720CFB08F734BFA2EBC702B2
:10130000B2EBC70261EB5771039F4FEA816141EA7B
:10131000921104EBCC044FEAD1374FEA826206FB0C
:1013200007FC42EA90124FEA80604FEA1C4C0CFB2B
:101330000BF7D21B03FB0CF761EB07010CFB0EF75D
:10134000B0EB074072EB17420CFB08F734BFA2EB7F
:101350000742B2EB074261EB17414FEA8C554FEA67
:10136000910704EB9C2406FB07FC4FEA1C4C0CFB8A
:101370000BF7B0EBC74072EB573203FB0CF734BFEF
:10138000A2EBC742B2EBC74261EB57310CFB0EF741
:10139000B0EBC70072EB57720CFB08F734BFA2EB3F
:1013A000C702B2EBC70261EB577115EB4C254FEA50
:1013B000816141EA92114FEA82624FEAD13742EAF3
:1013C000901206FB07FC44F100044FEA80604FEAEC
:1013D0001C4C0CFB0BF7D21B03FB0CF761EB07015A
:1013E0000CFB0EF7B0EB074072EB17420CFB08F753
:1013F00034BFA2EB0742B2EB074261EB174115EB9A
:101400001C154FEA813141EA92414FEA823242EAA9
:1014100090424FEA80304FEA0C7644F1000448EAEB
:1014200003434EEA0B484FF0000EB2EB080C71EB91
:10143000030724BF624639464EEB0E0E4FF0000BF9
:101440000018524149414BEB0B0BB2EB080C71EB0E
:1014500003077BF1000B24BF624639464EEB0E0EAC
:101460004FF0000B0018524149414BEB0B0BB2EB14
:10147000080C71EB03077BF1000B24BF6246394671
:101480004EEB0E0E51EA020718BF46F0010616EBAE
:101490000E7655F1000254F1000103D5BDE8890133
:1014A000BDE80088BDE88901BDE80048B619524191
:1014B00041EB0101A3F10103704780807F7E7D7CB9
:1014C0007B7A7978777676757473727171706F6ED6
:1014D0006E6D6C6C6B6A6A69686867666665646481
:1014E000636362616160605F5F5E5E5D5D5C5C5B0B
:1014F0005B5A5A595958585757565655555554547A
:10150000535352525251515050504F4F4F4E4E4DD7
:101510004D4D4C4C4C4B4B4B4A4A4A494949484823
:101520004847474747464646454545444444444363
:1015300043434342424242414141002B26D477007B
:1015400021D01CB54FEA370703B44FF010004FF01D
:1015500010014FF000000FBCBDE810400BF1010B73
:10156000BBF1010F08BF5FEA170722BF12F10102AA
:1015700011F101014FF0004143F1000300F0004080
:1015800043EA00007047F9D35708DAE746EA06460F
:1015900013F1400F4FEA16461FDD13F1200FDFBF96
:1015A00016430A46002120335B42C8D0C3F120070E
:1015B00046EA064602FA07F74FEA164646EA0706E3
:1015C000C3F1200722FA03F201FA07F721FA03F127
:1015D0004FF0000342EA0702B1E746EA020646EA94
:1015E00006464FEA164646EA0106BCBF46EA0646EC
:1015F000360C4FF000034FF000024FF000019EE761
:101600002DE9C048934630B491E8380007C831EA64
:10161000400C48BF34EA430C03D5FFF7F2FDFFF757
:101620008CFFF0BCBDE800882DE9C048934630B47B
:1016300091E8380007C810F0804F08BF13F0804FC2
:1016400003D100F005F8FFF778FFF0BCBDE8008893
:1016500020F07F4780EA030023F07F4C07EB0C0368
:10166000A3F57C5300F00040A3F1FE0392F0000FBD
:1016700000F0B38095F0000F00F077802DE901496C
:101680004FEA11404FEA144621EA004800FB06FCED
:1016900024EA064708FB06F607FB08F800FB07F7F5
:1016A00018EB06484CEB164C4FEA124B18EB074868
:1016B0004FEA15464CEB174022EA0B4E0BFB06FC9B
:1016C00025EA06470EFB06F607FB0EFE0BFB07F7A7
:1016D0001EEB064E4CEB164C4FF000061EEB074E71
:1016E0004CEB174B18EB0B0840F1000018EB0E0BFE
:1016F00058EB000840F100008F1A4FF000013CBF8A
:10170000C943661B14BFB5EB040C00213CBFC943A1
:10171000F61B4FEA17444EEA8E0E27EA04454FEABD
:101720001C4704FB07622CEA074C05FB07F70CFB80
:1017300005F604FB0CFC16EB074642EB174216EBD2
:101740000C4642EB1C421BEB060658EB02024141E1
:1017500046EA9E0601D5BDE80189B619524141EB22
:101760000101A3F10103BDE801894FEA14454FEAE5
:10177000114724EA054621EA074C05FB07F406FB5E
:1017800007F70CFB06F105FB0CFC11EB074144EBE2
:1017900017444FEA124711EB0C4144EB1C4422EA78
:1017A000074C05FB07F206FB07F70CFB06F605FBEB
:1017B0000CFC16EB074642EB174216EB0C4642EBCD
:1017C0001C456A1854F1000148BF7047B6195241D0
:1017D00041EB0101A3F10103704795F0000F37D0F1
:1017E0004FEA11424FEA144721EA024624EA074C25
:1017F00002FB07F106FB07F70CFB06F402FB0CFCEF
:1018000014EB074441EB17414FEA154714EB0C4426
:1018100041EB1C4125EA074C02FB07F506FB07F7E5
:101820000CFB06F602FB0CFC16EB074645EB1745D6
:1018300016EB0C4645EB1C42121951F1000148BF52
:101840007047B619524141EB0101A3F10103704702
:101850004FEA14454FEA114724EA054621EA074CAE
:1018600005FB07F106FB07F70CFB06F24FF000063D
:1018700005FB0CFC12EB074241EB174112EB0C424B
:1018800051EB1C4148BF7047921841EB0101A3F195
:10189000010370472DE9F0410025002600270022B2
:1018A0000121264802F0AEFA002427E000F0E6FB12
:1018B000234801682348006804F0E2FE8046294678
:1018C00004F0DEFE0546204801682048006804F068
:1018D000D7FE8046314604F0D3FE06461C48016818
:1018E0001C48006804F0CCFE8046394604F0C8FE6F
:1018F00007464FF4FA6003F09FFF641C642CD5DBAD
:101900001549284604F02AFF0D490860124930465F
:1019100004F024FF0C4908600F49384604F01EFF0C
:101920000B4908600DA1144804F04CF8012211463F
:10193000024802F067FABDE8F081000000100040A4
:101940002C00002050000020300000205400002017
:1019500034000020580000200000C84261646A750D
:101960007374206779726F20737563636573736630
:10197000756C210D0A000000004C004000B589B0D4
:10198000012140F6040001F085FD4FF47060ADF8D0
:10199000040018208DF8070003208DF8060001A927
:1019A0002A4800F057FA2320ADF818000020ADF8BF
:1019B0001A0041F28730ADF81C000020ADF81E007F
:1019C0008DF8200006A9224802F08AFB6020ADF8BD
:1019D00008000120ADF80A000420ADF80C0000203A
:1019E000ADF80E00ADF810000820ADF8120040016F
:1019F000ADF814000020ADF8160002A9144802F05A
:101A00000BFA02A9124802F05DFA02A9104802F08E
:101A1000ABFA02A90E4802F0F7FA01210C4802F0D5
:101A20006CF901210A4802F074F941F2883003F0A0
:101A300003FF1420064934310880091D0880091D60
:101A40000880091D088009B000BD000000080140A1
:101A5000002C014000BFFEE730B502460B464FF6B2
:101A6000FF70002112E0555C684000240AE000F09D
:101A7000010525B14AF2010585EA600000E0401049
:101A8000651CECB2082CF2DB4D1CE9B29942EADB92
:101A900030BD70470149C860704700000020024017
:101AA00030B5044604254FF4302000F085F8054693
:101AB000042D17D10C48006940F002000A49086162
:101AC00008464461006940F0400008614FF430204E
:101AD00000F072F805460448006941F6FD710840BF
:101AE00001490861284630BD0020024004200B490E
:101AF000C96801F0010109B101200EE00749C96878
:101B000001F0040109B1022007E00449C96801F0AD
:101B1000100109B1032000E00420704700200240BA
:101B20000348006940F080000149086170470000E7
:101B30000020024078B506460C460425002000909F
:101B4000E80200F039F80546042D24D11348006955
:101B500040F00100114908613480E80200F02CF8DF
:101B60000546042D10D1B01C0090200C009908806F
:101B7000E80200F021F805460848006941F6FE71C8
:101B800008400649086106E00448006941F6FE7114
:101B9000084002490861284678BD00000020024044
:101BA000024803494860034848607047230167457D
:101BB00000200240AB89EFCD00B502460423FFF7B9
:101BC00095FF034603E0FFF791FF0346521E012BEA
:101BD00001D1002AF7D102B90523184600BD000043
:101BE0002DE9F0417F48007810B17F48007850B16E
:101BF000E6207E490880091D0880091D0880091D0E
:101C00000880BDE8F0817A4903C903F035FF044636
:101C1000224678480168784801F08EFB77490860D1
:101C200077497648006804F0E3FF03D274487349AB
:101C3000086008E073497148006804F0D9FE02D2D8
:101C400070486E490860704802686C4801686F48C7
:101C500001F072FB6E4908606E4903C903F00CFF86
:101C6000044622466C4801686C4801F065FB6C49EB
:101C7000086063496A48006804F0BAFF03D260480C
:101C80006749086008E05F496548006804F0B0FEF5
:101C900002D25C4862490860624802686048016894
:101CA000614801F049FB6149086061480021026810
:101CB000604801F041FB604908605548006880F0C9
:101CC00000475A480168384604F0DAFC06465A488C
:101CD0000168304604F0D4FC05465848016828469F
:101CE00004F0CEFC044656480168204604F0C8FCC7
:101CF000544908604648006880F000474B48016836
:101D0000384604F0A7FF06464B480168304604F009
:101D1000A1FF054649480168284604F0B1FC044685
:101D200047480168204604F0ABFC474908603F483B
:101D300001683748006804F08DFF06463E48016898
:101D4000304604F09DFC05463C480168284604F0F6
:101D500097FC04463A480168204604F091FC3B4950
:101D60000860324801682A48006804F089FC064689
:101D700031480168304604F06DFF05462F48016880
:101D8000284604F07DFC04462D480168204604F0F6
:101D900077FC2F4908602B48006804F0D5FD044605
:101DA0002146012001F094FC2748006804F0CCFD96
:101DB00004462146022001F08BFC2448006804F010
:101DC000C3FD04462146032001F082FC2048006840
:101DD00004F0BAFD04462146042001F079FC00BF5E
:101DE0000FE700001401002038000020342C0140CF
:101DF000B8000020F0000020640100201001002045
:101E000000002041000020C150000020B801002047
:101E1000FC000020B0000020EC0000208001002029
:101E20000C010020540000209C0100200001002033
:101E300058000020D40100200401002018010020D7
:101E4000080100201C0100202001002024010020A6
:101E5000280100202DE9F04102460025002600203F
:101E600000230024002791F803C00CF00F0591F81F
:101E700003C00CF0100CBCF1000F03D091F802C0AD
:101E80004CEA050591F800C0BCF1000F31D0146890
:101E900000202BE04FF0010C0CFA00F3B1F800C069
:101EA0000CEA03069E4220D183004FF00F0C0CFA7F
:101EB00003F7BC4305FA03FC4CEA040491F803C0A1
:101EC000BCF1280F06D14FF0010C0CFA00FCC2F84F
:101ED00014C00AE091F803C0BCF1480F05D14FF0DF
:101EE000010C0CFA00FCC2F810C0401C0828D1D329
:101EF0001460B1F800C0BCF1FF0F34DD546800205D
:101F00002EE000F1080C4FF0010808FA0CF3B1F8CC
:101F100000C00CEA03069E4221D183004FF00F0C53
:101F20000CFA03F7BC4305FA03FC4CEA040491F8ED
:101F300003C0BCF1280F05D100F1080C08FA0CF819
:101F4000C2F8148091F803C0BCF1480F07D100F12A
:101F5000080C4FF0010808FA0CF8C2F81080401C79
:101F60000828CED35460BDE8F0814161704701611B
:101F7000704700002DE9F05F01233B22D021354856
:101F800000F068FA3449088001233D22D02131480D
:101F900000F060FA3149088001233F22D0212D480A
:101FA00000F058FA2E4908802B48B0F9000004F0E0
:101FB00007FD83464FF0804104F04EFD824604F059
:101FC00033FB8046274A284B04F01EF806460022C1
:101FD000264B03F03FFE044603F04EFD2449086003
:101FE0001E48B0F9000004F0EBFC83464FF080413E
:101FF00004F032FD824604F017FB8046194A1A4B62
:1020000004F002F806460022184B03F023FE0446B3
:1020100003F032FD174908601148B0F9000004F0E0
:10202000CFFC83464FF0804104F016FD824604F059
:10203000FBFA06460B4A0C4B03F0E6FF044600226F
:102040000A4B03F007FE804603F016FD0A490860BC
:10205000BDE8F09F005400404000002042000020F6
:10206000440000209A999999999923400000E040F2
:102070005C00002060000020640000202DE9FF5F6C
:1020800001234322D021464800F0E4F94549088065
:1020900001234522D021424800F0DCF94249088062
:1020A00001234722D0213E4800F0D4F93F4908805F
:1020B0003F48006804F0B8FA06460F463948B0F9C0
:1020C000000004F07DFC83463A4904F0C5FC8246DA
:1020D00004F0AAFA0022384BCDE9000103F0BAFD62
:1020E000364A374BCDE9020103F0B4FD8046324653
:1020F0003B4604F0AFF9044603F0BEFC31490860EA
:102100003148006804F090FA804689462648B0F9C4
:10211000000004F055FC2749009004F09DFC01905C
:1021200004F082FA82460022234B03F093FD234AF7
:10213000234BCDE9020103F08DFD064642464B4696
:1021400004F088F9044603F097FC20490860204811
:10215000006804F069FA04460D461448B0F900001E
:1021600004F02EFC1349009004F076FC019004F07A
:102170005BFA0022104BCDE9020103F06BFD8046B3
:102180000E4A0F4B03F066FD064622462B4604F02E
:1021900061F9824603F070FC0E490860BDE8FF9FBC
:1021A000005400403A0000203C0000203E00002087
:1021B0002C0000200000FA430000E040295C8FC2A0
:1021C000F5A84C40500000203000002054000020B2
:1021D00034000020580000202DE9FF471748006810
:1021E00003F0BFFE0022164BCDE9000103F00CFF07
:1021F00006460022134B03F007FF04460022124B51
:1022000003F028FD804600224FF0804303F022FDBA
:10221000CDE9020103F030FC82460C49504604F03F
:10222000E7FB02D20A48C0F800A009480168094843
:1022300000F058FE06490860BDE8FF873402002020
:102240000000E03F009AE04080842E410000964369
:10225000180200201C02002000BFFEE721B1028806
:1022600042F48062028004E002884FF6FF331A4095
:10227000028070472DE9F0410746884614461E4605
:10228000069D00BF4FF40031384600F057F9002892
:10229000F8D10121384600F039F900BF2C49384601
:1022A00000F09AF80028F9D000224146384600F0A4
:1022B0001DFA00BF2749384600F08EF80028F9D0F3
:1022C0000121384600F09DF83146384600F017FAF3
:1022D00000BF2049891C384600F07EF80028F8D05D
:1022E0000121384600F012F900BF1949384600F0C4
:1022F00073F80028F9D001224146384600F0F6F97B
:1023000000BF1349491C384600F066F80028F8D091
:1023100016E0012D07D100213846FFF79FFF01216C
:10232000384600F0FFF80A493F31384600F054F8CB
:1023300030B1384600F0D6F92070641C681E85B2B2
:10234000002DE6D101213846FFF788FFBDE8F08176
:1023500001000300820007002DE9F04106460F4608
:1023600014461D460121304600F0D0F800BF184940
:10237000304600F031F80028F9D0002239463046C6
:1023800000F0B4F900BF1349304600F025F80028EA
:10239000F9D02946304600F0B2F900BF0D49891C3A
:1023A000304600F019F80028F8D02146304600F0F9
:1023B000A6F900BF0749891C304600F00DF8002837
:1023C000F8D00121304600F0ADF8BDE8F081000002
:1023D000010003008200070070B5024600240025BA
:1023E00000230020958A138B1B0445EA030626F080
:1023F0007F4404EA01068E4201D1012000E0002062
:1024000070BD21B1028842F00102028004E002881E
:102410004FF6FE731A4002807047000010B5044664
:102420000B48844209D10121480501F023F800211D
:102430004FF4001001F01EF808E00121880501F0BA
:1024400019F800214FF4800001F014F810BD0000CD
:10245000005400402DE9FC4106460F4614461D4637
:102460000220234601AA394600903046FFF702FFBA
:10247000012D08D19DF805009DF8041000EB012006
:1024800000B2BDE8FC819DF804009DF8051040EA0B
:10249000012000B2F5E7000070B5064619488642F3
:1024A00002D1C414051501E0802440250DE0294621
:1024B0001548FFF75CFD0A2003F0BEF929461248D3
:1024C000FFF753FD0A2003F0B7F90F480C300068FE
:1024D00020400028EBD029460B48FFF748FD214655
:1024E0000948FFF742FD0A2003F0A6F921460648F5
:1024F000FFF73DFD0A2003F09FF90121304600F06F
:1025000000F970BD00580040000C014021B1028864
:1025100042F48072028004E002884FF6FF631A40A2
:102520000280704721B1028842F40072028004E008
:1025300002884FF6FF531A40028070470CB50246DE
:10254000002000230193009300920B0F019321F0D0
:102550007F41019B1BB1009B1433009303E0090CE6
:10256000009B18330093009B1B680B400BB10120AC
:1025700000E000200CBD1AB183880B43838002E089
:1025800083888B43838070472DE9F04385B00446F0
:102590000D460026B1460427DFF8CC80A6884FF60A
:1025A000C0700640684600F085FFDDF808802F48BF
:1025B000B8FBF0F01FFA80F946EA0906A6802088E9
:1025C0004FF6FE710840208000262949286888427D
:1025D0000CD828684000B8FBF0F087B2042F00DA6E
:1025E00004273E4309F10100208427E0E8884BF6E8
:1025F000FF71884206D1286800EB4000B8FBF0F07C
:1026000087B209E0286800EBC00101EB0010B8FBBD
:10261000F0F087B247F48047C7F30B0008B947F0E2
:10262000010747F4004006434FF4967009FB00F0A1
:102630004FF47A7190FBF1F0401C2084A68320882F
:1026400040F00100208026884FF6F5300640A8882B
:102650006989084306432680A8892989084320817F
:1026600005B0BDE8F083000000127A0040420F0080
:10267000A086010038B504460A48844204D14FF4CC
:102680004060ADF8000002E0C020ADF8000003207B
:102690008DF802001C208DF8030069460248FFF700
:1026A000D9FB38BD00580040000C014038B5044645
:1026B0000A48844204D14FF44060ADF8000002E0C3
:1026C000C020ADF8000003208DF8020014208DF822
:1026D000030069460248FFF7BDFB38BD00580040C3
:1026E000000C01400146088AC0B2704712B141F0A7
:1026F000010102E04FF6FE7319400182704701822A
:10270000704721B1028842F40042028003E002884F
:10271000C2F30E020280704710B586B004462D4801
:10272000844204D10121880500F094FE03E00121D8
:10273000480500F08FFE0121082000F0ABFE25487F
:10274000844204D14FF44060ADF8140002E0C02090
:10275000ADF8140003208DF816001C208DF817002A
:1027600005A91D48FFF776FB0020ADF808004BF6E1
:10277000FF70ADF80A000020ADF80C004FF4806047
:10278000ADF80E000001ADF810001448019020468D
:10279000FFF744FE01A92046FFF7F6FE012120467F
:1027A000FFF72FFE01224FF4C0612046FFF7E3FE42
:1027B0004FF400312046FFF7C1FE28B12046FFF755
:1027C00075FF2046FFF768FE2046FFF753FF06B06F
:1027D00010BD000000580040000C0140A086010020
:1027E0000FB5A3B0FE480168006804F035F91D90EC
:1027F000FC480168FA48006804F02EF91C90FA4879
:102800000168F748006804F027F91B90F548016853
:10281000006804F021F91A90F4480168F148006852
:1028200004F01AF91990F0480168006804F014F9EE
:102830001890EE480168EC48006804F00DF9179014
:10284000EA480168006804F007F91690E648016854
:10285000E448006804F000F91590E4480168E04895
:10286000006804F0F9F814902599084604F0F4F88B
:1028700008902499084604F0EFF80690239908463A
:1028800004F0EAF80590069903F0FAFE079008991B
:1028900003F0F6FE099003F0C7FECDE90A0103F04C
:1028A0006BF8CDE90C0103F0E7F82190219803F0D3
:1028B000BBFECF4ACF4BCDE90C0103F069FB01D23F
:1028C00027B000BD2199239803F048FF2390219958
:1028D000249803F043FF24902199259803F03EFFAC
:1028E00025901B99199804F0B5F94FF080410D908F
:1028F00004F0B2F8209017991C9803F0C1FE4FF035
:1029000080410D9004F0A8F81F901A991D9804F0CA
:10291000A1F90C90189904F09DF90D90169903F007
:10292000AFFE1E901F99259804F096F80D901E9901
:10293000249804F091F80C900D9904F08BF9139001
:102940001E99239804F088F80D902099259804F09A
:1029500083F80C900D9904F07DF912902099249839
:1029600004F07AF80D901F99239804F075F80C90F4
:102970000D9904F06FF911909F480168139804F0C5
:102980006BF8059003F050FE9C4A9D4BCDE9060183
:1029900003F03AFBCDE90A01109803F045FECDE9BA
:1029A0000801DDE90A2303F099F8CDE90C0103F0F1
:1029B00063F8109090480168129804F04DF8059063
:1029C00003F032FE8D4A8E4BCDE9060103F01CFB6D
:1029D000CDE90A010F9803F027FECDE90801DDE9F2
:1029E0000A2303F07BF8CDE90C0103F045F80F90C2
:1029F00081480168119804F02FF8059003F014FE47
:102A00007E4A7F4BCDE9060103F0FEFACDE90A01CB
:102A10000E9803F009FECDE90801DDE90A2303F071
:102A20005DF8CDE90C0103F027F80E9075480168B8
:102A3000139804F011F80C90109903F021FE0D90FA
:102A4000269903F01DFE26906E480168129804F046
:102A500003F80C900F9903F013FE0D90289903F0E2
:102A60000FFE289067480168119803F0F5FF0C905D
:102A70000E9903F005FE0D90299903F001FE2990AF
:102A80005A482999006803F0E7FF049056482899AE
:102A9000006803F0E1FF02905248006880F00040B7
:102AA0000090269903F0D8FF0190029904F0D2F823
:102AB0000390049904F0CEF8059003F0B5FD4F4A59
:102AC000514BCDE9060103F09FFACDE90A014448D4
:102AD000006803F0A9FDCDE90801DDE90A2302F051
:102AE000FDFFCDE90C0102F0C7FF3D4908603F48FA
:102AF0002899006803F0B0FF04903B4829990068CA
:102B000003F0AAFF029036482699006803F0A4FF5C
:102B10000190029903F0B4FD0390049904F09AF82F
:102B2000059003F081FD354A374BCDE9060103F0EE
:102B30006BFACDE90A012B48006803F075FDCDE979
:102B40000801DDE90A2302F0C9FFCDE90C0102F01A
:102B500093FF2449086025482699006803F07CFF0C
:102B6000049020482999006803F076FF02901C48E1
:102B70002899006803F070FF0190029904F06AF848
:102B80000390049903F07CFD059003F04DFD1B4A72
:102B90001D4BCDE9060103F037FACDE90A011248D1
:102BA000006803F041FDCDE90801DDE90A2302F0E8
:102BB00095FFCDE90C0102F05FFF0B4908600A4860
:102BC0002699006803F048FF049006482899006899
:102BD00003F042FF029002482999006816E00000C5
:102BE000980000209C000020A0000020A4000020ED
:102BF0008DEDB5A0F7C6B03EAC0000207B14AE470B
:102C0000E17A743FA8000020E17A643F03F024FFDA
:102C10000190029903F034FD0390049904F01AF82E
:102C2000059003F001FDA24AA24BCDE9060103F095
:102C3000EBF9CDE90A01A048006803F0F5FCCDE905
:102C40000801DDE90A2302F049FFCDE90C0102F099
:102C500013FF9949086008460168006803F0FCFE0C
:102C6000089096480168006803F0F6FE06909448C4
:102C70000168006803F0F0FE049092480168006863
:102C800003F0EAFE0390049903F0FAFC059006991C
:102C900003F0F6FC0790089903F0F2FC099003F0AA
:102CA000C3FCCDE90A0102F067FECDE90C0102F098
:102CB000E3FE2190219803F0B7FC834A834BCDE9D2
:102CC0000C0103F065F900D2FAE57E48219900680D
:102CD00003F044FD7B49086079482199006803F0BE
:102CE0003DFD7749086075482199006803F036FD7D
:102CF0007249086070482199006803F02FFD6E4901
:102D00000860704801684FF0804003F0A5FE06900F
:102D10006A480168069803F09FFE089068480168B9
:102D20004FF0404003F098FE069063480168069813
:102D300003F092FE0790089903F0A2FC099003F0BB
:102D400073FCCDE90A0102F05DFA4FF06632604B88
:102D5000CDE90C0103F058F95E4A03C257480168F7
:102D60004FF0804003F078FE0390544801680398C8
:102D700003F072FE0590524801684FF0404003F0A6
:102D80006BFE03904E480168039803F065FE0490C3
:102D9000059903F05FFF4FF07E51069003F070FC41
:102DA000079003F041FCCDE90A01464801684FF065
:102DB000804003F051FE049041480168049803F0FC
:102DC0004BFE06903D4801684FF0804003F044FE02
:102DD000049039480168049803F03EFE0590069976
:102DE00003F04EFC079003F01FFCCDE90801DDE97C
:102DF0000A2302F04FFC4FF06632354BCDE90C014F
:102E000003F002F9344A03C24FF08040169903F0F0
:102E100023FE05904FF04040189903F01DFE0490EA
:102E2000059903F017FF4FF07E51069003F028FC40
:102E3000079003F0F9FBCDE90A014FF080401499A7
:102E400003F00AFE06904FF08040159903F004FE4F
:102E50000590069903F014FC079003F0E5FBCDE91B
:102E60000801DDE90A2302F015FC4FF06632184B29
:102E7000CDE90C0103F0C8F8184A03C2002213463A
:102E8000154903C903F0BEF908D20022144B1249B8
:102E900003C903F0DFFA104A03C207E00022104B17
:102EA0000D4903C902F01AFE0B4A03C200BF07E531
:102EB0007B14AE47E17A643FA4000020A00000200C
:102EC0009C000020980000208DEDB5A0F7C6B03E14
:102ED00066A64C40B0000020B8000020C0000020D2
:102EE000008066402DE9F04704460D4621682069C0
:102EF00003F0B2FD81462168606903F0ADFD8246B2
:102F0000216803F0A9FD8046A16803F0B9FB0646DD
:102F10003046E16803F0B4FB80464146304603F09A
:102F20001DFC07464946284603F094FE8246394672
:102F300003F092FD8046494603F0A2FB206139462A
:102F40004FF07E5003F086FE8046314603F084FD4C
:102F500060612069BDE8F08770B50546094C0A48F4
:102F6000007800B1094C2146284603F041FE01D209
:102F7000254605E00021284603F03AFD00D2002551
:102F8000284670BD0000C8421402002000004842DC
:102F900070B5002411E0654951F82400644941F8F6
:102FA000240051F8240003F03FFB05462A460B4657
:102FB00060A1644802F006FD641C062CEBDB5C4853
:102FC0000068614908605A4840686049086058488C
:102FD00080685F4908605648C0685E490860544888
:102FE00000695D490860524840695C4908604FF0DB
:102FF00080415748006803F0FBFD0BD34FF0404180
:103000005348006803F0F4FC04D35148006802F010
:1030100081F810B100204E4908604FF080414D48C2
:10302000006803F0E5FD0BD34FF0404149480068CC
:1030300003F0DEFC04D34748006802F06BF810B1DF
:103040000020444908604FF080414348006803F085
:10305000CFFD0BD34FF040413F48006803F0C8FC60
:1030600004D33D48006802F055F810B100203A49F9
:1030700008604FF080413448006803F0B9FD0BD37D
:103080004FF040413048006803F0B2FC04D32E48B2
:10309000006802F03FF810B100202B4908604FF0A3
:1030A00080412A48006803F0A3FD0BD34FF0404154
:1030B0002648006803F09CFC04D32448006802F012
:1030C00029F810B10020214908604FF080412348C1
:1030D000006803F08DFD0BD34FF040411F4800689E
:1030E00003F086FC04D31D48006802F013F810B109
:1030F00000201A49086000211548006803F0F0FB21
:103100000BD000211348006803F0EAFB05D0002132
:103110001148006803F0E4FB06D111A1094802F050
:1031200051FC01201949087070BD00000090010891
:103130003C0200204C6F6164205072616D3A25663C
:103140000D0A0000004C0040200000202400002058
:103150002C00002030000020340000202800002037
:103160006C6F6164206F6666736574206572726F40
:103170007221706C656173652061646A7573742077
:10318000616761696E210D0A0000000038000020AF
:1031900010B51248FFF7C0FA114802F04DFB6B233F
:1031A0000022D0210D48FFF7D7F819230022D021A3
:1031B0000A48FFF7D1F81A230222D0210748FFF767
:1031C000CBF81B230822D0210448FFF7C5F81C23A5
:1031D0000122D0210148FFF7BFF810BD0054004084
:1031E00020A1070000BFFEE77047000070B5002176
:1031F00000230F22C47804B3154C246804F4E0645F
:10320000C4F5E064210AC1F10403CA40447804FA19
:1032100003F184781440214309010E4C0678A1552E
:10322000047804F01F050124AC4005786D11AD0051
:1032300005F1E025C5F8004109E0047804F01F0518
:103240000124AC40044D0678761145F8264070BD47
:103250000CED00E000E400E080E100E00249014301
:10326000024A1160704700000000FA050CED00E012
:1032700030B58BB000200790089009900A90039019
:103280000490059006900090019002900025002483
:103290000DE0274850F8240007A941F8240007A8AA
:1032A00050F8240003A941F82400601CC4B2042C87
:1032B000EFDB002410E003A810F824000DF8140040
:1032C00003A830F82400C0F30720012101EB4401DA
:1032D0000DF80100601CC4B2042CECDB0821684628
:1032E000FEF7BAFB05462846E91705EB11610912FE
:1032F000A5EB0121C9B28DF80810E91705EB1161A2
:10330000090A8DF8091000240DE000BF802109484A
:1033100001F00CFD0028F9D01DF80410054801F05B
:10332000D2FD601CC4B20A2CEFDB0BB030BD000034
:1033300054020020004C00402DE9F04F87B00446B5
:103340000D4616463146284603F084FC8146484621
:10335000216903F07FFC8246504603F065F9364A46
:10336000364BCDE9040102F04FFE074602F084FB24
:103370008246A06903F058F90746314A314B02F002
:1033800043FECDE90201504603F04EF9CDE90001BC
:10339000DDE9022302F0A2FBCDE9040102F06CFB9F
:1033A0008246C4F81090484603F03EF90746264A84
:1033B000264B02F029FECDE90201E06803F034F962
:1033C000CDE90001DDE9022302F088FBCDE904012B
:1033D00002F052FBE0606169E06803F009FC02D290
:1033E0006069E0600BE0606980F000473846E168A2
:1033F00003F0FEFB03D2606980F00040E060C4F897
:1034000018A0D4E9021003F027FB0590504661682C
:1034100003F022FB80464846216803F01DFB41462D
:10342000049003F02DF90746059903F029F9834626
:10343000584607B0BDE8F08FFA7E6ABC7493D83F57
:10344000AE47E17A14AEE33F7B14AE47E17A743FB6
:103450007047000029B1064AD2690243044BDA6181
:1034600004E0034AD2698243014BDA6170470000ED
:103470000010024029B1064A12690243044B1A6146
:1034800004E0034A12698243014B1A61704700004D
:103490000010024029B1064A92690243044B9A6126
:1034A00004E0034A92698243014B9A61704700002D
:1034B0000010024030B500210022002400232D4DD1
:1034C0006D6805F00C0121B1042905D0082923D12C
:1034D00005E0294D056022E0274D05601FE0254DE0
:1034E0006D6805F47012234D6D6805F48034022573
:1034F00005EB92421CB9214D554305600BE01D4D73
:103500006D6805F400351DB11C4D5543056002E0A2
:10351000194D5543056002E0174D056000BF00BF1F
:10352000144D6D6805F0F0010909154D6B5C0568D7
:10353000DD4045600F4D6D6805F4E061090A104DEE
:103540006B5C4568DD4085600A4D6D6805F460512F
:10355000C90A0B4D6B5C4568DD40C560054D6D6863
:1035600005F44041890B074D6B5CC568B5FBF3F56D
:10357000056130BD0010024000127A0000093D00D4
:10358000000000201000002008B501210420FFF7F2
:1035900081FF1020ADF800008DF8030003208DF8A6
:1035A000020069460648FEF755FC4020ADF80000D1
:1035B00004208DF8030069460148FEF74BFC08BD66
:1035C0000008014010B510210548FEF7D0FC0F207F
:1035D00002F032F910210248FEF7C7FC10BD0000CE
:1035E00000080140704710B500F002F810BD00005F
:1035F0000CB50020019000903348006840F4803002
:103600003149086000BF3048006800F40030009085
:103610000198401C0190009818B90198B0F5A06F6E
:10362000F1D12948006800F4003010B10120009069
:1036300001E0002000900098012843D12348006851
:1036400040F01000214908600846006820F003009F
:1036500008600846006840F0020008601A484068A8
:10366000194948600846406848600846406840F488
:10367000806048600846406820F47C104860084636
:10368000406840F4E81048600846006840F08070E8
:10369000086000BF0C48006800F000700028F9D0F6
:1036A0000948406820F00300074948600846406820
:1036B00040F00200486000BF0348406800F00C0082
:1036C0000828F9D10CBD0000001002400020024083
:1036D0002DE9F04704460D46042C01DC012C01DAEB
:1036E000BDE8F087012C06D0022C1CD0032C33D06F
:1036F000042C63D149E0284603F062F98246FFF7C3
:103700002BFC81462F4903F0A7F980462E4903F090
:1037100025F807462D4902F0B3FF064603F030F9BD
:103720002B4908804AE0284603F04AF98246FFF711
:1037300013FC8146274903F08FF98046224903F0A4
:103740000DF80746244902F09BFF064603F018F9DE
:103750001F49091D088031E0284603F031F98246EF
:10376000FFF7FAFB81461B4903F076F980461649BC
:1037700002F0F4FF0746184902F082FF064603F004
:10378000FFF813490831088018E0284603F018F9BB
:103790008246FFF7E1FB81460A4903F05DF9804666
:1037A000094902F0DBFF0746084902F069FF0646B7
:1037B00003F0E6F806490C31088000BF00BF00BFE7
:1037C0008EE7000000005C430000C8420000964302
:1037D000342C014000007A4300008743704700000A
:1037E00010B51348006840F0010011490860084610
:1037F0004068104908400E494860084600680E4974
:1038000008400B4908600846006820F480200860E2
:103810000846406820F4FE0048604FF41F008860AE
:10382000FFF7E1FE4FF000600449086010BD0000A2
:10383000001002400000FFF8FFFFF6FE08ED00E078
:10384000F0B50C46154600220021068C4FF6FE7797
:103850003E400684028B018C4FF60C7632407E1C73
:1038600006EA03162E433243104EB0420ED0104EDD
:10387000B0420BD0B0F1804F08D00E4EB04205D010
:103880000D4EB04202D00D4EB04206D14FF6FD763D
:10389000314044F00106314305E04FF6F576314002
:1038A00044F00106314302830184F0BD002C014045
:1038B000003401400004004000080040000C0040BB
:1038C000F0B50C461546002200210026078C4FF665
:1038D000EF7C07EA0C070784028B018C4FF6FF7719
:1038E00007EA041640F6FF473A404FF6FF7707EA2B
:1038F00003373A434FF6FF7707EA05273A43114F5C
:10390000B8420ED0104FB8420BD0B0F1804F08D063
:103910000E4FB84205D00E4FB84202D00D4FB842FC
:1039200006D14FF6DF77394046F01007394305E0FE
:103930004FF65F77394044F0100739430283018422
:10394000F0BD0000002C01400034014000040040A4
:1039500000080040000C0040F0B50C46154600225F
:1039600000210026078C4FF6FF6C07EA0C0707843E
:10397000828B018C4FF6FF7707EA04264FF60C770F
:103980003A404FF6FF7707EA03172F433A43114FA8
:10399000B8420ED0104FB8420BD0B0F1804F08D0D3
:1039A0000E4FB84205D00E4FB84202D00D4FB8426C
:1039B00006D14FF6FF57394046F48077394305E08A
:1039C0004FF2FF57394044F48077394382830184B2
:1039D000F0BD0000002C0140003401400004004014
:1039E00000080040000C0040F0B50C4615460022CF
:1039F00000210026078C4EF6FF7C07EA0C0707849F
:103A0000828B018C4FF6FF7707EA043640F6FF47BA
:103A10003A404FF6FF7707EA05273A434FF6FF771C
:103A200007EA03373A43114FB8420ED0104FB8425D
:103A30000BD0B0F1804F08D00E4FB84205D00E4FDA
:103A4000B84202D00D4FB84206D14DF6FF7739404B
:103A500046F48057394305E047F6FF57394044F4B0
:103A60008057394382830184F0BD0000002C01405F
:103A7000003401400004004000080040000C0040F9
:103A800000B587B001210220FFF7E4FC4FF4FA6093
:103A9000ADF808002320ADF804000020ADF80A00BE
:103AA000ADF8060001A9174800F01AFB0020ADF898
:103AB0001000ADF812000120ADF814000020ADF8A0
:103AC0001600ADF8180004A90E4800F045F91D20B5
:103AD0008DF8000003208DF8010000208DF8020011
:103AE00001208DF803006846FFF780FB01220321C7
:103AF000044800F087F90121024800F0FEF807B001
:103B000000BD00000004004010B50121234800F072
:103B100012F920B122480078401C21490870022186
:103B20001E4800F008F9A0B31E48007870B90020C4
:103B30001B4908700021194800F0A4FA0120194916
:103B400008700221154800F0B3F922E0154800780A
:103B500001281ED1114800F0EBF813490860104805
:103B6000007800EB4001C1EBC0100F49096801EB80
:103B700000100D490860002009490870002107481D
:103B800000F080FA0020074908700021034800F087
:103B90008FF90321014800F0ADF810BD000400408A
:103BA0001800002019000020340200201CB501215B
:103BB000244800F0C0F8002842D00121214800F03C
:103BC00099F8002201211F4800F01CF91E480068E6
:103BD000012806D0022809D0032818D004281ED1B5
:103BE00018E0FEF74BFAFEF7C5F919E01748006830
:103BF00017490968CDE9001016480368164802689D
:103C00001648016816480068FEF7EAFD08E0FDF76F
:103C1000E7FF05E0FFF7D6FCFEF7DEFA00E000BFA5
:103C200000BF09480068401C052190FBF1F201FB30
:103C300012000549086001221146024800F0E2F82E
:103C40001CBD0000001000401C0000205800002097
:103C5000540000205000002064000020600000207C
:103C60005C0000201FB504462048844203D0204851
:103C7000844200D01FBD1D48844207D1012110207D
:103C8000FFF7E8FB36208DF80C0009E01848844265
:103C900006D101212020FFF7DDFB37208DF80C0035
:103CA00000208DF80D0001208DF80E008DF80F001A
:103CB00003A8FFF79BFA4FF4FA60ADF80400232045
:103CC000ADF800000020ADF80600ADF8020069462E
:103CD000204600F005FA01221146204600F092F835
:103CE0000121204600F009F800BFC3E700100040A2
:103CF00000140040CA430282704721B1028842F09A
:103D00000102028004E002884FF6FE731A4002802E
:103D1000704731B1B0F8442042F40042A0F844208A
:103D200005E0B0F84420C2F30E02A0F8442070472A
:103D30000146888E704730B50246002000230024DB
:103D4000158A05EA0103958905EA010413B10CB14E
:103D5000012000E0002030BD70B505460C46244827
:103D600085420ED0234885420BD0B5F1804F08D054
:103D70002148854205D02148854202D0204885420D
:103D800000D100E000BF208850B92389A288618853
:103D90002846FFF755FDE188284600F075F925E033
:103DA000208804280AD12389A28861882846FFF741
:103DB00087FDE188284600F070F917E02088082880
:103DC0000AD12389A28861882846FFF7C5FDE188CA
:103DD000284600F06FF909E02389A2886188284607
:103DE000FFF702FEE188284600F06DF970BD000083
:103DF000002C014000340140000400400008004055
:103E0000000C00401AB183890B43838102E083894F
:103E10008B4383817047000070B50024002200238B
:103E2000058C4FF6FE7635400584028C8388048B22
:103E30004FF68F752C40B51E2C400D882C43751EF7
:103E40002A400D892A434D882A43144DA8420BD09D
:103E5000134DA84208D0134DA84205D0124DA842D8
:103E600002D0124DA84213D14FF6F7752A404D8962
:103E70002A434FF6FB752A408D882A434FF6FF658B
:103E80002B404FF6FF552B408D892B43CD892B437B
:103E900083800483CD888586028470BD002C014018
:103EA000003401400040014000440140004801400E
:103EB0000A460021018C4FF6FD731940114301841D
:103EC0007047000070B5002400220023058C4FF6D7
:103ED000EF7635400584028C8388048B48F6FF75A5
:103EE0002C404FF6FF452C400D884FF6FF7606EA32
:103EF00005252C434FF6DF752A400D8906EA051586
:103F00002A434D8806EA05152A43154DA84202D0DA
:103F1000144DA8421DD14FF67F752A404D894FF6AA
:103F2000FF7606EA05152A434FF6BF752A408D88AD
:103F300006EA05152A434FF6FF352B404FF2FF7571
:103F40002B408D8906EA85052B43CD8906EA850538
:103F50002B4383800483CD880587028470BD0000D5
:103F6000002C01400034014070B5002400220023E1
:103F7000058C4FF6FF6635400584028C8388848B60
:103F80004FF68F752C404FF6FC752C400D882C4356
:103F90004FF6FF552A400D894FF6FF7606EA0525B4
:103FA0002A434D8806EA05252A43154DA84202D02A
:103FB000144DA8421DD14FF2FF752A404D894FF68E
:103FC000FF7606EA05252A434FF6FF352A408D88FD
:103FD00006EA05252A434EF6FF752B404DF6FF7580
:103FE0002B408D8906EA05152B43CD8906EA051578
:103FF0002B4383808483CD888587028470BD000035
:10400000002C01400034014070B500220023002440
:10401000058C4EF6FF7635400584038C8488828BB0
:1040200048F6FF752A404FF6FF452A400D884FF6A7
:10403000FF7606EA05252A434DF6FF752B400D89CC
:1040400006EA05352B434D8806EA05352B430B4D13
:10405000A84202D00A4DA84208D14BF6FF752C4069
:104060008D894FF6FF7606EA85152C43848082837E
:10407000CD88A0F84050038470BD0000002C0140A2
:104080000034014081847047028B4FF6F3731A406D
:104090000283028B0A4302837047028B4FF2FF3385
:1040A0001A400283028B4FF6FF7303EA01231A437F
:1040B00002837047828B4FF6F3731A408283828BA0
:1040C0000A4382837047828B4FF2FF331A40828308
:1040D000828B4FF6FF7303EA01231A4382837047F2
:1040E000002202881D4B98420ED01D4B98420BD0E7
:1040F000B0F1804F08D01B4B984205D01A4B984224
:1041000002D01A4B984204D14FF68F731A404B8855
:104110001A43174B984207D0164B984204D04FF6DB
:10412000FF431A40CB881A4302808B8883850B8813
:1041300003850A4B98420BD0094B984208D00E4B8E
:10414000984205D00D4B984202D00D4B984201D1B8
:104150000B7A03860123838270470000002C014004
:10416000003401400004004000080040000C004002
:104170000010004000140040004001400044014095
:104180000048014000B58BB040F22551FE4800F0D8
:10419000DAFD00286FD040F22551FB4800F0ABFD5E
:1041A000F94800F08BFEC0B20A900A9868287DD0CA
:1041B00023DC38287BD00DDCA0F13000082877D232
:1041C000DFE810F012050E042D04BC04BF04C20485
:1041D000C504FA04642837D008DC392869D061287E
:1041E00068D0622867D0632862D179E265287DD0E3
:1041F000662838D06728F7D154E369381228DED210
:10420000DFE810F0FD00560012033103DF02AC02BC
:104210002D01420086007A013A001200BE038D0291
:10422000FA0439028E039701D848007808B90120B2
:1042300000E00020D54908700020D549C860D5A10C
:10424000D14801F0BFFB15E2D648007808B901203B
:1042500000E00020D349087008460278D2A1CA487D
:1042600001F0B0FBEFE70120D3490870D3A1C648A5
:1042700001F0A8FBE7E7E9E30020CF490870D3A1EC
:10428000C14801F09FFBDEE7D3480068059002F0CB
:10429000CBF9D24AD24BCDE9060101F01FFCCDE9A2
:1042A000080101F0E9FBCC49086005E019E3CEE321
:1042B000CEE3CEE367E084E0CA480068059002F0F0
:1042C000B3F9C64AC64BCDE9060102F0C3F8CDE901
:1042D000080101F0D1FBC3490860BF4800680590A0
:1042E00002F0A2F9CDE90801BE4800E0E7E000686D
:1042F000059002F099F9CDE90601DDE90801CDE963
:104300000001B9A1A048DDE9062301F05BFB9AE7B3
:10431000B1480068059002F087F9B04AB04BCDE98A
:10432000060102F097F8CDE9080101F0A5FBAA49C2
:104330000860AC480068059002F076F9A74AA84BDF
:10434000CDE9060101F0CAFBCDE9080101F094FBBB
:10435000A4490860A0480068059002F065F9CDE91D
:104360000801A0480068059002F05EF9CDE9060159
:10437000DDE90801CDE900019BA18348DDE90623C1
:1043800001F020FB5FE79F48006802F04DF94FF015
:1043900033329D4BCDE9060101F0A0FBCDE90801C8
:1043A00001F06AFB974908600846006802F03CF992
:1043B00002460B46CDE9080194A1734801F002FBC7
:1043C00041E79048006802F02FF94FF033328E4BEE
:1043D000CDE9060102F03EF8CDE9080101F04CFB01
:1043E000884908600846006802F01EF902460B463C
:1043F000CDE9080185A1644801F0E4FA23E7874884
:104400004068059002F010F9854A864BCDE9060117
:1044100001F064FBCDE9080101F02EFB7F49486003
:1044200081484068059002F0FFF87D4A7D4BCDE958
:10443000060101F053FBCDE9080101F01DFB7A49AB
:10444000486076484068079002F0EEF802460B4656
:10445000CDE9080175A14C4801F0B4FAD5E36F48E5
:104460004068059002F0E0F86D4A6E4BCDE9060118
:1044700001F0F0FFCDE9080101F0FEFA674948605C
:1044800069484068059002F0CFF8654A654BCDE970
:10449000060101F0DFFFCDE9080101F0EDFA624904
:1044A00048605E484068079002F0BEF802460B463E
:1044B000CDE908015DA1344801F084FAA5E3624822
:1044C000006802F0B1F8564A564BCDE9060101F0FA
:1044D00005FBCDE9080101F0CFFA5B490860084609
:1044E000006802F0A1F802460B46CDE9080157A189
:1044F000254801F067FA88E35348006802F094F811
:10450000474A484BCDE9060101F0A4FFCDE9080177
:1045100001F0B2FA4C4908600846006802F084F8DD
:1045200002460B46CDE9080148A1174801F04AFAB6
:104530006BE33A488068059002F076F8384A394BC8
:10454000CDE9060101F086FFCDE9080101F094FAFA
:104550003249886034488068059002F065F8304A36
:10456000304BCDE9060101F075FFCDE9080101F0FE
:1045700083FA2D49886000202849C8602A49C8600C
:104580002648806807906BE0004C00401502002030
:10459000F001002053454E44206368616E67652139
:1045A0000D0A00001402002044656275673D20205A
:1045B00025640D0A0000000014010020737461726C
:1045C0007420666C79210D0A0000000073746F700E
:1045D00020666C79210D0A00640100207B14AE472F
:1045E000E17A843F8001002070697463685F503D08
:1045F000256620202020726F6C6C5F503D25662060
:104600000D0A0000180100203333D33F6261736547
:104610005F647574793D25660D0A0000B8010020BD
:104620009A9999999999B93F9C010020414E474C1C
:10463000455F53504545445F585F5049442E4B44B5
:104640003D25660D0A000000F0000020726F6C6CC2
:104650005F7461726765743D25660D0A0000000095
:1046600001F0E2FF02460B46CDE90801F9A1FE4840
:1046700001F0A8F9C9E2FD488068059001F0D4FF77
:10468000FB4AFC4BCDE9060101F028FACDE908010F
:1046900001F0F2F9F5498860F7488068059001F06B
:1046A000C3FFF34AF34BCDE9060101F017FACDE958
:1046B000080101F0E1F9F04988600020EB49C86089
:1046C000ED49C860E9488068079001F0ADFF0246F7
:1046D0000B46CDE90801DFA1E34801F073F994E24C
:1046E000E6480068059001F09FFFE14AE14BCDE903
:1046F000060101F0F3F9CDE9080101F0BDF9DF4948
:10470000086008460068079001F08EFF02460B46DD
:10471000CDE90801DAA1D44801F054F975E2D7488F
:104720000068059001F080FFD14AD24BCDE9060127
:1047300001F090FECDE9080101F09EF9CF49086033
:1047400008460068079001F06FFF02460B46CDE96E
:104750000801CBA1C44801F035F956E2CB48806886
:10476000059001F061FFCA4ACA4BCDE9060101F08C
:10477000B5F9CDE9080101F07FF9C4498860084620
:10478000806801460990C44801F0E8FFBF494861CC
:1047900008464069059001F047FFCDE90801BB4894
:1047A0008068059001F040FFCDE90601DDE90801D0
:1047B000CDE90001B9A1AC48DDE9062301F002F919
:1047C00023E2B2488068059001F02EFFB04AB14B59
:1047D000CDE9060101F03EFECDE9080101F04CF9FA
:1047E000AA4988600846806801460990AA4801F0F5
:1047F000B5FFA649486108464069059001F014FFDD
:10480000CDE90801A1488068059001F00DFFCDE9D0
:104810000601DDE90801CDE90001A0A19248DDE92A
:10482000062301F0CFF8F0E198480068059001F008
:10483000FBFE8F4A8F4BCDE9060101F04FF9CDE920
:10484000080101F019F991490860084600680790CD
:1048500001F0EAFE02460B46CDE9080199A1824823
:1048600001F0B0F8D1E189480068059001F0DCFE64
:104870007F4A804BCDE9060101F0ECFDCDE908014E
:1048800001F0FAF88149086008460068079001F0D5
:10489000CBFE02460B46CDE908018AA1724801F021
:1048A00091F8B2E179484068059001F0BDFE704A88
:1048B000704BCDE9060101F011F9CDE9080101F0D5
:1048C000DBF87249486008464068079001F0ACFE8A
:1048D00002460B46CDE908017FA1634801F072F85A
:1048E00093E16A484068059001F09EFE604A614B82
:1048F000CDE9060101F0AEFDCDE9080101F0BCF8FB
:104900006249486008464068079001F08DFE024603
:104910000B46CDE9080170A1534801F053F874E14A
:1049200052480068059001F07FFE514A514BCDE995
:10493000060101F08FFDCDE9080101F09DF84B491A
:1049400008604D480068059001F06EFE484A494BEA
:10495000CDE9060101F07EFDCDE9080101F08CF8FA
:104960004549086041480068079001F05DFE024635
:104970000B46CDE908015DA13B4801F023F844E175
:104980003A480068059001F04FFE394A394BCDE9AD
:10499000060101F0A3F8CDE9080101F06DF83349F3
:1049A000086035480068059001F03EFE304A314B02
:1049B000CDE9060101F092F8CDE9080101F05CF8BB
:1049C0002D49086029480068079001F02DFE024635
:1049D0000B46CDE9080145A1234800F0F3FF14E19F
:1049E00049484068059001F01FFE484A484BCDE910
:1049F000060101F073F8CDE9080101F03DF84249E4
:104A0000486008464068079001F00EFE02460B46DB
:104A1000CDE908013FA1144800F0D4FFF5E03A4881
:104A20004068059001F000FE384A394BCDE9060197
:104A300001F010FDCDE9080101F01EF8324948608F
:104A400008464068079001F0EFFD6DE0DEE0BBE056
:104A5000DAE0C1E0616E676C655F73706565645F25
:104A60006B693D25660D0A00004C0040B80100202E
:104A70009A9999999999B93F9C010020D4010020F5
:104A80007961775F4B503D25660D0A00F0010020EB
:104A9000FCA9F1D24D62503F000048426865696749
:104AA00068745F4B493D25662020202020486569B9
:104AB0006768745F5049442E695F6D61783D256673
:104AC0000D0A00004865696768745F5049442E4BC1
:104AD000503D25660D0A00004865696768745F509F
:104AE00049442E4B443D25660D0A0000414E474C7B
:104AF000455F53504545445F585F5049442E4B50E5
:104B00003D25660D0A000000640100207B14AE47BD
:104B1000E17A843F526F6C6C5F5049442E4B443DA8
:104B200025660D0A0000000002460B46CDE908018B
:104B3000AFF22001364800F045FF66E0FCF7AAFE20
:104B400063E0FEF725FA60E000F048FA5DE03148E6
:104B5000007808B9012000E000202E4908700846BE
:104B6000007820B12CA12A4800F02CFF23E02FA1CF
:104B7000274800F027FF3448006801F055FDCDE9D3
:104B800008013248006801F04FFDCDE906013048C8
:104B9000006801F049FDCDE90401DDE90801CDE936
:104BA0000201DDE90601CDE900012AA11848DDE98D
:104BB000042300F007FF28E02D482E4908602EA1AD
:104BC000134800F0FFFE20E000202A4908602FA1D2
:104BD0000F4800F0F7FE18E000203149086031A1CD
:104BE0000B4800F0EFFE10E032482D49086032A17A
:104BF000074800F0E7FE08E033483449086034A174
:104C0000034800F0DFFE00E000BF00BF0BB000BDB6
:104C1000004C0040CC00002061646A757374206110
:104C20006363207374617274210D0A0061646A7594
:104C30007374206163632073756363657373667552
:104C40006C210D0A00000000280000202400002034
:104C500020000020415F58303A25660D0A415F5917
:104C6000303A25660D0A415F5A303A25660D0A0032
:104C700000002041F0000020726F6C6C5F74617264
:104C8000676574203D313021210D0A00726F6C6C14
:104C90005F746172676574203D3021210D0A000048
:104CA00010010020726F6C6C5F6F7574203D3021B5
:104CB000210D0A000000A040726F6C6C5F6F75746C
:104CC000203D3521210D0A000000F041180100208F
:104CD000626173652064757479203D333021210D44
:104CE0000A00000001F40072B2F5007F00D100BF9D
:104CF000CA430280704710B50022002340F66A14B0
:104D0000A14200D100BF0A1201249440A3B2DC43A7
:104D1000048010BD21B1828942F40052828104E0F6
:104D200082894DF6FF731A40828170470246002047
:104D3000B1F5007F00D100BF13880B400BB10120FB
:104D400000E00020704770B50246002400230025D3
:104D5000002040F66A16B14200D100BFC1F34215EF
:104D600001F01F03012606FA03F3012D02D19689F3
:104D7000334006E0022D02D1168A334001E0968AC4
:104D800033400C12012606FA04F41688344013B19D
:104D90000CB1012000E0002070BDF0B503460024F6
:104DA00000260025002040F66A17B94200D100BF56
:104DB0001846C1F3421401F01F06012707FA06F551
:104DC000012C01D10C3004E0022C01D1103000E0A4
:104DD00014301AB107682F43076002E00768AF4339
:104DE0000760F0BD2DE9F04786B005460E46002469
:104DF000A24600BFA1460027B08900B100BF2F46E0
:104E00002C8A4CF6FF700440F08804432C82AC8955
:104E10004EF6F3100440B088318908437189084385
:104E20000443AC81AC8A4FF6FF400440B089044390
:104E3000AC8201A8FEF73EFB1F48874202D1DDF895
:104E400010A001E0DDF80CA0A88900F4004040B1FA
:104E50000AEBCA0000EB0A1031684900B0FBF1F818
:104E600007E00AEBCA0000EB0A1031688900B0FBCA
:104E7000F1F86420B8FBF0F004012009642101FB83
:104E80001089A88900F4004040B1322000EBC9002D
:104E9000B0FBF1F000F00700044308E0322000EB23
:104EA00009106421B0FBF1F000F00F0004432C81E5
:104EB00006B0BDE8F0870000003801400146888850
:104EC000C0F308007047C1F308028280704700BF3A
:104ED000FEE7000030B587B004460D46029500207D
:104EE000ADF80C00ADF80E00ADF81000ADF81400F0
:104EF0000C20ADF812004FF4E060FEF7AFF900208F
:104F00008DF8060001208DF807003048844225D135
:104F100001210420FEF7BEFA01218803FEF7BAFA48
:104F200018208DF81B0003208DF81A006015ADF8CD
:104F3000180006A92648FCF78DFF2015ADF81800CB
:104F400048208DF81B0006A92148FCF783FF252087
:104F50008DF8040001A8FEF749F927E01D488442B6
:104F600024D101211020FEF795FA0121C804FEF793
:104F700071FA18208DF81B0003208DF81A002015F7
:104F8000ADF8180006A91448FCF764FFE014ADF86A
:104F9000180048208DF81B0006A90F48FCF75AFF9F
:104FA00034208DF8040001A8FEF720F902A920465C
:104FB000FFF718FF01212046FFF7ACFE012240F267
:104FC00025512046FFF7E9FE07B030BD003801400B
:104FD00000080140004C0040001001402DE9F04164
:104FE000FCF7DEFD3520FCF755FD2E48FCF758FD9B
:104FF00080462D4801682D48006801F041FB0646B7
:105000004FF0804101F0AAFB294908602948016856
:105010002948006801F034FB06464FF0804101F05A
:105020009DFB26490860264801682648006801F073
:1050300027FB06464FF0804101F090FB22490860B3
:105040001B480068214908601C48006848602048E7
:10505000006888601F480068C8601F4800680861D1
:10506000194800684861002416E0184850F8245098
:105070000C4901EB84002946FCF75CFD804613498E
:1050800051F8240001F0D0FA064632460B4613A12F
:10509000154800F097FC641C062CE6DBFCF740FD8D
:1050A000BDE8F08100900108D4000020D00000206D
:1050B00020000020DC000020D80000202400002078
:1050C000E4000020E0000020280000203C02002036
:1050D0002C0000203000002034000020777269741A
:1050E000652025660D0A0000004C0040490050EA8A
:1050F000C12018BF04204A0D18BF40F0010040F243
:10510000FF72B2EB515F08BF40F00200012808BFF8
:1051100005207047014621F00040C0F1FF40C00F5C
:1051200070472DE9F0414F1E00EBC7010446D1E95D
:10513000000115461E4637F006020DD02A463346BA
:1051400000F062FF7F1E04EBC703D3E9002300F0E9
:10515000C5FC37F00602F1D1022F25D0042F13D061
:10516000062F18BFBDE8F0812A46334600F04CFFF9
:10517000D4E90A2300F0B2FC2A46334600F044FF8B
:10518000D4E9082300F0AAFC2A46334600F03CFF8D
:10519000D4E9062300F0A2FC2A46334600F034FF8F
:1051A000D4E9042300F09AFC2A46334600F02CFF91
:1051B000D4E9022300F092FC2A46334600F024FF93
:1051C000D4E90023BDE8F04100F088BC012201F0E1
:1051D000EABD00F083BC002213461046114600F0E1
:1051E00039BD0000024A0020110701F0DCBD0000BB
:1051F00001FDFFFF30380A2801D20120704700204E
:10520000704700002DE9F04D8D4F21F0004A86B027
:1052100005460C46BA452ADBAAEB070028430AD00C
:105220008848824501DC1AD1CDB106B02846BDE8D8
:10523000F04DFFF7CBBF844A844B284600F0E4FED4
:1052400007460E46824A834B2846214600F0DCFE84
:1052500006B03A463346BDE8F04D00F03FBC0120B1
:10526000FBF76CF806B0BDE8F04DFFF7B4BF7A4825
:10527000824542DABAF1795F0BDA2846FFF736FF4A
:10528000042808BFFFF7AEFF284606B02146BDE858
:10529000F08D2A460B46104600F0B6FE83460246C5
:1052A0006E480E460B4606217844FFF73AFF5A46F1
:1052B000334600F0A9FE804669488A465A4633467E
:1052C00004217844FFF72DFF5A46334600F09CFE38
:1052D00000223B4600F002FC02460B464046514687
:1052E00000F0B8FC2A46234600F08EFE06B02A469F
:1052F0002346BDE8F04D00F0F1BB284624F0004104
:1053000000223D463B4600F0B3FF4FF0FF3201F074
:105310004AFD0646024653480F460B46062178448E
:10532000FFF7FFFE32463B4600F06EFECDE900017E
:105330004D4832463B4604217844FFF7F2FE3246A0
:105340003B4600F061FE00222B4600F0C7FB83467F
:1053500002913046394600F00FFB804643480D4627
:10536000504517DCDDE900015A46029B00F072FC53
:1053700042462B4600F048FE42462B4600F0AEFB6C
:10538000012201F010FD304A304B01F063F8304A41
:10539000304B4CE04FF0000A52460B46404600F0BE
:1053A0009DFBCDE9031052462B461046194600F0EE
:1053B0002BFE32463B4600F05BFFDDE9033200F096
:1053C00049FC06460F46DDE900015A46029B00F003
:1053D00041FC8346009101223046394601F0E3FC4E
:1053E000194A1A4B00F044FF06460F460122404678
:1053F000294601F0D8FC5A46009B00F005FE3246D3
:105400003B4601F027F806460F4601225046294642
:1054100001F0C9FC0E4DDFF858802A46434600F0E3
:1054200027FF32463B4600F023FF2A46434600F062
:105430001FFF002CD8BF81F0004106B0BDE8F08D01
:105440000000F03F0000F07F075C143326A6913C7B
:10545000182D4454FB21F93F0000E03F8C1B000055
:10546000A21B0000161B00002C1B00003333EF3F73
:10547000FB21E93F2DE9F84F04460D4621F000409D
:1054800000917349814211DC7249884201DC06D1E6
:105490002CB120462946BDE8F84FFFF797BE6E486D
:1054A000002DCCBF6D496E49BDE8F88F6D49814232
:1054B00011DD6D498142D8BF4FF0FF366DDD2046CA
:1054C0002946FFF713FE042808BFFFF78BFE20468E
:1054D0002946BDE8F88F6549654F25F000458142B2
:1054E00033DD6449814219DD002632464FF08043A6
:1054F0002046294600F0F2FA80468A4601222046DC
:10550000294601F050FC00223B4600F0A3FF424632
:10551000534600F09FFB04460D463EE00126002264
:10552000BA463B462046294600F0D8FA80460F4648
:10553000002253462046294600F08CFF42463B4657
:1055400000F088FB04460D4627E04B4981421BDDF5
:10555000DFF828A10226002253462046294600F003
:1055600053FD00223B4600F0B9FA80460F46002268
:1055700053462046294600F06DFF42463B4600F068
:1055800069FB04460D4608E0032622462B46002010
:105590003B4900F05FFB04460D4622462B46104671
:1055A000194600F031FD8B46824602460B4600F05C
:1055B0002BFD07460246334888460B4606217844B1
:1055C000FFF7AFFD52465B4600F01EFD82462E48B7
:1055D0008B463A46434605217844FFF7A2FD3A46FA
:1055E000434600F011FD02460B46002E5046594638
:1055F0000CDA00F073FA22462B4600F005FD01B0EC
:1056000022462B46BDE8F04F00F032BE00F066FAAD
:1056100022462B4600F0F8FC1C4A7A4402EBC603F3
:10562000D3E9002300F016FF22462B4600F012FFBC
:10563000174A7A4402EBC603D3E9002300F018FEB0
:10564000009A002AB8BF81F00041BDE8F88F000041
:10565000000010440000F07F182D4454FB21F93F56
:10566000FB21F9BF0000DC3F0000203E0000F33FBB
:105670000000F03F0000E63F008003400000F83FDC
:105680000000F0BF7619000034190000D2180000A5
:105690009A1800002DE9F04D9446CCF1000423F057
:1056A00000464CEA0404524F46EAD4749A468846AF
:1056B00021F00042BC4206D8454240EA050442EAD5
:1056C000D474BC4204D9BDE8F04D6246FFF781BDF9
:1056D000AAF14055A5F17F6555EA0C040BD00224D0
:1056E00004EAAA74434DDFF810E144EAD87452EAA0
:1056F000000B04D00CE0BDE8F04DFFF7BBBE002C62
:1057000014BF012CBDE8F08D022C30D0032C32D018
:1057100056EA0C0B0AD0BE4220D1BA4209D126F07B
:10572000804622F080423346114617E000291ADBFA
:1057300025E0DFF8C8B0FB44002C04BFDBE9000122
:10574000BDE8F08D012C02BFDBE9000181F00041D2
:10575000BDE8F08D022C0AD0032C0CD0BA4212D135
:10576000B8F1000F0BDA23482549BDE8F08D284633
:105770002449BDE8F08D28467146BDE8F08D1D48EE
:105780002149BDE8F08D921B12153C2AC4BF19486F
:105790001D490EDCBAF1000FBEBF12F13C0F002014
:1057A000014606DB624600F055FA21F00041FFF7A2
:1057B00061FE002C08BFBDE8F08D012C04BF81F014
:1057C0000041BDE8F08D114A114B022C07D000F0CA
:1057D00041FE2A46BDE8F04D0A4B00F03BBE00F00A
:1057E00039FE2A46BDE8F04D064B00F041BD0000F1
:1057F0000000F07F182D4454FB2109C02E18000032
:10580000FB21F9BFFB210940FB21F93F075C143361
:1058100026A6A13C4FF0E021096921F004014FF0D8
:10582000E02211610146C21700EB5272D210014B07
:105830001A607047E800002001460D4A12684A438A
:105840004FF0E0235A6100229A6101221A6100BFE1
:105850004FF0E022106900F001021AB100F480322A
:10586000002AF5D000224FF0E0231A619A617047B8
:10587000E8000020FDF7B4FF4FF4E1312548FFF7C1
:1058800029FB25A1234800F09DF84820FFF7C2FF1F
:10589000FDF77EFC2448FEF7E5F9FEF7F1F8FDF789
:1058A00073FEFCF76BF8FDF773FB20A1194800F0BD
:1058B00089F82DE02148007850B32149C868214972
:1058C00001F0CAF8074601F03FF804461C49886910
:1058D0001C4901F0C1F8074601F036F805460022E0
:1058E000194B1A4903C900F08FFB074600F00AFB69
:1058F00006460022144B164903C900F085FB0746F3
:1059000000F000FB814623462A46314600F022F88B
:10591000D0E70000004C004048656C6C6F2C776F3E
:10592000726C64210D0A000000100040696E202096
:105930006974206F6B210D0A000000001502002021
:10594000B80100200000C84200002440B800002038
:10595000B00000202DE9F04107460C4615461E46D2
:105960000448076044608560C660FDF781FCBDE8BF
:10597000F0810000540200202DE9F04106460F4658
:1059800000F082FC041E0D4618BF0120284320F0C1
:105990000040C0F17F6000F1E040C00F0ED0301C2D
:1059A00018BF0120384320F00040C0F17F6000F1B3
:1059B000E040C00F04BF0120FAF7C0FC2046294692
:1059C000BDE8F0810FB430B59BB00546002420A897
:1059D0000090652101A8009B1F9AFAF78DFC802199
:1059E0002846FFF77FF90EE000BF80212846FFF729
:1059F0009DF90028F9D02046621CD4B201AA115C9E
:105A00002846FFF760FA642C03DA01A8005D00283D
:105A1000EAD1002000901BB030BC5DF814FB000000
:105A200010B500290AD00878002807D00548784426
:105A3000FBF72EFB002801D0002010BD024878445F
:105A400010BD0000F6150000EE15000010B500298D
:105A50000AD00878002807D005487844FBF718FBDF
:105A6000002801D0002010BD0248784410BD00007D
:105A7000E6150000DE15000021F00042A2F16052A0
:105A8000B2F5801F01F0004328BFD2F17F6C0BD923
:105A90005FEA001C43EAC20242EB507018BF704735
:105AA00028BF20F001007047B2F5801FBCBF184628
:105AB00070474FEA410C1CF5001F02D2084601F066
:105AC00092B870B500F04AFB00000089FFF7F6BFFE
:105AD0004FF00040A0F580007047000010B591EA3B
