:020000040800F2
:10000000F0120020B9020008E5300008FD210008C8
:10001000E1300008791A00086F4E00080000000067
:10002000000000000000000000000000C1340008D3
:10003000B71A0008000000004D330008B936000868
:10004000D3020008D3020008D3020008D30200083C
:10005000D3020008D3020008D3020008D30200082C
:10006000D3020008D3020008D3020008D30200081C
:10007000D3020008D3020008D3020008D30200080C
:10008000D3020008D3020008D3020008D3020008FC
:10009000D3020008D3020008D3020008D3020008EC
:1000A000D3020008D3020008D3020008D3020008DC
:1000B000D3020008E5390008D3020008D302000883
:1000C000D3020008D3020008D3020008D3020008BC
:1000D000D3020008D3020008D3020008D3020008AC
:1000E000D3020008D3020008D3020008D30200089C
:1000F000D3020008D3020008D3020008D30200088C
:10010000D3020008D3020008D3020008D30200087B
:10011000DD400008D3020008893A0008D302000835
:10012000D3020008D3020008D3020008D30200085B
:1001300000F002F800F0B0F80AA090E8000C824449
:100140008344AAF10107DA4501D100F0A5F8AFF226
:10015000090EBAE80F0013F0010F18BFFB1A43F0A5
:100160000103184760700000807000000A444FF0DF
:10017000000C10F8013B13F0070408BF10F8014B06
:100180001D1108BF10F8015B641E05D010F8016B4B
:10019000641E01F8016BF9D113F0080F1EBF10F8AF
:1001A000014BAD1C0C1B09D16D1E58BF01F801CBD2
:1001B000FAD505E014F8016B01F8016B6D1EF9D555
:1001C0009142D6D37047000000230024002500266A
:1001D000103A28BF78C1FBD8520728BF30C148BFAA
:1001E0000B6070476E2900F04D81702900F09782F6
:1001F000662906F08686652906F08386672906F05B
:1002000080866129AFF3008003681B0A28BF41F094
:100210008001692900F0FA80642900F0F7807529CF
:1002200000F0F4806F2900F02582782900F06382C5
:10023000E92900F0BF81E42900F0BC81F52900F034
:10024000B981EF2900F02282F82900F06282036868
:10025000DB0928BF41F08001632900F0E88573299C
:1002600000F0ED85E32900F0F885F32900F0FD8525
:10027000002070471FB500F04FFE04000020002151
:1002800005F010FD401C60600020002105F0F4FC2A
:10029000E0601FBD10B510BD00F010FE1146FFF765
:1002A000E9FF05F07FFA00F0E9FE03B4FFF7F2FF83
:1002B00003BC00F02DFF00000948804709480047B3
:1002C000FEE7FEE7FEE7FEE7FEE7FEE7FEE7FEE706
:1002D000FEE7FEE704480549054A064B7047000063
:1002E000BD36000831010008F0020020F0120020A5
:1002F000F00A0020F00A00207CB51D4616460C00CE
:10030000009001D02044401E074B7B442A4669469A
:100310000190304600F0CFF805461CB10020694638
:1003200000F0DCF828467CBDD9010000704770471A
:10033000704710B500F0C2FA006810BD10B5044651
:1003400000F0BCFA046010BD70B504468569006811
:10035000C10601D5302600E02026C00707D070BDB9
:10036000D4E9012130469047206A401C20626D1E6E
:10037000F6D570BD70B5044685690078C00707D111
:1003800070BDD4E9012120209047206A401C2062E2
:100390006D1EF6D570BD09684A0501D540B270479B
:1003A000C905FCD500B2704709684A0501D5C0B23D
:1003B0007047C905FCD580B2704770B50C4605463C
:1003C000012A05D02878800600D5EA69002302E0DA
:1003D000012305E05B1C934202D2E05C0028F9D1C6
:1003E000A869E618C01AA861286A18442862284635
:1003F000FFF7AAFF04E0D5E9012114F8010B9047AB
:10040000B442F8D32846FFF7B5FF70BD2DE9F0419F
:100410000646002410687529314616A510D0FFF74E
:10042000BAFF002802DA404213A507E031688A07C4
:1004300001D512A502E0490704D511A5012401E068
:10044000FFF7B2FF00210A2206F1240709E0B0FB02
:10045000F2FCB0FBF2F302FB1C003030785418467B
:10046000491C0028F3D123462A463046BDE8F04116
:1004700000F06DBA000000002D0000002B0000000D
:100480002000000011680268006A530501D5087059
:100490000AE0D30501D5088006E0130603D5C2178C
:1004A000C1E9000200E008600120704701694A1CB0
:1004B00002610878704700B58FB0CDE901310021A5
:1004C000059105497944CDE903101146684600F0CD
:1004D00031F90FB000BD0000E5FFFFFF0A6802F828
:1004E000010B0A607047D1E900239A4202D2531CE3
:1004F0000B601070704700002DE9FF5F15468A46BB
:100500000446DFF8AC80F8440027D8E900103E46E6
:10051000CDE9001010E03AF816106A4602A800F083
:10052000A8FC411C07D02178890603D5E269391857
:1005300091420DD80744761C2078800602D5E069E8
:10054000B84205DDAE42E6DB3AF816000028E2D1FB
:10055000A069C01BA0612046FFF7F6FED8E9001095
:10056000CDE90010002017E03AF818106A4602A8FA
:1005700000F07FFCB0F1FF3F81460BD000250DF16C
:10058000080B05E0D4E901211BF8050090476D1C1C
:100590004D45F7D308F10100B0428046E4DB206A04
:1005A000384420622046FFF7E5FEBDE8FF9F0000CB
:1005B0003E6B00002DE9F0418046D21D22F007027B
:1005C0000025D2E90002F52915A614D0011E72F10A
:1005D000000106DA0023D0EB030063EB020211A650
:1005E00008E0D8F800108B0701D50FA602E04907F4
:1005F00001D50EA601251146002408F1240704E0C8
:1006000000F060F930323A55641C50EA0102F7D12B
:100610002B46324621464046BDE8F04100F097B9EE
:10062000000000002D0000002B0000002000000052
:1006300030B4002100F1240408E002F00705D208DC
:10064000303542EA4372DB086554491C52EA03051F
:10065000F3D10468002310A2250708D504F0200474
:100660000C4304D0C46901230CA2641EC46130BCD5
:1006700000F06DB910B5044621461068FFF794FEEE
:1006800002462046BDE810400023D1E7D21D22F0EB
:100690000701D1E90023CBE7000000003000000093
:1006A000F0B40D460188090502D5214C7C4402E0D6
:1006B0001F4C7C440E34002100F1240608E002F0B7
:1006C0000F071209E75D42EA03721B097754491CC0
:1006D00052EA0307F3D102780023120704D5702DE4
:1006E00006D009B1022311342246F0BC00F02FB924
:1006F00001231034F8E770B504460D462146106812
:10070000FFF752FE024629462046BDE8704000230E
:10071000C6E7D21D22F00703D3E90023C0E7036830
:10072000126843F0200303600823C3610023B7E786
:10073000A06900002DE9F05F894604464FF0000AE9
:10074000DFF874B1FB44C0F820A02046E168884778
:10075000002874D0252806D0D4E901219047206ACA
:10076000401C2062F1E700265F462046E16888478A
:100770002028054607DB312D05D2781910F8200C0A
:1007800008B10643F1E7B00701D526F00406C4F826
:100790001CA00027C4F818A02A2D09D0284604F070
:1007A000C1FC38B304EB8708303DC8F8185019E095
:1007B00059F8041B204604EB87029161E1688847E1
:1007C000012F054618D1E069002820DA26F020061E
:1007D0001DE0D8F8180000EB800005EB4000303831
:1007E000C8F818002046E1688847054604F09AFCDE
:1007F0000028EED1012F0AD02E2D08D12046E16825
:1008000088477F1C0546022F46F02006C4DBA069FE
:10081000002803DA404246F00106A061F00701D04B
:1008200026F010066C2D0BD0682D09D04C2D39D038
:100830006A2D35D0742D35D07A2D33D016E038E0BE
:10084000E1682F4620468847B842054609D16C2FFB
:1008500026D04FF48060E16806432046884705466D
:1008600004E06C2F1AD04FF4807006430DB3A5F14D
:100870004100192802D8203546F400664A46294628
:10088000204626604E46FFF7ADFC80B101280BD014
:10089000F61D26F0070000F1080956E74020E4E7BE
:1008A0008020D8E70020D6E706F104094DE7284666
:1008B00052E7206ABDE8F09F3069000000487047A9
:1008C0009002002030B5B0F10A024FEA900E71F1AB
:1008D00000034EEA817EB0EB0E0061EB91014FEA1E
:1008E000101E4EEA017E10EB0E0041EB11114FEA93
:1008F000102E4EEA016E10EB0E0041EB11214FEA73
:10090000104E4EEA014E10EB0E0041EB1141401823
:1009100041F100014FEAD00040EA41704FEAD101B5
:1009200010EB80054FEA810444EA907444EB010423
:100930006D1944EB0404521BA3414FF0000348BF60
:100940000A3200D530BD401C41F1000130BD2DE917
:10095000F0470D4699469246044600F12408016886
:10096000880604D5E06921F01001216000E0012033
:10097000A84201DD471B00E00027A1697A1902EBBC
:100980000900081AA0612078C00602D42046FFF7AB
:10099000DBFC002608E0D4E901211AF806009047A4
:1009A000206A401C761C20624E45F4DB2078C0068D
:1009B0000AD52046FFF7C8FC06E0D4E90121302023
:1009C0009047206A401C2062381EA7F10107F4DC22
:1009D00007E0D4E9012118F805009047206A401C7F
:1009E0002062281EA5F10105F3DC2046FFF7C2FCBA
:1009F0002078000602D50220BDE8F0870120FBE741
:100A000070472DE9FF4F0C461E464FF0FF378BB065
:100A1000D2E90001DDF860800A908A46C1F30A55E8
:100A200005B93D46002108464FF00000BAF1000F1D
:100A300000F4400005DA00EB80004FF4400101EAC9
:100A400050004FEA9059B9F1010F00DDB9460A98FC
:100A500050EA4A000ED044F61050A5F2FF35454347
:100A60002F14B8F1000F1ED07542291E1EDDC9F1EA
:100A700000021CE0B8F1010F4FF0000001D030215E
:100A800003E0F24305E02154401CB042FBDB30465A
:100A90000022002121540B99C1F80880C1E90020EF
:100AA0000FB0BDE8F08FBD1B6D1CDEE74A4600DAD3
:100AB000694206A800F074FA06AB93E8070003AB9E
:100AC00083E8070050460A9900F029FB8DE80700EB
:100AD000A0F500501F3800900398002D09DD42F268
:100AE0001F014A46084403A90390684600F088FDA8
:100AF00008E0A0F500504A461F3803A90390684655
:100B000000F092FD8DE807000004000C03D04FF0C8
:100B1000FF30410800E01046B8F1000F03D000227A
:100B2000009215461EE0751E05D4FFF7CBFE30324D
:100B300062556D1EF9D5B3460122084302D000224A
:100B40007F1C04E02078302801D100227F1E002A7B
:100B5000099786D01DE0112D07DAFFF7B3FE30327A
:100B600062556D1C50EA0102F5D1084302D000988D
:100B7000C8B10EE00021681E05E0235C625C63548E
:100B80002254401E491C8142F7DBAB46A81B401E85
:100B90000990002004F80B000B98099AC0F808800F
:100BA000C0E9002B7CE711264FF0000859E72DE93A
:100BB000F04F88460446D21D22F0070191B0D1E9DA
:100BC0000001CDE90A0104F029FA02460B98C00F92
:100BD00001D02D2007E02068810701D52B2002E0FD
:100BE000202101EAC000032A099001D0072A05DB71
:100BF00003464146204600F093F90BE12078800639
:100C000001D5E06900E00620B8F1650F814606D005
:100C1000B8F1660F18D0B8F1670F70D131E000203D
:100C2000B9F1110F009001DB112301E009F101037B
:100C30000AAA01A90CA8FFF7E4FEDDE90C70002662
:100C400009F10105834647E001204B4600904FF033
:100C500000470AAA01A90CA8FFF7D3FEDDE90DB0F1
:100C60000C995D46002610B909F101000D18B9EB89
:100C7000050003D4C0F1FF3609F10105A5EB090019
:100C80002BE0B9F1010F01DA4FF001090020B9F1B1
:100C9000110F0090484601DD112300E003460AAA27
:100CA00001A90CA8FFF7ADFEDDE90C704D4600264A
:100CB0008346207800070AD4AB4500DA5D4601A8D8
:100CC000012D04DD411911F8011C302907D04F45D1
:100CD00002DA17F1040F04DA012082460FE06D1EDC
:100CE000EEE7002F02DCED1B3E4403E0781CA84237
:100CF00000DD7D1CB81B00F1010A4FF00047207891
:100D0000000703D4AA4501DB4FF0FF3A0021B7F1F9
:100D1000004F0DF143088DF8431024D002202B23FF
:100D2000002F01DA7F422D230A21021EA0F10100CB
:100D300000DC5FB197FBF1FC97FBF1F201FB1C7C3F
:100D400017460CF1300C08F801CDEEE7A8F10100D0
:100D500003702188090501D5452100E06521A0F136
:100D6000010800F8011C09980FA9A1EB0807FF1D55
:100D700000B10120411901EBEA70A1693844081A59
:100D8000401EA0612078C00602D42046FFF7DCFA9E
:100D9000099828B1D4E901219047206A401C2062BB
:100DA0002078C00622D52046FFF7CEFA1EE0002E9E
:100DB00004DBB34502DD01A8805D00E03020D4E90A
:100DC00001219047206A401C2062761CAAF1010094
:100DD0005FEA000A0AD100F09FF8C0680168405C31
:100DE000D4E901219047206A401C2062281EA5F109
:100DF0000105DCDC07E0D4E9012118F8010B90477C
:100E0000206A401C2062381EA7F10107F3DC20464F
:100E1000FFF7B0FA032011B043E610B5436913B1F0
:100E2000AFF3008001E0FFF7C8FA012010BD12788F
:100E300000F124010A7000224A700122EDE71168D6
:100E40004FF0FF32E9E710B5436913B1AFF300800B
:100E500001E0FFF751FB012010BD128800F12401D1
:100E600082840022C2840122EDE711684FF0FF3234
:100E7000E9E770B516460C46054600F045F80368EC
:100E800093F80101012806D0FF2C0FD8185D68B136
:100E900001202C7070BDD3F807013246214603F2C1
:100EA000071303442846BDE8704018474FF0FF3051
:100EB00070BD000000487047900200207546FFF7A3
:100EC000F9FFAE4605006946534620F00700854607
:100ED00018B020B5FFF7FEF9BDE820404FF000063E
:100EE0004FF000074FF000084FF0000B21F0070112
:100EF000AC46ACE8C009ACE8C009ACE8C009ACE855
:100F0000C0098D467047000010B500F005F8001DBF
:100F100010BD00BF914D000000487047B002002096
:100F20002DE9F0411F46044603260168072A01F413
:100F3000006004DB08B116A505E016A503E008B1C2
:100F400015A500E015A521F010002060A069C01EC5
:100F5000A0610FB1401EA0612046FFF7F5F94FB127
:100F6000D4E9012138469047206A401C2062C01C09
:100F7000206206E0206AFAE7D4E9012115F8010BA6
:100F80009047761EF8D22046FFF7F4F9BDE8F081CD
:100F90004E414E006E616E00494E4600696E66001D
:100FA0002DE9F047814616468AB0334878440DC88B
:100FB0008DE80D0030487844801C03AC0DC884E8EF
:100FC0000D0041F69B300844372190FBF1F290FB75
:100FD000F1F5A5F1800501FB12041B3C02D564422A
:100FE000012000E00020DFF890A080460027FA44AE
:100FF000AAF1BE0A0DE0E00709D03246684607EBC9
:1010000047010AEB810100F00FFB8DE80700641037
:101010007F1C002CEFD1184F7F44AC3F18E0E8074D
:1010200014D007EB04100DF1180A90E80E008AE8BE
:101030000E00C068F04201D198190890324606A906
:1010400003A800F0F1FA03AB83E807006D10641CFD
:10105000002DE4D132466946B8F1000F03A802D052
:1010600000F0CEFA01E000F0DFFAC9E90001C9F8AA
:1010700008200AB0BDE8F087FC61000010B5044606
:10108000AFF300802046BDE81040FFF70EB9000026
:101090004FF0013C50F8042B51F8043B9A4221D107
:1010A000A2EB0C03934313EACC1317D150F8042B93
:1010B00051F8043B9A4215D1A2EB0C03934313EA77
:1010C000CC130BD150F8042B51F8043B9A4209D1B0
:1010D000A2EB0C03934313EACC13DBD04FF00000D8
:1010E000704700BFD01A01BAB1FA81F101F01801BE
:1010F00022FA01F0CB40C1F12001DBB2C0B2C01A2C
:101100002CFA01F3D11A914311EAC311E6D17047C9
:1011100001491820ABBEFEE72600020070475FEAD7
:10112000400C08BF91F0000F4FEA8C234FEAC12218
:1011300043EA51514FEA1C5018BF00F5F0404FEA06
:10114000300018BF41F000415FEA6C5C00F029807C
:10115000BCF1FF3F08BF40F080407047130C06BF52
:1011600012044FF0100C4FF0000C130E04BF1202CB
:101170000CF1080C130F04BF12010CF1040C930FB7
:1011800004BF92000CF1020CD30F04BF52000CF10B
:10119000010C11464FF00002A0F11F00A0EB0C0063
:1011A000704711F0004F08BF704731F000413FF425
:1011B000D5AF0B0C06BF09044FF0100C4FF0000C1C
:1011C0000B0E04BF09020CF1080C0B0F04BF090140
:1011D0000CF1040C8B0F04BF89000CF1020CCB0F37
:1011E00004BF49000CF1010CCCF12003A0EB0C0072
:1011F00022FA03F302FA0CF241EA030100F10100C2
:10120000704720F07F4C80EA030023F07F47ACEB6F
:10121000070303F57C5300F0004003F1FF032DE9C1
:1012200080494FEA154B09B44FEA144325EA0B4EA7
:1012300024EA03480FF2042606EB132749083E78F8
:101240005FEA320203FB0667C7F5000707FB06F6F5
:101250004FEA54374FEAD64606F1020607FB066C02
:10126000CCF1005C4FEA1C472CEA074C07FB06F464
:101270000CFB06F504EB15464FEA961634BF00202A
:101280004FF000404FEAD13706FB07FC4FEA1C4CF9
:101290000CFB0BF7D21B03FB0CF761EB07010CFBFC
:1012A0000EF7B0EB074072EB17420CFB08F734BFA8
:1012B000A2EB0742B2EB074261EB17414FEA0C4445
:1012C0004FEA910706FB07FC4FEA1C4C0CFB0BF79F
:1012D000B0EBC74072EB573203FB0CF734BFA2EB05
:1012E000C742B2EBC74261EB57310CFB0EF7B0EBD4
:1012F000C70072EB57720CFB08F734BFA2EBC702B2
:10130000B2EBC70261EB5771039F4FEA816141EA7B
:10131000921104EBCC044FEAD1374FEA826206FB0C
:1013200007FC42EA90124FEA80604FEA1C4C0CFB2B
:101330000BF7D21B03FB0CF761EB07010CFB0EF75D
:10134000B0EB074072EB17420CFB08F734BFA2EB7F
:101350000742B2EB074261EB17414FEA8C554FEA67
:10136000910704EB9C2406FB07FC4FEA1C4C0CFB8A
:101370000BF7B0EBC74072EB573203FB0CF734BFEF
:10138000A2EBC742B2EBC74261EB57310CFB0EF741
:10139000B0EBC70072EB57720CFB08F734BFA2EB3F
:1013A000C702B2EBC70261EB577115EB4C254FEA50
:1013B000816141EA92114FEA82624FEAD13742EAF3
:1013C000901206FB07FC44F100044FEA80604FEAEC
:1013D0001C4C0CFB0BF7D21B03FB0CF761EB07015A
:1013E0000CFB0EF7B0EB074072EB17420CFB08F753
:1013F00034BFA2EB0742B2EB074261EB174115EB9A
:101400001C154FEA813141EA92414FEA823242EAA9
:1014100090424FEA80304FEA0C7644F1000448EAEB
:1014200003434EEA0B484FF0000EB2EB080C71EB91
:10143000030724BF624639464EEB0E0E4FF0000BF9
:101440000018524149414BEB0B0BB2EB080C71EB0E
:1014500003077BF1000B24BF624639464EEB0E0EAC
:101460004FF0000B0018524149414BEB0B0BB2EB14
:10147000080C71EB03077BF1000B24BF6246394671
:101480004EEB0E0E51EA020718BF46F0010616EBAE
:101490000E7655F1000254F1000103D5BDE8890133
:1014A000BDE80088BDE88901BDE80048B619524191
:1014B00041EB0101A3F10103704780807F7E7D7CB9
:1014C0007B7A7978777676757473727171706F6ED6
:1014D0006E6D6C6C6B6A6A69686867666665646481
:1014E000636362616160605F5F5E5E5D5D5C5C5B0B
:1014F0005B5A5A595958585757565655555554547A
:10150000535352525251515050504F4F4F4E4E4DD7
:101510004D4D4C4C4C4B4B4B4A4A4A494949484823
:101520004847474747464646454545444444444363
:1015300043434342424242414141002B26D477007B
:1015400021D01CB54FEA370703B44FF010004FF01D
:1015500010014FF000000FBCBDE810400BF1010B73
:10156000BBF1010F08BF5FEA170722BF12F10102AA
:1015700011F101014FF0004143F1000300F0004080
:1015800043EA00007047F9D35708DAE746EA06460F
:1015900013F1400F4FEA16461FDD13F1200FDFBF96
:1015A00016430A46002120335B42C8D0C3F120070E
:1015B00046EA064602FA07F74FEA164646EA0706E3
:1015C000C3F1200722FA03F201FA07F721FA03F127
:1015D0004FF0000342EA0702B1E746EA020646EA94
:1015E00006464FEA164646EA0106BCBF46EA0646EC
:1015F000360C4FF000034FF000024FF000019EE761
:101600002DE9C048934630B491E8380007C831EA64
:10161000400C48BF34EA430C03D5FFF7F2FDFFF757
:101620008CFFF0BCBDE800882DE9C048934630B47B
:1016300091E8380007C810F0804F08BF13F0804FC2
:1016400003D100F005F8FFF778FFF0BCBDE8008893
:1016500020F07F4780EA030023F07F4C07EB0C0368
:10166000A3F57C5300F00040A3F1FE0392F0000FBD
:1016700000F0B38095F0000F00F077802DE901496C
:101680004FEA11404FEA144621EA004800FB06FCED
:1016900024EA064708FB06F607FB08F800FB07F7F5
:1016A00018EB06484CEB164C4FEA124B18EB074868
:1016B0004FEA15464CEB174022EA0B4E0BFB06FC9B
:1016C00025EA06470EFB06F607FB0EFE0BFB07F7A7
:1016D0001EEB064E4CEB164C4FF000061EEB074E71
:1016E0004CEB174B18EB0B0840F1000018EB0E0BFE
:1016F00058EB000840F100008F1A4FF000013CBF8A
:10170000C943661B14BFB5EB040C00213CBFC943A1
:10171000F61B4FEA17444EEA8E0E27EA04454FEABD
:101720001C4704FB07622CEA074C05FB07F70CFB80
:1017300005F604FB0CFC16EB074642EB174216EBD2
:101740000C4642EB1C421BEB060658EB02024141E1
:1017500046EA9E0601D5BDE80189B619524141EB22
:101760000101A3F10103BDE801894FEA14454FEAE5
:10177000114724EA054621EA074C05FB07F406FB5E
:1017800007F70CFB06F105FB0CFC11EB074144EBE2
:1017900017444FEA124711EB0C4144EB1C4422EA78
:1017A000074C05FB07F206FB07F70CFB06F605FBEB
:1017B0000CFC16EB074642EB174216EB0C4642EBCD
:1017C0001C456A1854F1000148BF7047B6195241D0
:1017D00041EB0101A3F10103704795F0000F37D0F1
:1017E0004FEA11424FEA144721EA024624EA074C25
:1017F00002FB07F106FB07F70CFB06F402FB0CFCEF
:1018000014EB074441EB17414FEA154714EB0C4426
:1018100041EB1C4125EA074C02FB07F506FB07F7E5
:101820000CFB06F602FB0CFC16EB074645EB1745D6
:1018300016EB0C4645EB1C42121951F1000148BF52
:101840007047B619524141EB0101A3F10103704702
:101850004FEA14454FEA114724EA054621EA074CAE
:1018600005FB07F106FB07F70CFB06F24FF000063D
:1018700005FB0CFC12EB074241EB174112EB0C424B
:1018800051EB1C4148BF7047921841EB0101A3F195
:10189000010370472DE9F0410025002600270022B2
:1018A0000121264802F05AFA002427E000F0F8FB54
:1018B000234801682348006804F0F8FF8046294661
:1018C00004F0F4FF0546204801682048006804F051
:1018D000EDFF8046314604F0E9FF06461C480168EA
:1018E0001C48006804F0E2FF8046394604F0DEFF41
:1018F00007464FF4FA6003F037FF641C642CD5DB15
:101900001549284605F040F80D490860124930464F
:1019100005F03AF80C4908600F49384605F034F8EC
:101920000B4908600DA11D4804F078F90122114609
:10193000024802F013FABDE8F081000000100040F8
:1019400034000020540000203800002058000020FF
:101950003C0000205C0000200000C84261646A7501
:101960007374206779726F20737563636573736630
:10197000756C2120646F6E277420666F72676574C2
:1019800020746F20777269746520746F20746865A5
:10199000207072616D73210D0A000000004C004040
:1019A00000B589B0012140F6040001F0F1FC4FF4CC
:1019B0007060ADF8040018208DF8070003208DF842
:1019C000060001A92A4800F057FA2320ADF81800B4
:1019D0000020ADF81A0041F28730ADF81C0000205D
:1019E000ADF81E008DF8200006A9224802F024FB65
:1019F0006020ADF808000120ADF80A000420ADF821
:101A00000C000020ADF80E00ADF810000820ADF875
:101A100012004001ADF814000020ADF8160002A934
:101A2000144802F0A5F902A9124802F0F7F902A938
:101A3000104802F045FA02A90E4802F091FA01217D
:101A40000C4802F006F901210A4802F00EF941F2B1
:101A5000883003F089FE1420064934310880091DBE
:101A60000880091D0880091D088009B000BD00001C
:101A700000080140002C014000BFFEE730B50246DF
:101A80000B464FF6FF70002112E0555C68400024C1
:101A90000AE000F0010525B14AF2010585EA60007F
:101AA00000E04010651CECB2082CF2DB4D1CE9B2E2
:101AB0009942EADB30BD70470149C86070470000B9
:101AC0000020024030B5044604254FF4302000F0D9
:101AD00085F80546042D17D10C48006940F0020036
:101AE0000A49086108464461006940F04000086105
:101AF0004FF4302000F072F805460448006941F6C2
:101B0000FD71084001490861284630BD00200240AF
:101B100004200B49C96801F0010109B101200EE060
:101B20000749C96801F0040109B1022007E004492E
:101B3000C96801F0100109B1032000E004207047DA
:101B4000002002400348006940F08000014908611C
:101B5000704700000020024078B506460C46042578
:101B600000200090E80200F039F80546042D24D149
:101B70001348006940F00100114908613480E8020F
:101B800000F02CF80546042D10D1B01C0090200C5C
:101B900000990880E80200F021F80546084800692D
:101BA00041F6FE7108400649086106E004480069F4
:101BB00041F6FE71084002490861284678BD0000E0
:101BC00000200240024803494860034848607047CB
:101BD0002301674500200240AB89EFCD00B50246E6
:101BE0000423FFF795FF034603E0FFF791FF034649
:101BF000521E012B01D1002AF7D102B90523184644
:101C000000BD00002DE9F0417F48007810B17F4809
:101C1000007850B1E6207E490880091D0880091D22
:101C20000880091D0880BDE8F0817A4903C904F0E5
:101C30004FF80446224678480168784801F0FAFADD
:101C40007749086077497648006805F0B3F803D211
:101C500074487349086008E073497148006804F0EB
:101C6000A9FF02D270486E490860704802686C484B
:101C700001686F4801F0DEFA6E4908606E4903C9D9
:101C800004F026F8044622466C4801686C4801F0CE
:101C9000D1FA6C49086063496A48006805F08AF81F
:101CA00003D260486749086008E05F4965480068FA
:101CB00004F080FF02D25C48624908606248026812
:101CC00060480168614801F0B5FA614908606148FF
:101CD00000210268604801F0ADFA6049086055488B
:101CE000006880F000475A480168384604F0DEFD7D
:101CF00006465A480168304604F0D8FD0546584863
:101D00000168284604F0D2FD044656480168204682
:101D100004F0CCFD544908604648006880F0004754
:101D20004B480168384605F077F806464B4801688D
:101D3000304605F071F8054649480168284604F028
:101D4000B5FD044647480168204604F0AFFD474909
:101D500008603F4801683748006805F05DF80646AE
:101D60003E480168304604F0A1FD05463C48016844
:101D7000284604F09BFD04463A480168204604F0DA
:101D800095FD3B490860324801682A48006804F024
:101D90008DFD064631480168304605F03DF80546A0
:101DA0002F480168284604F081FD04462D4801684B
:101DB000204604F07BFD2F4908602B48006804F0A2
:101DC000A5FE04462146012001F0F0FB27480068EB
:101DD00004F09CFE04462146022001F0E7FB244863
:101DE000006804F093FE04462146032001F0DEFB68
:101DF0002048006804F08AFE04462146042001F0D1
:101E0000D5FB00BF0FE70000040100200402002002
:101E1000342C0140C0000020DC00002054010020D0
:101E20000001002000002041000020C154000020DB
:101E3000A8010020E8000020B8000020D800002001
:101E400070010020FC000020580000208C010020C0
:101E5000EC0000205C000020C4010020F000002005
:101E600008010020F80000200C01002010010020D3
:101E700014010020180100202DE9F0410246002540
:101E80000026002000230024002791F803C00CF056
:101E90000F0591F803C00CF0100CBCF1000F03D03B
:101EA00091F802C04CEA050591F800C0BCF1000FA2
:101EB00031D0146800202BE04FF0010C0CFA00F335
:101EC000B1F800C00CEA03069E4220D183004FF017
:101ED0000F0C0CFA03F7BC4305FA03FC4CEA0404AC
:101EE00091F803C0BCF1280F06D14FF0010C0CFA99
:101EF00000FCC2F814C00AE091F803C0BCF1480F1E
:101F000005D14FF0010C0CFA00FCC2F810C0401CC7
:101F10000828D1D31460B1F800C0BCF1FF0F34DD44
:101F2000546800202EE000F1080C4FF0010808FA78
:101F30000CF3B1F800C00CEA03069E4221D18300E5
:101F40004FF00F0C0CFA03F7BC4305FA03FC4CEA04
:101F5000040491F803C0BCF1280F05D100F1080C6E
:101F600008FA0CF8C2F8148091F803C0BCF1480FCD
:101F700007D100F1080C4FF0010808FA0CF8C2F87C
:101F80001080401C0828CED35460BDE8F081416128
:101F900070470161704700002DE9F05F01233B228B
:101FA000D021354800F028FA3449088001233D2229
:101FB000D021314800F020FA3149088001233F2226
:101FC000D0212D4800F018FA2E4908802B48B0F98E
:101FD000000004F0D7FD83464FF0804104F01EFE60
:101FE000824604F037FC8046274A284B04F022F949
:101FF00006460022264B03F059FF044603F068FE14
:10200000244908601E48B0F9000004F0BBFD834677
:102010004FF0804104F002FE824604F01BFC804633
:10202000194A1A4B04F006F906460022184B03F031
:102030003DFF044603F04CFE174908601148B0F913
:10204000000004F09FFD83464FF0804104F0E6FD60
:10205000824604F0FFFB06460B4A0C4B04F0EAF8FC
:10206000044600220A4B03F021FF804603F030FEB5
:102070000A490860BDE8F09F005400404600002077
:10208000480000204A0000209A9999999999234084
:102090000000E04060000020640000206800002094
:1020A0002DE9FF5F01234322D021464800F0A4F927
:1020B0004549088001234522D021424800F09CF97F
:1020C0004249088001234722D0213E4800F094F97C
:1020D0003F4908803F48006804F0BCFB06460F46B5
:1020E0003948B0F9000004F04DFD83463A4904F048
:1020F00095FD824604F0AEFB0022384BCDE900018D
:1021000003F0D4FE364A374BCDE9020103F0CEFE90
:10211000804632463B4604F0B3FA044603F0D8FD4D
:10212000314908603148006804F094FB80468946D4
:102130002648B0F9000004F025FD2749009004F07E
:102140006DFD019004F086FB82460022234B03F0D4
:10215000ADFE234A234BCDE9020103F0A7FE06465C
:1021600042464B4604F08CFA044603F0B1FD204988
:1021700008602048006804F06DFB04460D461448D2
:10218000B0F9000004F0FEFC1349009004F046FD95
:10219000019004F05FFB0022104BCDE9020103F037
:1021A00085FE80460E4A0F4B03F080FE064622460F
:1021B0002B4604F065FA824603F08AFD0E4908605A
:1021C000BDE8FF9F00540040400000204200002076
:1021D00044000020340000200000FA430000E040EA
:1021E000295C8FC2F5A84C40540000203800002024
:1021F000580000203C0000205C00002000BFFEE7EB
:1022000021B1028842F48062028004E002884FF625
:10221000FF331A40028070472DE9F0410746884697
:1022200014461E46069D00BF4FF40031384600F0AC
:1022300057F90028F8D10121384600F039F900BFDC
:102240002C49384600F09AF80028F9D0002241467F
:10225000384600F01DFA00BF2749384600F08EF8D6
:102260000028F9D00121384600F09DF83146384663
:1022700000F017FA00BF2049891C384600F07EF8AC
:102280000028F8D00121384600F012F900BF1949A2
:10229000384600F073F80028F9D00122414638464C
:1022A00000F0F6F900BF1349491C384600F066F803
:1022B0000028F8D016E0012D07D100213846FFF79D
:1022C0009FFF0121384600F0FFF80A493F313846A8
:1022D00000F054F830B1384600F0D6F92070641C94
:1022E000681E85B2002DE6D101213846FFF788FF30
:1022F000BDE8F08101000300820007002DE9F041F4
:1023000006460F4614461D460121304600F0D0F81F
:1023100000BF1849304600F031F80028F9D00022FB
:102320003946304600F0B4F900BF1349304600F09A
:1023300025F80028F9D02946304600F0B2F900BF50
:102340000D49891C304600F019F80028F8D02146C4
:10235000304600F0A6F900BF0749891C304600F05E
:102360000DF80028F8D00121304600F0ADF8BDE8A6
:10237000F0810000010003008200070070B50246F2
:102380000024002500230020958A138B1B0445EAB6
:10239000030626F07F4404EA01068E4201D10120A3
:1023A00000E0002070BD21B1028842F001020280ED
:1023B00004E002884FF6FE731A4002807047000066
:1023C00010B504460B48844209D10121480500F0AC
:1023D000CFFF00214FF4001000F0CAFF08E00121F8
:1023E000880500F0C5FF00214FF4800000F0C0FF19
:1023F00010BD0000005400402DE9FC4106460F4688
:1024000014461D460220234601AA39460090304654
:10241000FFF702FF012D08D19DF805009DF804107B
:1024200000EB012000B2BDE8FC819DF804009DF89E
:10243000051040EA012000B2F5E7000070B506463D
:102440001948864202D1C414051501E080244025B4
:102450000DE029461548FFF79CFD0A2003F084F99A
:1024600029461248FFF793FD0A2003F07DF90F4833
:102470000C30006820400028EBD029460B48FFF7BD
:1024800088FD21460948FFF782FD0A2003F06CF918
:1024900021460648FFF77DFD0A2003F065F901217A
:1024A000304600F000F970BD00580040000C0140BB
:1024B00021B1028842F48072028004E002884FF663
:1024C000FF631A400280704721B1028842F4007213
:1024D000028004E002884FF6FF531A4002807047E2
:1024E0000CB50246002000230193009300920B0FCD
:1024F000019321F07F41019B1BB1009B143300939A
:1025000003E0090C009B18330093009B1B680B40F1
:102510000BB1012000E000200CBD1AB183880B43F1
:10252000838002E083888B43838070472DE9F043EA
:1025300085B004460D460026B1460427DFF8CC805E
:10254000A6884FF6C0700640684600F031FFDDF8FF
:1025500008802F48B8FBF0F01FFA80F946EA090618
:10256000A68020884FF6FE71084020800026294969
:10257000286888420CD828684000B8FBF0F087B281
:10258000042F00DA04273E4309F10100208427E0EC
:10259000E8884BF6FF71884206D1286800EB4000BE
:1025A000B8FBF0F087B209E0286800EBC00101EB4E
:1025B0000010B8FBF0F087B247F48047C7F30B0078
:1025C00008B947F0010747F4004006434FF49670FE
:1025D00009FB00F04FF47A7190FBF1F0401C20846D
:1025E000A683208840F00100208026884FF6F53031
:1025F0000640A8886989084306432680A889298956
:102600000843208105B0BDE8F083000000127A0085
:1026100040420F00A086010038B504460A488442B3
:1026200004D14FF44060ADF8000002E0C020ADF8E6
:10263000000003208DF802001C208DF8030069467D
:102640000248FFF719FC38BD00580040000C01405B
:1026500038B504460A48844204D14FF44060ADF8CE
:10266000000002E0C020ADF8000003208DF8020059
:1026700014208DF8030069460248FFF7FDFB38BDC2
:1026800000580040000C01400146088AC0B2704763
:1026900012B141F0010102E04FF6FE7319400182D0
:1026A00070470182704721B1028842F400420280E3
:1026B00003E00288C2F30E020280704710B586B0B4
:1026C00004462D48844204D10121880500F040FED3
:1026D00003E00121480500F03BFE0121082000F045
:1026E00057FE2548844204D14FF44060ADF81400F1
:1026F00002E0C020ADF8140003208DF816001C2065
:102700008DF8170005A91D48FFF7B6FB0020ADF8AE
:1027100008004BF6FF70ADF80A000020ADF80C0081
:102720004FF48060ADF80E000001ADF810001448C1
:1027300001902046FFF744FE01A92046FFF7F6FE70
:1027400001212046FFF72FFE01224FF4C0612046F1
:10275000FFF7E3FE4FF400312046FFF7C1FE28B13A
:102760002046FFF775FF2046FFF768FE2046FFF77B
:1027700053FF06B010BD000000580040000C01409F
:10278000A08601000FB5A3B0FE480168006804F000
:1027900045FA1D90FC480168FA48006804F03EFACA
:1027A0001C90FA480168F748006804F037FA1B905B
:1027B000F5480168006804F031FA1A90F44801689D
:1027C000F148006804F02AFA1990F048016800689E
:1027D00004F024FA1890EE480168EC48006804F010
:1027E0001DFA1790EA480168006804F017FA16907D
:1027F000E6480168E448006804F010FA1590E448DF
:102800000168E048006804F009FA14902599084628
:1028100004F004FA08902499084604F0FFF90690A1
:102820002399084604F0FAF90590069904F03EF859
:102830000790089904F03AF8099004F00BF8CDE9F4
:102840000A0103F0C5F9CDE90C0103F041FA21902A
:10285000219803F0FFFFCF4ACF4BCDE90C0103F0E5
:10286000ADFC01D227B000BD2199239804F08CF86B
:1028700023902199249804F087F824902199259891
:1028800004F082F825901B99199804F0C5FA4FF0CE
:1028900080410D9004F0C2F9209017991C9804F023
:1028A00005F84FF080410D9004F0B8F91F901A9987
:1028B0001D9804F0B1FA0C90189904F0ADFA0D903F
:1028C000169903F0F3FF1E901F99259804F0A6F9BE
:1028D0000D901E99249804F0A1F90C900D9904F024
:1028E0009BFA13901E99239804F098F90D90209963
:1028F000259804F093F90C900D9904F08DFA12903C
:102900002099249804F08AF90D901F99239804F0D7
:1029100085F90C900D9904F07FFA11909F48016899
:10292000139804F07BF9059003F094FF9C4A9D4BAB
:10293000CDE9060103F07EFCCDE90A01109803F011
:1029400089FFCDE90801DDE90A2303F0F3F9CDE9B8
:102950000C0103F0BDF9109090480168129804F042
:102960005DF9059003F076FF8D4A8E4BCDE90601A7
:1029700003F060FCCDE90A010F9803F06BFFCDE98D
:102980000801DDE90A2303F0D5F9CDE90C0103F0D4
:102990009FF90F9081480168119804F03FF9059064
:1029A00003F058FF7E4A7F4BCDE9060103F042FC5D
:1029B000CDE90A010E9803F04DFFCDE90801DDE9EC
:1029C0000A2303F0B7F9CDE90C0103F081F90E9069
:1029D00075480168139804F021F90C90109903F0E0
:1029E00065FF0D90269903F061FF26906E480168FF
:1029F000129804F013F90C900F9903F057FF0D9003
:102A0000289903F053FF289067480168119804F053
:102A100005F90C900E9903F049FF0D90299903F0E8
:102A200045FF29905A482999006804F0F7F8049066
:102A300056482899006804F0F1F80290524800685E
:102A400080F000400090269904F0E8F80190029987
:102A500004F0E2F90390049904F0DEF9059003F024
:102A6000F9FE4F4A514BCDE9060103F0E3FBCDE9F6
:102A70000A014448006803F0EDFECDE90801DDE9F4
:102A80000A2303F057F9CDE90C0103F021F93D4980
:102A900008603F482899006804F0C0F804903B485B
:102AA0002999006804F0BAF802903648269900681F
:102AB00004F0B4F80190029903F0F8FE0390049931
:102AC00004F0AAF9059003F0C5FE354A374BCDE96D
:102AD000060103F0AFFBCDE90A012B48006803F0C3
:102AE000B9FECDE90801DDE90A2303F023F9CDE9B8
:102AF0000C0103F0EDF82449086025482699006888
:102B000004F08CF8049020482999006804F086F8B5
:102B100002901C482899006804F080F801900299FE
:102B200004F07AF90390049903F0C0FE059003F0D5
:102B300091FE1B4A1D4BCDE9060103F07BFBCDE95D
:102B40000A011248006803F085FECDE90801DDE9BD
:102B50000A2303F0EFF8CDE90C0103F0B9F80B49B3
:102B600008600A482699006804F058F8049006485E
:102B70002899006804F052F80290024829990068E8
:102B800016E000009C000020A0000020A40000200F
:102B9000A80000208DEDB5A0F7C6B03EB000002023
:102BA0007B14AE47E17A743FAC000020E17A643FC9
:102BB00004F034F80190029903F078FE0390049930
:102BC00004F02AF9059003F045FEA24AA24BCDE994
:102BD000060103F02FFBCDE90A01A048006803F0CD
:102BE00039FECDE90801DDE90A2303F0A3F8CDE9B8
:102BF0000C0103F06DF89949086008460168006807
:102C000004F00CF8089096480168006804F006F893
:102C1000069094480168006804F000F80490924817
:102C20000168006803F0FAFF0390049903F03EFE88
:102C30000590069903F03AFE0790089903F036FED6
:102C4000099003F007FECDE90A0102F0C1FFCDE9CA
:102C50000C0103F03DF82190219803F0FBFD834A1D
:102C6000834BCDE90C0103F0A9FA00D2FAE57E48C6
:102C70002199006803F088FE7B4908607948219912
:102C8000006803F081FE7749086075482199006863
:102C900003F07AFE7249086070482199006803F0D9
:102CA00073FE6E490860704801684FF0804003F081
:102CB000B5FF06906A480168069803F0AFFF0890D8
:102CC000684801684FF0404003F0A8FF0690634851
:102CD0000168069803F0A2FF0790089903F0E6FD4B
:102CE000099003F0B7FDCDE90A0102F023FA4FF095
:102CF0006632604BCDE90C0103F09CFA5E4A03C2D8
:102D0000574801684FF0804003F088FF0390544813
:102D10000168039803F082FF0590524801684FF064
:102D2000404003F07BFF03904E480168039803F096
:102D300075FF0490059904F06FF84FF07E510690EE
:102D400003F0B4FD079003F085FDCDE90A01464884
:102D500001684FF0804003F061FF04904148016832
:102D6000049803F05BFF06903D4801684FF08040F7
:102D700003F054FF049039480168049803F04EFFB3
:102D80000590069903F092FD079003F063FDCDE9ED
:102D90000801DDE90A2302F015FC4FF06632354BDD
:102DA000CDE90C0103F046FA344A03C24FF08040EB
:102DB000169903F033FF05904FF04040189903F047
:102DC0002DFF0490059904F027F84FF07E510690EE
:102DD00003F06CFD079003F03DFDCDE90A014FF0D3
:102DE0008040149903F01AFF06904FF08040159927
:102DF00003F014FF0590069903F058FD079003F0C7
:102E000029FDCDE90801DDE90A2302F0DBFB4FF0E3
:102E10006632184BCDE90C0103F00CFA184A03C2D4
:102E200000221346154903C903F002FB08D2002211
:102E3000144B124903C903F023FC104A03C207E0F4
:102E40000022104B0D4903C902F074FF0B4A03C264
:102E500000BF07E57B14AE47E17A643FA80000207D
:102E6000A4000020A00000209C0000208DEDB5A053
:102E7000F7C6B03E66A64C40B8000020C000002057
:102E8000C80000200080664070B50546094C0A481D
:102E9000007800B1094C2146284603F08BFF01D28F
:102EA000254605E00021284603F084FE00D20025D7
:102EB000284670BD0000C8420502002000004842BC
:102EC00070B5002411E0544951F82400534941F8E9
:102ED000240051F8240003F0BDFC05462A460B46A9
:102EE0004FA1534802F09AFE641C052CEBDB4B48C3
:102EF000006850490860494840684F4908604748A1
:102F000080684E4908604548C0684D49086043489C
:102F100000694C4908604C494648006803F04AFF84
:102F20000AD34A494348006803F044FE04D34148A9
:102F3000006802F087F828B100203E4908600120AF
:102F40004349087040493C48006803F033FF0AD306
:102F50003E493948006803F02DFE04D33648006826
:102F600002F070F828B10020334908600120384988
:102F700008704FF080413748006803F01BFF0BD307
:102F80004FF040413348006803F014FE04D3314849
:102F9000006802F057F828B100202E49086001208F
:102FA0002B4908704FF080412B48006803F002FF66
:102FB0000BD34FF040412848006803F0FBFD04D3D9
:102FC0002548006802F03EF828B100202249086038
:102FD00001201F4908704FF080412048006803F02D
:102FE000E9FE0BD34FF040411C48006803F0E2FDBE
:102FF00004D31A48006802F025F828B100201749C8
:1030000008600120124908701148007818B114A115
:10301000074802F003FE70BD009001086C0200201A
:103020004C6F6164205072616D3A25660D0A000094
:10303000004C0040D8000020DC00002034000020BC
:10304000380000203C0000200000A0400000A0C08C
:1030500004020020280000202C0000203000002066
:103060006C6F6164206F6666736574206572726F41
:103070007221706C656173652061646A7573742078
:10308000616761696E210D0A0000000010B51248E9
:10309000FFF714FB114802F067FB6B230022D021DD
:1030A0000D48FFF72BF919230022D0210A48FFF71A
:1030B00025F91A230222D0210748FFF71FF91B2305
:1030C0000822D0210448FFF719F91C230122D0213E
:1030D0000148FFF713F910BD0054004020A107007C
:1030E00000BFFEE77047000070B5002100230F22EB
:1030F000C47804B3154C246804F4E064C4F5E064B7
:10310000210AC1F10403CA40447804FA03F1847827
:103110001440214309010E4C0678A155047804F0AF
:103120001F050124AC4005786D11AD0005F1E025C7
:10313000C5F8004109E0047804F01F050124AC4003
:10314000044D0678761145F8264070BD0CED00E080
:1031500000E400E080E100E002490143024A11601E
:10316000704700000000FA050CED00E030B58BB0B0
:1031700000200790089009900A9003900490059011
:103180000690009001900290002500240DE0274851
:1031900050F8240007A941F8240007A850F824009B
:1031A00003A941F82400601CC4B2042CEFDB002406
:1031B00010E003A810F824000DF8140003A830F85C
:1031C0002400C0F30720012101EB44010DF80100A8
:1031D000601CC4B2042CECDB08216846FEF74EFCF0
:1031E00005462846E91705EB11610912A5EB0121F7
:1031F000C9B28DF80810E91705EB1161090A8DF8BD
:10320000091000240DE000BF8021094801F05EFD97
:103210000028F9D01DF80410054801F024FE601CB8
:10322000C4B20A2CEFDB0BB030BD0000400200201E
:10323000004C00402DE9F04F87B004460D4616467D
:103240003146284603F0E8FD81464846216903F0EF
:10325000E3FD8246504603F0FDFA364A364BCDE98F
:10326000040102F0E7FF074602F032FD8246A06942
:1032700003F0F0FA0746314A314B02F0DBFFCDE9AB
:103280000201504603F0E6FACDE90001DDE9022330
:1032900002F050FDCDE9040102F01AFD8246C4F8A7
:1032A0001090484603F0D6FA0746264A264B02F00D
:1032B000C1FFCDE90201E06803F0CCFACDE90001DD
:1032C000DDE9022302F036FDCDE9040102F000FD44
:1032D000E0606169E06803F06DFD02D26069E06062
:1032E0000BE0606980F000473846E16803F062FD5A
:1032F00003D2606980F00040E060C4F818A0D4E90F
:10330000021003F08BFC05905046616803F086FCC8
:1033100080464846216803F081FC4146049003F052
:10332000C5FA0746059903F0C1FA8346584607B027
:10333000BDE8F08FFA7E6ABC7493D83FAE47E17A5D
:1033400014AEE33F7B14AE47E17A743F7047000050
:1033500029B1064AD2690243044BDA6104E0034A08
:10336000D2698243014BDA617047000000100240CD
:1033700029B1064A12690243044B1A6104E0034A68
:1033800012698243014B1A6170470000001002402D
:1033900029B1064A92690243044B9A6104E0034A48
:1033A00092698243014B9A6170470000001002400D
:1033B00030B500210022002400232D4D6D6805F05A
:1033C0000C0121B1042905D0082923D105E0294D9C
:1033D000056022E0274D05601FE0254D6D6805F46E
:1033E0007012234D6D6805F48034022505EB92427E
:1033F0001CB9214D554305600BE01D4D6D6805F46A
:1034000000351DB11C4D5543056002E0194D554373
:10341000056002E0174D056000BF00BF144D6D68E8
:1034200005F0F0010909154D6B5C0568DD4045604C
:103430000F4D6D6805F4E061090A104D6B5C45683D
:10344000DD4085600A4D6D6805F46051C90A0B4D79
:103450006B5C4568DD40C560054D6D6805F4404115
:10346000890B074D6B5CC568B5FBF3F5056130BD95
:103470000010024000127A0000093D000000002008
:103480001000002008B501210420FFF781FF102063
:10349000ADF800008DF8030003208DF802006946A6
:1034A0000648FEF7E9FC4020ADF8000004208DF846
:1034B000030069460148FEF7DFFC08BD0008014033
:1034C000704710B500F002F810BD00000CB50020E8
:1034D000019000903348006840F480303149086022
:1034E00000BF3048006800F4003000900198401C94
:1034F0000190009818B90198B0F5A06FF1D1294852
:10350000006800F4003010B10120009001E00020BC
:1035100000900098012843D12348006840F0100033
:10352000214908600846006820F00300086008464A
:10353000006840F0020008601A4840681949486075
:103540000846406848600846406840F4806048602B
:103550000846406820F47C1048600846406840F403
:10356000E81048600846006840F08070086000BFBE
:103570000C48006800F000700028F9D00948406845
:1035800020F00300074948600846406840F0020008
:10359000486000BF0348406800F00C000828F9D1DB
:1035A0000CBD000000100240002002402DE9F04751
:1035B00004460D46042C01DC012C01DABDE8F0873D
:1035C000012C06D0022C1CD0032C33D0042C63D148
:1035D00049E0284603F0D6FA8246FFF755FC8146BB
:1035E0002F4903F01BFB80462E4903F0CDF9074617
:1035F0002D4903F05BF9064603F0A4FA2B49088035
:103600004AE0284603F0BEFA8246FFF73DFC8146B9
:10361000274903F003FB8046224903F0B5F907462A
:10362000244903F043F9064603F08CFA1F49091DAB
:10363000088031E0284603F0A5FA8246FFF724FC13
:1036400081461B4903F0EAFA8046164903F09CF9CB
:103650000746184903F02AF9064603F073FA13499E
:103660000831088018E0284603F08CFA8246FFF7FC
:103670000BFC81460A4903F0D1FA8046094903F060
:1036800083F90746084903F011F9064603F05AFA90
:1036900006490C31088000BF00BF00BF8EE7000064
:1036A00000005C430000C84200009643342C0140F7
:1036B00000007A43000087437047000010B51348AC
:1036C000006840F001001149086008464068104950
:1036D00008400E494860084600680E4908400B49FA
:1036E00008600846006820F48020086008464068AA
:1036F00020F4FE0048604FF41F008860FFF7E1FEF1
:103700004FF000600449086010BD00000010024046
:103710000000FFF8FFFFF6FE08ED00E0F0B50C46F4
:10372000154600220021068C4FF6FE773E400684A7
:10373000028B018C4FF60C7632407E1C06EA031693
:103740002E433243104EB0420ED0104EB0420BD03A
:10375000B0F1804F08D00E4EB04205D00D4EB042B1
:1037600002D00D4EB04206D14FF6FD76314044F006
:103770000106314305E04FF6F576314044F001068D
:10378000314302830184F0BD002C0140003401402C
:103790000004004000080040000C0040F0B50C465A
:1037A0001546002200210026078C4FF6EF7C07EA21
:1037B0000C070784028B018C4FF6FF7707EA04168B
:1037C00040F6FF473A404FF6FF7707EA03373A43A0
:1037D0004FF6FF7707EA05273A43114FB8420ED05C
:1037E000104FB8420BD0B0F1804F08D00E4FB84206
:1037F00005D00E4FB84202D00D4FB84206D14FF659
:10380000DF77394046F01007394305E04FF65F7720
:10381000394044F01007394302830184F0BD0000B1
:10382000002C01400034014000040040000800402A
:10383000000C0040F0B50C46154600220021002681
:10384000078C4FF6FF6C07EA0C070784828B018C0C
:103850004FF6FF7707EA04264FF60C773A404FF60B
:10386000FF7707EA03172F433A43114FB8420ED0B0
:10387000104FB8420BD0B0F1804F08D00E4FB84275
:1038800005D00E4FB84202D00D4FB84206D14FF6C8
:10389000FF57394046F48077394305E04FF2FF5730
:1038A000394044F48077394382830184F0BD0000BD
:1038B000002C01400034014000040040000800409A
:1038C000000C0040F0B50C461546002200210026F1
:1038D000078C4EF6FF7C07EA0C070784828B018C6D
:1038E0004FF6FF7707EA043640F6FF473A404FF6B7
:1038F000FF7707EA05273A434FF6FF7707EA0337D2
:103900003A43114FB8420ED0104FB8420BD0B0F12D
:10391000804F08D00E4FB84205D00E4FB84202D0AB
:103920000D4FB84206D14DF6FF77394046F4805727
:10393000394305E047F6FF57394044F4805739438F
:1039400082830184F0BD0000002C0140003401405E
:103950000004004000080040000C004000B587B0A3
:1039600001210220FFF7F4FC4FF4FA60ADF80800E3
:103970002320ADF804000020ADF80A00ADF80600E1
:1039800001A9174800F058FB0020ADF81000ADF871
:1039900012000120ADF814000020ADF81600ADF8BB
:1039A000180004A90E4800F083F91D208DF80000CE
:1039B00003208DF8010000208DF8020001208DF811
:1039C00003006846FFF790FB01220321044800F042
:1039D000C5F90121024800F03CF907B000BD000024
:1039E0000004004010B50121234800F050F920B137
:1039F00022480078401C2149087002211E4800F02E
:103A000046F9A0B31E48007870B900201B49087021
:103A10000021194800F0E2FA01201949087002213A
:103A2000154800F0F1F922E01548007801281ED170
:103A3000114800F029F9134908601048007800EB9C
:103A40004001C1EBC0100F49096801EB00100D499E
:103A500008600020094908700021074800F0BEFAFC
:103A60000020074908700021034800F0CDF9032128
:103A7000014800F0EBF810BD0004004018000020E1
:103A800019000020240200201CB501213B4800F051
:103A9000FEF8002871D00121384800F0D7F8002244
:103AA0000121364800F05AF935480068012806D04F
:103AB000022809D0032818D004284DD118E0FEF7B9
:103AC000EFFAFEF769FA48E02E4800682E490968C7
:103AD000CDE900102D4803682D4802682D48016883
:103AE0002D480068FEF74EFE37E0FEF78BF834E015
:103AF0002A480068401C29490860084600681428C4
:103B000015D006DC012809D00A280AD00B2820D1BC
:103B10000AE015280ED019281BD116E002F026F86D
:103B200018E001F0C5FF15E002F030F812E001F0F6
:103B3000C7FF0FE001F0BAFE1948036819481AA13F
:103B400002681D4802F06AF804E00020134908608A
:103B500000E000BF00BF00E000BF00BF08480068F1
:103B6000401C052190FBF1F201FB120004490860A2
:103B700001221146014800F0F1F81CBD0010004080
:103B80001C0000205C000020580000205400002091
:103B90006800002064000020600000202400002055
:103BA0003C02002038020020703A256420202020AA
:103BB00020743A25640D0A00004C00401FB50446ED
:103BC0002048844203D02048844200D01FBD1D48B5
:103BD000844207D101211020FFF7BAFB36208DF86F
:103BE0000C0009E01848844206D101212020FFF78B
:103BF000AFFB37208DF80C0000208DF80D00012060
:103C00008DF80E008DF80F0003A8FFF76DFA4FF442
:103C1000FA60ADF804002320ADF800000020ADF8F4
:103C20000600ADF802006946204600F005FA0122C0
:103C30001146204600F092F80121204600F009F8D4
:103C400000BFC3E70010004000140040CA430282D6
:103C5000704721B1028842F00102028004E002882C
:103C60004FF6FE731A400280704731B1B0F844201D
:103C700042F40042A0F8442005E0B0F84420C2F32A
:103C80000E02A0F8442070470146888E704730B578
:103C90000246002000230024158A05EA01039589C5
:103CA00005EA010413B10CB1012000E0002030BD91
:103CB00070B505460C46244885420ED023488542FF
:103CC0000BD0B5F1804F08D02148854205D021485E
:103CD000854202D02048854200D100E000BF208804
:103CE00050B92389A28861882846FFF717FDE1882B
:103CF000284600F075F925E0208804280AD1238998
:103D0000A28861882846FFF749FDE188284600F02F
:103D100070F917E0208808280AD12389A2886188D1
:103D20002846FFF787FDE188284600F06FF909E093
:103D30002389A28861882846FFF7C4FDE1882846C8
:103D400000F06DF970BD0000002C0140003401400E
:103D50000004004000080040000C00401AB18389B4
:103D60000B43838102E083898B438381704700008A
:103D700070B5002400220023058C4FF6FE763540F6
:103D80000584028C8388048B4FF68F752C40B51EFA
:103D90002C400D882C43751E2A400D892A434D88DE
:103DA0002A43144DA8420BD0134DA84208D0134DFE
:103DB000A84205D0124DA84202D0124DA84213D1FC
:103DC0004FF6F7752A404D892A434FF6FB752A4076
:103DD0008D882A434FF6FF652B404FF6FF552B4049
:103DE0008D892B43CD892B4383800483CD888586A1
:103DF000028470BD002C01400034014000400140AD
:103E000000440140004801400A460021018C4FF661
:103E1000FD731940114301847047000070B5002400
:103E200000220023058C4FF6EF7635400584028C86
:103E30008388048B48F6FF752C404FF6FF452C40D5
:103E40000D884FF6FF7606EA05252C434FF6DF7501
:103E50002A400D8906EA05152A434D8806EA05150C
:103E60002A43154DA84202D0144DA8421DD14FF649
:103E70007F752A404D894FF6FF7606EA05152A43DD
:103E80004FF6BF752A408D8806EA05152A434FF67E
:103E9000FF352B404FF2FF752B408D8906EA8505D3
:103EA0002B43CD8906EA85052B4383800483CD8887
:103EB0000587028470BD0000002C014000340140E1
:103EC00070B5002400220023058C4FF6FF663540B4
:103ED0000584028C8388848B4FF68F752C404FF6B7
:103EE000FC752C400D882C434FF6FF552A400D8958
:103EF0004FF6FF7606EA05252A434D8806EA052592
:103F00002A43154DA84202D0144DA8421DD14FF2AC
:103F1000FF752A404D894FF6FF7606EA05252A43AC
:103F20004FF6FF352A408D8806EA05252A434EF6CE
:103F3000FF752B404DF6FF752B408D8906EA051560
:103F40002B43CD8906EA05152B4383808483CD88D6
:103F50008587028470BD0000002C014000340140C0
:103F600070B5002200230024058C4EF6FF76354004
:103F70000584038C8488828B48F6FF752A404FF6AF
:103F8000FF452A400D884FF6FF7606EA05252A43AD
:103F90004DF6FF752B400D8906EA05352B434D88FC
:103FA00006EA05352B430B4DA84202D00A4DA84224
:103FB00008D14BF6FF752C408D894FF6FF7606EA47
:103FC00085152C4384808283CD88A0F840500384DB
:103FD00070BD0000002C0140003401408184704716
:103FE000028B4FF6F3731A400283028B0A4302835B
:103FF0007047028B4FF2FF331A400283028B4FF659
:10400000FF7303EA01231A4302837047828B4FF642
:10401000F3731A408283828B0A4382837047828BB8
:104020004FF2FF331A408283828B4FF6FF7303EA0D
:1040300001231A4382837047002202881D4B984255
:104040000ED01D4B98420BD0B0F1804F08D01B4BC7
:10405000984205D01A4B984202D01A4B984204D18C
:104060004FF68F731A404B881A43174B984207D06C
:10407000164B984204D04FF6FF431A40CB881A43A0
:1040800002808B8883850B8803850A4B98420BD06E
:10409000094B984208D00E4B984205D00D4B9842E0
:1040A00002D00D4B984201D10B7A03860123838203
:1040B00070470000002C0140003401400004004023
:1040C00000080040000C00400010004000140040B8
:1040D00000400140004401400048014000B587B065
:1040E00040F22551FE4800F0FEFD00287BD040F252
:1040F0002551FB4800F0CFFDF94800F0AFFEC0B2FB
:104100000690069830384B286ED2DFE810F0EB04AA
:104110004B006E00CA04CD04D0046D00D304DB0450
:10412000E3046D006D006D006D006D006D006D00AD
:10413000FB040C051D052E055D056D0059056D0080
:104140003F054805510555056D0061056D006D0081
:104150006D006D006D006D006D006D006D006D00F7
:104160006D006D006D006D006D006D006D006D00E7
:1041700034015201DF029F00D001AE00C103E00311
:1041800070016D008303A20350031D03A001BE0054
:10419000F9005802B6008F002F04FE02F304AA02B1
:1041A000FF037502CF488068019002F053FBCE4AAE
:1041B000CE4BCDE9020101F0BDFDCDE9040101F0D6
:1041C00087FDC84988600020C86008468068039061
:1041D00002F040FB02460B46CDE90401C4A1C048F1
:1041E00001F01CFD3CE2D6E3D6E3BE4880680190B6
:1041F00002F030FBBC4ABD4BCDE9020102F040FAAF
:10420000CDE9040101F064FDB64988600020C86072
:1042100008468068039002F01DFB02460B46CDE97C
:104220000401B3A1AE4801F0F9FCDBE7B448007823
:1042300008B9012000E00020B14908700020B14910
:10424000C860B1A1A64801F0E9FCCBE7B24800780C
:1042500008B9012000E00020AF4908700846027844
:10426000AEA19F4801F0DAFCBCE70120AF4908701D
:10427000AFA19B4801F0D2FCB4E70020AB49087025
:10428000AFA1974801F0CAFCACE7964800680190DE
:1042900002F0E0FA944A954BCDE9020101F04AFDA3
:1042A000CDE9040101F014FD8E490860A7480068BB
:1042B000019002F0CFFA8C4A8C4BCDE9020102F05A
:1042C000DFF9CDE9040101F003FDA049086085484C
:1042D0000068019002F0BEFACDE904019B48006835
:1042E000019002F0B7FACDE90201DDE90401CDE960
:1042F000000197A17A48DDE9022301F08FFC71E704
:1043000078480068019002F0A5FA774A774BCDE92A
:10431000020102F0B5F9CDE9040101F0D9FC7149BF
:1043200008608A480068019002F094FA6E4A6F4B68
:10433000CDE9020101F0FEFCCDE9040101F0C8FC69
:104340008249086067480068019002F083FACDE96D
:1043500004017E480068019002F07CFACDE9020178
:10436000DDE90401CDE9000179A15D48DDE9022321
:1043700001F054FC36E77D48006802F06BFA4FF01C
:1043800033327B4BCDE9020101F0D4FCCDE90401CD
:1043900001F09EFC754908600846006802F05AFA70
:1043A00002460B46CDE9040172A14D4801F036FCEE
:1043B00018E76E48006802F04DFA4FF033326C4B4C
:1043C000CDE9020102F05CF9CDE9040101F080FCC5
:1043D000664908600846006802F03CFA02460B464F
:1043E000CDE9040163A13E4801F018FCFAE36548F9
:1043F0004068019002F02EFA634A644BCDE9020155
:1044000001F098FCCDE9040101F062FC5D494860CF
:104410005F484068019002F01DFA5B4A5B4BCDE9B2
:10442000020101F087FCCDE9040101F051FC58497B
:10443000486054484068039002F00CFA02460B466C
:10444000CDE9040153A1264801F0E8FBCAE34D4839
:104450004068019002F0FEF94B4A4C4BCDE9020155
:1044600002F00EF9CDE9040101F032FC4549486043
:1044700047484068019002F0EDF9434A434BCDE9CB
:10448000020102F0FDF8CDE9040101F021FC4049F0
:1044900048603C484068039002F0DCF902460B4655
:1044A000CDE904013BA10E4801F0B8FB9AE3404876
:1044B000006802F0CFF9344A344BCDE9020101F033
:1044C00039FCCDE9040101F003FC394908600846D4
:1044D000006802F0BFF902460B46CDE9040169E02D
:1044E000004C0040540100207B14AE47E17A843F29
:1044F000526F6C6C5F5049442E693D25660D0A0071
:1045000006020020E001002053454E44206368610C
:104510006E6765210D0A0000050200204465627582
:10452000673D202025640D0A0000000004010020E2
:10453000737461727420666C79210D0A00000000AA
:1045400073746F7020666C79210D0A007001002071
:1045500070697463685F503D256620202020726F6B
:104560006C6C5F503D2566200D0A0000080100209C
:104570003333D33F626173655F647574793D25663B
:104580000D0A0000A80100209A9999999999B93FBC
:104590008C010020414E474C455F53504545445FD8
:1045A000585F5049442E4B443D25660D0A000000DB
:1045B000DC000020F9A1FE4801F030FB12E3FD48C9
:1045C000006802F047F9FC4AFC4BCDE9020102F019
:1045D00057F8CDE9040101F07BFBF6490860084675
:1045E000006802F037F902460B46CDE90401EBA161
:1045F000EF4801F013FBF5E2F1488068019002F00A
:1046000029F9ED4AED4BCDE9020102F039F8CDE987
:10461000040101F05DFBEA498860EA488068019086
:1046200002F018F9E44AE54BCDE9020102F028F85E
:10463000CDE9040101F04CFBE24988600020E0492B
:10464000C860E049C860DE488068039002F002F963
:1046500002460B46CDE90401DBA1D54801F0DEFAA4
:10466000C0E2D7488068019002F0F4F8D24AD34BF8
:10467000CDE9020101F05EFBCDE9040101F028FB68
:10468000CF498860CF488068019002F0E3F8CA4AB9
:10469000CA4BCDE9020101F04DFBCDE9040101F067
:1046A00017FBC84988600020C549C860C549C86073
:1046B000C3488068039002F0CDF802460B46CDE96E
:1046C0000401C1A1BA4801F0A9FA8BE2C34800680D
:1046D000019002F0BFF8B84AB84BCDE9020101F0F1
:1046E00029FBCDE9040101F0F3FABC490860084652
:1046F0000068039002F0AEF802460B46CDE90401D3
:10470000B7A1AB4801F08AFA6CE2B44800680190A6
:1047100002F0A0F8A84AA94BCDE9020101F0B0FFD0
:10472000CDE9040101F0D4FAAC49086008460068FC
:10473000039002F08FF802460B46CDE90401A8A1D0
:104740009B4801F06BFA4DE2A8488068019002F0A6
:1047500081F8A74AA74BCDE9020101F0EBFACDE9B8
:10476000040101F0B5FAA149886008468068014655
:104770000590A14802F008F99C4948610846406943
:10478000019002F067F8CDE9040198488068019033
:1047900002F060F8CDE90201DDE90401CDE9000194
:1047A00096A18348DDE9022301F038FA1AE28F4826
:1047B0008068019002F04EF88D4A8E4BCDE90201DF
:1047C00001F05EFFCDE9040101F082FA87498860BB
:1047D0000846806801460590874802F0D5F883496D
:1047E000486108464069019002F034F8CDE90401BF
:1047F0007E488068019002F02DF8CDE90201DDE9E4
:104800000401CDE900017DA16948DDE9022301F041
:1048100005FAE7E175480068019002F01BF8664A66
:10482000664BCDE9020101F085FACDE9040101F002
:104830004FFA6E49086008460068039002F00AF8D3
:1048400002460B46CDE9040176A1594801F0E6F98C
:10485000C8E166480068019001F0FCFF564A574BDA
:10486000CDE9020101F00CFFCDE9040101F030FABD
:104870005E49086008460068039001F0EBFF0246BD
:104880000B46CDE9040167A1494801F0C7F9A9E148
:1048900056484068019001F0DDFF474A474BCDE99B
:1048A000020101F047FACDE9040101F011FA4F4984
:1048B000486008464068039001F0CCFF02460B4672
:1048C000CDE904015CA13A4801F0A8F98AE1474822
:1048D0004068019001F0BEFF374A384BCDE9020134
:1048E00001F0CEFECDE9040101F0F2F93F49486044
:1048F00008464068039001F0ADFF02460B46CDE943
:1049000004014DA12A4801F089F96BE12C480068A7
:10491000019001F09FFF284A284BCDE9020101F0E8
:10492000AFFECDE9040101F0D3F92549086025481F
:104930000068019001F08EFF1F4A204BCDE9020173
:1049400001F09EFECDE9040101F0C2F91D490860A5
:104950001B480068039001F07DFF02460B46CDE93D
:1049600004013AA1124801F059F93BE114480068EA
:10497000019001F06FFF104A104BCDE9020101F0E8
:10498000D9F9CDE9040101F0A3F90D4908600D48FA
:104990000068019068E026E123E10000726F6C6C12
:1049A0005F7461726765743D25660D0A0000000042
:1049B000004C0040DC0000209A9999999999B93FE0
:1049C000A80100208C010020616E676C655F737028
:1049D0006565645F6B693D25660D0A00C4010020B2
:1049E0007961775F4B503D25660D0A00E00100209C
:1049F000FCA9F1D24D62503F0000484268656967EA
:104A000068745F4B493D2566202020202048656959
:104A10006768745F5049442E695F6D61783D256613
:104A20000D0A00004865696768745F5049442E4B61
:104A3000503D25660D0A00004865696768745F503F
:104A400049442E4B443D25660D0A0000414E474C1B
:104A5000455F53504545445F585F5049442E4B5085
:104A60003D25660D0A00000001F0F4FE5F4A604B30
:104A7000CDE9020101F05EF9CDE9040101F028F968
:104A80005C4908605C480068039001F0E3FE024660
:104A90000B46CDE90401AFF24C01584801F0BEF8D5
:104AA000A0E0FCF7F7FE9DE0FEF70AFA9AE000F0BE
:104AB00065FA97E052485349086053A14F4801F006
:104AC000ADF88FE000204F49086054A14B4801F039
:104AD000A5F887E000205649086056A1474801F034
:104AE0009DF87FE057485249086057A1434801F0BC
:104AF00095F877E058485949086059A13F4801F0B6
:104B00008DF86FE05B48006801F0A4FE374A5A4B0D
:104B1000CDE9020101F0B4FDCDE9040101F0D8F8BE
:104B2000544908605EE05348006801F093FE2F4A44
:104B3000514BCDE9020101F0FDF8CDE9040101F08E
:104B4000C7F84C4908604DE02E48006801F082FE2D
:104B5000264A494BCDE9020101F0ECF8CDE9040108
:104B600001F0B6F8274908603CE02648006801F0EB
:104B700071FE1E4A404BCDE9020101F081FDCDE9F5
:104B8000040101F0A5F81F4908602BE04FF07E51A9
:104B90003248006801F08AFE3049086022E04FF098
:104BA0007E512E48006802F037F92C49086019E060
:104BB00029482A49086015E000203049087011E0B2
:104BC00001202E4908700DE001202D49086009E000
:104BD0002B48006820B100F0D1F900202849086076
:104BE00000E000BF00BF07B000BD00009A9999998E
:104BF0009999B93F8C010020A8010020004C004089
:104C000000002041DC000020726F6C6C5F746172E8
:104C1000676574203D313021210D0A00726F6C6C84
:104C20005F746172676574203D3021210D0A0000B8
:104C300000010020726F6C6C5F6F7574203D302135
:104C4000210D0A000000A040726F6C6C5F6F7574DC
:104C5000203D3521210D0A0000000C4208010020F2
:104C6000626173652064757479203D333521210DAF
:104C70000A000000D80000209999A93F04010020F3
:104C80002000002001F40072B2F5007F00D100BFC7
:104C9000CA430280704710B50022002340F66A1410
:104CA000A14200D100BF0A1201249440A3B2DC4308
:104CB000048010BD21B1828942F40052828104E057
:104CC00082894DF6FF731A408281704702460020A8
:104CD000B1F5007F00D100BF13880B400BB101205C
:104CE00000E00020704770B5024600240023002534
:104CF000002040F66A16B14200D100BFC1F3421550
:104D000001F01F03012606FA03F3012D02D1968953
:104D1000334006E0022D02D1168A334001E0968A24
:104D200033400C12012606FA04F41688344013B1FD
:104D30000CB1012000E0002070BDF0B50346002456
:104D400000260025002040F66A17B94200D100BFB6
:104D50001846C1F3421401F01F06012707FA06F5B1
:104D6000012C01D10C3004E0022C01D1103000E004
:104D700014301AB107682F43076002E00768AF4399
:104D80000760F0BD2DE9F04786B005460E460024C9
:104D9000A24600BFA1460027B08900B100BF2F4640
:104DA0002C8A4CF6FF700440F08804432C82AC89B6
:104DB0004EF6F3100440B0883189084371890843E6
:104DC0000443AC81AC8A4FF6FF400440B0890443F1
:104DD000AC8201A8FEF7ECFA1F48874202D1DDF849
:104DE00010A001E0DDF80CA0A88900F4004040B15B
:104DF0000AEBCA0000EB0A1031684900B0FBF1F879
:104E000007E00AEBCA0000EB0A1031688900B0FB2A
:104E1000F1F86420B8FBF0F004012009642101FBE3
:104E20001089A88900F4004040B1322000EBC9008D
:104E3000B0FBF1F000F00700044308E0322000EB83
:104E400009106421B0FBF1F000F00F0004432C8145
:104E500006B0BDE8F08700000038014001468888B0
:104E6000C0F308007047C1F308028280704700BF9A
:104E7000FEE7000030B587B004460D4602950020DD
:104E8000ADF80C00ADF80E00ADF81000ADF8140050
:104E90000C20ADF812004FF4E060FEF75DF9002041
:104EA0008DF8060001208DF807003048844225D196
:104EB00001210420FEF76CFA01218803FEF768FA4D
:104EC00018208DF81B0003208DF81A006015ADF82E
:104ED000180006A92648FCF7CFFF2015ADF81800EA
:104EE00048208DF81B0006A92148FCF7C5FF2520A6
:104EF0008DF8040001A8FEF7F7F827E01D4884426A
:104F000024D101211020FEF743FA0121C804FEF745
:104F10001FFA18208DF81B0003208DF81A002015A9
:104F2000ADF8180006A91448FCF7A6FFE014ADF888
:104F3000180048208DF81B0006A90F48FCF79CFFBD
:104F400034208DF8040001A8FEF7CEF802A920460F
:104F5000FFF718FF01212046FFF7ACFE012240F2C7
:104F600025512046FFF7E9FE07B030BD003801406B
:104F700000080140004C0040001001402DE9F041C4
:104F8000FCF720FE3520FCF797FD1948FCF79AFD49
:104F9000804618480068184908601848006848604A
:104FA00017480068886017480068C860164800689D
:104FB0000861002416E0104850F824500C4901EB19
:104FC00084002946FCF7C8FD80460B4951F82400AF
:104FD00001F040FC064632460B460CA10E4800F09C
:104FE0001DFE641C052CE6DBFCF7ACFDBDE8F08182
:104FF00000900108D80000206C020020DC00002096
:1050000034000020380000203C00002077726974D2
:10501000652025660D0A0000004C0040490050EA5A
:10502000C12018BF04204A0D18BF40F0010040F213
:10503000FF72B2EB515F08BF40F00200012808BFC9
:1050400005207047014621F00040C0F1FF40C00F2D
:1050500070472DE9F0414F1E00EBC7010446D1E92E
:10506000000115461E4637F006020DD02A4633468B
:1050700001F0E0F87F1E04EBC703D3E9002300F042
:1050800059FE37F00602F1D1022F25D0042F13D09C
:10509000062F18BFBDE8F0812A46334601F0CAF852
:1050A000D4E90A2300F046FE2A46334601F0C2F84E
:1050B000D4E9082300F03EFE2A46334601F0BAF850
:1050C000D4E9062300F036FE2A46334601F0B2F852
:1050D000D4E9042300F02EFE2A46334601F0AAF854
:1050E000D4E9022300F026FE2A46334601F0A2F856
:1050F000D4E90023BDE8F04100F01CBE012201F01C
:1051000034BF00F017BE002213461046114600F0CF
:10511000CDBE0000024A0020110701F026BF0000AA
:1051200001FDFFFF30380A2801D20120704700201E
:10513000704700002DE9F04D8D4F21F0004A86B0F8
:1051400005460C46BA452ADBAAEB070028430AD0DD
:105150008848824501DC1AD1CDB106B02846BDE8A9
:10516000F04DFFF7CBBF844A844B284601F062F82C
:1051700007460E46824A834B2846214601F05AF8DC
:1051800006B03A463346BDE8F04D00F0D3BD0120ED
:10519000FBF7D4F806B0BDE8F04DFFF7B4BF7A488E
:1051A000824542DABAF1795F0BDA2846FFF736FF1B
:1051B000042808BFFFF7AEFF284606B02146BDE829
:1051C000F08D2A460B46104601F034F8834602461D
:1051D0006E480E460B4606217844FFF73AFF5A46C2
:1051E000334601F027F8804669488A465A463346D6
:1051F00004217844FFF72DFF5A46334601F01AF890
:1052000000223B4600F096FD02460B4640465146C2
:1052100000F04CFE2A46234601F00CF806B02A4660
:105220002346BDE8F04D00F085BD284624F000413E
:1052300000223D463B4601F031F94FF0FF3201F0CC
:1052400094FE0646024653480F460B460621784414
:10525000FFF7FFFE32463B4600F0ECFFCDE90001D0
:105260004D4832463B4604217844FFF7F2FE324671
:105270003B4600F0DFFF00222B4600F05BFD83463B
:1052800002913046394600F0A3FC804643480D4663
:10529000504517DCDDE900015A46029B00F006FE8E
:1052A00042462B4600F0C6FF42462B4600F042FD28
:1052B000012201F05AFE304A304B01F0E1F9304A48
:1052C000304B4CE04FF0000A52460B46404600F08F
:1052D00031FDCDE9031052462B461046194600F029
:1052E000A9FF32463B4601F0D9F8DDE9033200F070
:1052F000DDFD06460F46DDE900015A46029B00F03F
:10530000D5FD8346009101223046394601F02DFE3D
:10531000194A1A4B01F0C2F806460F4601224046D0
:10532000294601F022FE5A46009B00F083FF3246D8
:105330003B4601F0A5F906460F4601225046294694
:1053400001F013FE0E4DDFF858802A46434601F067
:10535000A5F832463B4601F0A1F82A46434601F043
:105360009DF8002CD8BF81F0004106B0BDE8F08D5B
:105370000000F03F0000F07F075C143326A6913C4C
:10538000182D4454FB21F93F0000E03F1C1E000093
:10539000321E0000A61D0000BC1D00003333EF3F8D
:1053A000FB21E93F2DE9F84F04460D4621F000406E
:1053B00000917349814211DC7249884201DC06D1B7
:1053C0002CB120462946BDE8F84FFFF797BE6E483E
:1053D000002DCCBF6D496E49BDE8F88F6D49814203
:1053E00011DD6D498142D8BF4FF0FF366DDD20469B
:1053F0002946FFF713FE042808BFFFF78BFE20465F
:105400002946BDE8F88F6549654F25F00045814282
:1054100033DD6449814219DD002632464FF0804376
:105420002046294600F086FC80468A460122204616
:10543000294601F09AFD00223B4601F021F942463F
:10544000534600F033FD04460D463EE0012600229F
:10545000BA463B462046294600F06CFC80460F4683
:10546000002253462046294601F00AF942463B46AF
:1054700000F01CFD04460D4627E04B4981421BDD30
:10548000DFF828A10226002253462046294600F0D4
:10549000D1FE00223B4600F04DFC80460F46002224
:1054A00053462046294601F0EBF842463B4600F0C1
:1054B000FDFC04460D4608E0032622462B4600204C
:1054C0003B4900F0F3FC04460D4622462B461046AD
:1054D000194600F0AFFE8B46824602460B4600F0AE
:1054E000A9FE07460246334888460B460621784403
:1054F000FFF7AFFD52465B4600F09CFE82462E4809
:105500008B463A46434605217844FFF7A2FD3A46CA
:10551000434600F08FFE02460B46002E5046594689
:105520000CDA00F007FC22462B4600F083FE01B0A7
:1055300022462B46BDE8F04F00F0B0BF00F0FAFB6A
:1055400022462B4600F076FE1C4A7A4402EBC60344
:10555000D3E9002301F094F822462B4601F090F89D
:10556000174A7A4402EBC603D3E9002300F096FF02
:10557000009A002AB8BF81F00041BDE8F88F000012
:10558000000010440000F07F182D4454FB21F93F27
:10559000FB21F9BF0000DC3F0000203E0000F33F8C
:1055A0000000F03F0000E63F008003400000F83FAD
:1055B0000000F0BF061C0000C41B0000621B0000BE
:1055C0002A1B00002DE9F04D9446CCF1000423F095
:1055D00000464CEA0404524F46EAD4749A46884680
:1055E00021F00042BC4206D8454240EA050442EAA6
:1055F000D474BC4204D9BDE8F04D6246FFF781BDCA
:10560000AAF14055A5F17F6555EA0C040BD00224A0
:1056100004EAAA74434DDFF810E144EAD87452EA70
:10562000000B04D00CE0BDE8F04DFFF7BBBE002C32
:1056300014BF012CBDE8F08D022C30D0032C32D0E9
:1056400056EA0C0B0AD0BE4220D1BA4209D126F04C
:10565000804622F080423346114617E000291ADBCB
:1056600025E0DFF8C8B0FB44002C04BFDBE90001F3
:10567000BDE8F08D012C02BFDBE9000181F00041A3
:10568000BDE8F08D022C0AD0032C0CD0BA4212D106
:10569000B8F1000F0BDA23482549BDE8F08D284604
:1056A0002449BDE8F08D28467146BDE8F08D1D48BF
:1056B0002149BDE8F08D921B12153C2AC4BF194840
:1056C0001D490EDCBAF1000FBEBF12F13C0F0020E5
:1056D000014606DB624600F0E9FB21F00041FFF7DE
:1056E00061FE002C08BFBDE8F08D012C04BF81F0E5
:1056F0000041BDE8F08D114A114B022C07D000F09B
:10570000BFFF2A46BDE8F04D0A4B00F0B9BF00F0DC
:10571000B7FF2A46BDE8F04D064B00F0BFBE0000C3
:105720000000F07F182D4454FB2109C0BE1A000070
:10573000FB21F9BFFB210940FB21F93F075C143332
:1057400026A6A13C4FF0E021096921F004014FF0A9
:10575000E02211610146C21700EB5272D210014BD8
:105760001A607047D400002001460D4A12684A436F
:105770004FF0E0235A6100229A6101221A6100BFB2
:105780004FF0E022106900F001021AB100F48032FB
:10579000002AF5D000224FF0E0231A619A61704789
:1057A000D4000020FDF78AFF4FF4E1312948FFF7CC
:1057B00061FB29A1274800F031FA4820FFF7C2FF1A
:1057C000FDF764FC00F084F92748FEF7F7F9FEF7CF
:1057D000C5F8FDF757FEFCF7E3F8FDF771FB23482A
:1057E0002349086023482449086024A1194800F08F
:1057F00015FA2DE02548007850B32549C868254999
:1058000001F00CFA074601F081F904462249C86804
:10581000224901F003FA074601F078F90546002213
:105820001F4B204903C900F005FD074600F096FC18
:10583000064600221A4B1C4903C900F0FBFC074630
:1058400000F08CFC814623462A46314600F0AEF932
:10585000D0E70000004C004048656C6C6F2C776FFF
:10586000726C64210D0A0000001000409A9919BF63
:10587000D8000020CDCCCC3EDC000020696E20207A
:105880006974206F6B210D0A0000000006020020E1
:105890005401002000002041A80100200000C8425F
:1058A00000002440C0000020B80000202DE9FE4F79
:1058B000794F7F894FF4807CA7FB0CC7774F3F68F7
:1058C000B7EB0C04744FB7F804C04FF000074FEA71
:1058D000074747EA1C474FEA0C48DFF8BCC1BCF851
:1058E00008C04FF000094FEAE47AACFB04BE09FBA4
:1058F00004E90CFB0A994FEADB1C4CEA496C18EBF3
:105900000C0547EBE916644FB7F802C04FF00007EB
:105910004FEAC73747EA5C474FEACC38DFF878C12F
:10592000BCF806C04FF000094FEAE47AACFB04BEB5
:1059300009FB04E90CFB0A994FEA1B2C4CEA096CA1
:1059400018EB0C0C47EB2927CDE900C7524FBF8954
:105950004FF000084FEAE47CA7FB049A08FB04A878
:1059600007FB0C8C4FEAD95747EA4C284FEAEC5713
:105970004FF4FA6918EB090047F10001CC46B0EB8F
:105980000C0C71F1000762DACC46B0EB0C0261F14D
:1059900000034FF0050C4FF00008A2FB0C7903FB4D
:1059A0000C9C02FB08CCB8461746A8FB07AB0CFBC7
:1059B00002B703FB087352465FEA630C4FEA3209F1
:1059C000B5EB090566EB0C06970847EA8377DDE936
:1059D00000C8BCEB070768EBA308CDE90078DFF847
:1059E000C0C0B0EB0C0C71F1FF3730DA40F2DC5C78
:1059F00010EB0C0241F100031746A7FB078903FBDC
:105A0000079903FB029342464FF007080027A2FBC9
:105A100008C903FB089802FB0788B5EB0C0566EB89
:105A200008064FF00B09BA461746A7FB09CB03FB44
:105A300009B802FB0A875FEA67084FEA3C09DDE91B
:105A4000007CB7EB09076CEB080CCDE9007C154F27
:105A50003F684FF00009DDE900C8A7FB0CAB09FB6C
:105A60000CBC07FB08CC4FEA5A5747EACC274FEA51
:105A70006C58BC46BCEB050C68EB06074FEA474880
:105A800048EADC370297DFF820C0029FCCF80070AC
:105A9000064F3860BDE8FE8F800200202C020020F7
:105AA00024FAFFFF30020020380200203C020020D0
:105AB00010B500F037F80149086010BD3002002031
:105AC00010B500F02FF80149086010BD2C0200202D
:105AD00010B500F03DF8002406E060B200F00AF8CE
