:020000040800F2
:1000000058120020B9020008452D0008B51F00084D
:10001000412D000875190008A749000800000000DC
:10002000000000000000000000000000E5300008B3
:10003000B319000800000000512F0008DD3200084D
:10004000D3020008D3020008D3020008D30200083C
:10005000D3020008D3020008D3020008D30200082C
:10006000D3020008D3020008D3020008D30200081C
:10007000D3020008D3020008D3020008D30200080C
:10008000D3020008D3020008D3020008D3020008FC
:10009000D3020008D3020008D3020008D3020008EC
:1000A000D3020008D3020008D3020008D3020008DC
:1000B000D302000809360008D3020008D302000862
:1000C000D3020008D3020008D3020008D3020008BC
:1000D000D3020008D3020008D3020008D3020008AC
:1000E000D3020008D3020008D3020008D30200089C
:1000F000D3020008D3020008D3020008D30200088C
:10010000D3020008D3020008D3020008D30200087B
:10011000853C0008D3020008AD360008D302000871
:10012000D3020008D3020008D3020008D30200085B
:1001300000F002F800F0B0F80AA090E8000C824449
:100140008344AAF10107DA4501D100F0A5F8AFF226
:10015000090EBAE80F0013F0010F18BFFB1A43F0A5
:100160000103184740680000606800000A444FF02F
:10017000000C10F8013B13F0070408BF10F8014B06
:100180001D1108BF10F8015B641E05D010F8016B4B
:10019000641E01F8016BF9D113F0080F1EBF10F8AF
:1001A000014BAD1C0C1B09D16D1E58BF01F801CBD2
:1001B000FAD505E014F8016B01F8016B6D1EF9D555
:1001C0009142D6D37047000000230024002500266A
:1001D000103A28BF78C1FBD8520728BF30C148BFAA
:1001E0000B6070476E2900F05181702900F09B82EE
:1001F000662906F07682652906F07382672906F083
:1002000070826129AFF3008003681B0A28BF41F0A8
:100210008001692900F0FE80642900F0FB807529C7
:1002200000F0F8806F2900F02982782900F06782B9
:10023000E92900F0C381E42900F0C081F52900F02C
:10024000BD81EF2900F02682F82900F0668203685C
:10025000DB0928BF41F08001632900F0EC85732998
:1002600000F0F185E32900F0FC85F32900F0018618
:10027000002070471FB500F053FE0400002000214D
:1002800005F0AEF8401C60600020002105F092F8F7
:10029000E0601FBD10B510BD00F014FE1146FFF761
:1002A000E9FF04F0C3FF00F0EDFE03B4FFF7F2FF37
:1002B00003BC00F031FF00000948804709480047AF
:1002C000FEE7FEE7FEE7FEE7FEE7FEE7FEE7FEE706
:1002D000FEE7FEE704480549054A064B7047000063
:1002E000E1320008310100085802002058120020B5
:1002F000580A0020580A00207CB51D4616460C00FE
:10030000009001D02044401E074B7B442A4669469A
:100310000190304600F0D3F805461CB10020694634
:1003200000F0E0F828467CBDE1010000002800DA7A
:100330004042704770477047704710B500F0C2FAEE
:10034000006810BD10B5044600F0BCFA046010BD92
:1003500070B5044685690068C10601D5302600E005
:100360002026C00707D070BDD4E901213046904750
:10037000206A401C20626D1EF6D570BD70B5044623
:1003800085690078C00707D170BDD4E9012120201C
:100390009047206A401C20626D1EF6D570BD09682A
:1003A0004A0501D540B27047C905FCD500B2704777
:1003B00009684A0501D5C0B27047C905FCD580B2AD
:1003C000704770B50C460546012A05D0287880068E
:1003D00000D5EA69002302E0012305E05B1C93429B
:1003E00002D2E05C0028F9D1A869E618C01AA86119
:1003F000286A184428622846FFF7AAFF04E0D5E9D6
:10040000012114F8010B9047B442F8D32846FFF7B6
:10041000B5FF70BD2DE9F04106460024106875292E
:10042000314616A510D0FFF7BAFF002802DA404285
:1004300013A507E031688A0701D512A502E0490734
:1004400004D511A5012401E0FFF7B2FF00210A2223
:1004500006F1240709E0B0FBF2FCB0FBF2F302FB6B
:100460001C00303078541846491C0028F3D123462C
:100470002A463046BDE8F04100F06DBA00000000A9
:100480002D0000002B000000200000001168026811
:10049000006A530501D508700AE0D30501D508802C
:1004A00006E0130603D5C217C1E9000200E00860A8
:1004B0000120704701694A1C02610878704700B545
:1004C0008FB0CDE901310021059105497944CDE98D
:1004D00003101146684600F031F90FB000BD00006E
:1004E000E5FFFFFF0A6802F8010B0A607047D1E9D7
:1004F00000239A4202D2531C0B6010707047000018
:100500002DE9FF5F15468A460446DFF8AC80F844C3
:100510000027D8E900103E46CDE9001010E03AF877
:1005200016106A4602A800F0A8FC411C07D02178EA
:10053000890603D5E269391891420DD80744761C23
:100540002078800602D5E069B84205DDAE42E6DBE0
:100550003AF816000028E2D1A069C01BA06120462D
:10056000FFF7F6FED8E90010CDE90010002017E0F3
:100570003AF818106A4602A800F07FFCB0F1FF3F7D
:1005800081460BD000250DF1080B05E0D4E90121CF
:100590001BF8050090476D1C4D45F7D308F101008D
:1005A000B0428046E4DB206A384420622046FFF7F0
:1005B000E5FEBDE8FF9F0000166300002DE9F04155
:1005C0008046D21D22F007020025D2E90002F5295B
:1005D00015A614D0011E72F1000106DA0023D0EB3B
:1005E000030063EB020211A608E0D8F800108B07A5
:1005F00001D50FA602E0490701D50EA60125114637
:10060000002408F1240704E000F060F930323A5584
:10061000641C50EA0102F7D12B463246214640467F
:10062000BDE8F04100F097B9000000002D00000087
:100630002B0000002000000030B4002100F1240451
:1006400008E002F00705D208303542EA4372DB08C1
:100650006554491C52EA0305F3D10468002310A233
:10066000250708D504F020040C4304D0C4690123F5
:100670000CA2641EC46130BC00F06DB910B5044614
:1006800021461068FFF794FE02462046BDE8104060
:100690000023D1E7D21D22F00701D1E90023CBE7E7
:1006A0000000000030000000F0B40D46018809058C
:1006B00002D5214C7C4402E01F4C7C440E340021C6
:1006C00000F1240608E002F00F071209E75D42EA94
:1006D00003721B097754491C52EA0307F3D10278CD
:1006E0000023120704D5702D06D009B1022311345E
:1006F0002246F0BC00F02FB901231034F8E770B5A2
:1007000004460D4621461068FFF752FE0246294670
:100710002046BDE870400023C6E7D21D22F0070343
:10072000D3E90023C0E70368126843F020030360A5
:100730000823C3610023B7E7786100002DE9F05F6B
:10074000894604464FF0000ADFF874B1FB44C0F854
:1007500020A02046E1688847002874D0252806D0CC
:10076000D4E901219047206A401C2062F1E700266D
:100770005F462046E16888472028054607DB312D83
:1007800005D2781910F8200C08B10643F1E7B0073C
:1007900001D526F00406C4F81CA00027C4F818A050
:1007A0002A2D09D0284604F001FA38B304EB870853
:1007B000303DC8F8185019E059F8041B204604EBE6
:1007C00087029161E1688847012F054618D1E069E9
:1007D000002820DA26F020061DE0D8F8180000EBEB
:1007E000800005EB40003038C8F818002046E1686A
:1007F0008847054604F0DAF90028EED1012F0AD027
:100800002E2D08D12046E16888477F1C0546022F1F
:1008100046F02006C4DBA069002803DA404246F017
:100820000106A061F00701D026F010066C2D0BD058
:10083000682D09D04C2D39D06A2D35D0742D35D086
:100840007A2D33D016E038E0E1682F4620468847FD
:10085000B842054609D16C2F26D04FF48060E1687C
:10086000064320468847054604E06C2F1AD04FF413
:10087000807006430DB3A5F14100192802D8203538
:1008800046F400664A462946204626604E46FFF753
:10089000A9FC80B101280BD0F61D26F0070000F15D
:1008A000080956E74020E4E78020D8E70020D6E793
:1008B00006F104094DE7284652E7206ABDE8F09F9B
:1008C0000861000000487047F401002030B5B0F125
:1008D0000A024FEA900E71F100034EEA817EB0EBFE
:1008E0000E0061EB91014FEA101E4EEA017E10EB03
:1008F0000E0041EB11114FEA102E4EEA016E10EB83
:100900000E0041EB11214FEA104E4EEA014E10EB62
:100910000E0041EB1141401841F100014FEAD000B7
:1009200040EA41704FEAD10110EB80054FEA8104A3
:1009300044EA907444EB01046D1944EB0404521B27
:10094000A3414FF0000348BF0A3200D530BD401C20
:1009500041F1000130BD2DE9F0470D469946924620
:10096000044600F124080168880604D5E06921F0F6
:100970001001216000E00120A84201DD471B00E0DA
:100980000027A1697A1902EB0900081AA0612078F2
:10099000C00602D42046FFF7DBFC002608E0D4E9BD
:1009A00001211AF806009047206A401C761C20623C
:1009B0004E45F4DB2078C0060AD52046FFF7C8FC78
:1009C00006E0D4E9012130209047206A401C2062D3
:1009D000381EA7F10107F4DC07E0D4E9012118F87B
:1009E00005009047206A401C2062281EA5F10105E1
:1009F000F3DC2046FFF7C2FC2078000602D5022077
:100A0000BDE8F0870120FBE770472DE9FF4F0C465A
:100A10001E464FF0FF378BB0D2E90001DDF8608051
:100A20000A908A46C1F30A5505B93D460021084699
:100A30004FF00000BAF1000F00F4400005DA00EBBF
:100A400080004FF4400101EA50004FEA9059B9F19B
:100A5000010F00DDB9460A9850EA4A000ED044F66C
:100A60001050A5F2FF3545432F14B8F1000F1ED0EA
:100A70007542291E1EDDC9F100021CE0B8F1010F0C
:100A80004FF0000001D0302103E0F24305E0215493
:100A9000401CB042FBDB30460022002121540B9960
:100AA000C1F80880C1E900200FB0BDE8F08FBD1B80
:100AB0006D1CDEE74A4600DA694206A800F074FAC7
:100AC00006AB93E8070003AB83E8070050460A999A
:100AD00000F029FB8DE80700A0F500501F380090BA
:100AE0000398002D09DD42F21F014A46084403A97C
:100AF0000390684600F088FD08E0A0F500504A46E3
:100B00001F3803A90390684600F092FD8DE80700A6
:100B10000004000C03D04FF0FF30410800E0104605
:100B2000B8F1000F03D00022009215461EE0751E9A
:100B300005D4FFF7CBFE303262556D1EF9D5B346B2
:100B40000122084302D000227F1C04E020783028D4
:100B500001D100227F1E002A099786D01DE0112DA9
:100B600007DAFFF7B3FE303262556D1C50EA01021E
:100B7000F5D1084302D00098C8B10EE00021681EEC
:100B800005E0235C625C63542254401E491C814290
:100B9000F7DBAB46A81B401E0990002004F80B00B1
:100BA0000B98099AC0F80880C0E9002B7CE7112651
:100BB0004FF0000859E72DE9F04F88460446D21D52
:100BC00022F0070191B0D1E90001CDE90A0103F05B
:100BD00071FF02460B98C00F01D02D2007E020685E
:100BE000810701D52B2002E0202101EAC000032A61
:100BF000099001D0072A05DB03464146204600F054
:100C000093F90BE12078800601D5E06900E0062029
:100C1000B8F1650F814606D0B8F1660F18D0B8F16B
:100C2000670F70D131E00020B9F1110F009001DBA6
:100C3000112301E009F101030AAA01A90CA8FFF799
:100C4000E4FEDDE90C70002609F10105834647E06A
:100C500001204B4600904FF000470AAA01A90CA8BA
:100C6000FFF7D3FEDDE90DB00C995D46002610B903
:100C700009F101000D18B9EB050003D4C0F1FF36EE
:100C800009F10105A5EB09002BE0B9F1010F01DA2B
:100C90004FF001090020B9F1110F0090484601DD25
:100CA000112300E003460AAA01A90CA8FFF7ADFE34
:100CB000DDE90C704D4600268346207800070AD4F3
:100CC000AB4500DA5D4601A8012D04DD411911F89C
:100CD000011C302907D04F4502DA17F1040F04DA5E
:100CE000012082460FE06D1EEEE7002F02DCED1BB7
:100CF0003E4403E0781CA84200DD7D1CB81B00F1D7
:100D0000010A4FF000472078000703D4AA4501DB11
:100D10004FF0FF3A0021B7F1004F0DF143088DF875
:100D2000431024D002202B23002F01DA7F422D23F1
:100D30000A21021EA0F1010000DC5FB197FBF1FC6B
:100D400097FBF1F201FB1C7C17460CF1300C08F804
:100D500001CDEEE7A8F1010003702188090501D556
:100D6000452100E06521A0F1010800F8011C099867
:100D70000FA9A1EB0807FF1D00B10120411901EBEC
:100D8000EA70A1693844081A401EA0612078C006A4
:100D900002D42046FFF7DCFA099828B1D4E90121F2
:100DA0009047206A401C20622078C00622D5204649
:100DB000FFF7CEFA1EE0002E04DBB34502DD01A8EA
:100DC000805D00E03020D4E901219047206A401C7A
:100DD0002062761CAAF101005FEA000A0AD100F045
:100DE0009FF8C0680168405CD4E901219047206AFF
:100DF000401C2062281EA5F10105DCDC07E0D4E9D7
:100E0000012118F8010B9047206A401C2062381E0F
:100E1000A7F10107F3DC2046FFF7B0FA032011B079
:100E200043E610B5436913B1AFF3008001E0FFF76B
:100E3000C8FA012010BD127800F124010A700022C6
:100E40004A700122EDE711684FF0FF32E9E710B573
:100E5000436913B1AFF3008001E0FFF751FB0120BC
:100E600010BD128800F1240182840022C284012274
:100E7000EDE711684FF0FF32E9E770B516460C4612
:100E8000054600F045F8036893F80101012806D0F3
:100E9000FF2C0FD8185D68B101202C7070BDD3F8FD
:100EA00007013246214603F2071303442846BDE8F2
:100EB000704018474FF0FF3070BD00000048704789
:100EC000F40100207546FFF7F9FFAE4605006946BC
:100ED000534620F00700854618B020B5FFF7FAF911
:100EE000BDE820404FF000064FF000074FF000082B
:100EF0004FF0000B21F00701AC46ACE8C009ACE8AC
:100F0000C009ACE8C009ACE8C0098D4670470000D4
:100F100010B500F005F8001D10BD00BFC54400006D
:100F200000487047140200202DE9F0411F46044696
:100F300003260168072A01F4006004DB08B116A546
:100F400005E016A503E008B115A500E015A521F000
:100F500010002060A069C01EA0610FB1401EA061FA
:100F60002046FFF7F5F94FB1D4E901213846904703
:100F7000206A401C2062C01C206206E0206AFAE75A
:100F8000D4E9012115F8010B9047761EF8D22046CE
:100F9000FFF7F4F9BDE8F0814E414E006E616E003E
:100FA000494E4600696E66002DE9F04781461646B7
:100FB0008AB0334878440DC88DE80D003048784435
:100FC000801C03AC0DC884E80D0041F69B3008443A
:100FD000372190FBF1F290FBF1F5A5F1800501FBC3
:100FE00012041B3C02D56442012000E00020DFF81F
:100FF00090A080460027FA44AAF1BE0A0DE0E0075F
:1010000009D03246684607EB47010AEB810100F040
:101010000FFB8DE8070064107F1C002CEFD1184FE8
:101020007F44AC3F18E0E80714D007EB04100DF143
:10103000180A90E80E008AE80E00C068F04201D15C
:1010400098190890324606A903A800F0F1FA03ABFC
:1010500083E807006D10641C002DE4D13246694618
:10106000B8F1000F03A802D000F0CEFA01E000F0C2
:10107000DFFAC9E90001C9F808200AB0BDE8F08725
:10108000D459000010B50446AFF300802046BDE8F7
:101090001040FFF70AB900004FF0013C50F8042B54
:1010A00051F8043B9A4221D1A2EB0C03934313EA7B
:1010B000CC1317D150F8042B51F8043B9A4215D1A8
:1010C000A2EB0C03934313EACC130BD150F8042B7F
:1010D00051F8043B9A4209D1A2EB0C03934313EA63
:1010E000CC13DBD04FF00000704700BFD01A01BA1C
:1010F000B1FA81F101F0180122FA01F0CB40C1F1FF
:101100002001DBB2C0B2C01A2CFA01F3D11A91430C
:1011100011EAC311E6D1704701491820ABBEFEE7C2
:101120002600020070475FEA400C08BF91F0000FF4
:101130004FEA8C234FEAC12243EA51514FEA1C5037
:1011400018BF00F5F0404FEA300018BF41F00041F1
:101150005FEA6C5C00F02980BCF1FF3F08BF40F003
:1011600080407047130C06BF12044FF0100C4FF074
:10117000000C130E04BF12020CF1080C130F04BF75
:1011800012010CF1040C930F04BF92000CF1020C3D
:10119000D30F04BF52000CF1010C11464FF00002B6
:1011A000A0F11F00A0EB0C00704711F0004F08BF2A
:1011B000704731F000413FF4D5AF0B0C06BF090476
:1011C0004FF0100C4FF0000C0B0E04BF09020CF195
:1011D000080C0B0F04BF09010CF1040C8B0F04BFAA
:1011E00089000CF1020CCB0F04BF49000CF1010C7B
:1011F000CCF12003A0EB0C0022FA03F302FA0CF26C
:1012000041EA030100F10100704720F07F4C80EAC1
:10121000030023F07F47ACEB070303F57C5300F09A
:10122000004003F1FF032DE980494FEA154B09B453
:101230004FEA144325EA0B4E24EA03480FF2042632
:1012400006EB132749083E785FEA320203FB066784
:10125000C7F5000707FB06F64FEA54374FEAD646B4
:1012600006F1020607FB066CCCF1005C4FEA1C4756
:101270002CEA074C07FB06F40CFB06F504EB1546BD
:101280004FEA961634BF00204FF000404FEAD137A6
:1012900006FB07FC4FEA1C4C0CFB0BF7D21B03FBB5
:1012A0000CF761EB07010CFB0EF7B0EB074072EB9C
:1012B00017420CFB08F734BFA2EB0742B2EB074220
:1012C00061EB17414FEA0C444FEA910706FB07FC1C
:1012D0004FEA1C4C0CFB0BF7B0EBC74072EB5732DC
:1012E00003FB0CF734BFA2EBC742B2EBC74261EB82
:1012F00057310CFB0EF7B0EBC70072EB57720CFBCB
:1013000008F734BFA2EBC702B2EBC70261EB57711B
:10131000039F4FEA816141EA921104EBCC044FEA4A
:10132000D1374FEA826206FB07FC42EA90124FEA8D
:1013300080604FEA1C4C0CFB0BF7D21B03FB0CF735
:1013400061EB07010CFB0EF7B0EB074072EB1742A5
:101350000CFB08F734BFA2EB0742B2EB074261EB8C
:1013600017414FEA8C554FEA910704EB9C2406FB8A
:1013700007FC4FEA1C4C0CFB0BF7B0EBC74072EBC1
:10138000573203FB0CF734BFA2EBC742B2EBC742A4
:1013900061EB57310CFB0EF7B0EBC70072EB5772E5
:1013A0000CFB08F734BFA2EBC702B2EBC70261EB3C
:1013B000577115EB4C254FEA816141EA92114FEAD2
:1013C00082624FEAD13742EA901206FB07FC44F1F1
:1013D00000044FEA80604FEA1C4C0CFB0BF7D21B59
:1013E00003FB0CF761EB07010CFB0EF7B0EB0740BA
:1013F00072EB17420CFB08F734BFA2EB0742B2EBCB
:10140000074261EB174115EB1C154FEA813141EAA8
:1014100092414FEA823242EA90424FEA80304FEAEC
:101420000C7644F1000448EA03434EEA0B484FF0BF
:10143000000EB2EB080C71EB030724BF624639467D
:101440004EEB0E0E4FF0000B0018524149414BEB92
:101450000B0BB2EB080C71EB03077BF1000B24BF05
:10146000624639464EEB0E0E4FF0000B001852410B
:1014700049414BEB0B0BB2EB080C71EB03077BF113
:10148000000B24BF624639464EEB0E0E51EA0207AE
:1014900018BF46F0010616EB0E7655F1000254F126
:1014A000000103D5BDE88901BDE80088BDE88901D8
:1014B000BDE80048B619524141EB0101A3F1010317
:1014C000704780807F7E7D7C7B7A797877767675B1
:1014D0007473727171706F6E6E6D6C6C6B6A6A6929
:1014E0006868676666656464636362616160605FC3
:1014F0005F5E5E5D5D5C5C5B5B5A5A59595858573C
:1015000057565655555554545353525252515150A3
:1015100050504F4F4F4E4E4D4D4D4C4C4C4B4B4BF6
:101520004A4A4A494949484848474747474646463C
:101530004545454444444443434343424242424177
:101540004141002B26D4770021D01CB54FEA370744
:1015500003B44FF010004FF010014FF000000FBC2B
:10156000BDE810400BF1010BBBF1010F08BF5FEAB2
:10157000170722BF12F1010211F101014FF00041E2
:1015800043F1000300F0004043EA00007047F9D344
:101590005708DAE746EA064613F1400F4FEA1646C7
:1015A0001FDD13F1200FDFBF16430A460021203351
:1015B0005B42C8D0C3F1200746EA064602FA07F7A5
:1015C0004FEA164646EA0706C3F1200722FA03F25D
:1015D00001FA07F721FA03F14FF0000342EA07028C
:1015E000B1E746EA020646EA06464FEA164646EAEA
:1015F0000106BCBF46EA0646360C4FF000034FF02A
:1016000000024FF000019EE72DE9C048934630B438
:1016100091E8380007C831EA400C48BF34EA430C6F
:1016200003D5FFF7F2FDFFF78CFFF0BCBDE80088A3
:101630002DE9C048934630B491E8380007C810F04F
:10164000804F08BF13F0804F03D100F005F8FFF77B
:1016500078FFF0BCBDE8008820F07F4780EA0300F7
:1016600023F07F4C07EB0C03A3F57C5300F0004004
:10167000A3F1FE0392F0000F00F0B38095F0000F8D
:1016800000F077802DE901494FEA11404FEA1446F6
:1016900021EA004800FB06FC24EA064708FB06F6A0
:1016A00007FB08F800FB07F718EB06484CEB164C55
:1016B0004FEA124B18EB07484FEA15464CEB174020
:1016C00022EA0B4E0BFB06FC25EA06470EFB06F64C
:1016D00007FB0EFE0BFB07F71EEB064E4CEB164C02
:1016E0004FF000061EEB074E4CEB174B18EB0B08A8
:1016F00040F1000018EB0E0B58EB000840F1000021
:101700008F1A4FF000013CBFC943661B14BFB5EBF5
:10171000040C00213CBFC943F61B4FEA17444EEAB4
:101720008E0E27EA04454FEA1C4704FB07622CEAA9
:10173000074C05FB07F70CFB05F604FB0CFC16EB4E
:10174000074642EB174216EB0C4642EB1C421BEBE2
:10175000060658EB0202414146EA9E0601D5BDE865
:101760000189B619524141EB0101A3F10103BDE822
:1017700001894FEA14454FEA114724EA054621EA58
:10178000074C05FB07F406FB07F70CFB06F105FB0E
:101790000CFC11EB074144EB17444FEA124711EBE5
:1017A0000C4144EB1C4422EA074C05FB07F206FB04
:1017B00007F70CFB06F605FB0CFC16EB074642EBA5
:1017C000174216EB0C4642EB1C456A1854F1000117
:1017D00048BF7047B619524141EB0101A3F1010323
:1017E000704795F0000F37D04FEA11424FEA144787
:1017F00021EA024624EA074C02FB07F106FB07F741
:101800000CFB06F402FB0CFC14EB074441EB174104
:101810004FEA154714EB0C4441EB1C4125EA074CF9
:1018200002FB07F506FB07F70CFB06F602FB0CFCB8
:1018300016EB074645EB174516EB0C4645EB1C42ED
:10184000121951F1000148BF7047B619524141EBDE
:101850000101A3F1010370474FEA14454FEA114714
:1018600024EA054621EA074C05FB07F106FB07F7CA
:101870000CFB06F24FF0000605FB0CFC12EB0742D6
:1018800041EB174112EB0C4251EB1C4148BF704732
:10189000921841EB0101A3F10103704700B589B033
:1018A000012140F6040001F075FB4FF47060ADF8C3
:1018B000040018208DF8070003208DF8060001A908
:1018C0002A4800F09FF92320ADF818000020ADF859
:1018D0001A0041F28730ADF81C000020ADF81E0060
:1018E0008DF8200006A9224802F07AF96020ADF8B0
:1018F00008000120ADF80A000420ADF80C0000201B
:10190000ADF80E00ADF810000820ADF8120040014F
:10191000ADF814000020ADF8160002A9144801F03B
:10192000FBFF02A9124802F04DF802A9104802F08C
:101930009BF802A90E4802F0E7F801210C4801F0DB
:101940005CFF01210A4801F064FF41F2883003F096
:101950004FFC1420064934310880091D0880091DF8
:101960000880091D088009B000BD00000008014082
:10197000002C014000BFFEE730B502460B464FF693
:10198000FF70002112E0555C684000240AE000F07E
:10199000010525B14AF2010585EA600000E040102A
:1019A000651CECB2082CF2DB4D1CE9B29942EADB73
:1019B00030BD70472DE9F0417948007850B9E620F4
:1019C00078490880091D0880091D0880091D0880C4
:1019D000BDE8F081744903C903F018FD04462246AE
:1019E00072480168724801F055FA724908607249FC
:1019F0007048006804F0CEFD03D26F486D4908605E
:101A000008E06E496B48006804F0C4FC02D26B48E1
:101A1000684908606A48026866480168694801F0D8
:101A200039FA69490860694903C903F0EFFC0446C3
:101A3000224667480168674801F02CFA6649086049
:101A40005D496548006804F0A5FD03D25A48624923
:101A5000086008E059496048006804F09BFC02D225
:101A600056485D4908605D4802685B4801685C480B
:101A700001F010FA5B4908605348006880F00047A5
:101A800008460168384604F001FB064656480168DE
:101A9000304604F0FBFA054654480168284604F035
:101AA000F5FA044652480168204604F0EFFA51491D
:101AB00008604548006880F000474A480168384699
:101AC00004F09AFD064648480168304604F094FD4B
:101AD000054646480168284604F0D8FA04464448BA
:101AE0000168204604F0D2FA434908603D48016885
:101AF0003548006804F080FD06463B4801683046E2
:101B000004F0C4FA054639480168284604F0BEFAD4
:101B1000044637480168204604F0B8FA374908609F
:101B2000304801682848006804F0B0FA06462E489C
:101B30000168304604F060FD05462C4801682846DF
:101B400004F0A4FA04462A480168204604F09EFAEC
:101B50002B4908602748006804F0C8FB044621466A
:101B6000012001F035FB2448006804F0BFFB044667
:101B70002146022001F02CFB2048006804F0B6FB4F
:101B800004462146032001F023FB1D48006804F0B1
:101B9000ADFB04462146042001F01AFB00BF17E705
:101BA000DC000020342C0140A0000020B800002000
:101BB00024010020D80000200000A0410000A0C1A6
:101BC000340000206C010020C40000209800002098
:101BD000B40000203C010020D40000203800002088
:101BE00054010020C8000020CC000020E0000020AC
:101BF000D0000020E4000020E8000020EC000020DD
:101C0000F00000202DE9F0410246002500260020CA
:101C100000230024002791F803C00CF00F0591F871
:101C200003C00CF0100CBCF1000F03D091F802C0FF
:101C30004CEA050591F800C0BCF1000F31D01468E2
:101C400000202BE04FF0010C0CFA00F3B1F800C0BB
:101C50000CEA03069E4220D183004FF00F0C0CFAD1
:101C600003F7BC4305FA03FC4CEA040491F803C0F3
:101C7000BCF1280F06D14FF0010C0CFA00FCC2F8A1
:101C800014C00AE091F803C0BCF1480F05D14FF031
:101C9000010C0CFA00FCC2F810C0401C0828D1D37B
:101CA0001460B1F800C0BCF1FF0F34DD54680020AF
:101CB0002EE000F1080C4FF0010808FA0CF3B1F81F
:101CC00000C00CEA03069E4221D183004FF00F0CA6
:101CD0000CFA03F7BC4305FA03FC4CEA040491F840
:101CE00003C0BCF1280F05D100F1080C08FA0CF86C
:101CF000C2F8148091F803C0BCF1480F07D100F17D
:101D0000080C4FF0010808FA0CF8C2F81080401CCB
:101D10000828CED35460BDE8F0814161704701616D
:101D2000704700002DE9F05F01233B22D0213548A8
:101D300000F03EFA3449088001233D22D021314889
:101D400000F036FA3149088001233F22D0212D4886
:101D500000F02EFA2E4908802B48B0F9000004F05C
:101D600001FB83464FF0804104F048FB824604F0BB
:101D700061F98046274A284B03F04CFE06460022B4
:101D8000264B03F031FC044603F040FB2449086075
:101D90001E48B0F9000004F0E5FA83464FF0804198
:101DA00004F02CFB824604F045F98046194A1A4B90
:101DB00003F030FE06460022184B03F015FC0446E3
:101DC00003F024FB174908601148B0F9000004F043
:101DD000C9FA83464FF0804104F010FB824604F0BC
:101DE00029F906460B4A0C4B03F014FE0446002268
:101DF0000A4B03F0F9FB804603F008FB0A49086030
:101E0000BDE8F09F0054004026000020280000207C
:101E10002A0000209A999999999923400000E0405E
:101E20004000002044000020480000202DE9F05F21
:101E300001234322D021344800F0BAF93349088005
:101E400001234522D021304800F0B2F93049088002
:101E500001234722D0212C4800F0AAF92D490880FF
:101E60002A48B0F9000004F07DFA83462A4904F0BC
:101E7000C5FA824604F0DEF880460022274B03F0C4
:101E8000B3FB0646264A274B03F0AEFB044603F09D
:101E9000BDFA254908601E48B0F9000004F062FA56
:101EA00083461D4904F0AAFA824604F0C3F880462E
:101EB00000221A4B03F098FB0646194A194B03F00F
:101EC00093FB044603F0A2FA184908601148B0F9E0
:101ED000000004F047FA83460F4904F08FFA824667
:101EE00004F0A8F8064600220C4B03F07DFB0446E4
:101EF0000B4A0C4B03F078FB804603F087FA0C4941
:101F00000860BDE8F09F0000005400402000002061
:101F100022000020240000200000FA430000E040DE
:101F2000295C8FC2F5A84C40340000203800002006
:101F30003C0000202DE9FF471748006803F017FD1B
:101F40000022164BCDE9000103F064FD0646002295
:101F5000134B03F05FFD04460022124B03F044FBD9
:101F6000804600224FF0804303F03EFBCDE90201A2
:101F700003F04CFA82460C49504604F00BFA02D2A8
:101F80000A48C0F800A009480168094800F058FE56
:101F900006490860BDE8FF87DC0100200000E03F43
:101FA000009AE04080842E4100009643C00100204A
:101FB000C401002000BFFEE721B1028842F4806224
:101FC000028004E002884FF6FF331A400280704717
:101FD0002DE9F0410746884614461E46069D00BF7F
:101FE0004FF40031384600F057F90028F8D10121AC
:101FF000384600F039F900BF2C49384600F09AF80D
:102000000028F9D000224146384600F01DFA00BFF2
:102010002749384600F08EF80028F9D001213846CB
:1020200000F09DF83146384600F017FA00BF20490D
:10203000891C384600F07EF80028F8D00121384687
:1020400000F012F900BF1949384600F073F8002873
:10205000F9D001224146384600F0F6F900BF134995
:10206000491C384600F066F80028F8D016E0012D2B
:1020700007D100213846FFF79FFF0121384600F0C5
:10208000FFF80A493F31384600F054F830B138467D
:1020900000F0D6F92070641C681E85B2002DE6D1D0
:1020A00001213846FFF788FFBDE8F08101000300F9
:1020B000820007002DE9F04106460F4614461D46F2
:1020C0000121304600F0D0F800BF1849304600F03A
:1020D00031F80028F9D000223946304600F0B4F932
:1020E00000BF1349304600F025F80028F9D02946F2
:1020F000304600F0B2F900BF0D49891C304600F0AF
:1021000019F80028F8D02146304600F0A6F900BFA3
:102110000749891C304600F00DF80028F8D001214D
:10212000304600F0ADF8BDE8F0810000010003008A
:102130008200070070B5024600240025002300201D
:10214000958A138B1B0445EA030626F07F4404EAB4
:1021500001068E4201D1012000E0002070BD21B1B6
:10216000028842F00102028004E002884FF6FE730A
:102170001A4002807047000010B504460B488442A4
:1021800009D10121480500F0F5FE00214FF40010AF
:1021900000F0F0FE08E00121880500F0EBFE0021D0
:1021A0004FF4800000F0E6FE10BD00000054004037
:1021B0002DE9FC4106460F4614461D4602202346E3
:1021C00001AA394600903046FFF702FF012D08D1E1
:1021D0009DF805009DF8041000EB012000B2BDE859
:1021E000FC819DF804009DF8051040EA012000B232
:1021F000F5E7000070B506461948864202D1C414BE
:10220000051501E0802440250DE029461548FFF71B
:1022100086FD0A2002F0ECFF29461248FFF77DFDFB
:102220000A2002F0E5FF0F480C300068204000282B
:10223000EBD029460B48FFF772FD21460948FFF70E
:102240006CFD0A2002F0D4FF21460648FFF767FD27
:102250000A2002F0CDFF0121304600F000F970BDE8
:1022600000580040000C014021B1028842F4807205
:10227000028004E002884FF6FF631A400280704734
:1022800021B1028842F40072028004E002884FF615
:10229000FF531A40028070470CB50246002000230D
:1022A0000193009300920B0F019321F07F41019B5A
:1022B0001BB1009B1433009303E0090C009B1833FF
:1022C0000093009B1B680B400BB1012000E0002035
:1022D0000CBD1AB183880B43838002E083888B4353
:1022E000838070472DE9F04385B004460D460026F3
:1022F000B1460427DFF8CC80A6884FF6C0700640B0
:10230000684600F057FEDDF808802F48B8FBF0F073
:102310001FFA80F946EA0906A68020884FF6FE716A
:102320000840208000262949286888420CD828685F
:102330004000B8FBF0F087B2042F00DA04273E43D8
:1023400009F10100208427E0E8884BF6FF718842FC
:1023500006D1286800EB4000B8FBF0F087B209E036
:10236000286800EBC00101EB0010B8FBF0F087B269
:1023700047F48047C7F30B0008B947F0010747F45B
:10238000004006434FF4967009FB00F04FF47A7159
:1023900090FBF1F0401C2084A683208840F00100CF
:1023A000208026884FF6F5300640A88869890843C2
:1023B00006432680A88929890843208105B0BDE805
:1023C000F083000000127A0040420F00A086010056
:1023D00038B504460A48844204D14FF44060ADF851
:1023E000000002E0C020ADF8000003208DF80200DC
:1023F0001C208DF8030069460248FFF703FC38BD36
:1024000000580040000C014038B504460A48844298
:1024100004D14FF44060ADF8000002E0C020ADF8F8
:10242000000003208DF8020014208DF80300694697
:102430000248FFF7E7FB38BD00580040000C0140A0
:102440000146088AC0B2704712B141F0010102E0B2
:102450004FF6FE731940018270470182704721B127
:10246000028842F40042028003E00288C2F30E02B6
:102470000280704710B586B004462D48844204D1CE
:102480000121880500F066FD03E00121480500F008
:1024900061FD0121082000F07DFD2548844204D122
:1024A0004FF44060ADF8140002E0C020ADF8140015
:1024B00003208DF816001C208DF8170005A91D4873
:1024C000FFF7A0FB0020ADF808004BF6FF70ADF859
:1024D0000A000020ADF80C004FF48060ADF80E004B
:1024E0000001ADF81000144801902046FFF744FEAB
:1024F00001A92046FFF7F6FE01212046FFF72FFE37
:1025000001224FF4C0612046FFF7E3FE4FF4003193
:102510002046FFF7C1FE28B12046FFF775FF204691
:10252000FFF768FE2046FFF753FF06B010BD00001E
:1025300000580040000C0140A08601000FB5A3B078
:10254000FE480168006803F059FF1D90FC480168CF
:10255000FA48006803F052FF1C90FA480168F748F7
:10256000006803F04BFF1B90F5480168006803F01A
:1025700045FF1A90F4480168F148006803F03EFFF7
:102580001990F0480168006803F038FF1890EE4891
:102590000168EC48006803F031FF1790EA480168D1
:1025A000006803F02BFF1690E6480168E4480068D5
:1025B00003F024FF1590E4480168E048006803F048
:1025C0001DFF14902599084603F018FF08902499E0
:1025D000084603F013FF06902399084603F00EFF08
:1025E0000590069903F052FD0790089903F04EFDFF
:1025F000099003F01FFDCDE90A0102F087FECDE945
:102600000C0102F003FF2190219803F013FDCF4A43
:10261000CF4BCDE90C0103F0C1F901D227B000BDC9
:102620002199239803F0A0FD23902199249803F089
:102630009BFD24902199259803F096FD25901B99E8
:10264000199803F0D9FF4FF080410D9003F0D6FEAA
:10265000209017991C9803F019FD4FF080410D90C0
:1026600003F0CCFE1F901A991D9803F0C5FF0C9043
:10267000189903F0C1FF0D90169903F007FD1E9005
:102680001F99259803F0BAFE0D901E99249803F027
:10269000B5FE0C900D9903F0AFFF13901E9923988F
:1026A00003F0ACFE0D902099259803F0A7FE0C9046
:1026B0000D9903F0A1FF12902099249803F09EFE3B
:1026C0000D901F99239803F099FE0C900D9903F03B
:1026D00093FF11909F480168139803F08FFE0590B7
:1026E00003F0A8FC9C4A9D4BCDE9060103F092F94A
:1026F000CDE90A01109803F09DFCCDE90801DDE960
:102700000A2302F0B5FECDE90C0102F07FFE109025
:1027100090480168129803F071FE059003F08AFC5E
:102720008D4A8E4BCDE9060103F074F9CDE90A011B
:102730000F9803F07FFCCDE90801DDE90A2302F0E0
:1027400097FECDE90C0102F061FE0F90814801680F
:10275000119803F053FE059003F06CFC7E4A7F4B0A
:10276000CDE9060103F056F9CDE90A010E9803F010
:1027700061FCCDE90801DDE90A2302F079FECDE92B
:102780000C0102F043FE0E9075480168139803F0A7
:1027900035FE0C90109903F079FC0D90269903F00A
:1027A00075FC26906E480168129803F027FE0C9085
:1027B0000F9903F06BFC0D90289903F067FC2890AB
:1027C00067480168119803F019FE0C900E9903F008
:1027D0005DFC0D90299903F059FC29905A482999DC
:1027E000006803F00BFE049056482899006803F037
:1027F00005FE02905248006880F000400090269943
:1028000003F0FCFD0190029903F0F6FE0390049999
:1028100003F0F2FE059003F00DFC4F4A514BCDE959
:10282000060103F0F7F8CDE90A014448006803F017
:1028300001FCCDE90801DDE90A2302F019FECDE92A
:102840000C0102F0E3FD3D4908603F48289900680B
:1028500003F0D4FD04903B482999006803F0CEFDB5
:10286000029036482699006803F0C8FD019002994D
:1028700003F00CFC0390049903F0BEFE059003F0F6
:10288000D9FB354A374BCDE9060103F0C3F8CDE952
:102890000A012B48006803F0CDFBCDE90801DDE912
:1028A0000A2302F0E5FDCDE90C0102F0AFFD244959
:1028B000086025482699006803F0A0FD0490204890
:1028C0002999006803F09AFD02901C482899006835
:1028D00003F094FD0190029903F08EFE0390049999
:1028E00003F0D4FB059003F0A5FB1B4A1D4BCDE97B
:1028F000060103F08FF8CDE90A011248006803F0E1
:1029000099FBCDE90801DDE90A2302F0B1FDCDE92B
:102910000C0102F07BFD0B4908600A48269900680B
:1029200003F06CFD049006482899006803F066FDEA
:10293000029002482999006816E000007C000020FF
:102940008000002084000020880000208DEDB5A0CC
:10295000F7C6B03E900000207B14AE47E17A743F8A
:102960008C000020E17A643F03F048FD0190029959
:1029700003F08CFB0390049903F03EFE059003F0F6
:1029800059FBA24AA24BCDE9060103F043F8CDE979
:102990000A01A048006803F04DFBCDE90801DDE91C
:1029A0000A2302F065FDCDE90C0102F02FFD9949E3
:1029B000086008460168006803F020FD089096480A
:1029C0000168006803F01AFD0690944801680068E9
:1029D00003F014FD049092480168006803F00EFDB6
:1029E0000390049903F052FB0590069903F04EFB07
:1029F0000790089903F04AFB099003F01BFBCDE90F
:102A00000A0102F083FCCDE90C0102F0FFFC2190E9
:102A1000219803F00FFB834A834BCDE90C0102F0B0
:102A2000BDFF00D2FAE57E482199006803F09CFBC7
:102A30007B49086079482199006803F095FB774944
:102A4000086075482199006803F08EFB72490860A0
:102A500070482199006803F087FB6E490860704850
:102A600001684FF0804003F0C9FC06906A48016895
:102A7000069803F0C3FC0890684801684FF0404096
:102A800003F0BCFC069063480168069803F0B6FCAE
:102A90000790089903F0FAFA099003F0CBFACDE910
:102AA0000A0102F08BF84FF06632604BCDE90C0161
:102AB00002F0B0FF5E4A03C2574801684FF0804001
:102AC00003F09CFC039054480168039803F096FCC3
:102AD0000590524801684FF0404003F08FFC03908E
:102AE0004E480168039803F089FC0490059903F0AF
:102AF00083FD4FF07E51069003F0C8FA079003F073
:102B000099FACDE90A01464801684FF0804003F088
:102B100075FC049041480168049803F06FFC06902E
:102B20003D4801684FF0804003F068FC049039484C
:102B30000168049803F062FC0590069903F0A6FA78
:102B4000079003F077FACDE90801DDE90A2302F0E6
:102B50007DFA4FF06632354BCDE90C0102F05AFF99
:102B6000344A03C24FF08040169903F047FC0590A9
:102B70004FF04040189903F041FC0490059903F090
:102B80003BFD4FF07E51069003F080FA079003F072
:102B900051FACDE90A014FF08040149903F02EFC60
:102BA00006904FF08040159903F028FC0590069997
:102BB00003F06CFA079003F03DFACDE90801DDE976
:102BC0000A2302F043FA4FF06632184BCDE90C01AC
:102BD00002F020FF184A03C200221346154903C918
:102BE00003F016F808D20022144B124903C903F06F
:102BF00037F9104A03C207E00022104B0D4903C900
:102C000002F036FC0B4A03C200BF07E57B14AE4757
:102C1000E17A643F880000208400002080000020CA
:102C20007C0000208DEDB5A0F7C6B03E66A64C40F6
:102C300098000020A0000020A8000020008066402E
:102C40002DE9F04704460D462168206903F0D6FBC4
:102C500081462168606903F0D1FB8246216803F058
:102C6000CDFB8046A16803F011FA06463046E168C4
:102C700003F00CFA80464146304603F075FA0746E9
:102C80004946284603F0B8FC8246394603F0B6FBB5
:102C90008046494603F0FAF9206139464FF07E50EC
:102CA00003F0AAFC8046314603F0A8FB606120696E
:102CB000BDE8F08770B50546094C0A48007800B1B8
:102CC000094C2146284603F065FC01D2254605E063
:102CD0000021284603F05EFB00D20025284670BD87
:102CE0000000C842BC0100200000484210B5124854
:102CF000FFF7C0FB114802F07BFA6B230022D021C2
:102D00000D48FFF7D7F919230722D0210A48FFF70A
:102D1000D1F91A230622D0210748FFF7CBF91B234C
:102D20000822D0210448FFF7C5F91C230122D02135
:102D30000148FFF7BFF910BD0054004020A1070073
:102D400000BFFEE77047000070B5002100230F228E
:102D5000C47804B3154C246804F4E064C4F5E0645A
:102D6000210AC1F10403CA40447804FA03F18478CB
:102D70001440214309010E4C0678A155047804F053
:102D80001F050124AC4005786D11AD0005F1E0256B
:102D9000C5F8004109E0047804F01F050124AC40A7
:102DA000044D0678761145F8264070BD0CED00E024
:102DB00000E400E080E100E002490143024A1160C2
:102DC000704700000000FA050CED00E030B58BB054
:102DD00000200790089009900A90039004900590B5
:102DE0000690009001900290002500240DE02748F5
:102DF00050F8240007A941F8240007A850F824003F
:102E000003A941F82400601CC4B2042CEFDB0024A9
:102E100010E003A810F824000DF8140003A830F8FF
:102E20002400C0F30720012101EB44010DF801004B
:102E3000601CC4B2042CECDB08216846FEF79CFD44
:102E400005462846E91705EB11610912A5EB01219A
:102E5000C9B28DF80810E91705EB1161090A8DF860
:102E6000091000240DE000BF8021094801F0CAFCD0
:102E70000028F9D01DF80410054801F090FD601CF1
:102E8000C4B20A2CEFDB0BB030BD0000E40100201F
:102E9000004C00402DE9F04F87B004460D46164621
:102EA0003146284603F0A8FB81464846216903F0D5
:102EB000A3FB0690C4F81090484603F0BBF8224AE2
:102EC000224BCDE9000102F0A5FDCDE90401E06847
:102ED00003F0B0F8CDE90201DDE9042302F0C8FAFD
:102EE000074602F093FAE0606169E06803F052FB84
:102EF00002D26069E0600BE0606980F0004738460C
:102F0000E16803F047FB03D2606980F00040E060B5
:102F1000D4E9021003F072FA80466168069803F063
:102F20006DFA83464846216803F068FA59460590D1
:102F300003F0ACF80746414603F0A8F88246504635
:102F400007B0BDE8F08F00007B14AE47E17A743F14
:102F50007047000029B1064AD2690243044BDA6186
:102F600004E0034AD2698243014BDA6170470000F2
:102F70000010024029B1064A12690243044B1A614B
:102F800004E0034A12698243014B1A617047000052
:102F90000010024029B1064A92690243044B9A612B
:102FA00004E0034A92698243014B9A617047000032
:102FB0000010024030B500210022002400232D4DD6
:102FC0006D6805F00C0121B1042905D0082923D131
:102FD00005E0294D056022E0274D05601FE0254DE5
:102FE0006D6805F47012234D6D6805F48034022578
:102FF00005EB92421CB9214D554305600BE01D4D78
:103000006D6805F400351DB11C4D5543056002E0A7
:10301000194D5543056002E0174D056000BF00BF24
:10302000144D6D6805F0F0010909154D6B5C0568DC
:10303000DD4045600F4D6D6805F4E061090A104DF3
:103040006B5C4568DD4085600A4D6D6805F4605134
:10305000C90A0B4D6B5C4568DD40C560054D6D6868
:1030600005F44041890B074D6B5CC568B5FBF3F572
:10307000056130BD0010024000127A0000093D00D9
:10308000000000201000002008B501210420FFF7F7
:1030900081FF1020ADF800008DF8030003208DF8AB
:1030A000020069460648FEF7ADFD4020ADF800007D
:1030B00004208DF8030069460148FEF7A3FD08BD12
:1030C0000008014010B510210548FEF728FE0F202A
:1030D00002F08EF810210248FEF71FFE10BD00001E
:1030E00000080140704710B500F002F810BD000064
:1030F0000CB50020019000903348006840F4803007
:103100003149086000BF3048006800F4003000908A
:103110000198401C0190009818B90198B0F5A06F73
:10312000F1D12948006800F4003010B1012000906E
:1031300001E0002000900098012843D12348006856
:1031400040F01000214908600846006820F00300A4
:1031500008600846006840F0020008601A484068AD
:10316000194948600846406848600846406840F48D
:10317000806048600846406820F47C10486008463B
:10318000406840F4E81048600846006840F08070ED
:10319000086000BF0C48006800F000700028F9D0FB
:1031A0000948406820F00300074948600846406825
:1031B00040F00200486000BF0348406800F00C0087
:1031C0000828F9D10CBD0000001002400020024088
:1031D0002DE9F04704460D46042C01DC012C01DAF0
:1031E000BDE8F087012C06D0022C1CD0032C33D074
:1031F000042C63D149E0284603F0B4F88246FFF777
:1032000059FD81462F4903F0F9F880462E4902F016
:10321000ABFF07462D4902F039FF064603F082F85E
:103220002B4908804AE0284603F09CF88246FFF7C5
:1032300041FD8146274903F0E1F88046224902F02A
:1032400093FF0746244902F021FF064603F06AF87F
:103250001F49091D088031E0284603F083F88246A3
:10326000FFF728FD81461B4903F0C8F88046164940
:1032700002F07AFF0746184902F008FF064603F0FD
:1032800051F813490831088018E0284603F06AF81D
:103290008246FFF70FFD81460A4903F0AFF88046EA
:1032A000094902F061FF0746084902F0EFFE0646B1
:1032B00003F038F806490C31088000BF00BF00BF9A
:1032C0008EE7000000005C430000C8420000964307
:1032D000342C014000007A4300008743704700000F
:1032E00010B51348006840F0010011490860084615
:1032F0004068104908400E494860084600680E4979
:1033000008400B4908600846006820F480200860E7
:103310000846406820F4FE0048604FF41F008860B3
:10332000FFF7E1FE4FF000600449086010BD0000A7
:10333000001002400000FFF8FFFFF6FE08ED00E07D
:10334000F0B50C46154600220021068C4FF6FE779C
:103350003E400684028B018C4FF60C7632407E1C78
:1033600006EA03162E433243104EB0420ED0104EE2
:10337000B0420BD0B0F1804F08D00E4EB04205D015
:103380000D4EB04202D00D4EB04206D14FF6FD7642
:10339000314044F00106314305E04FF6F576314007
:1033A00044F00106314302830184F0BD002C01404A
:1033B000003401400004004000080040000C0040C0
:1033C000F0B50C461546002200210026078C4FF66A
:1033D000EF7C07EA0C070784028B018C4FF6FF771E
:1033E00007EA041640F6FF473A404FF6FF7707EA30
:1033F00003373A434FF6FF7707EA05273A43114F61
:10340000B8420ED0104FB8420BD0B0F1804F08D068
:103410000E4FB84205D00E4FB84202D00D4FB84201
:1034200006D14FF6DF77394046F01007394305E003
:103430004FF65F77394044F0100739430283018427
:10344000F0BD0000002C01400034014000040040A9
:1034500000080040000C0040F0B50C461546002264
:1034600000210026078C4FF6FF6C07EA0C07078443
:10347000828B018C4FF6FF7707EA04264FF60C7714
:103480003A404FF6FF7707EA03172F433A43114FAD
:10349000B8420ED0104FB8420BD0B0F1804F08D0D8
:1034A0000E4FB84205D00E4FB84202D00D4FB84271
:1034B00006D14FF6FF57394046F48077394305E08F
:1034C0004FF2FF57394044F48077394382830184B7
:1034D000F0BD0000002C0140003401400004004019
:1034E00000080040000C0040F0B50C4615460022D4
:1034F00000210026078C4EF6FF7C07EA0C070784A4
:10350000828B018C4FF6FF7707EA043640F6FF47BF
:103510003A404FF6FF7707EA05273A434FF6FF7721
:1035200007EA03373A43114FB8420ED0104FB84262
:103530000BD0B0F1804F08D00E4FB84205D00E4FDF
:10354000B84202D00D4FB84206D14DF6FF77394050
:1035500046F48057394305E047F6FF57394044F4B5
:103560008057394382830184F0BD0000002C014064
:10357000003401400004004000080040000C0040FE
:1035800000B587B001210220FFF7E4FC4FF4FA6098
:10359000ADF808002320ADF804000020ADF80A00C3
:1035A000ADF8060001A9174800F01AFB0020ADF89D
:1035B0001000ADF812000120ADF814000020ADF8A5
:1035C0001600ADF8180004A90E4800F045F91D20BA
:1035D0008DF8000003208DF8010000208DF8020016
:1035E00001208DF803006846FFF7AEFB012203219E
:1035F000044800F087F90121024800F0FEF807B006
:1036000000BD00000004004010B50121234800F077
:1036100012F920B122480078401C2149087002218B
:103620001E4800F008F9A0B31E48007870B90020C9
:103630001B4908700021194800F0A4FA012019491B
:1036400008700221154800F0B3F922E0154800780F
:1036500001281ED1114800F0EBF81349086010480A
:10366000007800EB4001C1EBC0100F49096801EB85
:1036700000100D4908600020094908700021074822
:1036800000F080FA0020074908700021034800F08C
:103690008FF90321014800F0ADF810BD000400408F
:1036A0001800002019000020DC0100201CB50121B9
:1036B000244800F0C0F8002842D00121214800F041
:1036C00099F8002201211F4800F01CF91E480068EB
:1036D000012806D0022809D0032818D004281ED1BA
:1036E00018E0FEF7A3FBFEF71DFB19E01748006882
:1036F00017490968CDE900101648036816480268A2
:103700001648016816480068FEF718FF08E0FEF743
:1037100051F905E0FFF7D6FCFEF70CFC00E000BF16
:1037200000BF09480068401C052190FBF1F201FB35
:1037300012000549086001221146024800F0E2F833
:103740001CBD0000001000401C0000203C000020B8
:1037500038000020340000204800002044000020F1
:10376000400000201FB504462048844203D0204872
:10377000844200D01FBD1D48844207D10121102082
:10378000FFF7E8FB36208DF80C0009E0184884426A
:1037900006D101212020FFF7DDFB37208DF80C003A
:1037A00000208DF80D0001208DF80E008DF80F001F
:1037B00003A8FFF7C9FA4FF4FA60ADF8040023201C
:1037C000ADF800000020ADF80600ADF80200694633
:1037D000204600F005FA01221146204600F092F83A
:1037E0000121204600F009F800BFC3E700100040A7
:1037F00000140040CA430282704721B1028842F09F
:103800000102028004E002884FF6FE731A40028033
:10381000704731B1B0F8442042F40042A0F844208F
:1038200005E0B0F84420C2F30E02A0F8442070472F
:103830000146888E704730B50246002000230024E0
:10384000158A05EA0103958905EA010413B10CB153
:10385000012000E0002030BD70B505460C4624482C
:1038600085420ED0234885420BD0B5F1804F08D059
:103870002148854205D02148854202D02048854212
:1038800000D100E000BF208850B92389A288618858
:103890002846FFF755FDE188284600F075F925E038
:1038A000208804280AD12389A28861882846FFF746
:1038B00087FDE188284600F070F917E02088082885
:1038C0000AD12389A28861882846FFF7C5FDE188CF
:1038D000284600F06FF909E02389A288618828460C
:1038E000FFF702FEE188284600F06DF970BD000088
:1038F000002C01400034014000040040000800405A
:10390000000C00401AB183890B43838102E0838954
:103910008B4383817047000070B500240022002390
:10392000058C4FF6FE7635400584028C8388048B27
:103930004FF68F752C40B51E2C400D882C43751EFC
:103940002A400D892A434D882A43144DA8420BD0A2
:10395000134DA84208D0134DA84205D0124DA842DD
:1039600002D0124DA84213D14FF6F7752A404D8967
:103970002A434FF6FB752A408D882A434FF6FF6590
:103980002B404FF6FF552B408D892B43CD892B4380
:1039900083800483CD888586028470BD002C01401D
:1039A0000034014000400140004401400048014013
:1039B0000A460021018C4FF6FD7319401143018422
:1039C0007047000070B5002400220023058C4FF6DC
:1039D000EF7635400584028C8388048B48F6FF75AA
:1039E0002C404FF6FF452C400D884FF6FF7606EA37
:1039F00005252C434FF6DF752A400D8906EA05158B
:103A00002A434D8806EA05152A43154DA84202D0DF
:103A1000144DA8421DD14FF67F752A404D894FF6AF
:103A2000FF7606EA05152A434FF6BF752A408D88B2
:103A300006EA05152A434FF6FF352B404FF2FF7576
:103A40002B408D8906EA85052B43CD8906EA85053D
:103A50002B4383800483CD880587028470BD0000DA
:103A6000002C01400034014070B5002400220023E6
:103A7000058C4FF6FF6635400584028C8388848B65
:103A80004FF68F752C404FF6FC752C400D882C435B
:103A90004FF6FF552A400D894FF6FF7606EA0525B9
:103AA0002A434D8806EA05252A43154DA84202D02F
:103AB000144DA8421DD14FF2FF752A404D894FF693
:103AC000FF7606EA05252A434FF6FF352A408D8802
:103AD00006EA05252A434EF6FF752B404DF6FF7585
:103AE0002B408D8906EA05152B43CD8906EA05157D
:103AF0002B4383808483CD888587028470BD00003A
:103B0000002C01400034014070B500220023002445
:103B1000058C4EF6FF7635400584038C8488828BB5
:103B200048F6FF752A404FF6FF452A400D884FF6AC
:103B3000FF7606EA05252A434DF6FF752B400D89D1
:103B400006EA05352B434D8806EA05352B430B4D18
:103B5000A84202D00A4DA84208D14BF6FF752C406E
:103B60008D894FF6FF7606EA85152C438480828383
:103B7000CD88A0F84050038470BD0000002C0140A7
:103B80000034014081847047028B4FF6F3731A4072
:103B90000283028B0A4302837047028B4FF2FF338A
:103BA0001A400283028B4FF6FF7303EA01231A4384
:103BB00002837047828B4FF6F3731A408283828BA5
:103BC0000A4382837047828B4FF2FF331A4082830D
:103BD000828B4FF6FF7303EA01231A4382837047F7
:103BE000002202881D4B98420ED01D4B98420BD0EC
:103BF000B0F1804F08D01B4B984205D01A4B984229
:103C000002D01A4B984204D14FF68F731A404B885A
:103C10001A43174B984207D0164B984204D04FF6E0
:103C2000FF431A40CB881A4302808B8883850B8818
:103C300003850A4B98420BD0094B984208D00E4B93
:103C4000984205D00D4B984202D00D4B984201D1BD
:103C50000B7A03860123838270470000002C014009
:103C6000003401400004004000080040000C004007
:103C7000001000400014004000400140004401409A
:103C80000048014000B58DB040F22551F84800F0E1
:103C9000C6FD00287ED040F22551F54800F097FD82
:103CA000F34800F077FEC0B20C900C986D2872D0EB
:103CB0001DDC652870D00EDC62286ED006DC312851
:103CC0006CD032286BD061286AD1D0E0632868D0EC
:103CD0006428F9D12DE06638072861D2DFE810F0BA
:103CE000380010048204F3006000D203F1036E3840
:103CF0000D28F2D2DFE810F0600317013C008000CD
:103D0000640134000D00C604410354008C02960483
:103D10008101D848007808B9012000E00020D54989
:103D200008700020D449C860D4A1D14801F014FB28
:103D30006DE2D648007808B9012000E00020D349A0
:103D4000087008460278D2A1C94801F005FBEFE7E8
:103D50000120D3490870D3A1C54801F0FDFAE7E777
:103D60000020CF490870D3A1C14801F0F5FADFE780
:103D7000D3480068079002F05DF9D24AD24BCDE9F2
:103D8000080101F075FBCDE90A0101F03FFBCC49C8
:103D9000086007E0D3E342E3F5E081E0D0E3D0E35D
:103DA000D0E3CBE2C9480068079002F043F9C54A66
:103DB000C54BCDE9080102F053F8CDE90A0101F045
:103DC00025FBC2490860BE480068079002F032F93E
:103DD000CDE90A01BD480068079002F02BF9CDE952
:103DE0000801DDE90A01CDE90001B9A1A048DDE93A
:103DF000082301F0B1FA9BE7B1480068079002F090
:103E000019F9B04AB04BCDE9080102F029F8CDE923
:103E10000A0101F0FBFAAA490860AC480068079063
:103E200002F008F9A74AA84BCDE9080101F020FBF0
:103E3000CDE90A0101F0EAFAA4490860A048006847
:103E4000079002F0F7F8CDE90A01A0480068079052
:103E500002F0F0F8CDE90801DDE90A01CDE9000141
:103E60009BA18348DDE9082301F076FA60E70A2187
:103E70000120FFF7ADF90A210220FFF7A9F90A2175
:103E80000320FFF7A5F90A210420FFF7A1F99748BD
:103E90000088024696A10B90754801F05DFA47E74D
:103EA000E62092490880091D0880091D0880091D27
:103EB00008808E48001D0088024690A10B906C4837
:103EC00001F04AFA34E790484068079002F0B2F8EF
:103ED0008E4A8F4BCDE9080101F0CAFACDE90A01FB
:103EE00001F094FA884948608A484068079002F0D7
:103EF000A1F8864A864BCDE9080101F0B9FACDE96F
:103F00000A0101F083FA834948607F4840680990BC
:103F100002F090F802460B46CDE90A017EA1544812
:103F200001F01AFA04E778484068079002F082F836
:103F3000764A774BCDE9080101F092FFCDE90A01FD
:103F400001F064FA7049486072484068079002F0D6
:103F500071F86E4A6E4BCDE9080101F081FFCDE9A1
:103F60000A0101F053FA6B494860674840680990BC
:103F700002F060F802460B46CDE90A0166A13C4812
:103F800001F0EAF9EDE36B48006802F053F8002213
:103F9000694BCDE9080101F06BFACDE90A0101F0A6
:103FA00035FA644908600846006802F043F80246A2
:103FB0000B46CDE90A0161A12D4801F0CDF9D0E30E
:103FC0005C48006802F036F800225B4BCDE908013E
:103FD00001F046FFCDE90A0101F018FA55490860E1
:103FE0000846006802F026F802460B46CDE90A01B1
:103FF00052A11F4801F0B0F9B3E34348806807902D
:1040000002F018F8414A424BCDE9080101F028FFBF
:10401000CDE90A0101F0FAF93B4988603D48806822
:10402000079002F007F8394A394BCDE9080101F051
:1040300017FFCDE90A0101F0E9F93649886000204F
:104040003149C86008468068019001F0F3FFCDE96E
:104050000201FCF76BF9059001F089FC0022134680
:10406000CDE9060101F018FC77D13948394980E0E3
:10407000004C0040BD0100209C01002053454E44EF
:10408000206368616E6765210D0A0000BC01002095
:1040900044656275673D202025640D0A000000001C
:1040A000DC000020737461727420666C79210D0A43
:1040B0000000000073746F7020666C79210D0A0097
:1040C000240100207B14AE47E17A843F3C010020AC
:1040D00070697463685F503D256620202020726FF0
:1040E0006C6C5F503D2566200D0A0000342C0140A9
:1040F0004343523D25640D0A000000004343523201
:104100003D25640D0A0000006C0100209A999999E0
:104110009999B93F54010020414E474C455F535097
:104120004545445F585F5049442E4B443D25660D3C
:104130000A000000B80000200000E03F726F6C6CC5
:104140005F7461726765743D25660D0A00000000AA
:10415000FCA9F1D24D62503FFFE7FB488068039015
:1041600001F068FFCDE90401FCF7E0F8079001F0E9
:10417000FEFB02460B46CDE908010020F34901F0A1
:1041800033FACDE90A0101F041F9EF494861002015
:10419000EF49C86008468068019001F04BFFCDE907
:1041A0000201FCF7C3F8059001F0E1FB0022134681
:1041B000CDE9060101F070FB02D1E648E6490BE0CB
:1041C000E3488068039001F035FFCDE90401FCF776
:1041D000ADF8079001F0CBFB02460B46CDE9080194
:1041E0000020DA4901F000FACDE90A0101F00EF9E8
:1041F000D7494861D4488068099001F01BFF024606
:104200000B46CDE90A01D5A1D94801F0A5F8A8E2ED
:10421000CD488068079001F00DFFD64AD64BCDE916
:10422000080101F025F9CDE90A0101F0EFF8C649CE
:104230008860C7488068079001F0FCFECD4ACE4BED
:10424000CDE9080101F014F9CDE90A0101F0DEF829
:10425000BF4988600020BC49C8600846806801905A
:1042600001F0E8FECDE90201FCF760F8059001F0ED
:104270007EFB00221346CDE9060101F00DFB02D1C1
:10428000B448B5490BE0B0488068039001F0D2FE15
:10429000CDE90401FCF74AF8079001F068FB0246FB
:1042A0000B46CDE908010020A84901F09DF9CDE9B0
:1042B0000A0101F0ABF8A44948610020A449C86094
:1042C00008468068019001F0B5FECDE90201FCF7D7
:1042D0002DF8059001F04BFB00221346CDE90601B5
:1042E00001F0DAFA02D19B489B490BE098488068BC
:1042F000039001F09FFECDE90401FCF717F8079049
:1043000001F035FB02460B46CDE9080100208F493C
:1043100001F06AF9CDE90A0101F078F88C494861A9
:1043200089488068099001F085FE02460B46CDE978
:104330000A018AA18E4801F00FF812E28F48006846
:10434000079001F077FE8B4A8B4BCDE9080101F015
:104350008FF8CDE90A0101F059F88849086008464C
:104360000068099001F066FE02460B46CDE90A019D
:1043700083A17F4800F0F0FFF3E1804800680790D8
:1043800001F058FE7B4A7C4BCDE9080101F068FD45
:10439000CDE90A0101F03AF878490860084600685A
:1043A000099001F047FE02460B46CDE90A0174A1CF
:1043B0006F4800F0D1FFD4E174488068079001F0A5
:1043C00039FE644A644BCDE9080101F051F8CDE9AA
:1043D0000A0101F01BF86D498860084680680146B3
:1043E0000B906B4801F0C0FE68494861084640697F
:1043F000079001F01FFECDE90A016448806807902C
:1044000001F018FECDE90801DDE90A01CDE900015E
:1044100060A15748DDE9082300F09EFFA1E15B4859
:104420008068079001F006FE4A4A4B4BCDE908012F
:1044300001F016FDCDE90A0100F0E8FF534988605C
:104440000846806801460B90514801F08DFE4F49A7
:10445000486108464069079001F0ECFDCDE90A018A
:104460004A488068079001F0E5FDCDE90801DDE9E3
:104470000A01CDE9000147A13D48DDE9082300F02C
:104480006BFF6EE141480068079001F0D3FD394AA7
:10449000394BCDE9080100F0EBFFCDE90A0100F04E
:1044A000B5FF3A49086008460068099001F0C2FD6E
:1044B00002460B46CDE90A0140A12D4800F04CFF11
:1044C0004FE132480068079001F0B4FD294A2A4BB9
:1044D000CDE9080101F0C4FCCDE90A0100F096FF26
:1044E0002A49086008460068099001F0A3FD0246C9
:1044F0000B46CDE90A0131A11D4800F02DFF30E146
:1045000022484068079001F095FD1A4A1A4BCDE900
:10451000080100F0ADFFCDE90A0100F077FF1B496B
:10452000486008464068099001F084FD02460B4649
:10453000CDE90A0126A10E4800F00EFF11E111E1BC
:10454000D0E0EEE00CE100006C01002000005940DA
:1045500054010020FCA9F1D24D62503F616E676C9E
:10456000655F73706565645F6B693D25660D0A0064
:10457000004C00409A9999999999B93F840100207B
:104580007961775F4B503D25660D0A009C01002044
:10459000000048426865696768745F4B493D25665D
:1045A00020202020204865696768745F5049442EA8
:1045B000695F6D61783D25660D0A00004865696791
:1045C00068745F5049442E4B503D25660D0A00002B
:1045D0004865696768745F5049442E4B443D2566C1
:1045E0000D0A000060484068079001F023FD5F4A13
:1045F0005F4BCDE9080101F033FCCDE90A0100F081
:1046000005FF5949486008464068099001F012FDCD
:1046100002460B46CDE90A01AFF24C01554800F0C5
:104620009BFE9EE054480068079001F003FD4F4A4E
:104630004F4BCDE9080101F013FCCDE90A0100F070
:10464000E5FE4D4908604D480068079001F0F2FC16
:10465000464A474BCDE9080101F002FCCDE90A01C9
:1046600000F0D4FE4549086043480068099001F015
:10467000E1FC02460B46CDE90A0141A13D4800F0AC
:104680006BFE6EE03C480068079001F0D3FC374AAF
:10469000374BCDE9080100F0EBFECDE90A0100F04F
:1046A000B5FE3549086035480068079001F0C2FC46
:1046B0002E4A2F4BCDE9080100F0DAFECDE90A01C0
:1046C00000F0A4FE2D4908602B480068099001F015
:1046D000B1FC02460B46CDE90A0129A1254800F0AC
:1046E0003BFE3EE02D484068079001F0A3FC2C4AB9
:1046F0002C4BCDE9080100F0BBFECDE90A0100F02A
:1047000085FE2649486008464068099001F092FC01
:1047100002460B46CDE90A0123A1164800F01CFE13
:104720001FE01E484068079001F084FC1C4A1D4BA6
:10473000CDE9080101F094FBCDE90A0100F066FE25
:104740001649486008464068099001F073FC02462B
:104750000B46CDE90A0114A1064800F0FDFD00E07A
:1047600000BF00BF0DB000BD9C0100209A9999992F
:104770009999B93F004C00406C0100205401002081
:10478000414E474C455F53504545445F585F504943
:10479000442E4B503D25660D0A00000024010020E8
:1047A0007B14AE47E17A843F526F6C6C5F50494492
:1047B0002E4B443D25660D0A0000000001F40072F6
:1047C000B2F5007F00D100BFCA430280704710B528
:1047D0000022002340F66A14A14200D100BF0A1251
:1047E00001249440A3B2DC43048010BD21B182892E
:1047F00042F40052828104E082894DF6FF731A4030
:104800008281704702460020B1F5007F00D100BFD1
:1048100013880B400BB1012000E00020704770B5F9
:104820000246002400230025002040F66A16B1420B
:1048300000D100BFC1F3421501F01F03012606FAA3
:1048400003F3012D02D19689334006E0022D02D1F7
:10485000168A334001E0968A33400C12012606FA8C
:1048600004F41688344013B10CB1012000E000209C
:1048700070BDF0B50346002400260025002040F658
:104880006A17B94200D100BF1846C1F3421401F0C3
:104890001F06012707FA06F5012C01D10C3004E0B0
:1048A000022C01D1103000E014301AB107682F43F8
:1048B000076002E00768AF430760F0BD2DE9F047ED
:1048C00086B005460E460024A24600BFA14600273A
:1048D000B08900B100BF2F462C8A4CF6FF7004400F
:1048E000F08804432C82AC894EF6F3100440B08863
:1048F00031890843718908430443AC81AC8A4FF67F
:10490000FF400440B0890443AC8201A8FEF752FB8B
:104910001F48874202D1DDF810A001E0DDF80CA0AD
:10492000A88900F4004040B10AEBCA0000EB0A106D
:1049300031684900B0FBF1F807E00AEBCA0000EB70
:104940000A1031688900B0FBF1F86420B8FBF0F080
:1049500004012009642101FB1089A88900F40040AA
:1049600040B1322000EBC900B0FBF1F000F00700CD
:10497000044308E0322000EB09106421B0FBF1F0A1
:1049800000F00F0004432C8106B0BDE8F087000062
:104990000038014001468888C0F308007047C1F321
:1049A00008028280704700BFFEE7000030B587B084
:1049B00004460D4602950020ADF80C00ADF80E003F
:1049C000ADF81000ADF814000C20ADF812004FF453
:1049D000E060FEF7F1F900208DF8060001208DF867
:1049E00007003048844225D101210420FEF7D2FA85
:1049F00001218803FEF7CEFA18208DF81B00032052
:104A00008DF81A006015ADF8180006A92648FDF7C4
:104A1000F9F82015ADF8180048208DF81B0006A9FC
:104A20002148FDF7EFF825208DF8040001A8FEF7D6
:104A30008BF927E01D48844224D101211020FEF784
:104A4000A9FA0121C804FEF785FA18208DF81B0089
:104A500003208DF81A002015ADF8180006A9144897
:104A6000FDF7D0F8E014ADF8180048208DF81B00D1
:104A700006A90F48FDF7C6F834208DF8040001A8F8
:104A8000FEF762F902A92046FFF718FF0121204630
:104A9000FFF7ACFE012240F225512046FFF7E9FE68
:104AA00007B030BD0038014000080140004C004014
:104AB00000100140490050EAC12018BF04204A0DEF
:104AC00018BF40F0010040F2FF72B2EB515F08BF27
:104AD00040F00200012808BF052070472DE9F04191
:104AE0004F1E00EBC7010446D1E9000115461E46E2
:104AF00037F006020DD02A46334600F08BFF7F1EAA
:104B000004EBC703D3E9002300F0B2FC37F0060240
:104B1000F1D1022F25D0042F13D0062F18BFBDE8E6
:104B2000F0812A46334600F075FFD4E90A2300F0ED
:104B30009FFC2A46334600F06DFFD4E9082300F0BD
:104B400097FC2A46334600F065FFD4E9062300F0BF
:104B50008FFC2A46334600F05DFFD4E9042300F0C1
:104B600087FC2A46334600F055FFD4E9022300F0C3
:104B70007FFC2A46334600F04DFFD4E90023BDE810
:104B8000F04100F075BC012201F0DFBD00F070BC07
:104B9000002213461046114600F026BD024A0020AE
:104BA000110701F0D2BD000001FDFFFF30380A28D7
:104BB00001D2012070470020704700002DE9F04D20
:104BC0008D4F21F0004A86B005460C46BA452ADBD7
:104BD000AAEB070028430AD08848824501DC1AD195
:104BE000CDB106B02846BDE8F04DFFF7CCBF844AF2
:104BF000844B284600F00EFF07460E46824A834B40
:104C00002846214600F006FF06B03A463346BDE886
:104C1000F04D00F02DBC0120FBF794FB06B0BDE881
:104C2000F04DFFF7B5BF7A48824542DABAF1795FB5
:104C30000BDA2846FFF73EFF042808BFFFF7AEFF58
:104C4000284606B02146BDE8F08D2A460B461046A0
:104C500000F0E0FE834602466E480E460B460621F3
:104C60007844FFF73BFF5A46334600F0D3FE8046B8
:104C700069488A465A46334604217844FFF72EFF96
:104C80005A46334600F0C6FE00223B4600F0F0FBD9
:104C900002460B464046514600F0A6FC2A462346F3
:104CA00000F0B8FE06B02A462346BDE8F04D00F0FD
:104CB000DFBB284624F0004100223D463B4600F081
:104CC000DDFF4FF0FF3201F040FD0646024653483B
:104CD0000F460B4606217844FFF700FF32463B465D
:104CE00000F098FECDE900014D4832463B460421D4
:104CF0007844FFF7F3FE32463B4600F08BFE00227D
:104D00002B4600F0B5FB834602913046394600F051
:104D1000FDFA804643480D46504517DCDDE90001A9
:104D20005A46029B00F060FC42462B4600F072FEA1
:104D300042462B4600F09CFB012201F006FD304A62
:104D4000304B01F08DF8304A304B4CE04FF0000A08
:104D500052460B46404600F08BFBCDE9031052460D
:104D60002B461046194600F055FE32463B4600F0F1
:104D700085FFDDE9033200F037FC06460F46DDE92A
:104D800000015A46029B00F02FFC8346009101224D
:104D90003046394601F0D9FC194A1A4B00F06EFF33
:104DA00006460F4601224046294601F0CEFC5A46EF
:104DB000009B00F02FFE32463B4601F051F80646BC
:104DC0000F4601225046294601F0BFFC0E4DDFF888
:104DD00058802A46434600F051FF32463B4600F0D9
:104DE0004DFF2A46434600F049FF002CD8BF81F012
:104DF000004106B0BDE8F08D0000F03F0000F07FFC
:104E0000075C143326A6913C182D4454FB21F93F2E
:104E10000000E03F741B00008A1B0000FE1A000027
:104E2000141B00003333EF3FFB21E93F2DE9F84F1E
:104E300004460D4621F0004000917349814211DC87
:104E40007249884201DC06D12CB120462946BDE8D2
:104E5000F84FFFF798BE6E48002DCCBF6D496E49E4
:104E6000BDE8F88F6D49814211DD6D498142D8BF9F
:104E70004FF0FF366DDD20462946FFF71BFE042864
:104E800008BFFFF78BFE20462946BDE8F88F65492D
:104E9000654F25F00045814233DD6449814219DDCB
:104EA000002632464FF080432046294600F0E0FAC3
:104EB00080468A4601222046294601F046FC00220F
:104EC0003B4600F0CDFF4246534600F08DFB0446C2
:104ED0000D463EE001260022BA463B4620462946C2
:104EE00000F0C6FA80460F46002253462046294667
:104EF00000F0B6FF42463B4600F076FB04460D4606
:104F000027E04B4981421BDDDFF828A10226002261
:104F100053462046294600F07DFD00223B4600F026
:104F2000A7FA80460F46002253462046294600F045
:104F300097FF42463B4600F057FB04460D4608E00B
:104F4000032622462B4600203B4900F04DFB044639
:104F50000D4622462B461046194600F05BFD8B4657
:104F6000824602460B4600F055FD0746024633488E
:104F700088460B4606217844FFF7B0FD52465B4653
:104F800000F048FD82462E488B463A4643460521AE
:104F90007844FFF7A3FD3A46434600F03BFD024646
:104FA0000B46002E504659460CDA00F061FA2246B4
:104FB0002B4600F02FFD01B022462B46BDE8F04FF6
:104FC00000F05CBE00F054FA22462B4600F022FDB1
:104FD0001C4A7A4402EBC603D3E9002300F040FFE9
:104FE00022462B4600F03CFF174A7A4402EBC603E8
:104FF000D3E9002300F042FE009A002AB8BF81F0F6
:105000000041BDE8F88F0000000010440000F07F70
:10501000182D4454FB21F93FFB21F9BF0000DC3F70
:105020000000203E0000F33F0000F03F0000E63F9C
:10503000008003400000F83F0000F0BF5E19000050
:105040001C190000BA180000821800002DE9F04D6C
:105050009446CCF1000423F000464CEA0404524F7D
:1050600046EAD4749A46884621F00042BC4206D8EB
:10507000454240EA050442EAD474BC4204D9BDE882
:10508000F04D6246FFF782BDAAF14055A5F17F655C
:1050900055EA0C040BD0022404EAAA74434DDFF84D
:1050A00010E144EAD87452EA000B04D00CE0BDE8E9
:1050B000F04DFFF7BBBE002C14BF012CBDE8F08DF6
:1050C000022C30D0032C32D056EA0C0B0AD0BE4250
:1050D00020D1BA4209D126F0804622F080423346E0
:1050E000114617E000291ADB25E0DFF8C8B0FB44C1
:1050F000002C04BFDBE90001BDE8F08D012C02BFEC
:10510000DBE9000181F00041BDE8F08D022C0AD0FE
:10511000032C0CD0BA4212D1B8F1000F0BDA23489D
:105120002549BDE8F08D28462449BDE8F08D284684
:105130007146BDE8F08D1D482149BDE8F08D921BF8
:1051400012153C2AC4BF19481D490EDCBAF1000FE4
:10515000BEBF12F13C0F0020014606DB624600F0A4
:1051600043FA21F00041FFF761FE002C08BFBDE8C3
:10517000F08D012C04BF81F00041BDE8F08D114A93
:10518000114B022C07D000F06BFE2A46BDE8F04D13
:105190000A4B00F065BE00F063FE2A46BDE8F04D04
:1051A000064B00F06BBD00000000F07F182D44544A
:1051B000FB2109C016180000FB21F9BFFB210940A3
:1051C000FB21F93F075C143326A6A13C4FF0E021F8
:1051D000096921F004014FF0E02211610146C21774
:1051E00000EB5272D210014B1A607047B0000020E1
:1051F00001460D4A12684A434FF0E0235A610022EB
:105200009A6101221A6100BF4FF0E022106900F09C
:1052100001021AB100F48032002AF5D000224FF0CA
:10522000E0231A619A617047B0000020FEF758F839
:105230004FF4E1311D48FFF7B9FB1DA11B4800F0F9
:105240008BF84820FFF7C2FFFDF750FD1C48FEF722
:1052500089FAFEF795F9FDF717FFFCF71FFB19A177
:10526000124800F079F820E01A480078E8B11A49AD
:1052700003C900F04DFB0646184903C900F048FB7E
:1052800007461749C86801F031F8642100FB01F4B2
:105290001449C86801F02AF8642100FB01F533467F
:1052A0003A462146284600F01FF8DDE7004C004052
:1052B00048656C6C6F2C776F726C64210D0A00006E
:1052C00000100040696E20206974206F6B210D0A68
:1052D00000000000BD010020A00000209800002078
:1052E000540100206C0100202DE9F04107460C46D6
:1052F00015461E460448076044608560C660FDF799
:1053000065FDBDE8F0810000E40100202DE9F041D9
:1053100006460F4600F0BEFC041E0D4618BF0120D5
:10532000284320F00040C0F17F6000F1E040C00F52
:105330000ED0301C18BF0120384320F00040C0F1CF
:105340007F6000F1E040C00F04BF0120FAF7FAFFD0
:1053500020462946BDE8F0810FB430B59BB0054624
:10536000002420A80090652101A8009B1F9AFAF74D
:10537000C3FF80212846FFF721FA0EE000BF8021FD
:105380002846FFF73FFA0028F9D02046621CD4B225
:1053900001AA115C2846FFF702FB642C03DA01A87E
:1053A000005D0028EAD1002000901BB030BC5DF801
:1053B00014FB000010B500290AD00878002807D097
:1053C00005487844FBF768FE002801D0002010BD96
:1053D0000248784410BD000002160000FA150000D3
:1053E00010B500290AD00878002807D0054878446D
:1053F000FBF752FE002801D0002010BD024878447F
:1054000010BD0000F2150000EA15000021F0004276
:10541000A2F16052B2F5801F01F0004328BFD2F123
:105420007F6C0BD95FEA001C43EAC20242EB50706A
:1054300018BF704728BF20F001007047B2F5801FE9
:10544000BCBF184670474FEA410C1CF5001F02D242
:10545000084601F09AB870B500F086FB000000899C
:10546000FFF7F6BF4FF00040A0F580007047000046
:1054700010B591EA030F48BF83F0004300F1F884B0
:10548000841A71EB030C05D2121943EB0C03001BB9
:1054900061EB0C01DFF824E14FEA1154A4EB135C3B
:1054A0001EEA430F18BF9EEA445F73D023EA0E033F
:1054B000DCF1200E21EA045143F4801332D322FAA6
:1054C0000CFE10EB0E0023FA0CFE41EB0E01CCF1AA
:1054D000200E03FA0EFE10EB0E0051F10001B1F5A3
:1054E000801FCCF1200E32D201EB045112FA0EF2E1
:1054F000BDE8104058BF7047401C38BF5FEA420209
:1055000018BF7047002814BF20F0010041F10001CE
:105510004FEA410313F5001F38BF7047A1F1C041A6
:1055200000F070BB012A43EB0302ACF1200CDCF16C
:105530001F0E32BF4FF0000E23FA0CF310EB0300E6
:1055400041EB0451B4EB115FD0D0A1EB045101F554
:10555000801149085FEA300001EB04510ED350F18D
:10556000000038BF12FA0EFE08D1BDE81040C9E7AE
:10557000401C38BF5FEA4202CAD1C3E7BDE8104011
:105580004FEA410313F5001F38BF7047A1F1C04136
:1055900000F038BB9EEA445F08D011EA5E0FBDE818
:1055A000104004BF01F0004100207047BDE81040EA
:1055B00070B500F0D9FA00BF64FBBE3E0000E0FF0A
:1055C00002494FF0000001F08EB800BF0000F87FE4
:1055D000491058BFC1F140415B1058BFC3F140436F
:1055E0008B42EFF3008070472DE9C04130B4DFF803
:1055F000A0C23CEA111418BF3CEA131400F0EC807E
:1056000081EA03051CEA111444EAD57418BF1CEAA8
:10561000131500F0C780A4EB05044FF0004545EAE0
:10562000C12145EAC32341EA505143EA525304F1F0
:105630007F74994204F500344FEAC0204FEAC22239
:1056400008BF904200F09C804FEA13650FF24016AD
:10565000765D4FEA134506FB05F7C7F1807706FB39
:1056600007F74FEAD737A7FB03687642C8F58038BB
:10567000A7FB06CE38BFA8F1010807FB08E64FF0EC
:10568000000EA6FB028CE6FB03CEDCF1000CCEF193
:10569000004E38BFAEF1010EA6FB0C584FF00007CC
:1056A0004FF00005E6FB0E87A1FB08C6A0FB07CE66
:1056B00016EB0E0645F10005E1FB076515F1E04E1E
:1056C0007EBFA4F580345FEA46066D4116F180077F
:1056D00045F100054FEA17274FEA066647EA0567D6
:1056E000A6F1DE46B6F1805F4FEA15251FD9384690
:1056F00024F0010C05EBC471BCF1FE6F01EB0C1141
:1057000002D8F0BCBDE8008124425CBF01F5801ED8
:105710009EEAC47F02D4F0BCBDE80081244238D4A4
:10572000F0BCA1F1C041BDE8004100F06BBA4FEA06
:10573000D22242EA43524FEAD323A7FB02864FEA22
:10574000D02040EA415007FB03661EEA0E0F4FEAE5
:10575000D12105FB026658BFA6EB0056B6EB0056FA
:105760004FEA520E4EEAC37E18EB0E0E56EB530E66
:10577000BDD518EB02085E417F1C55F10005B6E768
:105780004FF480154FF000074FF000064FF000086F
:10579000ADE7F0BC4FF0000001F1C04101F0004165
:1057A000BDE8008111EA0C1F0CEA131500D00CE0D3
:1057B00013EA0C1F00F025804FF00000F0BC81EAD6
:1057C000030101F00041BDE80081F0BCBDE80041EB
:1057D00081EA030100F016BAF0BCBDE8004170B5E3
:1057E00000F0C2F9097EFC3E00F007B881EA03012F
:1057F0004FF0000001F00041704781EA030100F022
:1058000001BAF0BCBDE800414FF0000021497047EB
:10581000FFFDFBF9F7F5F4F2F0EEEDEBE9E8E6E475
:10582000E3E1E0DEDDDBDAD8D7D5D4D3D1D0CFCDFC
:10583000CCCBCAC8C7C6C5C4C2C1C0BFBEBDBCBB35
:10584000BAB9B8B7B6B5B4B3B2B1B0AFAEADACAB30
:10585000AAA9A8A8A7A6A5A4A3A3A2A1A09F9F9E0A
:105860009D9C9C9B9A9999989797969595949393BC
:10587000929191908F8F8E8E8D8C8C8B8B8A898953
:1058800088888787868585848483838282818180D6
:105890000000FF070000F87F51EA030C17D41CF545
:1058A000801F58BFBCF5801F00F10680994218BFC9
:1058B000704708BF9042704707D711F5801F58BF47
:1058C00013F5801F19D499427047894270471CF51F
:1058D000801F08D5BCF5801FF7D58B4218BF7047D5
:1058E00008BF824270474FF4001C1CEB410F38BFC9
:1058F0001CEB430F01D28B42704770B500F034F9B6
:10590000922449004FF000514FF08053FFF760BEE2
:105910004FEA41034FEA5353A3F58063D3F11E03CB
:10592000C8BFD3F1210C0CDD4FF0004242EAC12286
:1059300042EA505232FA03FC8CEAE17CACEBE170B3
:105940007047102BC4BF0020704703F5787CBCF172
:10595000FF3F04D06FF0004282EA2100704770B52B
:1059600000F002F94992248000207047F2E710F01D
:10597000004248BF4042B0FA80F310FA03F10AD067
:10598000C3F11D0303F580634FEA415002EB03525C
:1059900002EBD12170474FF00000704751EA030C31
:1059A00017D41CF5801F58BFBCF5801F00F106807E
:1059B000994218BF704708BF9042704707D711F54A
:1059C000801F58BF13F5801F19D499427047894230
:1059D00070471CF5801F08D5BCF5801FF7D58B429A
:1059E00018BF704708BF824270474FF4001C1CEB81
:1059F000410F38BF1CEB430F01D28B42704770B58B
:105A000000F0B2F8922449004FF000514FF080535B
:105A1000FFF7DEBDDFF848C170B51CEA111E1EBFDE
:105A20001CEA13159EEA0C0F95EA0C0F00F06F802C
:105A300081EA030423EA4C134EEAD47E21EA4C1196
:105A400041F4801143F48013AE44A1FB024CA0FB4F
:105A50000365AEF17F7E361955EB0C05A1FB034CB7
:105A60004CF10003A0FB021C16EB0C06654153F140
:105A70000003094218BF46F0010613F4007F0BD162
:105A80004FEA03314FEA0530340341EA155140EA49
:105A900016506FF003020AE04FEAC3214FEAC52017
:105AA000F40241EA555140EA56506FF0020202EB0F
:105AB0002E4201EB025585EACE710AD05FEA440C12
:105AC00018BF24F0004450F1000041F1000120EA29
:105AD000D47040F2FE7C624500D270BDA84214BF73
