:020000040800F2
:1000000098130020B902000855390008093100088A
:1000100051390008892700084F58000800000000E7
:10002000000000000000000000000000513D00083A
:10003000C727000800000000BD3B0008493F00083A
:10004000D3020008D3020008D3020008D30200083C
:10005000D3020008D3020008D3020008D30200082C
:10006000D3020008D3020008D3020008D30200081C
:10007000D3020008D3020008D3020008D30200080C
:10008000D3020008D3020008D3020008D3020008FC
:10009000D3020008D3020008D3020008D3020008EC
:1000A000D3020008D3020008D3020008D3020008DC
:1000B000D302000875420008D3020008D3020008EA
:1000C000D3020008D3020008D3020008D3020008BC
:1000D000D3020008D3020008D3020008D3020008AC
:1000E000D3020008D3020008D3020008D30200089C
:1000F000D3020008D3020008D3020008D30200088C
:10010000D3020008D3020008D3020008D30200087B
:10011000314A0008D30200081D440008D302000839
:10012000D3020008D3020008D3020008D30200085B
:1001300000F002F800F0B0F80AA090E8000C824449
:100140008344AAF10107DA4501D100F0A5F8AFF226
:10015000090EBAE80F0013F0010F18BFFB1A43F0A5
:1001600001031847007A0000207A00000A444FF08B
:10017000000C10F8013B13F0070408BF10F8014B06
:100180001D1108BF10F8015B641E05D010F8016B4B
:10019000641E01F8016BF9D113F0080F1EBF10F8AF
:1001A000014BAD1C0C1B09D16D1E58BF01F801CBD2
:1001B000FAD505E014F8016B01F8016B6D1EF9D555
:1001C0009142D6D37047000000230024002500266A
:1001D000103A28BF78C1FBD8520728BF30C148BFAA
:1001E0000B6070476E2900F04D81702900F09782F6
:1001F000662907F05483652907F05183672907F0C2
:100200004E836129AFF3008003681B0A28BF41F0C9
:100210008001692900F0FA80642900F0F7807529CF
:1002200000F0F4806F2900F02582782900F06382C5
:10023000E92900F0BF81E42900F0BC81F52900F034
:10024000B981EF2900F02282F82900F06282036868
:10025000DB0928BF41F08001632900F0E88573299C
:1002600000F0ED85E32900F0F885F32900F0FD8525
:10027000002070471FB500F04FFE04000020002151
:1002800006F0CAF9401C60600020002106F0AEF9BB
:10029000E0601FBD10B510BD00F010FE1146FFF765
:1002A000E9FF06F0B3F800F0E9FE03B4FFF7F2FF50
:1002B00003BC00F02DFF00000948804709480047B3
:1002C000FEE7FEE7FEE7FEE7FEE7FEE7FEE7FEE706
:1002D000FEE7FEE704480549054A064B7047000063
:1002E0004D3F0008310100089803002098130020BA
:1002F000980B0020980B00207CB51D4616460C007C
:10030000009001D02044401E074B7B442A4669469A
:100310000190304600F0CFF805461CB10020694638
:1003200000F0DCF828467CBDD9010000704770471A
:10033000704710B500F0C2FA006810BD10B5044651
:1003400000F0BCFA046010BD70B504468569006811
:10035000C10601D5302600E02026C00707D070BDB9
:10036000D4E9012130469047206A401C20626D1E6E
:10037000F6D570BD70B5044685690078C00707D111
:1003800070BDD4E9012120209047206A401C2062E2
:100390006D1EF6D570BD09684A0501D540B270479B
:1003A000C905FCD500B2704709684A0501D5C0B23D
:1003B0007047C905FCD580B2704770B50C4605463C
:1003C000012A05D02878800600D5EA69002302E0DA
:1003D000012305E05B1C934202D2E05C0028F9D1C6
:1003E000A869E618C01AA861286A18442862284635
:1003F000FFF7AAFF04E0D5E9012114F8010B9047AB
:10040000B442F8D32846FFF7B5FF70BD2DE9F0419F
:100410000646002410687529314616A510D0FFF74E
:10042000BAFF002802DA404213A507E031688A07C4
:1004300001D512A502E0490704D511A5012401E068
:10044000FFF7B2FF00210A2206F1240709E0B0FB02
:10045000F2FCB0FBF2F302FB1C003030785418467B
:10046000491C0028F3D123462A463046BDE8F04116
:1004700000F06DBA000000002D0000002B0000000D
:100480002000000011680268006A530501D5087059
:100490000AE0D30501D5088006E0130603D5C2178C
:1004A000C1E9000200E008600120704701694A1CB0
:1004B00002610878704700B58FB0CDE901310021A5
:1004C000059105497944CDE903101146684600F0CD
:1004D00031F90FB000BD0000E5FFFFFF0A6802F828
:1004E000010B0A607047D1E900239A4202D2531CE3
:1004F0000B601070704700002DE9FF5F15468A46BB
:100500000446DFF8AC80F8440027D8E900103E46E6
:10051000CDE9001010E03AF816106A4602A800F083
:10052000A8FC411C07D02178890603D5E269391857
:1005300091420DD80744761C2078800602D5E069E8
:10054000B84205DDAE42E6DB3AF816000028E2D1FB
:10055000A069C01BA0612046FFF7F6FED8E9001095
:10056000CDE90010002017E03AF818106A4602A8FA
:1005700000F07FFCB0F1FF3F81460BD000250DF16C
:10058000080B05E0D4E901211BF8050090476D1C1C
:100590004D45F7D308F10100B0428046E4DB206A04
:1005A000384420622046FFF7E5FEBDE8FF9F0000CB
:1005B000DE7400002DE9F0418046D21D22F00702D2
:1005C0000025D2E90002F52915A614D0011E72F10A
:1005D000000106DA0023D0EB030063EB020211A650
:1005E00008E0D8F800108B0701D50FA602E04907F4
:1005F00001D50EA601251146002408F1240704E0C8
:1006000000F060F930323A55641C50EA0102F7D12B
:100610002B46324621464046BDE8F04100F097B9EE
:10062000000000002D0000002B0000002000000052
:1006300030B4002100F1240408E002F00705D208DC
:10064000303542EA4372DB086554491C52EA03051F
:10065000F3D10468002310A2250708D504F0200474
:100660000C4304D0C46901230CA2641EC46130BCD5
:1006700000F06DB910B5044621461068FFF794FEEE
:1006800002462046BDE810400023D1E7D21D22F0EB
:100690000701D1E90023CBE7000000003000000093
:1006A000F0B40D460188090502D5214C7C4402E0D6
:1006B0001F4C7C440E34002100F1240608E002F0B7
:1006C0000F071209E75D42EA03721B097754491CC0
:1006D00052EA0307F3D102780023120704D5702DE4
:1006E00006D009B1022311342246F0BC00F02FB924
:1006F00001231034F8E770B504460D462146106812
:10070000FFF752FE024629462046BDE8704000230E
:10071000C6E7D21D22F00703D3E90023C0E7036830
:10072000126843F0200303600823C3610023B7E786
:10073000407300002DE9F05F894604464FF0000A3F
:10074000DFF874B1FB44C0F820A02046E168884778
:10075000002874D0252806D0D4E901219047206ACA
:10076000401C2062F1E700265F462046E16888478A
:100770002028054607DB312D05D2781910F8200C0A
:1007800008B10643F1E7B00701D526F00406C4F826
:100790001CA00027C4F818A02A2D09D0284605F06F
:1007A000B1F938B304EB8708303DC8F8185019E0A8
:1007B00059F8041B204604EB87029161E1688847E1
:1007C000012F054618D1E069002820DA26F020061E
:1007D0001DE0D8F8180000EB800005EB4000303831
:1007E000C8F818002046E1688847054605F08AF9F0
:1007F0000028EED1012F0AD02E2D08D12046E16825
:1008000088477F1C0546022F46F02006C4DBA069FE
:10081000002803DA404246F00106A061F00701D04B
:1008200026F010066C2D0BD0682D09D04C2D39D038
:100830006A2D35D0742D35D07A2D33D016E038E0BE
:10084000E1682F4620468847B842054609D16C2FFB
:1008500026D04FF48060E16806432046884705466D
:1008600004E06C2F1AD04FF4807006430DB3A5F14D
:100870004100192802D8203546F400664A46294628
:10088000204626604E46FFF7ADFC80B101280BD014
:10089000F61D26F0070000F1080956E74020E4E7BE
:1008A0008020D8E70020D6E706F104094DE7284666
:1008B00052E7206ABDE8F09FD07200000048704700
:1008C0003803002030B5B0F10A024FEA900E71F102
:1008D00000034EEA817EB0EB0E0061EB91014FEA1E
:1008E000101E4EEA017E10EB0E0041EB11114FEA93
:1008F000102E4EEA016E10EB0E0041EB11214FEA73
:10090000104E4EEA014E10EB0E0041EB1141401823
:1009100041F100014FEAD00040EA41704FEAD101B5
:1009200010EB80054FEA810444EA907444EB010423
:100930006D1944EB0404521BA3414FF0000348BF60
:100940000A3200D530BD401C41F1000130BD2DE917
:10095000F0470D4699469246044600F12408016886
:10096000880604D5E06921F01001216000E0012033
:10097000A84201DD471B00E00027A1697A1902EBBC
:100980000900081AA0612078C00602D42046FFF7AB
:10099000DBFC002608E0D4E901211AF806009047A4
:1009A000206A401C761C20624E45F4DB2078C0068D
:1009B0000AD52046FFF7C8FC06E0D4E90121302023
:1009C0009047206A401C2062381EA7F10107F4DC22
:1009D00007E0D4E9012118F805009047206A401C7F
:1009E0002062281EA5F10105F3DC2046FFF7C2FCBA
:1009F0002078000602D50220BDE8F0870120FBE741
:100A000070472DE9FF4F0C461E464FF0FF378BB065
:100A1000D2E90001DDF860800A908A46C1F30A55E8
:100A200005B93D46002108464FF00000BAF1000F1D
:100A300000F4400005DA00EB80004FF4400101EAC9
:100A400050004FEA9059B9F1010F00DDB9460A98FC
:100A500050EA4A000ED044F61050A5F2FF35454347
:100A60002F14B8F1000F1ED07542291E1EDDC9F1EA
:100A700000021CE0B8F1010F4FF0000001D030215E
:100A800003E0F24305E02154401CB042FBDB30465A
:100A90000022002121540B99C1F80880C1E90020EF
:100AA0000FB0BDE8F08FBD1B6D1CDEE74A4600DAD3
:100AB000694206A800F074FA06AB93E8070003AB9E
:100AC00083E8070050460A9900F029FB8DE80700EB
:100AD000A0F500501F3800900398002D09DD42F268
:100AE0001F014A46084403A90390684600F088FDA8
:100AF00008E0A0F500504A461F3803A90390684655
:100B000000F092FD8DE807000004000C03D04FF0C8
:100B1000FF30410800E01046B8F1000F03D000227A
:100B2000009215461EE0751E05D4FFF7CBFE30324D
:100B300062556D1EF9D5B3460122084302D000224A
:100B40007F1C04E02078302801D100227F1E002A7B
:100B5000099786D01DE0112D07DAFFF7B3FE30327A
:100B600062556D1C50EA0102F5D1084302D000988D
:100B7000C8B10EE00021681E05E0235C625C63548E
:100B80002254401E491C8142F7DBAB46A81B401E85
:100B90000990002004F80B000B98099AC0F808800F
:100BA000C0E9002B7CE711264FF0000859E72DE93A
:100BB000F04F88460446D21D22F0070191B0D1E9DA
:100BC0000001CDE90A0104F019FF02460B98C00F9D
:100BD00001D02D2007E02068810701D52B2002E0FD
:100BE000202101EAC000032A099001D0072A05DB71
:100BF00003464146204600F093F90BE12078800639
:100C000001D5E06900E00620B8F1650F814606D005
:100C1000B8F1660F18D0B8F1670F70D131E000203D
:100C2000B9F1110F009001DB112301E009F101037B
:100C30000AAA01A90CA8FFF7E4FEDDE90C70002662
:100C400009F10105834647E001204B4600904FF033
:100C500000470AAA01A90CA8FFF7D3FEDDE90DB0F1
:100C60000C995D46002610B909F101000D18B9EB89
:100C7000050003D4C0F1FF3609F10105A5EB090019
:100C80002BE0B9F1010F01DA4FF001090020B9F1B1
:100C9000110F0090484601DD112300E003460AAA27
:100CA00001A90CA8FFF7ADFEDDE90C704D4600264A
:100CB0008346207800070AD4AB4500DA5D4601A8D8
:100CC000012D04DD411911F8011C302907D04F45D1
:100CD00002DA17F1040F04DA012082460FE06D1EDC
:100CE000EEE7002F02DCED1B3E4403E0781CA84237
:100CF00000DD7D1CB81B00F1010A4FF00047207891
:100D0000000703D4AA4501DB4FF0FF3A0021B7F1F9
:100D1000004F0DF143088DF8431024D002202B23FF
:100D2000002F01DA7F422D230A21021EA0F10100CB
:100D300000DC5FB197FBF1FC97FBF1F201FB1C7C3F
:100D400017460CF1300C08F801CDEEE7A8F10100D0
:100D500003702188090501D5452100E06521A0F136
:100D6000010800F8011C09980FA9A1EB0807FF1D55
:100D700000B10120411901EBEA70A1693844081A59
:100D8000401EA0612078C00602D42046FFF7DCFA9E
:100D9000099828B1D4E901219047206A401C2062BB
:100DA0002078C00622D52046FFF7CEFA1EE0002E9E
:100DB00004DBB34502DD01A8805D00E03020D4E90A
:100DC00001219047206A401C2062761CAAF1010094
:100DD0005FEA000A0AD100F09FF8C0680168405C31
:100DE000D4E901219047206A401C2062281EA5F109
:100DF0000105DCDC07E0D4E9012118F8010B90477C
:100E0000206A401C2062381EA7F10107F3DC20464F
:100E1000FFF7B0FA032011B043E610B5436913B1F0
:100E2000AFF3008001E0FFF7C8FA012010BD12788F
:100E300000F124010A7000224A700122EDE71168D6
:100E40004FF0FF32E9E710B5436913B1AFF300800B
:100E500001E0FFF751FB012010BD128800F12401D1
:100E600082840022C2840122EDE711684FF0FF3234
:100E7000E9E770B516460C46054600F045F80368EC
:100E800093F80101012806D0FF2C0FD8185D68B136
:100E900001202C7070BDD3F807013246214603F2C1
:100EA000071303442846BDE8704018474FF0FF3051
:100EB00070BD000000487047380300207546FFF7FA
:100EC000F9FFAE4605006946534620F00700854607
:100ED00018B020B5FFF7FEF9BDE820404FF000063E
:100EE0004FF000074FF000084FF0000B21F0070112
:100EF000AC46ACE8C009ACE8C009ACE8C009ACE855
:100F0000C0098D467047000010B500F005F8001DBF
:100F100010BD00BF0557000000487047580300206F
:100F20002DE9F0411F46044603260168072A01F413
:100F3000006004DB08B116A505E016A503E008B1C2
:100F400015A500E015A521F010002060A069C01EC5
:100F5000A0610FB1401EA0612046FFF7F5F94FB127
:100F6000D4E9012138469047206A401C2062C01C09
:100F7000206206E0206AFAE7D4E9012115F8010BA6
:100F80009047761EF8D22046FFF7F4F9BDE8F081CD
:100F90004E414E006E616E00494E4600696E66001D
:100FA0002DE9F047814616468AB0334878440DC88B
:100FB0008DE80D0030487844801C03AC0DC884E8EF
:100FC0000D0041F69B300844372190FBF1F290FB75
:100FD000F1F5A5F1800501FB12041B3C02D564422A
:100FE000012000E00020DFF890A080460027FA44AE
:100FF000AAF1BE0A0DE0E00709D03246684607EBC9
:1010000047010AEB810100F00FFB8DE80700641037
:101010007F1C002CEFD1184F7F44AC3F18E0E8074D
:1010200014D007EB04100DF1180A90E80E008AE8BE
:101030000E00C068F04201D198190890324606A906
:1010400003A800F0F1FA03AB83E807006D10641CFD
:10105000002DE4D132466946B8F1000F03A802D052
:1010600000F0CEFA01E000F0DFFAC9E90001C9F8AA
:1010700008200AB0BDE8F0879C6B000010B504465C
:10108000AFF300802046BDE81040FFF70EB9000026
:101090004FF0013C50F8042B51F8043B9A4221D107
:1010A000A2EB0C03934313EACC1317D150F8042B93
:1010B00051F8043B9A4215D1A2EB0C03934313EA77
:1010C000CC130BD150F8042B51F8043B9A4209D1B0
:1010D000A2EB0C03934313EACC13DBD04FF00000D8
:1010E000704700BFD01A01BAB1FA81F101F01801BE
:1010F00022FA01F0CB40C1F12001DBB2C0B2C01A2C
:101100002CFA01F3D11A914311EAC311E6D17047C9
:1011100001491820ABBEFEE72600020070475FEAD7
:10112000400C08BF91F0000F4FEA8C234FEAC12218
:1011300043EA51514FEA1C5018BF00F5F0404FEA06
:10114000300018BF41F000415FEA6C5C00F029807C
:10115000BCF1FF3F08BF40F080407047130C06BF52
:1011600012044FF0100C4FF0000C130E04BF1202CB
:101170000CF1080C130F04BF12010CF1040C930FB7
:1011800004BF92000CF1020CD30F04BF52000CF10B
:10119000010C11464FF00002A0F11F00A0EB0C0063
:1011A000704711F0004F08BF704731F000413FF425
:1011B000D5AF0B0C06BF09044FF0100C4FF0000C1C
:1011C0000B0E04BF09020CF1080C0B0F04BF090140
:1011D0000CF1040C8B0F04BF89000CF1020CCB0F37
:1011E00004BF49000CF1010CCCF12003A0EB0C0072
:1011F00022FA03F302FA0CF241EA030100F10100C2
:10120000704720F07F4C80EA030023F07F47ACEB6F
:10121000070303F57C5300F0004003F1FF032DE9C1
:1012200080494FEA154B09B44FEA144325EA0B4EA7
:1012300024EA03480FF2042606EB132749083E78F8
:101240005FEA320203FB0667C7F5000707FB06F6F5
:101250004FEA54374FEAD64606F1020607FB066C02
:10126000CCF1005C4FEA1C472CEA074C07FB06F464
:101270000CFB06F504EB15464FEA961634BF00202A
:101280004FF000404FEAD13706FB07FC4FEA1C4CF9
:101290000CFB0BF7D21B03FB0CF761EB07010CFBFC
:1012A0000EF7B0EB074072EB17420CFB08F734BFA8
:1012B000A2EB0742B2EB074261EB17414FEA0C4445
:1012C0004FEA910706FB07FC4FEA1C4C0CFB0BF79F
:1012D000B0EBC74072EB573203FB0CF734BFA2EB05
:1012E000C742B2EBC74261EB57310CFB0EF7B0EBD4
:1012F000C70072EB57720CFB08F734BFA2EBC702B2
:10130000B2EBC70261EB5771039F4FEA816141EA7B
:10131000921104EBCC044FEAD1374FEA826206FB0C
:1013200007FC42EA90124FEA80604FEA1C4C0CFB2B
:101330000BF7D21B03FB0CF761EB07010CFB0EF75D
:10134000B0EB074072EB17420CFB08F734BFA2EB7F
:101350000742B2EB074261EB17414FEA8C554FEA67
:10136000910704EB9C2406FB07FC4FEA1C4C0CFB8A
:101370000BF7B0EBC74072EB573203FB0CF734BFEF
:10138000A2EBC742B2EBC74261EB57310CFB0EF741
:10139000B0EBC70072EB57720CFB08F734BFA2EB3F
:1013A000C702B2EBC70261EB577115EB4C254FEA50
:1013B000816141EA92114FEA82624FEAD13742EAF3
:1013C000901206FB07FC44F100044FEA80604FEAEC
:1013D0001C4C0CFB0BF7D21B03FB0CF761EB07015A
:1013E0000CFB0EF7B0EB074072EB17420CFB08F753
:1013F00034BFA2EB0742B2EB074261EB174115EB9A
:101400001C154FEA813141EA92414FEA823242EAA9
:1014100090424FEA80304FEA0C7644F1000448EAEB
:1014200003434EEA0B484FF0000EB2EB080C71EB91
:10143000030724BF624639464EEB0E0E4FF0000BF9
:101440000018524149414BEB0B0BB2EB080C71EB0E
:1014500003077BF1000B24BF624639464EEB0E0EAC
:101460004FF0000B0018524149414BEB0B0BB2EB14
:10147000080C71EB03077BF1000B24BF6246394671
:101480004EEB0E0E51EA020718BF46F0010616EBAE
:101490000E7655F1000254F1000103D5BDE8890133
:1014A000BDE80088BDE88901BDE80048B619524191
:1014B00041EB0101A3F10103704780807F7E7D7CB9
:1014C0007B7A7978777676757473727171706F6ED6
:1014D0006E6D6C6C6B6A6A69686867666665646481
:1014E000636362616160605F5F5E5E5D5D5C5C5B0B
:1014F0005B5A5A595958585757565655555554547A
:10150000535352525251515050504F4F4F4E4E4DD7
:101510004D4D4C4C4C4B4B4B4A4A4A494949484823
:101520004847474747464646454545444444444363
:1015300043434342424242414141002B26D477007B
:1015400021D01CB54FEA370703B44FF010004FF01D
:1015500010014FF000000FBCBDE810400BF1010B73
:10156000BBF1010F08BF5FEA170722BF12F10102AA
:1015700011F101014FF0004143F1000300F0004080
:1015800043EA00007047F9D35708DAE746EA06460F
:1015900013F1400F4FEA16461FDD13F1200FDFBF96
:1015A00016430A46002120335B42C8D0C3F120070E
:1015B00046EA064602FA07F74FEA164646EA0706E3
:1015C000C3F1200722FA03F201FA07F721FA03F127
:1015D0004FF0000342EA0702B1E746EA020646EA94
:1015E00006464FEA164646EA0106BCBF46EA0646EC
:1015F000360C4FF000034FF000024FF000019EE761
:101600002DE9C048934630B491E8380007C831EA64
:10161000400C48BF34EA430C03D5FFF7F2FDFFF757
:101620008CFFF0BCBDE800882DE9C048934630B47B
:1016300091E8380007C810F0804F08BF13F0804FC2
:1016400003D100F005F8FFF778FFF0BCBDE8008893
:1016500020F07F4780EA030023F07F4C07EB0C0368
:10166000A3F57C5300F00040A3F1FE0392F0000FBD
:1016700000F0B38095F0000F00F077802DE901496C
:101680004FEA11404FEA144621EA004800FB06FCED
:1016900024EA064708FB06F607FB08F800FB07F7F5
:1016A00018EB06484CEB164C4FEA124B18EB074868
:1016B0004FEA15464CEB174022EA0B4E0BFB06FC9B
:1016C00025EA06470EFB06F607FB0EFE0BFB07F7A7
:1016D0001EEB064E4CEB164C4FF000061EEB074E71
:1016E0004CEB174B18EB0B0840F1000018EB0E0BFE
:1016F00058EB000840F100008F1A4FF000013CBF8A
:10170000C943661B14BFB5EB040C00213CBFC943A1
:10171000F61B4FEA17444EEA8E0E27EA04454FEABD
:101720001C4704FB07622CEA074C05FB07F70CFB80
:1017300005F604FB0CFC16EB074642EB174216EBD2
:101740000C4642EB1C421BEB060658EB02024141E1
:1017500046EA9E0601D5BDE80189B619524141EB22
:101760000101A3F10103BDE801894FEA14454FEAE5
:10177000114724EA054621EA074C05FB07F406FB5E
:1017800007F70CFB06F105FB0CFC11EB074144EBE2
:1017900017444FEA124711EB0C4144EB1C4422EA78
:1017A000074C05FB07F206FB07F70CFB06F605FBEB
:1017B0000CFC16EB074642EB174216EB0C4642EBCD
:1017C0001C456A1854F1000148BF7047B6195241D0
:1017D00041EB0101A3F10103704795F0000F37D0F1
:1017E0004FEA11424FEA144721EA024624EA074C25
:1017F00002FB07F106FB07F70CFB06F402FB0CFCEF
:1018000014EB074441EB17414FEA154714EB0C4426
:1018100041EB1C4125EA074C02FB07F506FB07F7E5
:101820000CFB06F602FB0CFC16EB074645EB1745D6
:1018300016EB0C4645EB1C42121951F1000148BF52
:101840007047B619524141EB0101A3F10103704702
:101850004FEA14454FEA114724EA054621EA074CAE
:1018600005FB07F106FB07F70CFB06F24FF000063D
:1018700005FB0CFC12EB074241EB174112EB0C424B
:1018800051EB1C4148BF7047921841EB0101A3F195
:10189000010370470FB5ADB0FE480168006805F060
:1018A0008BFE2890FC480168FA48006805F084FE29
:1018B0002790FA480168F748006805F07DFE2690F9
:1018C000F5480168006805F077FE2590F448016846
:1018D000F148006805F070FE2490F0480168006847
:1018E00005F06AFE2390EE480168EC48006805F0B8
:1018F00063FE2290EA480168006805F05DFE2190D1
:10190000E6480168E448006805F056FE2090E44887
:101910000168E048006805F04FFE1F902F990846C7
:1019200005F04AFE0E902E99084605F045FE0C90F3
:101930002D99084605F040FE0B900C9905F070FCBF
:101940000D900E9905F06CFC0F9005F03DFCCDE973
:10195000100104F0F7FDCDE9120104F073FE2C90A4
:101960002C9805F031FCCF4ACF4BCDE9120105F0A0
:10197000DFF801D231B000BDDDE92C1005F0BEFC6E
:101980002D902C992E9805F0B9FC2E902C992F981B
:1019900005F0B4FC2F903699084605F00DFE0E9028
:1019A0003599084605F008FE0C903499084605F074
:1019B00003FE0B900C9905F033FC0D900E9905F089
:1019C0002FFC0F9005F000FCCDE9100104F0BAFDEA
:1019D000CDE9120104F036FE2C902C9805F0F4FBB2
:1019E000B04AB14BCDE9120105F0A2F800D2C1E72F
:1019F0002C99349805F082FC34902C99359805F098
:101A00007DFC35902C99369805F078FC3690269917
:101A1000249805F005FC0C904FF08040369905F0B5
:101A2000CBFD0B900C9905F0C7FD0D9005F0CCFB9C
:101A3000CDE91001DDE91F1005F0BCFE08904FF064
:101A40008040359905F0B8FD0790089905F0B4FD80
:101A5000099005F0B9FBCDE90C01219805F0B4FB24
:101A6000CDE90401239805F0AFFB00228F4BCDE9AF
:101A7000000105F0CDF9CDE90201DDE9042305F00F
:101A8000B9FACDE908014FF08040349905F094FD92
:101A9000059005F099FBCDE90601DDE9082305F085
:101AA00083F8CDE90A01DDE90C2304F0FDFDCDE961
:101AB0000E01DDE9102304F0F7FDCDE9120104F079
:101AC000C1FD1B902799229805F074FE0C904FF0F1
:101AD0008040369905F070FD0B900C9905F06CFD77
:101AE0000D9005F071FBCDE91001219805F06CFB1C
:101AF000CDE90401259805F067FB00226B4BCDE989
:101B0000000105F085F9CDE90201DDE9042305F0C6
:101B100071FACDE908014FF08040359905F04CFD90
:101B2000059005F051FBCDE90601DDE9082305F03C
:101B30003BF8CDE90C01DDE91F1005F071FB0890C1
:101B40004FF08040349905F037FD0790089905F073
:101B500033FD099005F038FBCDE90A01DDE90C23DE
:101B600004F0A2FDCDE90E01DDE9102304F09CFD97
:101B7000CDE9120104F066FD1A90239805F024FBCC
:101B8000CDE90801259805F01FFB0022474BCDE960
:101B9000040105F03DF9CDE90601DDE9082305F072
:101BA00029FACDE90C014FF08040369905F004FD8B
:101BB000099005F009FBCDE90A01DDE90C2304F0E9
:101BC000F3FFCDE910012799229805F029FB0A902F
:101BD0004FF08040359905F0EFFC09900A9905F027
:101BE000EBFC0C902699249805F0E4FD0A904FF048
:101BF0008040349905F0E0FC09900A9905F0DCFC7E
:101C00000B900C9905F00CFB0D9005F0DDFACDE979
:101C10000E01DDE9102304F047FDCDE9120104F0C7
:101C200011FD19901A99084605F0C6FC0E901B99F3
:101C3000084605F0C1FC0D900E9905F0F1FA0F90E1
:101C400005F0C2FACDE9100104F07CFCCDE91201E7
:101C500004F0F8FC1890199817902699249805F02C
:101C6000A9FD4FF08041139005F0A6FC2B9022991E
:101C7000279805F0D5FA4FF08041139005F09CFCB1
:101C80002A902599289805F095FD1290239905F042
:101C900091FD0DE0AC000020B0000020B400002059
:101CA000B80000208DEDB5A0F7C6B03E0000E03FC3
:101CB0001390219905F0B4FA29902699249805F0FB
:101CC00079FD0C904FF08040179905F075FC0B9052
:101CD0000C9905F071FC0D9005F076FACDE9100134
:101CE000219805F071FACDE90801239805F06CFA06
:101CF0000022FE4BCDE9040105F08AF8CDE906018A
:101D0000DDE9082305F076F9CDE90C014FF08040BC
:101D1000189905F051FC099005F056FACDE90A0131
:101D2000DDE90C2304F040FFCDE90E01DDE91023CD
:101D300004F0BAFCCDE9120104F084FC169022995B
:101D4000279805F06DFA11904FF08040179905F033
:101D500033FC1090119905F02FFC1390DDE91F1052
:101D600005F028FD11904FF08040189905F024FCF3
:101D70001090119905F020FC1290139905F050FA7B
:101D80001590239805F020FACDE90801259805F073
:101D90001BFA0022D54BCDE9040105F039F8CDE955
:101DA0000601DDE9082305F025F9CDE90C014FF026
:101DB0008040179905F000FC099005F005FACDE97F
:101DC0000A01DDE90C2304F0EFFECDE910012499AE
:101DD000269805F025FA0C904FF08040189905F0F0
:101DE000EBFB0B900C9905F0E7FB0D9005F0ECF97F
:101DF000CDE90E01DDE9102304F056FCCDE9120116
:101E000004F020FC14901599369805F0D5FB11903C
:101E10001499359805F0D0FB1090119905F0CAFC83
:101E200013902A992F9805F0C7FB119029992E98A5
:101E300005F0C2FB1090119905F0BCFC12901399AB
:101E400005F0EEF91E901499349805F0B5FB119049
:101E50001699369805F0B0FB1090119905F0AAFC80
:101E6000139029992D9805F0A7FB11902B992F9885
:101E700005F0A2FB1090119905F09CFC12901399AB
:101E800005F0CEF91D901699359805F095FB119047
:101E90001599349805F090FB1090119905F08AFC83
:101EA00013902B992E9805F087FB11902A992D9865
:101EB00005F082FB1090119905F07CFC12901399AB
:101EC00005F0AEF91C908A4801681E9805F074FB75
:101ED0000B9005F079F9874A874BCDE90C0104F0A6
:101EE00063FECDE910018548006805F06DF9CDE984
:101EF0000E01DDE9102304F0D7FBCDE9120104F057
:101F0000A1FB7E4908607A4801681D9805F054FBE2
:101F10000B9005F059F9774A774BCDE90C0104F0A5
:101F200043FECDE910017648006805F04DF9CDE992
:101F30000E01DDE9102304F0B7FBCDE9120104F036
:101F400081FB6F4908606A4801681C9805F034FB02
:101F50000B9005F039F9674A674BCDE90C0104F0A5
:101F600023FECDE910016748006805F02DF9CDE9A1
:101F70000E01DDE9102304F097FBCDE9120104F016
:101F800061FB60490860604801681E9805F014FB19
:101F900012905A480168129805F042F9139030994E
:101FA00005F03EF93090584801681D9805F004FB93
:101FB000129053480168129805F032F91390329943
:101FC00005F02EF93290504801681C9805F0F4FA9B
:101FD00012904C480168129805F022F91390339939
:101FE00005F01EF9339049483399006805F0E4FA8A
:101FF0000A9047483299006805F0DEFA0890454893
:10200000006880F000400690309905F0D5FA0790FE
:10201000089905F0CFFB09900A9905F0CBFB0B90CE
:1020200005F0D2F8334A3C4BCDE90C0104F0BCFD7D
:10203000CDE910013948006805F0C6F8CDE90E0178
:10204000DDE9102304F030FBCDE9120104F0FAFAC7
:10205000324908602D483299006805F0ADFA0A90BF
:102060002B483399006805F0A7FA08902B4830995F
:10207000006805F0A1FA0790089905F0D1F80990D9
:102080000A9905F097FB0B9005F09EF8194A224B30
:10209000CDE90C0104F088FDCDE910011D48006870
:1020A00005F092F8CDE90E01DDE9102304F0FCFA09
:1020B000CDE9120104F0C6FA1649086013483099B8
:1020C000006805F079FA0A9012483399006805F023
:1020D00073FA089011483299006805F06DFA07907C
:1020E000089905F067FB09900A9919E00000E03FA4
:1020F000CC0000207B14AE47E17A743FBC00002086
:10210000C0000020C4000020C8000020B80000204B
:10211000B4000020B0000020E17A643FAC00002051
:1021200005F07EF80B9005F04FF8BD4ABD4BCDE9A8
:102130000C0104F039FDCDE91001BB48006805F041
:1021400043F8CDE90E01DDE9102304F0ADFACDE945
:10215000120104F077FAB4490860B3483099006876
:1021600005F02AFA0A90B1483299006805F024FA7D
:102170000890AF483399006805F01EFA0790089957
:1021800005F04EF809900A9905F014FB0B9005F044
:102190001BF8A34AA34BCDE90C0104F005FDCDE9E2
:1021A0001001A448006805F00FF8CDE90E01DDE943
:1021B000102304F079FACDE9120104F043FA9D49A5
:1021C000086008460168006805F0F6F90E90964828
:1021D0000168006805F0F0F90C9094480168006807
:1021E00005F0EAF90A9092480168006805F0E4F900
:1021F00009900A9905F014F80B900C9905F010F865
:102200000D900E9905F00CF80F9004F0DDFFCDE96C
:10221000100104F097F9CDE9120104F013FA2C90A3
:102220002C9804F0D1FF844A844BCDE9120104F0CC
:102230007FFC01D2FFF79EBB7D482C99006805F01A
:102240005DF87B49086079482C99006805F056F8DC
:102250007649086074482C99006805F04FF8724977
:10226000086074482C99006805F048F871490860C6
:102270006F4801684FF0804005F09EF90C906A4865
:1022800001680C9805F098F90E90684801684FF0C5
:10229000404005F091F90C90664801680C9805F0F3
:1022A0008BF90D900E9904F0BBFF0F9004F08CFF9A
:1022B000CDE9100103F02EFC4FF06632604BCDE902
:1022C000120104F071FC5F4A03C2574801684FF0E5
:1022D000804005F071F9099053480168099805F0AC
:1022E0006BF90B90514801684FF0404005F064F9DC
:1022F00009904E480168099805F05EF90A900B991B
:1023000005F058FA4FF07E510C9004F089FF0D90C3
:1023100004F05AFFCDE91001454801684FF08040B4
:1023200005F04AF90A90414801680A9805F044F915
:102330000C903D4801684FF0804005F03DF90A904F
:102340003C4801680A9805F037F90B900C9904F0A5
:1023500067FF0D9004F038FFCDE90E01DDE9102391
:1023600003F020FE4FF06632354BCDE9120104F048
:102370001BFC354A03C24FF08040219905F01CF93F
:102380000B904FF04040239905F016F90A900B99F5
:1023900005F010FA4FF07E510C9004F041FF0D90C3
:1023A00004F012FFCDE910014FF080401F9905F0B5
:1023B00003F90C904FF08040209905F0FDF80B9048
:1023C0000C9904F02DFF0D9004F0FEFECDE90E01F6
:1023D000DDE9102303F0E6FD4FF06632184BCDE93E
:1023E000120104F0E1FB194A03C200221346164908
:1023F00003C904F0D7FC08D20022154B124903C9C7
:1024000004F0F8FD104A03C207E00022104B0E4909
:1024100003C904F049F90C4A03C200BF0AE70000EF
:102420007B14AE47E17A643FB4000020B000002086
:10243000AC000020B80000208DEDB5A0F7C6B03E7E
:1024400066A64C40D0000020D8000020E00000200C
:10245000008066402DE9F04100250026002700227B
:102460000121264802F024F9002427E000F044FD71
:10247000234801682348006804F0D2FE80462946BC
:1024800004F0CEFE0546204801682048006804F0AC
:10249000C7FE8046314604F0C3FE06461C4801686C
:1024A0001C48006804F0BCFE8046394604F0B8FEC3
:1024B00007464FF4FA6003F047FE641C642CD5DB3A
:1024C0001549284604F01AFF0D49086012493046A4
:1024D00004F014FF0C4908600F49384604F00EFF61
:1024E0000B4908600DA11D4804F052F80122114665
:1024F000024802F0DDF8BDE8F08100000010004065
:1025000044000020640000204800002068000020F3
:102510004C0000206C0000200000C84261646A7515
:102520007374206779726F20737563636573736664
:10253000756C2120646F6E277420666F72676574F6
:1025400020746F20777269746520746F20746865D9
:10255000207072616D73210D0A000000004C004074
:102560002DE9F041434844490860444848604448E4
:1025700088604448C8604448086144484861444809
:1025800044490860444848604448886008460168F7
:102590004348006805F00EF9424908603D4841682B
:1025A0004148006805F006F93E49486039488168AD
:1025B0003E48006805F0FEF83A4988600A4691688E
:1025C0002D4A906804F0F8FF0546364A51682A4AB9
:1025D000506804F0F1FF0646324A1168264A106836
:1025E00004F0EAFF0746314604F01AFE0446294685
:1025F00004F016FE2A4908602A4A91681E4A1069AA
:1026000004F0DAFF0546274A51681B4AD06804F0F7
:10261000D3FF0646234A1168174A506804F0CCFFDE
:102620000746314604F0FCFD0446294604F0F8FD57
:102630001D4908601B4A91680F4A506904F0BCFFAD
:102640000546184A51680C4A106904F0B5FF064661
:10265000144A1168084A906804F0AEFF07463146F4
:1026600004F0DEFD0446294604F0DAFD0F49086057
:10267000BDE8F08163A66F3F200300202B1A2F3B9B
:10268000D35CD43C1D24743F74836B3B19788F3F1B
:10269000CE3A3CBC1403002004B4E8BDFEDD8A3D04
:1026A000C802002008030020CC020020D002002035
:1026B00000B589B0012140F6040001F0A1FA4FF401
:1026C0007060ADF8040018208DF8070003208DF825
:1026D000060001A92A4800F0FBFA2320ADF81800F3
:1026E0000020ADF81A0041F28730ADF81C00002040
:1026F000ADF81E008DF8200006A9224802F046F928
:102700006020ADF808000120ADF80A000420ADF803
:102710000C000020ADF80E00ADF810000820ADF858
:1027200012004001ADF814000020ADF8160002A917
:10273000144801F0C7FF02A9124802F019F802A9D3
:10274000104802F067F802A90E4802F0B3F8012120
:102750000C4801F028FF01210A4801F030FF41F246
:10276000883003F0F1FC1420064934310880091D3B
:102770000880091D0880091D088009B000BD0000FF
:1027800000080140002C014000BFFEE730B50246C2
:102790000B464FF6FF70002112E0555C68400024A4
:1027A0000AE000F0010525B14AF2010585EA600062
:1027B00000E04010651CECB2082CF2DB4D1CE9B2C5
:1027C0009942EADB30BD70470149C860704700009C
:1027D0000020024030B5044604254FF4302000F0BC
:1027E00085F80546042D17D10C48006940F0020019
:1027F0000A49086108464461006940F040000861E8
:102800004FF4302000F072F805460448006941F6A4
:10281000FD71084001490861284630BD0020024092
:1028200004200B49C96801F0010109B101200EE043
:102830000749C96801F0040109B1022007E0044911
:10284000C96801F0100109B1032000E004207047BD
:10285000002002400348006940F0800001490861FF
:10286000704700000020024078B506460C4604255B
:1028700000200090E80200F039F80546042D24D12C
:102880001348006940F00100114908613480E802F2
:1028900000F02CF80546042D10D1B01C0090200C3F
:1028A00000990880E80200F021F805460848006910
:1028B00041F6FE7108400649086106E004480069D7
:1028C00041F6FE71084002490861284678BD0000C3
:1028D00000200240024803494860034848607047AE
:1028E0002301674500200240AB89EFCD00B50246C9
:1028F0000423FFF795FF034603E0FFF791FF03462C
:10290000521E012B01D1002AF7D102B90523184626
:1029100000BD00002DE9F041A0480078032802D056
:102920009F48007850B1E6209E490880091D088024
:10293000091D0880091D0880BDE8F08100F088F9B4
:102940009648007888B395480078012837D1964892
:10295000026896480168964801F0A4F89549086015
:1029600095499448006804F0F3FE03D292489149D7
:10297000086008E091498F48006804F0E9FD02D240
:102980008E488C4908608E4802688A4801688D48E4
:1029900001F088F88C4908608C498B48006804F085
:1029A000D7FE03D289488849086008E088498648EC
:1029B000006804F0CDFD02D285488349086085494E
:1029C00003C903F03FFE044622468348016883485A
:1029D00001F068F88249086082498148006804F083
:1029E000B7FE03D27F487E49086008E07E497C48F4
:1029F000006804F0ADFD02D27B48794908607B484D
:102A00000268774801687A4801F04CF87949086013
:102A1000794903C903F016FE044622467748016847
:102A2000774801F03FF8774908606E4975480068BB
:102A300004F08EFE03D26B487249086008E06A49D0
:102A40007048006804F084FD02D267486D49086050
:102A50006D4802686B4801686C4801F023F86C49C6
:102A600008606C48002102686B4801F01BF86B4954
:102A700008606048006880F0004765480168384693
:102A800004F0CEFB064665480168304604F0C8FBFA
:102A9000054663480168284604F0C2FB04464A48DC
:102AA0000168204604F0BCFB5E490860514800689C
:102AB00080F0004756480168384604F07BFE064621
:102AC00056480168304604F075FE054654480168D2
:102AD000284604F0A5FB04463B480168204604F064
:102AE0009FFB514908604A4801684248006804F069
:102AF00061FE064649480168304604F091FB0546F0
:102B000047480168284604F08BFB04462E480168BC
:102B1000204604F085FB454908603D48016835487A
:102B2000006804F07DFB06463C480168304604F02E
:102B300041FE05463A480168284604F071FB044608
:102B400021480168204604F06BFB3949086035488C
:102B5000006804F095FC04462146012001F06EF95E
:102B60003148006804F08CFC04462146022001F044
:102B700065F92E48006804F083FC044621460320D2
:102B800001F05CF92A48006804F07AFC044621460A
:102B9000042001F053F900BFCEE6000054020020EB
:102BA00078020020342C01407C020020FC00002030
:102BB0001C0200201001002000002042000020C262
:102BC00080020020380200201C0100200000F0419B
:102BD0000000F0C1D8000020F400002074010020A3
:102BE0001801002000002041000020C164000020E6
:102BF000E401002000010020D0000020F0000020AF
:102C0000900100201401002068000020C80100206D
:102C1000040100206C0000200002002008010020B8
:102C2000280100202C010020300100203401002068
:102C30003801002000200349087003480349086058
:102C400070470000540200200000E04128010020ED
:102C50002DE9F04111480078022801D0BDE8F0814B
:102C60000F491048006804F073FD0ED20D4800684B
:102C700004F0AAFA06460C4A0C4B04F0BBF90446D1
:102C800003F0E0FC0749086005E0054805490860D5
:102C900007480849086000BFE0E700005402002030
:102CA00000005041FC0000209A9999999999C93FD8
:102CB0000000A0412801002003200149087070474E
:102CC000540200200120014908707047540200207E
:102CD0002DE9F041024600250026002000230024B3
:102CE000002791F803C00CF00F0591F803C00CF019
:102CF000100CBCF1000F03D091F802C04CEA05059E
:102D000091F800C0BCF1000F31D0146800202BE016
:102D10004FF0010C0CFA00F3B1F800C00CEA030606
:102D20009E4220D183004FF00F0C0CFA03F7BC43F6
:102D300005FA03FC4CEA040491F803C0BCF1280F27
:102D400006D14FF0010C0CFA00FCC2F814C00AE0E6
:102D500091F803C0BCF1480F05D14FF0010C0CFAFB
:102D600000FCC2F810C0401C0828D1D31460B1F890
:102D700000C0BCF1FF0F34DD546800202EE000F1EC
:102D8000080C4FF0010808FA0CF3B1F800C00CEA87
:102D900003069E4221D183004FF00F0C0CFA03F77B
:102DA000BC4305FA03FC4CEA040491F803C0BCF1EF
:102DB000280F05D100F1080C08FA0CF8C2F81480AD
:102DC00091F803C0BCF1480F07D100F1080C4FF097
:102DD000010808FA0CF8C2F81080401C0828CED36D
:102DE0005460BDE8F08141617047016170470000A7
:102DF0002DE9F05F01233B22D021354800F082FA13
:102E00003449088001233D22D021314800F07AFA6C
:102E10003149088001233F22D0212D4800F072FA69
:102E20002E4908802B48B0F9000004F065FB83466A
:102E30004FF0804104F0C0FB824604F0C5F98046A3
:102E4000274A284B03F0B0FE06460022264B03F02B
:102E5000E7FC044603F0F6FB244908601E48B0F97D
:102E6000000004F049FB83464FF0804104F0A4FBCE
:102E7000824604F0A9F98046194A1A4B03F094FEE1
:102E800006460022184B03F0CBFC044603F0DAFBA5
:102E9000174908601148B0F9000004F02DFB834683
:102EA0004FF0804104F088FB824604F08DF906461D
:102EB0000B4A0C4B03F078FE044600220A4B03F049
:102EC000AFFC804603F0BEFB0A490860BDE8F09FF6
:102ED0000054004056000020580000205A000020F6
:102EE0009A999999999923400000E0407000002038
:102EF00074000020780000202DE9FF5F01234322A9
:102F0000D021464800F0FEF94549088001234522BA
:102F1000D021424800F0F6F94249088001234722B7
:102F2000D0213E4800F0EEF93F4908803F48006854
:102F300004F04AF906460F463948B0F9000004F09B
:102F4000DBFA83463A4904F037FB824604F03CF949
:102F50000022384BCDE9000103F062FC364A374BC2
:102F6000CDE9020103F05CFC804632463B4604F0AA
:102F700041F8044603F066FB3149086031480068B7
:102F800004F022F9804689462648B0F9000004F092
:102F9000B3FA2749009004F00FFB019004F014F9F4
:102FA00082460022234B03F03BFC234A234BCDE90E
:102FB000020103F035FC064642464B4604F01AF87F
:102FC000044603F03FFB204908602048006804F0F5
:102FD000FBF804460D461448B0F9000004F08CFAE2
:102FE0001349009004F0E8FA019004F0EDF8002293
:102FF000104BCDE9020103F013FC80460E4A0F4B43
:1030000003F00EFC064622462B4603F0F3FF8246F1
:1030100003F018FB0E490860BDE8FF9F0054004014
:1030200050000020520000205400002044000020E6
:103030000000FA430000E040295C8FC2F5A84C4034
:103040006400002048000020680000204C000020A0
:103050006C0000202DE9FC4125480068401C2449F3
:10306000086008460068082840DB37230222D02188
:10307000204800F0C9F8684603F094F9BDF9000053
:1030800004F03AFA804604F09FF8064600221A4BF4
:1030900003F0C6FB044603F0D5FA18490860BDF9F1
:1030A000020004F029FA804604F08EF80646002259
:1030B000114B03F0B5FB044603F0C4FA1049086055
:1030C000BDF9040004F018FA804604F07DF80646C5
:1030D0000022094B03F0A4FB044603F0B3FA0949AC
:1030E0000860002002490860FFF73AFABDE8FC8159
:1030F000D40200200054004000089140C802002083
:10310000CC020020D002002000BFFEE721B10288DF
:1031100042F48062028004E002884FF6FF331A40D6
:10312000028070472DE9F0410746884614461E4646
:10313000069D00BF4FF40031384600F057F90028D3
:10314000F8D10121384600F039F900BF2C49384642
:1031500000F09AF80028F9D000224146384600F0E5
:103160001DFA00BF2749384600F08EF80028F9D034
:103170000121384600F09DF83146384600F017FA34
:1031800000BF2049891C384600F07EF80028F8D09E
:103190000121384600F012F900BF1949384600F005
:1031A00073F80028F9D001224146384600F0F6F9BC
:1031B00000BF1349491C384600F066F80028F8D0D3
:1031C00016E0012D07D100213846FFF79FFF0121AE
:1031D000384600F0FFF80A493F31384600F054F80D
:1031E00030B1384600F0D6F92070641C681E85B2F4
:1031F000002DE6D101213846FFF788FFBDE8F081B8
:1032000001000300820007002DE9F04106460F4649
:1032100014461D460121304600F0D0F800BF184981
:10322000304600F031F80028F9D000223946304607
:1032300000F0B4F900BF1349304600F025F800282B
:10324000F9D02946304600F0B2F900BF0D49891C7B
:10325000304600F019F80028F8D02146304600F03A
:10326000A6F900BF0749891C304600F00DF8002878
:10327000F8D00121304600F0ADF8BDE8F081000043
:10328000010003008200070070B5024600240025FB
:1032900000230020958A138B1B0445EA030626F0C1
:1032A0007F4404EA01068E4201D1012000E00020A3
:1032B00070BD21B1028842F00102028004E0028860
:1032C0004FF6FE731A4002807047000010B50446A6
:1032D0000B48844209D10121480500F081FC0021FE
:1032E0004FF4001000F07CFC08E00121880500F09C
:1032F00077FC00214FF4800000F072FC10BD00004C
:10330000005400402DE9FC4106460F4614461D4678
:103310000220234601AA394600903046FFF702FFFB
:10332000012D08D19DF805009DF8041000EB012047
:1033300000B2BDE8FC819DF804009DF8051040EA4C
:10334000012000B2F5E7000070B506461948864234
:1033500002D1C414051501E0802440250DE0294662
:103360001548FFF742FD0A2002F0EEFE29461248FA
:10337000FFF739FD0A2002F0E7FE0F480C30006825
:1033800020400028EBD029460B48FFF72EFD2146B0
:103390000948FFF728FD0A2002F0D6FE214606481C
:1033A000FFF723FD0A2002F0CFFE0121304600F096
:1033B00000F970BD00580040000C014021B10288A6
:1033C00042F48072028004E002884FF6FF631A40E4
:1033D0000280704721B1028842F40072028004E04A
:1033E00002884FF6FF531A40028070470CB5024620
:1033F000002000230193009300920B0F019321F012
:103400007F41019B1BB1009B1433009303E0090C27
:10341000009B18330093009B1B680B400BB10120ED
:1034200000E000200CBD1AB183880B43838002E0CA
:1034300083888B43838070472DE9F04385B0044631
:103440000D460026B1460427DFF8CC80A6884FF64B
:10345000C0700640684600F0E3FBDDF808802F48A6
:10346000B8FBF0F01FFA80F946EA0906A68020882A
:103470004FF6FE71084020800026294928688842BE
:103480000CD828684000B8FBF0F087B2042F00DAAF
:1034900004273E4309F10100208427E0E8884BF629
:1034A000FF71884206D1286800EB4000B8FBF0F0BD
:1034B00087B209E0286800EBC00101EB0010B8FBFF
:1034C000F0F087B247F48047C7F30B0008B947F024
:1034D000010747F4004006434FF4967009FB00F0E3
:1034E0004FF47A7190FBF1F0401C2084A683208871
:1034F00040F00100208026884FF6F5300640A8886D
:103500006989084306432680A889298908432081C0
:1035100005B0BDE8F083000000127A0040420F00C1
:10352000A086010038B504460A48844204D14FF40D
:103530004060ADF8000002E0C020ADF800000320BC
:103540008DF802001C208DF8030069460248FFF741
:10355000BFFB38BD00580040000C014038B50446A0
:103560000A48844204D14FF44060ADF8000002E004
:10357000C020ADF8000003208DF8020014208DF863
:10358000030069460248FFF7A3FB38BD005800401E
:10359000000C01400146088AC0B2704712B141F0E8
:1035A000010102E04FF6FE7319400182704701826B
:1035B000704721B1028842F40042028003E0028891
:1035C000C2F30E020280704710B586B004462D4843
:1035D000844204D10121880500F0F2FA03E00121C0
:1035E000480500F0EDFA0121082000F009FB25480C
:1035F000844204D14FF44060ADF8140002E0C020D2
:10360000ADF8140003208DF816001C208DF817006B
:1036100005A91D48FFF75CFB0020ADF808004BF63C
:10362000FF70ADF80A000020ADF80C004FF4806088
:10363000ADF80E000001ADF81000144801902046CE
:10364000FFF744FE01A92046FFF7F6FE01212046C0
:10365000FFF72FFE01224FF4C0612046FFF7E3FE83
:103660004FF400312046FFF7C1FE28B12046FFF796
:1036700075FF2046FFF768FE2046FFF753FF06B0B0
:1036800010BD000000580040000C0140A086010061
:103690002DE9F04704460D462168206903F08CFFB0
:1036A00081462168606903F087FF8246216803F044
:1036B00083FF8046A16803F0B3FD06463046E1680B
:1036C00003F0AEFD80464146304603F017FE074644
:1036D0004946284604F06EF88246394603F06CFFEE
:1036E0008046494603F09CFD206139464FF07E50EC
:1036F00004F060F88046314603F05EFF60612069A7
:10370000BDE8F08770B50546094C0A48007800B15D
:10371000094C2146284604F01BF801D2254605E055
:103720000021284603F014FF00D20025284670BD72
:103730000000C842790200200000484270B5002411
:1037400011E0544951F82400534941F8240051F83C
:10375000240003F039FD05462A460B464FA1534885
:1037600002F016FF641C052CEBDB4B480068504947
:103770000860494840684F490860474880684E499A
:1037800008604548C0684D490860434800694C4995
:1037900008604C494648006803F0DAFF0AD34A49FA
:1037A0004348006803F0D4FE04D34148006802F0A7
:1037B00039F928B100203E490860012043490870CA
:1037C00040493C48006803F0C3FF0AD33E493948EA
:1037D000006803F0BDFE04D33648006802F022F909
:1037E00028B10020334908600120384908704FF0A3
:1037F00080413148006803F0ABFF0BD34FF04041EC
:103800002D48006803F0A4FE04D32B48006802F0A2
:1038100009F928B100202849086001202B490870C7
:103820004FF080412548006803F092FF0BD34FF022
:1038300040412248006803F08BFE04D31F48006813
:1038400002F0F0F828B100201C49086001201F494F
:1038500008704FF080411A48006803F079FF0BD3DD
:103860004FF040411648006803F072FE04D314483C
:10387000006802F0D7F828B1002011490860012043
:10388000124908701148007818B111A1074802F0D8
:103890007FFE70BD00900108E80200204C6F61645B
:1038A000205072616D3A25660D0A0000004C004000
:1038B000F0000020F4000020440000204800002018
:1038C0004C0000200000A0400000A0C078020020B2
:1038D0006C6F6164206F6666736574206572726FC9
:1038E0007221706C656173652061646A7573742000
:1038F000616761696E210D0A0000000010B5124871
:10390000FFF762FE114802F01FFC6B230022D0215A
:103910000D48FFF779FC19230022D0210A48FFF750
:1039200073FC1A230222D0210748FFF76DFC1B23EA
:103930000822D0210448FFF767FC1C230122D02174
:103940000148FFF761FC10BD0054004020A10700B2
:1039500000BFFEE77047000070B5002100230F2272
:10396000C47804B3154C246804F4E064C4F5E0643E
:10397000210AC1F10403CA40447804FA03F18478AF
:103980001440214309010E4C0678A155047804F037
:103990001F050124AC4005786D11AD0005F1E0254F
:1039A000C5F8004109E0047804F01F050124AC408B
:1039B000044D0678761145F8264070BD0CED00E008
:1039C00000E400E080E100E002490143024A1160A6
:1039D000704700000000FA050CED00E030B58BB038
:1039E00000200790089009900A9003900490059099
:1039F0000690009001900290002500240DE02748D9
:103A000050F8240007A941F8240007A850F8240022
:103A100003A941F82400601CC4B2042CEFDB00248D
:103A200010E003A810F824000DF8140003A830F8E3
:103A30002400C0F30720012101EB44010DF801002F
:103A4000601CC4B2042CECDB08216846FEF79EFE25
:103A500005462846E91705EB11610912A5EB01217E
:103A6000C9B28DF80810E91705EB1161090A8DF844
:103A7000091000240DE000BF8021094801F016FE66
:103A80000028F9D01DF80410054801F0DCFE601C88
:103A9000C4B20A2CEFDB0BB030BD0000D80200200E
:103AA000004C00402DE9F04F87B004460D46164605
:103AB0003146284603F07EFE81464846216903F0E0
:103AC00079FE8246504603F07FFB364A364BCDE9FD
:103AD000040103F069F8074602F0B4FD8246A069CC
:103AE00003F072FB0746314A314B03F05DF8CDE934
:103AF0000201504603F068FBCDE90001DDE9022335
:103B000002F0D2FDCDE9040102F09CFD8246C4F82A
:103B10001090484603F058FB0746264A264B03F010
:103B200043F8CDE90201E06803F04EFBCDE9000166
:103B3000DDE9022302F0B8FDCDE9040102F082FDC7
:103B4000E0606169E06803F003FE02D26069E06052
:103B50000BE0606980F000473846E16803F0F8FD4B
:103B600003D2606980F00040E060C4F818A0D4E996
:103B7000021003F021FD05905046616803F01CFD22
:103B800080464846216803F017FD4146049003F043
:103B900047FB0746059903F043FB8346584607B0A9
:103BA000BDE8F08FFA7E6ABC7493D83FAE47E17AE5
:103BB00014AEE33F7B14AE47E17A743F70470000D8
:103BC00029B1064AD2690243044BDA6104E0034A90
:103BD000D2698243014BDA61704700000010024055
:103BE00029B1064A12690243044B1A6104E0034AF0
:103BF00012698243014B1A617047000000100240B5
:103C000029B1064A92690243044B9A6104E0034ACF
:103C100092698243014B9A61704700000010024094
:103C200030B500210022002400232D4D6D6805F0E1
:103C30000C0121B1042905D0082923D105E0294D23
:103C4000056022E0274D05601FE0254D6D6805F4F5
:103C50007012234D6D6805F48034022505EB924205
:103C60001CB9214D554305600BE01D4D6D6805F4F1
:103C700000351DB11C4D5543056002E0194D5543FB
:103C8000056002E0174D056000BF00BF144D6D6870
:103C900005F0F0010909154D6B5C0568DD404560D4
:103CA0000F4D6D6805F4E061090A104D6B5C4568C5
:103CB000DD4085600A4D6D6805F46051C90A0B4D01
:103CC0006B5C4568DD40C560054D6D6805F440419D
:103CD000890B074D6B5CC568B5FBF3F5056130BD1D
:103CE0000010024000127A0000093D000000002090
:103CF0001000002008B501210420FFF781FF1020EB
:103D0000ADF800008DF8030003208DF8020069462D
:103D10000648FEF7DDFF4020ADF8000004208DF8D6
:103D2000030069460148FEF7D3FF08BD00080140C3
:103D300010B510210548FFF758F8462002F004FAA4
:103D400010210248FFF74FF810BD000000080140A5
:103D5000704710B500F002F810BD00000CB500204F
:103D6000019000903348006840F480303149086089
:103D700000BF3048006800F4003000900198401CFB
:103D80000190009818B90198B0F5A06FF1D12948B9
:103D9000006800F4003010B10120009001E0002024
:103DA00000900098012843D12348006840F010009B
:103DB000214908600846006820F0030008600846B2
:103DC000006840F0020008601A48406819494860DD
:103DD0000846406848600846406840F48060486093
:103DE0000846406820F47C1048600846406840F46B
:103DF000E81048600846006840F08070086000BF26
:103E00000C48006800F000700028F9D009484068AC
:103E100020F00300074948600846406840F002006F
:103E2000486000BF0348406800F00C000828F9D142
:103E30000CBD000000100240002002402DE9F047B8
:103E400004460D46042C01DC012C01DABDE8F087A4
:103E5000012C06D0022C1CD0032C33D0042C63D1AF
:103E600049E0284603F048FB8246FFF74BFC8146B9
:103E70002F4903F0A1FB80462E4903F03FFA074685
:103E80002D4903F0CDF9064603F016FB2B490880B7
:103E90004AE0284603F030FB8246FFF733FC8146B8
:103EA000274903F089FB8046224903F027FA074699
:103EB000244903F0B5F9064603F0FEFA1F49091D2F
:103EC000088031E0284603F017FB8246FFF71AFC12
:103ED00081461B4903F070FB8046164903F00EFA39
:103EE0000746184903F09CF9064603F0E5FA134922
:103EF0000831088018E0284603F0FEFA8246FFF7F2
:103F000001FC81460A4903F057FB8046094903F04A
:103F1000F5F90746084903F083F9064603F0CCFAA1
:103F200006490C31088000BF00BF00BF8EE70000CB
:103F300000005C430000C84200009643342C01405E
:103F400000007A43000087437047000010B5134813
:103F5000006840F0010011490860084640681049B7
:103F600008400E494860084600680E4908400B4961
:103F700008600846006820F4802008600846406811
:103F800020F4FE0048604FF41F008860FFF7E1FE58
:103F90004FF000600449086010BD000000100240AE
:103FA0000000FFF8FFFFF6FE08ED00E0F0B50C465C
:103FB000154600220021068C4FF6FE773E4006840F
:103FC000028B018C4FF60C7632407E1C06EA0316FB
:103FD0002E433243104EB0420ED0104EB0420BD0A2
:103FE000B0F1804F08D00E4EB04205D00D4EB04219
:103FF00002D00D4EB04206D14FF6FD76314044F06E
:104000000106314305E04FF6F576314044F00106F4
:10401000314302830184F0BD002C01400034014093
:104020000004004000080040000C0040F0B50C46C1
:104030001546002200210026078C4FF6EF7C07EA88
:104040000C070784028B018C4FF6FF7707EA0416F2
:1040500040F6FF473A404FF6FF7707EA03373A4307
:104060004FF6FF7707EA05273A43114FB8420ED0C3
:10407000104FB8420BD0B0F1804F08D00E4FB8426D
:1040800005D00E4FB84202D00D4FB84206D14FF6C0
:10409000DF77394046F01007394305E04FF65F7788
:1040A000394044F01007394302830184F0BD000019
:1040B000002C014000340140000400400008004092
:1040C000000C0040F0B50C461546002200210026E9
:1040D000078C4FF6FF6C07EA0C070784828B018C74
:1040E0004FF6FF7707EA04264FF60C773A404FF673
:1040F000FF7707EA03172F433A43114FB8420ED018
:10410000104FB8420BD0B0F1804F08D00E4FB842DC
:1041100005D00E4FB84202D00D4FB84206D14FF62F
:10412000FF57394046F48077394305E04FF2FF5797
:10413000394044F48077394382830184F0BD000024
:10414000002C014000340140000400400008004001
:10415000000C0040F0B50C46154600220021002658
:10416000078C4EF6FF7C07EA0C070784828B018CD4
:104170004FF6FF7707EA043640F6FF473A404FF61E
:10418000FF7707EA05273A434FF6FF7707EA033739
:104190003A43114FB8420ED0104FB8420BD0B0F195
:1041A000804F08D00E4FB84205D00E4FB84202D013
:1041B0000D4FB84206D14DF6FF77394046F480578F
:1041C000394305E047F6FF57394044F480573943F7
:1041D00082830184F0BD0000002C014000340140C6
:1041E0000004004000080040000C004000B587B00B
:1041F00001210220FFF7E4FC4FF6FF70ADF8080044
:104200004720ADF804000020ADF80A00ADF8060024
:1042100001A9174800F0BAFB0020ADF81000ADF876
:1042200012000120ADF814000020ADF81600ADF822
:10423000180004A90E4800F0E5F91D208DF80000D3
:1042400003208DF8010000208DF8020001208DF878
:1042500003006846FFF780FB01220321044800F0B9
:1042600027FA0121024800F09EF907B000BD0000C6
:10427000000400402DE9FC5F0121584800F0B1F92D
:1042800040B157480068401C554908600121534817
:1042900000F086F90221514800F0A3F900287CD0F3
:1042A0005048007870B900204D49086000214B4803
:1042B00000F03EFB01204B4908700221474800F006
:1042C0004DFA84E0474800780128FAD1434800F0CD
:1042D00085F9054603F028F9434908604049096813
:1042E000C1EB014003F008F905463F480168284644
:1042F00002F096FF3C4908600846006802F064FF3F
:1043000007460022394B02F04FFC05460022384B8D
:1043100002F04AFC82460022364B02F081FACDE9D7
:10432000000102F08FF9044621463348FFF7B0F947
:1043300004463249204603F00BFA01D230480468A3
:104340002F480168204603F035FA824602F03CFF10
:1043500007462C4A2C4B02F063FA054602F072F92C
:10436000814649462948FFF793F98146284948463E
:1043700003F0EEF907D32749484603F0E9F802D3E2
:104380002548C0F8009022492348006803F0E0F96E
:1043900004D21F482049086009E01CE01D491E485E
:1043A000006803F0D5F802D21A481B490860144887
:1043B000046000200A4908600021084800F0B8FAAB
:1043C0000020084908700021044800F0C7F90221C4
:1043D000024800F0E5F8BDE8FC9F00000004004042
:1043E0002000002024000020B40200200000E03F54
:1043F000009AE04080842E41840200200000964311
:104400007C020020B81E85EB51B88E3F9C02002034
:1044100000004842000048C28002002000B585B07C
:1044200001212F4800F0DDF8002856D001212C484A
:1044300000F0B6F800220121294800F039F9294896
:104440000068052838D2DFE800F034030822250090
:10445000FEF752FDFEF7CCFC2FE02348006823490D
:104460000968234A1268234B1B68CDE90132CDE964
:104470000310214800680090204803682048026823
:104480002048016820480068FDF704FA15E0FEF7AF
:1044900041FA12E01D480068401C1C4908600846AB
:1044A0000068032804DBFFF743FC0020174908607D
:1044B00003E0FEF7CFFD00E000BF00BF0948006841
:1044C000401C052190FBF1F201FB12000549086038
:1044D00001221146024800F0EBF805B000BD0000D3
:1044E0000010004028000020D0020020CC02002054
:1044F000C80200206C00002068000020640000203A
:10450000780000207400002070000020300000209F
:104510001FB504462048844203D02048844200D07E
:104520001FBD1D48844207D101211020FFF748FB21
:1045300036208DF80C0009E01848844206D101218C
:104540002020FFF73DFB37208DF80C0000208DF870
:104550000D0001208DF80E008DF80F0003A8FFF765
:10456000FBF94FF4FA60ADF804002320ADF8000029
:104570000020ADF80600ADF802006946204600F0C4
:1045800005FA01221146204600F092F8012120464A
:1045900000F009F800BFC3E700100040001400401D
:1045A000CA430282704721B1028842F001020280B0
:1045B00004E002884FF6FE731A400280704731B162
:1045C000B0F8442042F40042A0F8442005E0B0F8DE
:1045D0004420C2F30E02A0F8442070470146888EA2
:1045E000704730B50246002000230024158A05EAF2
:1045F0000103958905EA010413B10CB1012000E023
:10460000002030BD70B505460C46244885420ED0CA
:10461000234885420BD0B5F1804F08D02148854210
:1046200005D02148854202D02048854200D100E0D3
:1046300000BF208850B92389A28861882846FFF7E7
:10464000B5FCE188284600F075F925E020880428AB
:104650000AD12389A28861882846FFF7E7FCE18810
:10466000284600F070F917E0208808280AD123892D
:10467000A28861882846FFF725FDE188284600F0DA
:104680006FF909E02389A28861882846FFF762FD57
:10469000E188284600F06DF970BD0000002C014053
:1046A000003401400004004000080040000C0040BD
:1046B0001AB183890B43838102E083898B43838111
:1046C0007047000070B5002400220023058C4FF6CF
:1046D000FE7635400584028C8388048B4FF68F75F7
:1046E0002C40B51E2C400D882C43751E2A400D8988
:1046F0002A434D882A43144DA8420BD0134DA8429B
:1047000008D0134DA84205D0124DA84202D0124D38
:10471000A84213D14FF6F7752A404D892A434FF628
:10472000FB752A408D882A434FF6FF652B404FF6D4
:10473000FF552B408D892B43CD892B4383800483E8
:10474000CD888586028470BD002C01400034014074
:104750000040014000440140004801400A46002159
:10476000018C4FF6FD73194011430184704700001E
:1047700070B5002400220023058C4FF6EF763540FB
:104780000584028C8388048B48F6FF752C404FF615
:10479000FF452C400D884FF6FF7606EA05252C4391
:1047A0004FF6DF752A400D8906EA05152A434D8824
:1047B00006EA05152A43154DA84202D0144DA84219
:1047C0001DD14FF67F752A404D894FF6FF7606EAD8
:1047D00005152A434FF6BF752A408D8806EA051550
:1047E0002A434FF6FF352B404FF2FF752B408D8942
:1047F00006EA85052B43CD8906EA85052B43838090
:104800000483CD880587028470BD0000002C014020
:104810000034014070B5002400220023058C4FF6BF
:10482000FF6635400584028C8388848B4FF68F7534
:104830002C404FF6FC752C400D882C434FF6FF554D
:104840002A400D894FF6FF7606EA05252A434D8852
:1048500006EA05252A43154DA84202D0144DA84268
:104860001DD14FF2FF752A404D894FF6FF7606EABB
:1048700005252A434FF6FF352A408D8806EA05258F
:104880002A434EF6FF752B404DF6FF752B408D8960
:1048900006EA05152B43CD8906EA05152B438380CF
:1048A0008483CD888587028470BD0000002C014080
:1048B0000034014070B5002200230024058C4EF620
:1048C000FF7635400584038C8488828B48F6FF751B
:1048D0002A404FF6FF452A400D884FF6FF7606EA3C
:1048E00005252A434DF6FF752B400D8906EA05354F
:1048F0002B434D8806EA05352B430B4DA84202D0C9
:104900000A4DA84208D14BF6FF752C408D894FF611
:10491000FF7606EA85152C4384808283CD88A0F833
:104920004050038470BD0000002C01400034014061
:1049300081847047028B4FF6F3731A400283028B17
:104940000A4302837047028B4FF2FF331A400283FF
:10495000028B4FF6FF7303EA01231A430283704769
:10496000828B4FF6F3731A408283828B0A438283D1
:104970007047828B4FF2FF331A408283828B4FF64F
:10498000FF7303EA01231A438283704700220288DF
:104990001D4B98420ED01D4B98420BD0B0F1804F6A
:1049A00008D01B4B984205D01A4B984202D01A4BA4
:1049B000984204D14FF68F731A404B881A43174B15
:1049C000984207D0164B984204D04FF6FF431A4046
:1049D000CB881A4302808B8883850B8803850A4B1A
:1049E00098420BD0094B984208D00E4B984205D004
:1049F0000D4B984202D00D4B984201D10B7A0386A1
:104A00000123838270470000002C014000340140E4
:104A10000004004000080040000C0040001000406E
:104A200000140040004001400044014000480140A3
:104A300000B587B040F22551FE4800F044FE002842
:104A40007BD040F22551FB4800F015FEF94800F0FC
:104A5000F5FEC0B20690069830384B286ED2DFE8DB
:104A600010F0C8044B006E00A704AA04AD046D004A
:104A7000B004B804C0046D006D006D006D006D00E1
:104A80006D006D00D004EE040C052A0566056D006E
:104A900062056D00480551055A055E056D006A0501
:104AA0006D00730592056D006D006D006D006D0069
:104AB0006D006D006D006D006D006D006D006D008E
:104AC0006D006D0039015701E9029F00D501AE006C
:104AD000A703C60375016D00690388034803270314
:104AE000A501C300FE006202B5008F001504080393
:104AF000BC00B402E5037F02CF488068019002F059
:104B000063FBCE4ACE4BCDE9020101F0CDFDCDE9EC
:104B1000040101F097FDC84988600020C86008467C
:104B20008068039002F050FB02460B46CDE9040179
:104B3000C4A1C04801F02CFD7BE2D7E3D7E3BE4817
:104B40008068019002F040FBBC4ABD4BCDE90201F8
:104B500002F050FACDE9040101F074FDB649886015
:104B60000020C86008468068039002F02DFB0246D2
:104B70000B46CDE90401B3A1AE4801F009FDDBE726
:104B8000B448007808B9012000E00020B14908705D
:104B90000020B149C860B1A1A64801F0F9FCCBE7FB
:104BA000B248007808B9012000E00020AF49087041
:104BB00008460278AEA19F4801F0EAFCBCE7FEF788
:104BC00039F8AFA19B4801F0E3FCB5E7FEF774F8B4
:104BD000AFA1984801F0DCFCAEE7FEF773F8AFA197
:104BE000944801F0D5FCA7E793480068019002F0D3
:104BF000EBFA924A924BCDE9020101F055FDCDE965
:104C0000040101F01FFD8C490860A748006801906D
:104C100002F0DAFA894A8A4BCDE9020102F0EAF998
:104C2000CDE9040101F00EFD9F490860824800684B
:104C3000019002F0C9FACDE904019B480068019097
:104C400002F0C2FACDE90201DDE90401CDE900017B
:104C500096A17848DDE9022301F09AFC6CE77648DA
:104C60000068019002F0B0FA744A754BCDE9020178
:104C700002F0C0F9CDE9040101F0E4FC6E490860DE
:104C800089480068019002F09FFA6C4A6C4BCDE9AC
:104C9000020101F009FDCDE9040101F0D3FC8249D4
:104CA000086065480068019002F08EFACDE90401C1
:104CB0007D480068019002F087FACDE90201DDE944
:104CC0000401CDE9000179A15A48DDE9022301F090
:104CD0005FFC31E77C48006802F076FA4FF033322F
:104CE0007A4BCDE9020101F0DFFCCDE9040101F0CE
:104CF000A9FC754908600846006802F065FA02469A
:104D00000B46CDE9040172A14A4801F041FC13E7CA
:104D10006D48006802F058FA4FF033326B4BCDE922
:104D2000020102F067F9CDE9040101F08BFC66494C
:104D300008600846006802F047FA02460B46CDE9D3
:104D4000040163A13B4801F023FCF5E66448406898
:104D5000019002F039FA634A634BCDE9020101F098
:104D6000A3FCCDE9040101F06DFC5D4948605F489A
:104D70004068019002F028FA5A4A5B4BCDE90201E3
:104D800001F092FCCDE9040101F05CFC5749486058
:104D900053484068039002F017FA02460B46CDE9EB
:104DA000040153A1234801F0F3FBC5E64C484068D9
:104DB000019002F009FA4B4A4B4BCDE9020102F097
:104DC00019F9CDE9040101F03DFC45494860474827
:104DD0004068019002F0F8F9424A434BCDE90201E4
:104DE00002F008F9CDE9040101F02CFC3F494860CC
:104DF0003B484068039002F0E7F902460B46CDE9D4
:104E000004013BA10B4801F0C3FBDCE33F48006811
:104E100002F0DAF9334A344BCDE9020101F044FCE7
:104E2000CDE9040101F00EFC38490860084600682D
:104E30006EE00000004C0040740100207B14AE477F
:104E4000E17A843F526F6C6C5F5049442E693D2576
:104E5000660D0A007A0200201C02002053454E44D1
:104E6000206368616E6765210D0A000079020020E9
:104E700044656275673D202025640D0A000000002E
:104E8000737461727420666C79210D0A0000000051
:104E900073746F7020666C79210D0A00666C79203E
:104EA00075702021210D0A00900100207069746343
:104EB000685F503D256620202020726F6C6C5F502B
:104EC0003D2566200D0A0000280100203333D33F22
:104ED000626173655F647574793D25660D0A000033
:104EE000E40100209A9999999999B93FC801002045
:104EF000414E474C455F53504545445F585F5049CC
:104F0000442E4B443D25660D0A000000F4000020AD
:104F100002F05AF902460B46CDE90401F4A1F94822
:104F200001F036FB4FE3F848006802F04DF9F74A0C
:104F3000F74BCDE9020102F05DF8CDE9040101F083
:104F400081FBF14908600846006802F03DF902461D
:104F50000B46CDE90401E6A1EA4801F019FB32E372
:104F6000EC488068019002F02FF9E84AE84BCDE95F
:104F7000020102F03FF8CDE9040101F063FBE549CD
:104F80008860E5488068019002F01EF9DF4AE04B36
:104F9000CDE9020102F02EF8CDE9040101F052FB47
:104FA000DD4988600020DB49C860DB49C860D9481A
:104FB0008068039002F008F902460B46CDE904012F
:104FC000D6A1D04801F0E4FAFDE2D2488068019011
:104FD00002F0FAF8CD4ACE4BCDE9020101F064FBB4
:104FE000CDE9040101F02EFBCA498860CA488068F7
:104FF000019002F0E9F8C54AC54BCDE9020101F084
:1050000053FBCDE9040101F01DFBC349886000207A
:10501000C049C860C049C860BE488068039002F0BB
:10502000D3F802460B46CDE90401BCA1B54801F016
:10503000AFFAC8E2BE480068019002F0C5F8B34A72
:10504000B34BCDE9020101F02FFBCDE9040101F0E2
:10505000F9FAB749086008460068039002F0B4F80E
:1050600002460B46CDE90401B2A1A64801F090FA30
:10507000A9E2AF480068019002F0A6F8A34AA44B49
:10508000CDE9020101F0B6FFCDE9040101F0DAFA41
:10509000A749086008460068039002F095F80246A8
:1050A0000B46CDE90401A3A1964801F071FA8AE20A
:1050B000A3488068019002F087F8A24AA24BCDE98C
:1050C000020101F0F1FACDE9040101F0BBFA9C49BB
:1050D00088600020C86008468068039002F074F879
:1050E00002460B46CDE9040198A1864801F050FA2A
:1050F00069E293488068019002F066F8914A924B09
:10510000CDE9020101F076FFCDE9040101F09AFA40
:105110008B4988600020C86008468068039002F0D0
:1051200053F802460B46CDE9040188A1754801F009
:105130002FFA48E282480068019002F045F8894A57
:10514000894BCDE9020101F0AFFACDE9040101F08C
:1051500079FA7B49086008460068039002F034F849
:1051600002460B46CDE9040180A1664801F010FA21
:1051700029E273480068019002F026F8794A7A4BD8
:10518000CDE9020101F036FFCDE9040101F05AFA40
:105190006B49086008460068039002F015F8024663
:1051A0000B46CDE9040171A1564801F0F1F90AE27C
:1051B00063484068019002F007F8544A544BCDE927
:1051C000020101F071FACDE9040101F03BFA5C49FA
:1051D000486008464068039001F0F6FF02460B461F
:1051E000CDE9040165A1474801F0D2F9EBE154484B
:1051F0004068019001F0E8FF444A454BCDE90201C7
:1052000001F0F8FECDE9040101F01CFA4C494860B8
:1052100008464068039001F0D7FF02460B46CDE9EF
:10522000040156A1374801F0B3F9CCE139480068D0
:10523000019001F0C9FF354A354BCDE9020101F07B
:10524000D9FECDE9040101F0FDF932490860324888
:105250000068019001F0B8FF2C4A2D4BCDE9020106
:1052600001F0C8FECDE9040101F0ECF92A4908601B
:1052700028480068039001F0A7FF02460B46CDE9DD
:10528000040144A11F4801F083F99CE12148006812
:10529000019001F099FF1D4A1D4BCDE9020101F07B
:1052A00003FACDE9040101F0CDF91A4908601A4862
:1052B0000068019001F088FF144A154BCDE9020106
:1052C00001F0F2F9CDE9040101F0BCF912490860DE
:1052D00010480068039001F077FF02460B46CDE9C5
:1052E00004012CA1074801F053F96CE16CE169E17C
:1052F000726F6C6C5F7461726765743D25660D0A30
:1053000000000000004C0040F40000209A99999998
:105310009999B93FE4010020C8010020616E676CD3
:10532000655F73706565645F6B693D25660D0A0096
:10533000000200207961775F4B503D25660D0A0021
:1053400038020020FCA9F1D24D62503F56656C6FC7
:10535000636974795F5049442E4B493D25660D0AB7
:10536000000000007B14AE47E17A843F565F50494D
:10537000442E4B503D25660D0A00000056656C6FAB
:10538000636974795F5049442E4B443D25660D0A8C
:1053900000000000414E474C455F53504545445F77
:1053A000585F5049442E4B503D25660D0A000000C1
:1053B000FDF750F807E1FEF7C1F904E100F0CEFA7D
:1053C00001E182488249086082A1874801F0E0F843
:1053D000F9E000207E49086084A1834801F0D8F8F4
:1053E000F1E000208649086086A17F4801F0D0F8EE
:1053F000E9E088488249086087A17B4801F0C8F845
:10540000E1E08948006801F0DFFE884A884BCDE979
:10541000020101F0EFFDCDE9040101F013F9824929
:1054200008600846006801F0CFFE02460B46CDE951
:105430000401AFF238116C4801F0AAF8C3E07A48D1
:10544000006801F0C1FE794A794BCDE9020101F013
:105450002BF9CDE9040101F0F5F87349086008461D
:10546000006801F0B1FE02460B46CDE90401AFF23F
:1054700074115D4801F08CF8A5E06E48006801F0F9
:10548000A3FE6A4A6A4BCDE9020101F00DF9CDE9AC
:10549000040101F0D7F8674908600846006801F088
:1054A00093FE02460B46CDE90401AFF2B0114E481F
:1054B00001F06EF887E05F48006801F085FE5B4A06
:1054C0005B4BCDE9020101F095FDCDE9040101F04E
:1054D000B9F8584908600846006801F075FE0246B0
:1054E0000B46CDE90401AFF2EC113F4801F050F852
:1054F00069E04FF07E515048006801F091FE4E493E
:10550000086060E04FF07E514B48006802F052F9AD
:105510004949086057E049484749086053E000207E
:10552000474908704FE00120454908704BE00120D1
:105530004449086047E04348006820B100F00EFA93
:105540000020404908603EE03F480068019001F0BB
:105550003BFE364A3D4BCDE9020101F0A5F8CDE90D
:10556000040101F06FF838490860084600680390AC
:1055700001F02AFE02460B46CDE9040134A11A4887
:1055800001F006F81FE030480068019001F01CFEB1
:10559000264A2E4BCDE9020101F02CFDCDE9040194
:1055A00001F050F82849086008460068039001F0AF
:1055B0000BFE02460B46CDE9040125A10A4800F086
:1055C000E7FF00E000BF00BF07B000BD0000704172
:1055D000100100206865696768745F6F7574203D0D
:1055E000313521210D0A0000004C004048656967F3
:1055F00068745F4F7574203D3021210D0A00000052
:1056000018010020726F6C6C5F6F7574203D302143
:10561000210D0A000000A040726F6C6C5F6F757402
:10562000203D3521210D0A00F00000209A9999991A
:105630009999A93FF40000202801002000000C42A5
:10564000200100202C0000201C0200209999B93F65
:105650006865696768745F5049442E4B503D256604
:105660000D0A000001F40072B2F5007F00D100BF06
:10567000CA430280704710B50022002340F66A1426
:10568000A14200D100BF0A1201249440A3B2DC431E
:10569000048010BD21B1828942F40052828104E06D
:1056A00082894DF6FF731A408281704702460020BE
:1056B000B1F5007F00D100BF13880B400BB1012072
:1056C00000E00020704770B502460024002300254A
:1056D000002040F66A16B14200D100BFC1F3421566
:1056E00001F01F03012606FA03F3012D02D196896A
:1056F000334006E0022D02D1168A334001E0968A3B
:1057000033400C12012606FA04F41688344013B113
:105710000CB1012000E0002070BDF0B5034600246C
:1057200000260025002040F66A17B94200D100BFCC
:105730001846C1F3421401F01F06012707FA06F5C7
:10574000012C01D10C3004E0022C01D1103000E01A
:1057500014301AB107682F43076002E00768AF43AF
:105760000760F0BD2DE9F04786B005460E460024DF
:10577000A24600BFA1460027B08900B100BF2F4656
:105780002C8A4CF6FF700440F08804432C82AC89CC
:105790004EF6F3100440B0883189084371890843FC
:1057A0000443AC81AC8A4FF6FF400440B089044307
:1057B000AC8201A8FEF734FA1F48874202D1DDF817
:1057C00010A001E0DDF80CA0A88900F4004040B171
:1057D0000AEBCA0000EB0A1031684900B0FBF1F88F
:1057E00007E00AEBCA0000EB0A1031688900B0FB41
:1057F000F1F86420B8FBF0F004012009642101FBFA
:105800001089A88900F4004040B1322000EBC900A3
:10581000B0FBF1F000F00700044308E0322000EB99
:1058200009106421B0FBF1F000F00F0004432C815B
:1058300006B0BDE8F08700000038014001468888C6
:10584000C0F308007047C1F308028280704700BFB0
:10585000FEE7000030B587B004460D4602950020F3
:10586000ADF80C00ADF80E00ADF81000ADF8140066
:105870000C20ADF812004FF4E060FEF7A5F8002010
:105880008DF8060001208DF807003048844225D1AC
:1058900001210420FEF7B4F901218803FEF7B0F9D5
:1058A00018208DF81B0003208DF81A006015ADF844
:1058B000180006A92648FDF70BFA2015ADF81800C8
:1058C00048208DF81B0006A92148FDF701FA252084
:1058D0008DF8040001A8FEF73FF827E01D48844238
:1058E00024D101211020FEF78BF90121C804FEF715
:1058F00067F918208DF81B0003208DF81A00201579
:10590000ADF8180006A91448FDF7E2F9E014ADF867
:10591000180048208DF81B0006A90F48FDF7D8F99C
:1059200034208DF8040001A8FEF716F802A92046DD
:10593000FFF718FF01212046FFF7ACFE012240F2DD
:1059400025512046FFF7E9FE07B030BD0038014081
:1059500000080140004C0040001001402DE9F041DA
:10596000FCF7B8FF3520FCF72FFF1948FCF732FF92
:105970008046184800681849086018480068486060
:1059800017480068886017480068C86016480068B3
:105990000861002416E0104850F824500C4901EB2F
:1059A00084002946FCF760FF80460B4951F824002B
:1059B00001F00AFC064632460B460CA10E4800F0E8
:1059C000E7FD641C052CE6DBFCF744FFBDE8F08135
:1059D00000900108F0000020E8020020F400002000
:1059E00044000020480000204C00002077726974B9
:1059F000652025660D0A0000004C0040490050EA71
:105A0000C12018BF04204A0D18BF40F0010040F229
:105A1000FF72B2EB515F08BF40F00200012808BFDF
:105A200005207047014621F00040C0F1FF40C00F43
:105A300070472DE9F0414F1E00EBC7010446D1E944
:105A4000000115461E4637F006020DD02A463346A1
:105A500001F0AAF87F1E04EBC703D3E9002300F08E
:105A600023FE37F00602F1D1022F25D0042F13D0E8
:105A7000062F18BFBDE8F0812A46334601F094F89E
:105A8000D4E90A2300F010FE2A46334601F08CF8D0
:105A9000D4E9082300F008FE2A46334601F084F8D2
:105AA000D4E9062300F000FE2A46334601F07CF8D4
:105AB000D4E9042300F0F8FD2A46334601F074F8D7
:105AC000D4E9022300F0F0FD2A46334601F06CF8D9
:105AD000D4E90023BDE8F04100F0E6BD012201F069
