:020000040800F2
:1000000078120020B90200089D2C00080D1F00087E
:10001000992C00086D1900083B45000800000000FD
:100020000000000000000000000000000D3000088B
:10003000AB190008000000007B2E00080532000804
:10004000D3020008D3020008D3020008D30200083C
:10005000D3020008D3020008D3020008D30200082C
:10006000D3020008D3020008D3020008D30200081C
:10007000D3020008D3020008D3020008D30200080C
:10008000D3020008D3020008D3020008D3020008FC
:10009000D3020008D3020008D3020008D3020008EC
:1000A000D3020008D3020008D3020008D3020008DC
:1000B000D302000831350008D3020008D30200083B
:1000C000D3020008D3020008D3020008D3020008BC
:1000D000D3020008D3020008D3020008D3020008AC
:1000E000D3020008D3020008D3020008D30200089C
:1000F000D3020008D3020008D3020008D30200088C
:10010000D3020008D3020008D3020008D30200087B
:10011000AD3B0008D3020008D5350008D302000823
:10012000D3020008D3020008D3020008D30200085B
:1001300000F002F800F0B0F80AA090E8000C824449
:100140008344AAF10107DA4501D100F0A5F8AFF226
:10015000090EBAE80F0013F0010F18BFFB1A43F0A5
:1001600001031847E8620000086300000A444FF0EA
:10017000000C10F8013B13F0070408BF10F8014B06
:100180001D1108BF10F8015B641E05D010F8016B4B
:10019000641E01F8016BF9D113F0080F1EBF10F8AF
:1001A000014BAD1C0C1B09D16D1E58BF01F801CBD2
:1001B000FAD505E014F8016B01F8016B6D1EF9D555
:1001C0009142D6D37047000000230024002500266A
:1001D000103A28BF78C1FBD8520728BF30C148BFAA
:1001E0000B6070476E2900F04D81702900F09782F6
:1001F000662905F0CA87652905F0C787672905F0D4
:10020000C4876129AFF3008003681B0A28BF41F04F
:100210008001692900F0FA80642900F0F7807529CF
:1002200000F0F4806F2900F02582782900F06382C5
:10023000E92900F0BF81E42900F0BC81F52900F034
:10024000B981EF2900F02282F82900F06282036868
:10025000DB0928BF41F08001632900F0E88573299C
:1002600000F0ED85E32900F0F885F32900F0FD8525
:10027000002070471FB500F04FFE04000020002151
:1002800004F06CFE401C60600020002104F050FE71
:10029000E0601FBD10B510BD00F010FE1146FFF765
:1002A000E9FF04F08DFD00F0E9FE03B4FFF7F2FF73
:1002B00003BC00F02DFF00000948804709480047B3
:1002C000FEE7FEE7FEE7FEE7FEE7FEE7FEE7FEE706
:1002D000FEE7FEE704480549054A064B7047000063
:1002E000093200083101000878020020781200204D
:1002F000780A0020780A00207CB51D4616460C00BE
:10030000009001D02044401E074B7B442A4669469A
:100310000190304600F0CFF805461CB10020694638
:1003200000F0DCF828467CBDD9010000704770471A
:10033000704710B500F0C2FA006810BD10B5044651
:1003400000F0BCFA046010BD70B504468569006811
:10035000C10601D5302600E02026C00707D070BDB9
:10036000D4E9012130469047206A401C20626D1E6E
:10037000F6D570BD70B5044685690078C00707D111
:1003800070BDD4E9012120209047206A401C2062E2
:100390006D1EF6D570BD09684A0501D540B270479B
:1003A000C905FCD500B2704709684A0501D5C0B23D
:1003B0007047C905FCD580B2704770B50C4605463C
:1003C000012A05D02878800600D5EA69002302E0DA
:1003D000012305E05B1C934202D2E05C0028F9D1C6
:1003E000A869E618C01AA861286A18442862284635
:1003F000FFF7AAFF04E0D5E9012114F8010B9047AB
:10040000B442F8D32846FFF7B5FF70BD2DE9F0419F
:100410000646002410687529314616A510D0FFF74E
:10042000BAFF002802DA404213A507E031688A07C4
:1004300001D512A502E0490704D511A5012401E068
:10044000FFF7B2FF00210A2206F1240709E0B0FB02
:10045000F2FCB0FBF2F302FB1C003030785418467B
:10046000491C0028F3D123462A463046BDE8F04116
:1004700000F06DBA000000002D0000002B0000000D
:100480002000000011680268006A530501D5087059
:100490000AE0D30501D5088006E0130603D5C2178C
:1004A000C1E9000200E008600120704701694A1CB0
:1004B00002610878704700B58FB0CDE901310021A5
:1004C000059105497944CDE903101146684600F0CD
:1004D00031F90FB000BD0000E5FFFFFF0A6802F828
:1004E000010B0A607047D1E900239A4202D2531CE3
:1004F0000B601070704700002DE9FF5F15468A46BB
:100500000446DFF8AC80F8440027D8E900103E46E6
:10051000CDE9001010E03AF816106A4602A800F083
:10052000A8FC411C07D02178890603D5E269391857
:1005300091420DD80744761C2078800602D5E069E8
:10054000B84205DDAE42E6DB3AF816000028E2D1FB
:10055000A069C01BA0612046FFF7F6FED8E9001095
:10056000CDE90010002017E03AF818106A4602A8FA
:1005700000F07FFCB0F1FF3F81460BD000250DF16C
:10058000080B05E0D4E901211BF8050090476D1C1C
:100590004D45F7D308F10100B0428046E4DB206A04
:1005A000384420622046FFF7E5FEBDE8FF9F0000CB
:1005B000C65D00002DE9F0418046D21D22F0070201
:1005C0000025D2E90002F52915A614D0011E72F10A
:1005D000000106DA0023D0EB030063EB020211A650
:1005E00008E0D8F800108B0701D50FA602E04907F4
:1005F00001D50EA601251146002408F1240704E0C8
:1006000000F060F930323A55641C50EA0102F7D12B
:100610002B46324621464046BDE8F04100F097B9EE
:10062000000000002D0000002B0000002000000052
:1006300030B4002100F1240408E002F00705D208DC
:10064000303542EA4372DB086554491C52EA03051F
:10065000F3D10468002310A2250708D504F0200474
:100660000C4304D0C46901230CA2641EC46130BCD5
:1006700000F06DB910B5044621461068FFF794FEEE
:1006800002462046BDE810400023D1E7D21D22F0EB
:100690000701D1E90023CBE7000000003000000093
:1006A000F0B40D460188090502D5214C7C4402E0D6
:1006B0001F4C7C440E34002100F1240608E002F0B7
:1006C0000F071209E75D42EA03721B097754491CC0
:1006D00052EA0307F3D102780023120704D5702DE4
:1006E00006D009B1022311342246F0BC00F02FB924
:1006F00001231034F8E770B504460D462146106812
:10070000FFF752FE024629462046BDE8704000230E
:10071000C6E7D21D22F00703D3E90023C0E7036830
:10072000126843F0200303600823C3610023B7E786
:10073000285C00002DE9F05F894604464FF0000A6E
:10074000DFF874B1FB44C0F820A02046E168884778
:10075000002874D0252806D0D4E901219047206ACA
:10076000401C2062F1E700265F462046E16888478A
:100770002028054607DB312D05D2781910F8200C0A
:1007800008B10643F1E7B00701D526F00406C4F826
:100790001CA00027C4F818A02A2D09D0284603F071
:1007A000CFFF38B304EB8708303DC8F8185019E084
:1007B00059F8041B204604EB87029161E1688847E1
:1007C000012F054618D1E069002820DA26F020061E
:1007D0001DE0D8F8180000EB800005EB4000303831
:1007E000C8F818002046E1688847054603F0A8FFCE
:1007F0000028EED1012F0AD02E2D08D12046E16825
:1008000088477F1C0546022F46F02006C4DBA069FE
:10081000002803DA404246F00106A061F00701D04B
:1008200026F010066C2D0BD0682D09D04C2D39D038
:100830006A2D35D0742D35D07A2D33D016E038E0BE
:10084000E1682F4620468847B842054609D16C2FFB
:1008500026D04FF48060E16806432046884705466D
:1008600004E06C2F1AD04FF4807006430DB3A5F14D
:100870004100192802D8203546F400664A46294628
:10088000204626604E46FFF7ADFC80B101280BD014
:10089000F61D26F0070000F1080956E74020E4E7BE
:1008A0008020D8E70020D6E706F104094DE7284666
:1008B00052E7206ABDE8F09FB85B0000004870472F
:1008C0001402002030B5B0F10A024FEA900E71F127
:1008D00000034EEA817EB0EB0E0061EB91014FEA1E
:1008E000101E4EEA017E10EB0E0041EB11114FEA93
:1008F000102E4EEA016E10EB0E0041EB11214FEA73
:10090000104E4EEA014E10EB0E0041EB1141401823
:1009100041F100014FEAD00040EA41704FEAD101B5
:1009200010EB80054FEA810444EA907444EB010423
:100930006D1944EB0404521BA3414FF0000348BF60
:100940000A3200D530BD401C41F1000130BD2DE917
:10095000F0470D4699469246044600F12408016886
:10096000880604D5E06921F01001216000E0012033
:10097000A84201DD471B00E00027A1697A1902EBBC
:100980000900081AA0612078C00602D42046FFF7AB
:10099000DBFC002608E0D4E901211AF806009047A4
:1009A000206A401C761C20624E45F4DB2078C0068D
:1009B0000AD52046FFF7C8FC06E0D4E90121302023
:1009C0009047206A401C2062381EA7F10107F4DC22
:1009D00007E0D4E9012118F805009047206A401C7F
:1009E0002062281EA5F10105F3DC2046FFF7C2FCBA
:1009F0002078000602D50220BDE8F0870120FBE741
:100A000070472DE9FF4F0C461E464FF0FF378BB065
:100A1000D2E90001DDF860800A908A46C1F30A55E8
:100A200005B93D46002108464FF00000BAF1000F1D
:100A300000F4400005DA00EB80004FF4400101EAC9
:100A400050004FEA9059B9F1010F00DDB9460A98FC
:100A500050EA4A000ED044F61050A5F2FF35454347
:100A60002F14B8F1000F1ED07542291E1EDDC9F1EA
:100A700000021CE0B8F1010F4FF0000001D030215E
:100A800003E0F24305E02154401CB042FBDB30465A
:100A90000022002121540B99C1F80880C1E90020EF
:100AA0000FB0BDE8F08FBD1B6D1CDEE74A4600DAD3
:100AB000694206A800F074FA06AB93E8070003AB9E
:100AC00083E8070050460A9900F029FB8DE80700EB
:100AD000A0F500501F3800900398002D09DD42F268
:100AE0001F014A46084403A90390684600F088FDA8
:100AF00008E0A0F500504A461F3803A90390684655
:100B000000F092FD8DE807000004000C03D04FF0C8
:100B1000FF30410800E01046B8F1000F03D000227A
:100B2000009215461EE0751E05D4FFF7CBFE30324D
:100B300062556D1EF9D5B3460122084302D000224A
:100B40007F1C04E02078302801D100227F1E002A7B
:100B5000099786D01DE0112D07DAFFF7B3FE30327A
:100B600062556D1C50EA0102F5D1084302D000988D
:100B7000C8B10EE00021681E05E0235C625C63548E
:100B80002254401E491C8142F7DBAB46A81B401E85
:100B90000990002004F80B000B98099AC0F808800F
:100BA000C0E9002B7CE711264FF0000859E72DE93A
:100BB000F04F88460446D21D22F0070191B0D1E9DA
:100BC0000001CDE90A0103F03FFD02460B98C00F7A
:100BD00001D02D2007E02068810701D52B2002E0FD
:100BE000202101EAC000032A099001D0072A05DB71
:100BF00003464146204600F093F90BE12078800639
:100C000001D5E06900E00620B8F1650F814606D005
:100C1000B8F1660F18D0B8F1670F70D131E000203D
:100C2000B9F1110F009001DB112301E009F101037B
:100C30000AAA01A90CA8FFF7E4FEDDE90C70002662
:100C400009F10105834647E001204B4600904FF033
:100C500000470AAA01A90CA8FFF7D3FEDDE90DB0F1
:100C60000C995D46002610B909F101000D18B9EB89
:100C7000050003D4C0F1FF3609F10105A5EB090019
:100C80002BE0B9F1010F01DA4FF001090020B9F1B1
:100C9000110F0090484601DD112300E003460AAA27
:100CA00001A90CA8FFF7ADFEDDE90C704D4600264A
:100CB0008346207800070AD4AB4500DA5D4601A8D8
:100CC000012D04DD411911F8011C302907D04F45D1
:100CD00002DA17F1040F04DA012082460FE06D1EDC
:100CE000EEE7002F02DCED1B3E4403E0781CA84237
:100CF00000DD7D1CB81B00F1010A4FF00047207891
:100D0000000703D4AA4501DB4FF0FF3A0021B7F1F9
:100D1000004F0DF143088DF8431024D002202B23FF
:100D2000002F01DA7F422D230A21021EA0F10100CB
:100D300000DC5FB197FBF1FC97FBF1F201FB1C7C3F
:100D400017460CF1300C08F801CDEEE7A8F10100D0
:100D500003702188090501D5452100E06521A0F136
:100D6000010800F8011C09980FA9A1EB0807FF1D55
:100D700000B10120411901EBEA70A1693844081A59
:100D8000401EA0612078C00602D42046FFF7DCFA9E
:100D9000099828B1D4E901219047206A401C2062BB
:100DA0002078C00622D52046FFF7CEFA1EE0002E9E
:100DB00004DBB34502DD01A8805D00E03020D4E90A
:100DC00001219047206A401C2062761CAAF1010094
:100DD0005FEA000A0AD100F09FF8C0680168405C31
:100DE000D4E901219047206A401C2062281EA5F109
:100DF0000105DCDC07E0D4E9012118F8010B90477C
:100E0000206A401C2062381EA7F10107F3DC20464F
:100E1000FFF7B0FA032011B043E610B5436913B1F0
:100E2000AFF3008001E0FFF7C8FA012010BD12788F
:100E300000F124010A7000224A700122EDE71168D6
:100E40004FF0FF32E9E710B5436913B1AFF300800B
:100E500001E0FFF751FB012010BD128800F12401D1
:100E600082840022C2840122EDE711684FF0FF3234
:100E7000E9E770B516460C46054600F045F80368EC
:100E800093F80101012806D0FF2C0FD8185D68B136
:100E900001202C7070BDD3F807013246214603F2C1
:100EA000071303442846BDE8704018474FF0FF3051
:100EB00070BD000000487047140200207546FFF71F
:100EC000F9FFAE4605006946534620F00700854607
:100ED00018B020B5FFF7FEF9BDE820404FF000063E
:100EE0004FF000074FF000084FF0000B21F0070112
:100EF000AC46ACE8C009ACE8C009ACE8C009ACE855
:100F0000C0098D467047000010B500F005F8001DBF
:100F100010BD00BF49400000004870473402002067
:100F20002DE9F0411F46044603260168072A01F413
:100F3000006004DB08B116A505E016A503E008B1C2
:100F400015A500E015A521F010002060A069C01EC5
:100F5000A0610FB1401EA0612046FFF7F5F94FB127
:100F6000D4E9012138469047206A401C2062C01C09
:100F7000206206E0206AFAE7D4E9012115F8010BA6
:100F80009047761EF8D22046FFF7F4F9BDE8F081CD
:100F90004E414E006E616E00494E4600696E66001D
:100FA0002DE9F047814616468AB0334878440DC88B
:100FB0008DE80D0030487844801C03AC0DC884E8EF
:100FC0000D0041F69B300844372190FBF1F290FB75
:100FD000F1F5A5F1800501FB12041B3C02D564422A
:100FE000012000E00020DFF890A080460027FA44AE
:100FF000AAF1BE0A0DE0E00709D03246684607EBC9
:1010000047010AEB810100F00FFB8DE80700641037
:101010007F1C002CEFD1184F7F44AC3F18E0E8074D
:1010200014D007EB04100DF1180A90E80E008AE8BE
:101030000E00C068F04201D198190890324606A906
:1010400003A800F0F1FA03AB83E807006D10641CFD
:10105000002DE4D132466946B8F1000F03A802D052
:1010600000F0CEFA01E000F0DFFAC9E90001C9F8AA
:1010700008200AB0BDE8F0878454000010B504468B
:10108000AFF300802046BDE81040FFF70EB9000026
:101090004FF0013C50F8042B51F8043B9A4221D107
:1010A000A2EB0C03934313EACC1317D150F8042B93
:1010B00051F8043B9A4215D1A2EB0C03934313EA77
:1010C000CC130BD150F8042B51F8043B9A4209D1B0
:1010D000A2EB0C03934313EACC13DBD04FF00000D8
:1010E000704700BFD01A01BAB1FA81F101F01801BE
:1010F00022FA01F0CB40C1F12001DBB2C0B2C01A2C
:101100002CFA01F3D11A914311EAC311E6D17047C9
:1011100001491820ABBEFEE72600020070475FEAD7
:10112000400C08BF91F0000F4FEA8C234FEAC12218
:1011300043EA51514FEA1C5018BF00F5F0404FEA06
:10114000300018BF41F000415FEA6C5C00F029807C
:10115000BCF1FF3F08BF40F080407047130C06BF52
:1011600012044FF0100C4FF0000C130E04BF1202CB
:101170000CF1080C130F04BF12010CF1040C930FB7
:1011800004BF92000CF1020CD30F04BF52000CF10B
:10119000010C11464FF00002A0F11F00A0EB0C0063
:1011A000704711F0004F08BF704731F000413FF425
:1011B000D5AF0B0C06BF09044FF0100C4FF0000C1C
:1011C0000B0E04BF09020CF1080C0B0F04BF090140
:1011D0000CF1040C8B0F04BF89000CF1020CCB0F37
:1011E00004BF49000CF1010CCCF12003A0EB0C0072
:1011F00022FA03F302FA0CF241EA030100F10100C2
:10120000704720F07F4C80EA030023F07F47ACEB6F
:10121000070303F57C5300F0004003F1FF032DE9C1
:1012200080494FEA154B09B44FEA144325EA0B4EA7
:1012300024EA03480FF2042606EB132749083E78F8
:101240005FEA320203FB0667C7F5000707FB06F6F5
:101250004FEA54374FEAD64606F1020607FB066C02
:10126000CCF1005C4FEA1C472CEA074C07FB06F464
:101270000CFB06F504EB15464FEA961634BF00202A
:101280004FF000404FEAD13706FB07FC4FEA1C4CF9
:101290000CFB0BF7D21B03FB0CF761EB07010CFBFC
:1012A0000EF7B0EB074072EB17420CFB08F734BFA8
:1012B000A2EB0742B2EB074261EB17414FEA0C4445
:1012C0004FEA910706FB07FC4FEA1C4C0CFB0BF79F
:1012D000B0EBC74072EB573203FB0CF734BFA2EB05
:1012E000C742B2EBC74261EB57310CFB0EF7B0EBD4
:1012F000C70072EB57720CFB08F734BFA2EBC702B2
:10130000B2EBC70261EB5771039F4FEA816141EA7B
:10131000921104EBCC044FEAD1374FEA826206FB0C
:1013200007FC42EA90124FEA80604FEA1C4C0CFB2B
:101330000BF7D21B03FB0CF761EB07010CFB0EF75D
:10134000B0EB074072EB17420CFB08F734BFA2EB7F
:101350000742B2EB074261EB17414FEA8C554FEA67
:10136000910704EB9C2406FB07FC4FEA1C4C0CFB8A
:101370000BF7B0EBC74072EB573203FB0CF734BFEF
:10138000A2EBC742B2EBC74261EB57310CFB0EF741
:10139000B0EBC70072EB57720CFB08F734BFA2EB3F
:1013A000C702B2EBC70261EB577115EB4C254FEA50
:1013B000816141EA92114FEA82624FEAD13742EAF3
:1013C000901206FB07FC44F100044FEA80604FEAEC
:1013D0001C4C0CFB0BF7D21B03FB0CF761EB07015A
:1013E0000CFB0EF7B0EB074072EB17420CFB08F753
:1013F00034BFA2EB0742B2EB074261EB174115EB9A
:101400001C154FEA813141EA92414FEA823242EAA9
:1014100090424FEA80304FEA0C7644F1000448EAEB
:1014200003434EEA0B484FF0000EB2EB080C71EB91
:10143000030724BF624639464EEB0E0E4FF0000BF9
:101440000018524149414BEB0B0BB2EB080C71EB0E
:1014500003077BF1000B24BF624639464EEB0E0EAC
:101460004FF0000B0018524149414BEB0B0BB2EB14
:10147000080C71EB03077BF1000B24BF6246394671
:101480004EEB0E0E51EA020718BF46F0010616EBAE
:101490000E7655F1000254F1000103D5BDE8890133
:1014A000BDE80088BDE88901BDE80048B619524191
:1014B00041EB0101A3F10103704780807F7E7D7CB9
:1014C0007B7A7978777676757473727171706F6ED6
:1014D0006E6D6C6C6B6A6A69686867666665646481
:1014E000636362616160605F5F5E5E5D5D5C5C5B0B
:1014F0005B5A5A595958585757565655555554547A
:10150000535352525251515050504F4F4F4E4E4DD7
:101510004D4D4C4C4C4B4B4B4A4A4A494949484823
:101520004847474747464646454545444444444363
:1015300043434342424242414141002B26D477007B
:1015400021D01CB54FEA370703B44FF010004FF01D
:1015500010014FF000000FBCBDE810400BF1010B73
:10156000BBF1010F08BF5FEA170722BF12F10102AA
:1015700011F101014FF0004143F1000300F0004080
:1015800043EA00007047F9D35708DAE746EA06460F
:1015900013F1400F4FEA16461FDD13F1200FDFBF96
:1015A00016430A46002120335B42C8D0C3F120070E
:1015B00046EA064602FA07F74FEA164646EA0706E3
:1015C000C3F1200722FA03F201FA07F721FA03F127
:1015D0004FF0000342EA0702B1E746EA020646EA94
:1015E00006464FEA164646EA0106BCBF46EA0646EC
:1015F000360C4FF000034FF000024FF000019EE761
:101600002DE9C048934630B491E8380007C831EA64
:10161000400C48BF34EA430C03D5FFF7F2FDFFF757
:101620008CFFF0BCBDE800882DE9C048934630B47B
:1016300091E8380007C810F0804F08BF13F0804FC2
:1016400003D100F005F8FFF778FFF0BCBDE8008893
:1016500020F07F4780EA030023F07F4C07EB0C0368
:10166000A3F57C5300F00040A3F1FE0392F0000FBD
:1016700000F0B38095F0000F00F077802DE901496C
:101680004FEA11404FEA144621EA004800FB06FCED
:1016900024EA064708FB06F607FB08F800FB07F7F5
:1016A00018EB06484CEB164C4FEA124B18EB074868
:1016B0004FEA15464CEB174022EA0B4E0BFB06FC9B
:1016C00025EA06470EFB06F607FB0EFE0BFB07F7A7
:1016D0001EEB064E4CEB164C4FF000061EEB074E71
:1016E0004CEB174B18EB0B0840F1000018EB0E0BFE
:1016F00058EB000840F100008F1A4FF000013CBF8A
:10170000C943661B14BFB5EB040C00213CBFC943A1
:10171000F61B4FEA17444EEA8E0E27EA04454FEABD
:101720001C4704FB07622CEA074C05FB07F70CFB80
:1017300005F604FB0CFC16EB074642EB174216EBD2
:101740000C4642EB1C421BEB060658EB02024141E1
:1017500046EA9E0601D5BDE80189B619524141EB22
:101760000101A3F10103BDE801894FEA14454FEAE5
:10177000114724EA054621EA074C05FB07F406FB5E
:1017800007F70CFB06F105FB0CFC11EB074144EBE2
:1017900017444FEA124711EB0C4144EB1C4422EA78
:1017A000074C05FB07F206FB07F70CFB06F605FBEB
:1017B0000CFC16EB074642EB174216EB0C4642EBCD
:1017C0001C456A1854F1000148BF7047B6195241D0
:1017D00041EB0101A3F10103704795F0000F37D0F1
:1017E0004FEA11424FEA144721EA024624EA074C25
:1017F00002FB07F106FB07F70CFB06F402FB0CFCEF
:1018000014EB074441EB17414FEA154714EB0C4426
:1018100041EB1C4125EA074C02FB07F506FB07F7E5
:101820000CFB06F602FB0CFC16EB074645EB1745D6
:1018300016EB0C4645EB1C42121951F1000148BF52
:101840007047B619524141EB0101A3F10103704702
:101850004FEA14454FEA114724EA054621EA074CAE
:1018600005FB07F106FB07F70CFB06F24FF000063D
:1018700005FB0CFC12EB074241EB174112EB0C424B
:1018800051EB1C4148BF7047921841EB0101A3F195
:101890000103704700B589B0012140F6040001F052
:1018A0000DFB4FF47060ADF8040018208DF80700B0
:1018B00003208DF8060001A92A4800F04FF92320E3
:1018C000ADF818000020ADF81A0041F28730ADF8ED
:1018D0001C000020ADF81E008DF8200006A922484B
:1018E00002F012F96020ADF808000120ADF80A00FE
:1018F0000420ADF80C000020ADF80E00ADF810008B
:101900000820ADF812004001ADF814000020ADF839
:10191000160002A9144801F093FF02A9124801F031
:10192000E5FF02A9104802F033F802A90E4802F0C0
:101930007FF801210C4801F0F4FE01210A4801F072
:10194000FCFE41F2883003F01DFA142006493431C0
:101950000880091D0880091D0880091D088009B03C
:1019600000BD000000080140002C014000BFFEE760
:1019700030B502460B464FF6FF70002112E0555C71
:10198000684000240AE000F0010525B14AF2010593
:1019900085EA600000E04010651CECB2082CF2DB28
:1019A0004D1CE9B29942EADB30BD70472DE9F041A8
:1019B0005948007850B9E62058490880091D088028
:1019C000091D0880091D0880BDE8F081544802689F
:1019D00054480168544801F009FA544908605448D1
:1019E000026854480168544801F000FA53490860FD
:1019F0004E48006880F0004708460168384604F009
:101A000099F806464E480168304604F093F80546BA
:101A10004C480168284604F08DF804464A4801689D
:101A2000204604F087F8494908604048006880F083
:101A3000004742480168384604F032FB06464048F9
:101A40000168304604F02CFB05463E4801682846F4
:101A500004F070F804463C480168204604F06AF837
:101A60003B490860354801683048006804F018FBBD
:101A7000064633480168304604F05CF805463148B4
:101A80000168284604F056F804462F4801682046AD
:101A900004F050F82F49086028480168234800687E
:101AA00004F048F8064626480168304604F0F8FA83
:101AB000054624480168284604F03CF804462248BC
:101AC0000168204604F036F8234908601F48006882
:101AD00004F060F904462146012001F00DFB1C488A
:101AE000006804F057F904462146022001F004FB87
:101AF0001848006804F04EF904462146032001F01E
:101B0000FBFA1548006804F045F904462146042014
:101B100001F0F2FA00BF57E7DC000020342C01404E
:101B200034000020D800002080010020C4000020E4
:101B300038000020D400002064010020C8000020EC
:101B4000CC000020E0000020D0000020E4000020B5
:101B5000E8000020EC000020F00000202DE9F0411A
:101B6000024600250026002000230024002791F8CB
:101B700003C00CF00F0591F803C00CF0100CBCF181
:101B8000000F03D091F802C04CEA050591F800C09F
:101B9000BCF1000F31D0146800202BE04FF0010C95
:101BA0000CFA00F3B1F800C00CEA03069E4220D103
:101BB00083004FF00F0C0CFA03F7BC4305FA03FC4B
:101BC0004CEA040491F803C0BCF1280F06D14FF091
:101BD000010C0CFA00FCC2F814C00AE091F803C032
:101BE000BCF1480F05D14FF0010C0CFA00FCC2F813
:101BF00010C0401C0828D1D31460B1F800C0BCF15B
:101C0000FF0F34DD546800202EE000F1080C4FF087
:101C1000010808FA0CF3B1F800C00CEA03069E4272
:101C200021D183004FF00F0C0CFA03F7BC4305FAE7
:101C300003FC4CEA040491F803C0BCF1280F05D161
:101C400000F1080C08FA0CF8C2F8148091F803C0EF
:101C5000BCF1480F07D100F1080C4FF0010808FA59
:101C60000CF8C2F81080401C0828CED35460BDE8A0
:101C7000F081416170470161704700002DE9F05F1C
:101C800001233B22D021354800F03EFA3449088038
:101C900001233D22D021314800F036FA3149088035
:101CA00001233F22D0212D4800F02EFA2E49088032
:101CB0002B48B0F9000004F0A9F883464FF08041AA
:101CC00004F0F0F8824603F009FF8046274A284BCB
:101CD00003F0F4FB06460022264B03F043FA0446C9
:101CE00003F052F9244908601E48B0F9000004F0DE
:101CF0008DF883464FF0804104F0D4F8824603F01B
:101D0000EDFE8046194A1A4B03F0D8FB0646002226
:101D1000184B03F027FA044603F036F91749086018
:101D20001148B0F9000004F071F883464FF080418B
:101D300004F0B8F8824603F0D1FE06460B4A0C4B7D
:101D400003F0BCFB044600220A4B03F00BFA80466A
:101D500003F01AF90A490860BDE8F09F00540040FA
:101D600026000020280000202A0000209A99999936
:101D7000999923400000E0404000002044000020EA
:101D8000480000202DE9F05F01234322D021344890
:101D900000F0BAF93349088001234522D0213048A8
:101DA00000F0B2F93049088001234722D0212C48A5
:101DB00000F0AAF92D4908802A48B0F9000004F083
:101DC00025F883462A4904F06DF8824603F086FE22
:101DD00080460022274B03F0C5F90646264A274BCA
:101DE00003F0C0F9044603F0CFF8254908601E4807
:101DF000B0F9000004F00AF883461D4904F052F8D7
:101E0000824603F06BFE804600221A4B03F0AAF9CB
:101E10000646194A194B03F0A5F9044603F0B4F835
:101E2000184908601148B0F9000003F0EFFF83463D
:101E30000F4904F037F8824603F050FE06460022B0
:101E40000C4B03F08FF904460B4A0C4B03F08AF954
:101E5000804603F099F80C490860BDE8F09F000047
:101E60000054004020000020220000202400002018
:101E70000000FA430000E040295C8FC2F5A84C4006
:101E800034000020380000203C0000202DE9FF47EE
:101E90001748006803F0BEFA0022164BCDE9000196
:101EA00003F00CFB06460022134B03F007FB04462D
:101EB0000022124B03F056F9804600224FF0804377
:101EC00003F050F9CDE9020103F05EF882460C49B7
:101ED000504603F0B3FF02D20A48C0F800A00948F8
:101EE0000168094800F058FE06490860BDE8FF8710
:101EF000FC0100200000E03F009AE04080842E4179
:101F000000009643E0010020E401002000BFFEE74E
:101F100021B1028842F48062028004E002884FF618
:101F2000FF331A40028070472DE9F041074688468A
:101F300014461E46069D00BF4FF40031384600F09F
:101F400057F90028F8D10121384600F039F900BFCF
:101F50002C49384600F09AF80028F9D00022414672
:101F6000384600F01DFA00BF2749384600F08EF8C9
:101F70000028F9D00121384600F09DF83146384656
:101F800000F017FA00BF2049891C384600F07EF89F
:101F90000028F8D00121384600F012F900BF194995
:101FA000384600F073F80028F9D00122414638463F
:101FB00000F0F6F900BF1349491C384600F066F8F6
:101FC0000028F8D016E0012D07D100213846FFF790
:101FD0009FFF0121384600F0FFF80A493F3138469B
:101FE00000F054F830B1384600F0D6F92070641C87
:101FF000681E85B2002DE6D101213846FFF788FF23
:10200000BDE8F08101000300820007002DE9F041E6
:1020100006460F4614461D460121304600F0D0F812
:1020200000BF1849304600F031F80028F9D00022EE
:102030003946304600F0B4F900BF1349304600F08D
:1020400025F80028F9D02946304600F0B2F900BF43
:102050000D49891C304600F019F80028F8D02146B7
:10206000304600F0A6F900BF0749891C304600F051
:102070000DF80028F8D00121304600F0ADF8BDE899
:10208000F0810000010003008200070070B50246E5
:102090000024002500230020958A138B1B0445EAA9
:1020A000030626F07F4404EA01068E4201D1012096
:1020B00000E0002070BD21B1028842F001020280E0
:1020C00004E002884FF6FE731A4002807047000059
:1020D00010B504460B48844209D10121480500F09F
:1020E000DDFE00214FF4001000F0D8FE08E00121D1
:1020F000880500F0D3FE00214FF4800000F0CEFEF2
:1021000010BD0000005400402DE9FC4106460F467A
:1021100014461D460220234601AA39460090304647
:10212000FFF702FF012D08D19DF805009DF804106E
:1021300000EB012000B2BDE8FC819DF804009DF891
:10214000051040EA012000B2F5E7000070B5064630
:102150001948864202D1C414051501E080244025A7
:102160000DE029461548FFF786FD0A2002F00AFE19
:1021700029461248FFF77DFD0A2002F003FE0F48B2
:102180000C30006820400028EBD029460B48FFF7B0
:1021900072FD21460948FFF76CFD0A2002F0F2FDAE
:1021A00021460648FFF767FD0A2002F0EBFD0121FA
:1021B000304600F000F970BD00580040000C0140AE
:1021C00021B1028842F48072028004E002884FF656
:1021D000FF631A400280704721B1028842F4007206
:1021E000028004E002884FF6FF531A4002807047D5
:1021F0000CB50246002000230193009300920B0FC0
:10220000019321F07F41019B1BB1009B143300938C
:1022100003E0090C009B18330093009B1B680B40E4
:102220000BB1012000E000200CBD1AB183880B43E4
:10223000838002E083888B43838070472DE9F043DD
:1022400085B004460D460026B1460427DFF8CC8051
:10225000A6884FF6C0700640684600F03FFEDDF8E5
:1022600008802F48B8FBF0F01FFA80F946EA09060B
:10227000A68020884FF6FE7108402080002629495C
:10228000286888420CD828684000B8FBF0F087B274
:10229000042F00DA04273E4309F10100208427E0DF
:1022A000E8884BF6FF71884206D1286800EB4000B1
:1022B000B8FBF0F087B209E0286800EBC00101EB41
:1022C0000010B8FBF0F087B247F48047C7F30B006B
:1022D00008B947F0010747F4004006434FF49670F1
:1022E00009FB00F04FF47A7190FBF1F0401C208460
:1022F000A683208840F00100208026884FF6F53024
:102300000640A8886989084306432680A889298948
:102310000843208105B0BDE8F083000000127A0078
:1023200040420F00A086010038B504460A488442A6
:1023300004D14FF44060ADF8000002E0C020ADF8D9
:10234000000003208DF802001C208DF80300694670
:102350000248FFF703FC38BD00580040000C014064
:1023600038B504460A48844204D14FF44060ADF8C1
:10237000000002E0C020ADF8000003208DF802004C
:1023800014208DF8030069460248FFF7E7FB38BDCB
:1023900000580040000C01400146088AC0B2704756
:1023A00012B141F0010102E04FF6FE7319400182C3
:1023B00070470182704721B1028842F400420280D6
:1023C00003E00288C2F30E020280704710B586B0A7
:1023D00004462D48844204D10121880500F04EFDB9
:1023E00003E00121480500F049FD0121082000F02B
:1023F00065FD2548844204D14FF44060ADF81400D7
:1024000002E0C020ADF8140003208DF816001C2057
:102410008DF8170005A91D48FFF7A0FB0020ADF8B7
:1024200008004BF6FF70ADF80A000020ADF80C0074
:102430004FF48060ADF80E000001ADF810001448B4
:1024400001902046FFF744FE01A92046FFF7F6FE63
:1024500001212046FFF72FFE01224FF4C0612046E4
:10246000FFF7E3FE4FF400312046FFF7C1FE28B12D
:102470002046FFF775FF2046FFF768FE2046FFF76E
:1024800053FF06B010BD000000580040000C014092
:10249000A08601000FB5A3B0FE480168006803F0F4
:1024A00001FD1D90FC480168FA48006803F0FAFC41
:1024B0001C90FA480168F748006803F0F3FC1B9091
:1024C000F5480168006803F0EDFC1A90F4480168D3
:1024D000F148006803F0E6FC1990F04801680068D4
:1024E00003F0E0FC1890EE480168EC48006803F047
:1024F000D9FC1790EA480168006803F0D3FC1690F5
:10250000E6480168E448006803F0CCFC1590E44814
:102510000168E048006803F0C5FC1490259908465E
:1025200003F0C0FC08902499084603F0BBFC069019
:102530002399084603F0B6FC0590069903F0FAFAD1
:102540000790089903F0F6FA099003F0C7FACDE96D
:102550000A0102F099FCCDE90C0102F015FD219071
:10256000219803F0BBFACF4ACF4BCDE90C0102F022
:1025700069FF01D227B000BD2199239803F048FBE1
:1025800023902199249803F043FB249021992598C6
:1025900003F03EFB25901B99199803F081FD4FF045
:1025A00080410D9003F07EFC209017991C9803F059
:1025B000C1FA4FF080410D9003F074FC1F901A99FE
:1025C0001D9803F06DFD0C90189903F069FD0D90B6
:1025D000169903F0AFFA1E901F99259803F062FC3C
:1025E0000D901E99249803F05DFC0C900D9903F05A
:1025F00057FD13901E99239803F054FC0D902099D9
:10260000259803F04FFC0C900D9903F049FD1290B2
:102610002099249803F046FC0D901F99239803F00D
:1026200041FC0C900D9903F03BFD11909F4801680F
:10263000139803F037FC059003F050FA9C4A9D4B29
:10264000CDE9060102F03AFFCDE90A01109803F046
:1026500045FACDE90801DDE90A2302F0C7FCCDE91E
:102660000C0102F091FC109090480168129803F060
:1026700019FC059003F032FA8D4A8E4BCDE9060124
:1026800002F01CFFCDE90A010F9803F027FACDE90B
:102690000801DDE90A2302F0A9FCCDE90C0102F0F2
:1026A00073FC0F9081480168119803F0FBFB0590C3
:1026B00003F014FA7E4A7F4BCDE9060102F0FEFEDC
:1026C000CDE90A010E9803F009FACDE90801DDE928
:1026D0000A2302F08BFCCDE90C0102F055FC0E90B0
:1026E00075480168139803F0DDFB0C90109903F016
:1026F00021FA0D90269903F01DFA26906E48016884
:10270000129803F0CFFB0C900F9903F013FA0D9081
:10271000289903F00FFA289067480168119803F090
:10272000C1FB0C900E9903F005FA0D90299903F066
:1027300001FA29905A482999006803F0B3FB0490E4
:1027400056482899006803F0ADFB02905248006893
:1027500080F000400090269903F0A4FB01900299BC
:1027600003F09EFC0390049903F09AFC059003F09B
:10277000B5F94F4A514BCDE9060102F09FFECDE974
:102780000A014448006803F0A9F9CDE90801DDE930
:102790000A2302F02BFCCDE90C0102F0F5FB3D49C8
:1027A00008603F482899006803F07CFB04903B4890
:1027B0002999006803F076FB029036482699006854
:1027C00003F070FB0190029903F0B4F903900499AF
:1027D00003F066FC059003F081F9354A374BCDE9EB
:1027E000060102F06BFECDE90A012B48006803F0F8
:1027F00075F9CDE90801DDE90A2302F0F7FBCDE91F
:102800000C0102F0C1FB24490860254826990068A4
:1028100003F048FB049020482999006803F042FB2C
:1028200002901C482899006803F03CFB0190029933
:1028300003F036FC0390049903F07CF9059003F053
:102840004DF91B4A1D4BCDE9060102F037FECDE9DB
:102850000A011248006803F041F9CDE90801DDE9F9
:102860000A2302F0C3FBCDE90C0102F08DFB0B49FA
:1028700008600A482699006803F014FB0490064893
:102880002899006803F00EFB02900248299900681D
:1028900016E000007C000020800000208400002062
:1028A000880000208DEDB5A0F7C6B03E9000002056
:1028B0007B14AE47E17A743F8C000020E17A643FDC
:1028C00003F0F0FA0190029903F034F903900499AF
:1028D00003F0E6FB059003F001F9A24AA24BCDE913
:1028E000060102F0EBFDCDE90A01A048006803F003
:1028F000F5F8CDE90801DDE90A2302F077FBCDE91F
:102900000C0102F041FB9949086008460168006823
:1029100003F0C8FA089096480168006803F0C2FA0C
:10292000069094480168006803F0BCFA049092484D
:102930000168006803F0B6FA0390049903F0FAF80E
:102940000590069903F0F6F80790089903F0F2F85D
:10295000099003F0C3F8CDE90A0102F095FACDE938
:102960000C0102F011FB2190219803F0B7F8834A83
:10297000834BCDE90C0102F065FD00D2FAE57E48FB
:102980002199006803F044F97B490860794821994E
:10299000006803F03DF9774908607548219900689F
:1029A00003F036F97249086070482199006803F015
:1029B0002FF96E490860704801684FF0804003F0BD
:1029C00071FA06906A480168069803F06BFA08905D
:1029D000684801684FF0404003F064FA069063488D
:1029E0000168069803F05EFA0790089903F0A2F8D0
:1029F000099003F073F8CDE90A0101F0A9FE4FF048
:102A00006632604BCDE90C0102F058FD5E4A03C20C
:102A1000574801684FF0804003F044FA039054484F
:102A20000168039803F03EFA0590524801684FF0A0
:102A3000404003F037FA03904E480168039803F0D2
:102A400031FA0490059903F02BFB4FF07E5106906C
:102A500003F070F8079003F041F8CDE90A01464809
:102A600001684FF0804003F01DFA0490414801686E
:102A7000049803F017FA06903D4801684FF0804033
:102A800003F010FA049039480168049803F00AFA38
:102A90000590069903F04EF8079003F01FF8CDE972
:102AA0000801DDE90A2302F09BF84FF06632354B4E
:102AB000CDE90C0102F002FD344A03C24FF0804020
:102AC000169903F0EFF905904FF04040189903F084
:102AD000E9F90490059903F0E3FA4FF07E5106906E
:102AE00003F028F8079002F0F9FFCDE90A014FF052
:102AF0008040149903F0D6F906904FF08040159964
:102B000003F0D0F90590069903F014F8079002F04D
:102B1000E5FFCDE90801DDE90A2302F061F84FF095
:102B20006632184BCDE90C0102F0C8FC184A03C20A
:102B300000221346154903C902F0BEFD08D2002247
:102B4000144B124903C902F0DFFE104A03C207E02A
:102B50000022104B0D4903C902F048FA0B4A03C288
:102B600000BF07E57B14AE47E17A643F8800002090
:102B700084000020800000207C0000208DEDB5A0A6
:102B8000F7C6B03E66A64C4098000020A00000208A
:102B9000A8000020008066402DE9F04704460D465D
:102BA0002168206903F07EF981462168606903F09D
:102BB00079F98246216803F075F98046A16802F030
:102BC000B9FF06463046E16802F0B4FF8046414650
:102BD000304603F01DF807464946284603F060FAE0
:102BE0008246394603F05EF98046494602F0A2FF6C
:102BF000206139464FF07E5003F052FA804631464C
:102C000003F050F960612069BDE8F08770B50546B2
:102C1000094C0A48007800B1094C2146284603F0C7
:102C20000DFA01D2254605E00021284603F006F9F9
:102C300000D20025284670BD0000C842DC010020FB
:102C40000000484210B51248FFF7C0FB114802F0DF
:102C500099F86B230022D0210D48FFF7D7F91923EB
:102C60000722D0210A48FFF7D1F91A230622D021E2
:102C70000748FFF7CBF91B230822D0210448FFF7B0
:102C8000C5F91C230122D0210148FFF7BFF910BD6F
:102C90000054004020A1070000BFFEE7704700007D
:102CA00070B5002100230F22C47804B3154C2468AA
:102CB00004F4E064C4F5E064210AC1F10403CA40ED
:102CC000447804FA03F184781440214309010E4C3E
:102CD0000678A155047804F01F050124AC4005785E
:102CE0006D11AD0005F1E025C5F8004109E004785B
:102CF00004F01F050124AC40044D0678761145F818
:102D0000264070BD0CED00E000E400E080E100E052
:102D100002490143024A1160704700000000FA05B1
:102D20000CED00E030B58BB00020079008900990C2
:102D30000A900390049005900690009001900290F4
:102D4000002500240DE0274850F8240007A941F889
:102D5000240007A850F8240003A941F82400601CAF
:102D6000C4B2042CEFDB002410E003A810F8240008
:102D70000DF8140003A830F82400C0F30720012147
:102D800001EB44010DF80100601CC4B2042CECDB23
:102D900008216846FEF7ECFD05462846E91705EBD5
:102DA00011610912A5EB0121C9B28DF80810E917CC
:102DB00005EB1161090A8DF8091000240DE000BF30
:102DC0008021094801F0E8FA0028F9D01DF8041024
:102DD000054801F0AEFB601CC4B20A2CEFDB0BB05F
:102DE00030BD000004020020004C00402DE9FC5FD3
:102DF00004460D4616463146284603F051F907466B
:102E00003846216903F04CF9019027613846A169E1
:102E100003F048F88146E16802F08CFEE0606169E9
:102E2000E06803F00BF902D26069E0600BE06069D2
:102E300080F000494846E16803F000F903D2606978
:102E400080F00040E060D4E9021003F02BF88246E5
:102E50006168019803F026F883463846216803F03C
:102E600021F85946009002F065FE8146514602F075
:102E700061FE80464046BDE8FC9F704729B1064A86
:102E8000D2690243044BDA6104E0034AD269824307
:102E9000014BDA61704700000010024029B1064A78
:102EA00012690243044B1A6104E0034A1269824327
:102EB000014B1A61704700000010024029B1064A18
:102EC00092690243044B9A6104E0034A9269824387
:102ED000014B9A61704700000010024030B500219C
:102EE0000022002400232D4D6D6805F00C0121B156
:102EF000042905D0082923D105E0294D056022E0E9
:102F0000274D05601FE0254D6D6805F47012234DB7
:102F10006D6805F48034022505EB92421CB9214D01
:102F2000554305600BE01D4D6D6805F400351DB17E
:102F30001C4D5543056002E0194D5543056002E004
:102F4000174D056000BF00BF144D6D6805F0F0011E
:102F50000909154D6B5C0568DD4045600F4D6D68D6
:102F600005F4E061090A104D6B5C4568DD40856041
:102F70000A4D6D6805F46051C90A0B4D6B5C4568DC
:102F8000DD40C560054D6D6805F44041890B074D76
:102F90006B5CC568B5FBF3F5056130BD0010024000
:102FA00000127A0000093D000000002010000020FF
:102FB00008B501210420FFF781FF1020ADF80000C3
:102FC0008DF8030003208DF8020069460648FEF7DD
:102FD000C5FD4020ADF8000004208DF803006946CF
:102FE0000148FEF7BBFD08BD0008014010B51021E7
:102FF0000548FEF740FE0F2001F0C4FE10210248F4
:10300000FEF737FE10BD000000080140704710B504
:1030100000F002F810BD00000CB5002001900090F7
:103020003348006840F480303149086000BF3048C0
:10303000006800F4003000900198401C0190009856
:1030400018B90198B0F5A06FF1D12948006800F4D3
:10305000003010B10120009001E0002000900098A5
:10306000012843D12348006840F01000214908603E
:103070000846006820F0030008600846006840F039
:10308000020008601A4840681949486008464068CC
:1030900048600846406840F48060486008464068E0
:1030A00020F47C1048600846406840F4E81048600E
:1030B0000846006840F08070086000BF0C48006857
:1030C00000F000700028F9D00948406820F00300A3
:1030D000074948600846406840F00200486000BF69
:1030E0000348406800F00C000828F9D10CBD00002E
:1030F00000100240002002402DE9F04704460D4632
:10310000042C01DC012C01DABDE8F087012C06D08B
:10311000022C1CD0032C33D0042C63D149E0284668
:1031200002F074FE8246FFF771FD81462F4902F0DE
:10313000B9FE80462E4902F06BFD07462D4902F08C
:10314000F9FC064602F042FE2B4908804AE0284678
:1031500002F05CFE8246FFF759FD8146274902F0E6
:10316000A1FE8046224902F053FD0746244902F0A1
:10317000E1FC064602F02AFE1F49091D088031E0E5
:10318000284602F043FE8246FFF740FD81461B4978
:1031900002F088FE8046164902F03AFD07461849BB
:1031A00002F0C8FC064602F011FE134908310880FF
:1031B00018E0284602F02AFE8246FFF727FD8146E6
:1031C0000A4902F06FFE8046094902F021FD0746D8
:1031D000084902F0AFFC064602F0F8FD06490C3142
:1031E000088000BF00BF00BF8EE70000000048431A
:1031F0000000C84200009643342C01400000704398
:10320000000082437047000010B51348006840F08A
:1032100001001149086008464068104908400E49FD
:103220004860084600680E4908400B490860084697
:10323000006820F4802008600846406820F4FE0002
:1032400048604FF41F008860FFF7E1FE4FF0006018
:103250000449086010BD0000001002400000FFF8A3
:10326000FFFFF6FE08ED00E0F0B50C461546002223
:103270000021068C4FF6FE773E400684028B018CBF
:103280004FF60C7632407E1C06EA03162E4332437C
:10329000104EB0420ED0104EB0420BD0B0F1804F65
:1032A00008D00E4EB04205D00D4EB04202D00D4EA9
:1032B000B04206D14FF6FD76314044F0010631436D
:1032C00005E04FF6F576314044F0010631430283C4
:1032D0000184F0BD002C0140003401400004004096
:1032E00000080040000C0040F0B50C4615460022D6
:1032F00000210026078C4FF6EF7C07EA0C070784B5
:10330000028B018C4FF6FF7707EA041640F6FF4761
:103310003A404FF6FF7707EA03373A434FF6FF7715
:1033200007EA05273A43114FB8420ED0104FB84272
:103330000BD0B0F1804F08D00E4FB84205D00E4FE1
:10334000B84202D00D4FB84206D14FF6DF77394070
:1033500046F01007394305E04FF65F77394044F0F7
:103360001007394302830184F0BD0000002C0140A6
:10337000003401400004004000080040000C004000
:10338000F0B50C461546002200210026078C4FF6AA
:10339000FF6C07EA0C070784828B018C4FF6FF77DE
:1033A00007EA04264FF60C773A404FF6FF7707EA14
:1033B00003172F433A43114FB8420ED0104FB84273
:1033C0000BD0B0F1804F08D00E4FB84205D00E4F51
:1033D000B84202D00D4FB84206D14FF6FF573940E0
:1033E00046F48077394305E04FF2FF57394044F403
:1033F0008077394382830184F0BD0000002C0140B6
:10340000003401400004004000080040000C00406F
:10341000F0B50C461546002200210026078C4EF61A
:10342000FF7C07EA0C070784828B018C4FF6FF773D
:1034300007EA043640F6FF473A404FF6FF7707EABF
:1034400005273A434FF6FF7707EA03373A43114F10
:10345000B8420ED0104FB8420BD0B0F1804F08D018
:103460000E4FB84205D00E4FB84202D00D4FB842B1
:1034700006D14DF6FF77394046F48057394305E0D1
:1034800047F6FF57394044F480573943828301841B
:10349000F0BD0000002C0140003401400004004059
:1034A00000080040000C004000B587B00121022058
:1034B000FFF7E4FC4FF4FA60ADF808002320ADF804
:1034C00004000020ADF80A00ADF8060001A9174875
:1034D00000F01AFB0020ADF81000ADF8120001203A
:1034E000ADF814000020ADF81600ADF8180004A9DE
:1034F0000E4800F045F91D208DF8000003208DF8DE
:10350000010000208DF8020001208DF803006846BC
:10351000FFF7C6FB01220321044800F087F90121CF
:10352000024800F0FEF807B000BD000000040040B3
:1035300010B50121234800F012F920B1224800788B
:10354000401C2149087002211E4800F008F9A0B370
:103550001E48007870B900201B49087000211948E6
:1035600000F0A4FA0120194908700221154800F062
:10357000B3F922E01548007801281ED1114800F067
:10358000EBF8134908601048007800EB4001C1EBEC
:10359000C0100F49096801EB00100D4908600020B8
:1035A000094908700021074800F080FA0020074907
:1035B00008700021034800F08FF90321014800F052
:1035C000ADF810BD000400401800002019000020D4
:1035D000FC0100201CB50121244800F0C0F800289F
:1035E00042D00121214800F099F8002201211F4812
:1035F00000F01CF91E480068012806D0022809D0F6
:10360000032818D004281ED118E0FEF7BBFBFEF7F4
:1036100035FB19E01748006817490968CDE9001023
:10362000164803681648026816480168164800687C
:10363000FEF730FF08E0FEF7B9F905E0FFF7D6FC2A
:10364000FEF724FC00E000BF00BF09480068401CF2
:10365000052190FBF1F201FB1200054908600122EF
:103660001146024800F0E2F81CBD000000100040C6
:103670001C0000203C000020380000203400002006
:103680004800002044000020400000201FB50446F0
:103690002048844203D02048844200D01FBD1D48EA
:1036A000844207D101211020FFF7E8FB36208DF876
:1036B0000C0009E01848844206D101212020FFF7C0
:1036C000DDFB37208DF80C0000208DF80D00012067
:1036D0008DF80E008DF80F0003A8FFF7E1FA4FF404
:1036E000FA60ADF804002320ADF800000020ADF82A
:1036F0000600ADF802006946204600F005FA0122F6
:103700001146204600F092F80121204600F009F809
:1037100000BFC3E70010004000140040CA4302820B
:10372000704721B1028842F00102028004E0028861
:103730004FF6FE731A400280704731B1B0F8442052
:1037400042F40042A0F8442005E0B0F84420C2F35F
:103750000E02A0F8442070470146888E704730B5AD
:103760000246002000230024158A05EA01039589FA
:1037700005EA010413B10CB1012000E0002030BDC6
:1037800070B505460C46244885420ED02348854234
:103790000BD0B5F1804F08D02148854205D0214893
:1037A000854202D02048854200D100E000BF208839
:1037B00050B92389A28861882846FFF755FDE18822
:1037C000284600F075F925E0208804280AD12389CD
:1037D000A28861882846FFF787FDE188284600F027
:1037E00070F917E0208808280AD12389A288618807
:1037F0002846FFF7C5FDE188284600F06FF909E08B
:103800002389A28861882846FFF702FEE1882846BE
:1038100000F06DF970BD0000002C01400034014043
:103820000004004000080040000C00401AB18389E9
:103830000B43838102E083898B43838170470000BF
:1038400070B5002400220023058C4FF6FE7635402B
:103850000584028C8388048B4FF68F752C40B51E2F
:103860002C400D882C43751E2A400D892A434D8813
:103870002A43144DA8420BD0134DA84208D0134D33
:10388000A84205D0124DA84202D0124DA84213D131
:103890004FF6F7752A404D892A434FF6FB752A40AB
:1038A0008D882A434FF6FF652B404FF6FF552B407E
:1038B0008D892B43CD892B4383800483CD888586D6
:1038C000028470BD002C01400034014000400140E2
:1038D00000440140004801400A460021018C4FF697
:1038E000FD731940114301847047000070B5002436
:1038F00000220023058C4FF6EF7635400584028CBC
:103900008388048B48F6FF752C404FF6FF452C400A
:103910000D884FF6FF7606EA05252C434FF6DF7536
:103920002A400D8906EA05152A434D8806EA051541
:103930002A43154DA84202D0144DA8421DD14FF67E
:103940007F752A404D894FF6FF7606EA05152A4312
:103950004FF6BF752A408D8806EA05152A434FF6B3
:10396000FF352B404FF2FF752B408D8906EA850508
:103970002B43CD8906EA85052B4383800483CD88BC
:103980000587028470BD0000002C01400034014016
:1039900070B5002400220023058C4FF6FF663540E9
:1039A0000584028C8388848B4FF68F752C404FF6EC
:1039B000FC752C400D882C434FF6FF552A400D898D
:1039C0004FF6FF7606EA05252A434D8806EA0525C7
:1039D0002A43154DA84202D0144DA8421DD14FF2E2
:1039E000FF752A404D894FF6FF7606EA05252A43E2
:1039F0004FF6FF352A408D8806EA05252A434EF604
:103A0000FF752B404DF6FF752B408D8906EA051595
:103A10002B43CD8906EA05152B4383808483CD880B
:103A20008587028470BD0000002C014000340140F5
:103A300070B5002200230024058C4EF6FF76354039
:103A40000584038C8488828B48F6FF752A404FF6E4
:103A5000FF452A400D884FF6FF7606EA05252A43E2
:103A60004DF6FF752B400D8906EA05352B434D8831
:103A700006EA05352B430B4DA84202D00A4DA84259
:103A800008D14BF6FF752C408D894FF6FF7606EA7C
:103A900085152C4384808283CD88A0F84050038410
:103AA00070BD0000002C014000340140818470474B
:103AB000028B4FF6F3731A400283028B0A43028390
:103AC0007047028B4FF2FF331A400283028B4FF68E
:103AD000FF7303EA01231A4302837047828B4FF678
:103AE000F3731A408283828B0A4382837047828BEE
:103AF0004FF2FF331A408283828B4FF6FF7303EA43
:103B000001231A4382837047002202881D4B98428A
:103B10000ED01D4B98420BD0B0F1804F08D01B4BFC
:103B2000984205D01A4B984202D01A4B984204D1C1
:103B30004FF68F731A404B881A43174B984207D0A1
:103B4000164B984204D04FF6FF431A40CB881A43D5
:103B500002808B8883850B8803850A4B98420BD0A3
:103B6000094B984208D00E4B984205D00D4B984215
:103B700002D00D4B984201D10B7A03860123838238
:103B800070470000002C0140003401400004004058
:103B900000080040000C00400010004000140040ED
:103BA00000400140004401400048014000B587B09A
:103BB00040F22551FE4800F0FCFB00287ED040F288
:103BC0002551FB4800F0CDFBF94800F0ADFCC0B238
:103BD0000690069861381A2871D2DFE800F0B5CE59
:103BE000F01DEF2CEEEDF170EBEAE9E8E73C7AE648
:103BF000340DE5E470E3E2E1EE48007808B9012015
:103C000000E00020EB4908700020EB49C860EBA100
:103C1000E74801F05FF957E3EC48007808B9012064
:103C200000E00020E949087008460278E8A1E04871
:103C300001F050F948E30120E9490870E9A1DC48A6
:103C400001F048F940E30020E5490870E9A1D848AF
:103C500001F040F938E3EA480068019001F03EFFC6
:103C6000E84AE94BCDE9020101F0C0F9CDE90401D0
:103C700001F08AF9E2490860E4480068019001F027
:103C80002DFFE04AE04BCDE9020101F03DFECDE918
:103C9000040101F079F9DD490860D9480068019014
:103CA00001F01CFFCDE90401D8480068019001F043
:103CB00015FFCDE90201DDE9040101E005E302E3BE
:103CC000CDE90001D2A1BA48DDE9022301F002F9F1
:103CD000FAE2CB480068019001F000FFC94ACA4BE4
:103CE000CDE9020101F010FECDE9040101F04CF92B
:103CF000C3490860C5480068019001F0EFFEC14A61
:103D0000C14BCDE9020101F071F9CDE9040101F0E7
:103D10003BF9BE490860BA480068019001F0DEFE38
:103D2000CDE90401B9480068019001F0D7FECDE962
:103D30000201DDE90401CDE90001B5A19C48DDE9FE
:103D4000022301F0C7F8BFE20A210120FFF7D4F9EE
:103D50000A210220FFF7D0F90A210320FFF7CCF94E
:103D60000A210420FFF7C8F9B04800880246B0A134
:103D700005908F4801F0AEF8A6E2E620AB49091F96
:103D80000880091D0880091D0880091D0880A748B2
:103D900000880246A6A10590854801F09BF893E2B1
:103DA00082E085E2B5E082E18CE260E025E09DE121
:103DB000CFE120E200E203E05BE23BE23AE0DDE05B
:103DC0009E48006801F08AFE00229D4BCDE9020169
:103DD00001F00CF9CDE9040101F0D6F8974908602B
:103DE0000846006801F07AFE02460B46CDE9040160
:103DF00094A16F4801F06EF866E29048006801F007
:103E00006DFE00228E4BCDE9020101F07DFDCDE972
:103E1000040101F0B9F8894908600846006801F01A
:103E20005DFE02460B46CDE9040186A1604801F023
:103E300051F849E28848006801F050FE0022804BAA
:103E4000CDE9020101F0D2F8CDE9040101F09CF8BE
:103E5000814908600846006801F040FE02460B46B2
:103E6000CDE904017DA1524801F034F82CE27A48F2
:103E7000006801F033FE0022714BCDE9020101F030
:103E800043FDCDE9040101F07FF87349086008465D
:103E9000006801F023FE02460B46CDE904016FA144
:103EA000434801F017F80FE271488068019001F073
:103EB00015FE704A704BCDE9020101F025FDCDE9F8
:103EC000040101F061F86A4988606C4880680190DB
:103ED00001F004FE674A684BCDE9020101F014FDD0
:103EE000CDE9040101F050F8644988600020604980
:103EF000C8606249C8605E488068039001F0EEFDCA
:103F000002460B46CDE904015DA1294800F0E2FF1D
:103F1000DAE157488068019001F0E0FD554A564BC0
:103F2000CDE9020101F062F8CDE9040101F02CF8BD
:103F30004F49886051488068019001F0CFFD4D4A9B
:103F40004D4BCDE9020101F051F8CDE9040101F03A
:103F50001BF84A49886000204549C8604749C86045
:103F600043488068039001F0B9FD02460B46CDE955
:103F7000040143A10E4800F0ADFFA5E145480068EB
:103F8000019001F0ABFD444A444BCDE9020101F040
:103F90002DF8CDE9040100F0F7FF3E49086008461E
:103FA0000068039001F09AFD02460B4678E000009D
:103FB000004C0040DD010020B801002053454E4474
:103FC000206368616E6765210D0A0000DC01002036
:103FD00044656275673D202025640D0A00000000DD
:103FE000DC000020737461727420666C79210D0A04
:103FF0000000000073746F7020666C79210D0A0058
:104000002C0100207B14AE47E17A843F4801002058
:1040100070697463685F503D256620202020726FB0
:104020006C6C5F503D2566200D0A0000382C014065
:10403000434352323D25640D0A000000B4000020C5
:104040000000E03F70697463685F74617267657453
:104050003D25660D0A000000B8000020726F6C6CF0
:104060005F7461726765743D25660D0A000000008B
:1040700080010020FCA9F1D24D62503F6401002074
:10408000616E676C655F73706565645F6B693D2524
:10409000660D0A009C0100209A9999999999B93F57
:1040A000CDE904018AA18D4800F014FF0CE18C4891
:1040B0000068019001F012FD8A4A8B4BCDE90201A4
:1040C00001F022FCCDE9040100F05EFF84490860A4
:1040D00008460068039001F001FD02460B46CDE959
:1040E00004017BA17D4800F0F5FEEDE07F4880688B
:1040F000019001F0F3FC7E4A7E4BCDE9020100F015
:1041000075FFCDE9040100F03FFF7849886008465B
:10411000806801460590784801F07AFD734948614E
:1041200008464069019001F0D9FCCDE904016F48CF
:104130008068019001F0D2FCCDE90201DDE90401C3
:10414000CDE900016DA16548DDE9022300F0C2FE62
:10415000BAE066488068019001F0C0FC644A654B93
:10416000CDE9020101F0D0FBCDE9040100F00CFF24
:104170005E49886008468068014605905E4801F007
:1041800047FD5A49486108464069019001F0A6FC84
:10419000CDE9040155488068019001F09FFCCDE90C
:1041A0000201DDE90401CDE9000154A14B48DDE93C
:1041B000022300F08FFE87E04C480068019001F078
:1041C0008DFC484A484BCDE9020100F00FFFCDE9D4
:1041D000040100F0D9FE45490860084600680390D4
:1041E00001F07CFC02460B46CDE904014DA13B48A1
:1041F00000F070FE68E03D480068019001F06EFC40
:10420000384A394BCDE9020101F07EFBCDE90401CA
:1042100000F0BAFE3549086008460068039001F0D6
:104220005DFC02460B46CDE904013EA12B4800F09F
:1042300051FE49E02D484068019001F04FFC294AA9
:10424000294BCDE9020100F0D1FECDE9040100F0D7
:104250009BFE2649486008464068039001F03EFCFA
:1042600002460B46CDE9040133A11C4800F032FEA2
:104270002AE01E484068019001F030FC194A1A4BB0
:10428000CDE9020101F040FBCDE9040100F07CFE24
:104290001649486008464068039001F01FFC02463A
:1042A0000B46CDE9040124A10C4800F013FE0BE0FD
:1042B000264800684FF07E51059001F0F1FE234939
:1042C000086001E000E000BF00BF07B000BD0000D3
:1042D0007961775F4B503D25660D0A00004C004028
:1042E0009C0100209A9999999999B93FB8010020A9
:1042F000FCA9F1D24D62503F0000484268656967F1
:1043000068745F4B493D2566202020202048656960
:104310006768745F5049442E695F6D61783D25661A
:104320000D0A00004865696768745F5049442E4B68
:10433000503D25660D0A00004865696768745F5046
:1043400049442E4B443D25660D0A000080010020A3
:1043500001F40072B2F5007F00D100BFCA430280B1
:10436000704710B50022002340F66A14A14200D124
:1043700000BF0A1201249440A3B2DC43048010BDA4
:1043800021B1828942F40052828104E082894DF693
:10439000FF731A408281704702460020B1F5007F0A
:1043A00000D100BF13880B400BB1012000E00020BA
:1043B000704770B50246002400230025002040F617
:1043C0006A16B14200D100BFC1F3421501F01F03CC
:1043D000012606FA03F3012D02D19689334006E047
:1043E000022D02D1168A334001E0968A33400C1226
:1043F000012606FA04F41688344013B10CB10120EA
:1044000000E0002070BDF0B5034600240026002522
:10441000002040F66A17B94200D100BF1846C1F328
:10442000421401F01F06012707FA06F5012C01D1FD
:104430000C3004E0022C01D1103000E014301AB12D
:1044400007682F43076002E00768AF430760F0BDCD
:104450002DE9F04786B005460E460024A24600BF6F
:10446000A1460027B08900B100BF2F462C8A4CF628
:10447000FF700440F08804432C82AC894EF6F310A0
:104480000440B08831890843718908430443AC81F2
:10449000AC8A4FF6FF400440B0890443AC8201A8C7
:1044A000FEF71CFD1F48874202D1DDF810A001E095
:1044B000DDF80CA0A88900F4004040B10AEBCA0066
:1044C00000EB0A1031684900B0FBF1F807E00AEB95
:1044D000CA0000EB0A1031688900B0FBF1F86420D3
:1044E000B8FBF0F004012009642101FB1089A889C0
:1044F00000F4004040B1322000EBC900B0FBF1F005
:1045000000F00700044308E0322000EB09106421AA
:10451000B0FBF1F000F00F0004432C8106B0BDE8C1
:10452000F08700000038014001468888C0F3080089
:104530007047C1F308028280704700BFFEE70000A9
:1045400030B587B004460D4602950020ADF80C004A
:10455000ADF80E00ADF81000ADF814000C20ADF869
:1045600012004FF4E060FEF7D3FB00208DF8060048
:1045700001208DF807003048844225D10121042014
:10458000FEF79CFC01218803FEF798FC18208DF8AB
:104590001B0003208DF81A006015ADF8180006A95D
:1045A0002648FDF7DBFA2015ADF8180048208DF8F5
:1045B0001B0006A92148FDF7D1FA25208DF804003B
:1045C00001A8FEF76DFB27E01D48844224D101219C
:1045D0001020FEF773FC0121C804FEF74FFC1820E1
:1045E0008DF81B0003208DF81A002015ADF8180077
:1045F00006A91448FDF7B2FAE014ADF818004820F7
:104600008DF81B0006A90F48FDF7A8FA34208DF895
:10461000040001A8FEF744FB02A92046FFF718FF9B
:1046200001212046FFF7ACFE012240F22551204631
:10463000FFF7E9FE07B030BD003801400008014037
:10464000004C004000100140490050EAC12018BF52
:1046500004204A0D18BF40F0010040F2FF72B2EB97
:10466000515F08BF40F00200012808BF05207047D5
:104670002DE9F0414F1E00EBC7010446D1E90001CE
:1046800015461E4637F006020DD02A46334600F086
:1046900015FF7F1E04EBC703D3E9002300F0A6FC3F
:1046A00037F00602F1D1022F25D0042F13D0062FA8
:1046B00018BFBDE8F0812A46334600F0FFFED4E97A
:1046C0000A2300F093FC2A46334600F0F7FED4E9B3
:1046D000082300F08BFC2A46334600F0EFFED4E9B5
:1046E000062300F083FC2A46334600F0E7FED4E9B7
:1046F000042300F07BFC2A46334600F0DFFED4E9B9
:10470000022300F073FC2A46334600F0D7FED4E9BA
:104710000023BDE8F04100F069BC012201F069BD51
:1047200000F064BC002213461046114600F01ABD8A
:10473000024A0020110701F05CBD000001FDFFFFEF
:1047400030380A2801D2012070470020704700004D
:104750002DE9F04D8D4F21F0004A86B005460C46FC
:10476000BA452ADBAAEB070028430AD088488245CD
:1047700001DC1AD1CDB106B02846BDE8F04DFFF7F7
:10478000CCBF844A844B284600F098FE07460E466C
:10479000824A834B2846214600F090FE06B03A46F6
:1047A0003346BDE8F04D00F021BC0120FBF7C6FD0B
:1047B00006B0BDE8F04DFFF7B5BF7A48824542DA52
:1047C000BAF1795F0BDA2846FFF73EFF042808BFED
:1047D000FFF7AEFF284606B02146BDE8F08D2A4619
:1047E0000B46104600F06AFE834602466E480E46AF
:1047F0000B4606217844FFF73BFF5A46334600F04C
:104800005DFE804669488A465A463346042178440C
:10481000FFF72EFF5A46334600F050FE00223B467B
:1048200000F0E4FB02460B464046514600F09AFC7D
:104830002A46234600F042FE06B02A462346BDE83B
:10484000F04D00F0D3BB284624F0004100223D4645
:104850003B4600F067FF4FF0FF3201F0CAFC06460E
:10486000024653480F460B4606217844FFF700FFE7
:1048700032463B4600F022FECDE900014D4832466B
:104880003B4604217844FFF7F3FE32463B4600F0F6
:1048900015FE00222B4600F0A9FB8346029130460C
:1048A000394600F0F1FA804643480D46504517DC82
:1048B000DDE900015A46029B00F054FC42462B46BB
:1048C00000F0FCFD42462B4600F090FB012201F077
:1048D00090FC304A304B01F017F8304A304B4CE036
:1048E0004FF0000A52460B46404600F07FFBCDE9F0
:1048F000031052462B461046194600F0DFFD3246A3
:104900003B4600F00FFFDDE9033200F02BFC0646CA
:104910000F46DDE900015A46029B00F023FC834666
:10492000009101223046394601F063FC194A1A4BC6
:1049300000F0F8FE06460F4601224046294601F0E7
:1049400058FC5A46009B00F0B9FD32463B4600F049
:10495000DBFF06460F4601225046294601F049FC7E
:104960000E4DDFF858802A46434600F0DBFE324603
:104970003B4600F0D7FE2A46434600F0D3FE002C0B
:10498000D8BF81F0004106B0BDE8F08D0000F03FD7
:104990000000F07F075C143326A6913C182D445488
:1049A000FB21F93F0000E03F881A00009E1A00003A
:1049B000121A0000281A00003333EF3FFB21E93FB1
:1049C0002DE9F84F04460D4621F00040009173494F
:1049D000814211DC7249884201DC06D12CB12046AB
:1049E0002946BDE8F84FFFF798BE6E48002DCCBFB2
:1049F0006D496E49BDE8F88F6D49814211DD6D4901
:104A00008142D8BF4FF0FF366DDD20462946FFF7C3
:104A10001BFE042808BFFFF78BFE20462946BDE891
:104A2000F88F6549654F25F00045814233DD6449C3
:104A3000814219DD002632464FF080432046294648
:104A400000F0D4FA80468A4601222046294601F029
:104A5000D0FB00223B4600F057FF4246534600F091
:104A600081FB04460D463EE001260022BA463B4645
:104A70002046294600F0BAFA80460F4600225346E7
:104A80002046294600F040FF42463B4600F06AFBC4
:104A900004460D4627E04B4981421BDDDFF828A183
:104AA0000226002253462046294600F007FD002238
:104AB0003B4600F09BFA80460F46002253462046B4
:104AC000294600F021FF42463B4600F04BFB0446DE
:104AD0000D4608E0032622462B4600203B4900F005
:104AE00041FB04460D4622462B461046194600F06F
:104AF000E5FC8B46824602460B4600F0DFFC07468B
:104B00000246334888460B4606217844FFF7B0FD3D
:104B100052465B4600F0D2FC82462E488B463A460F
:104B2000434605217844FFF7A3FD3A46434600F08B
:104B3000C5FC02460B46002E504659460CDA00F0E2
:104B400055FA22462B4600F0B9FC01B022462B460E
:104B5000BDE8F04F00F0E6BD00F048FA22462B46D3
:104B600000F0ACFC1C4A7A4402EBC603D3E90023F4
:104B700000F0CAFE22462B4600F0C6FE174A7A44D1
:104B800002EBC603D3E9002300F0CCFD009A002A13
:104B9000B8BF81F00041BDE8F88F0000000010446C
:104BA0000000F07F182D4454FB21F93FFB21F9BF91
:104BB0000000DC3F0000203E0000F33F0000F03F1B
:104BC0000000E63F008003400000F83F0000F0BF17
:104BD0007218000030180000CE1700009617000071
:104BE0002DE9F04D9446CCF1000423F000464CEA48
:104BF0000404524F46EAD4749A46884621F0004293
:104C0000BC4206D8454240EA050442EAD474BC429C
:104C100004D9BDE8F04D6246FFF782BDAAF14055C8
:104C2000A5F17F6555EA0C040BD0022404EAAA74AE
:104C3000434DDFF810E144EAD87452EA000B04D087
:104C40000CE0BDE8F04DFFF7BBBE002C14BF012CFB
:104C5000BDE8F08D022C30D0032C32D056EA0C0B7C
:104C60000AD0BE4220D1BA4209D126F0804622F0B5
:104C700080423346114617E000291ADB25E0DFF8B1
:104C8000C8B0FB44002C04BFDBE90001BDE8F08D97
:104C9000012C02BFDBE9000181F00041BDE8F08D8D
:104CA000022C0AD0032C0CD0BA4212D1B8F1000F5A
:104CB0000BDA23482549BDE8F08D28462449BDE894
:104CC000F08D28467146BDE8F08D1D482149BDE8AC
:104CD000F08D921B12153C2AC4BF19481D490EDCE9
:104CE000BAF1000FBEBF12F13C0F0020014606DBF7
:104CF000624600F037FA21F00041FFF761FE002C18
:104D000008BFBDE8F08D012C04BF81F00041BDE873
:104D1000F08D114A114B022C07D000F0F5FD2A4608
:104D2000BDE8F04D0A4B00F0EFBD00F0EDFD2A4666
:104D3000BDE8F04D064B00F0F5BC00000000F07F30
:104D4000182D4454FB2109C02A170000FB21F9BF8C
:104D5000FB210940FB21F93F075C143326A6A13C47
:104D60004FF0E021096921F004014FF0E0221161C8
:104D70000146C21700EB5272D210014B1A60704705
:104D8000B000002001460D4A12684A434FF0E0236C
:104D90005A6100229A6101221A6100BF4FF0E0229D
:104DA000106900F001021AB100F48032002AF5D037
:104DB00000224FF0E0231A619A617047B000002092
:104DC000FEF722FA4FF4E1311848FFF7B9FB18A1BA
:104DD000164800F07FF84820FFF7C2FFFDF732FFCA
:104DE0001748FEF753FCFEF75FFBFEF7E1F8FCF710
:104DF00051FD14A10D4800F06DF816E0154800783B
:104E000098B11548006800F0C5FF044613480068D3
:104E100000F0C0FF05461248006800F0BBFF0646E0
:104E200000232246294600F01DF8E7E7004C004029
:104E300048656C6C6F2C776F726C64210D0A0000F2
:104E400000100040696E20206974206F6B210D0AEC
:104E500000000000DD0100203C00002038000020A0
:104E6000340000202DE9F04107460C4615461E4649
:104E70000448076044608560C660FDF753FFBDE8E5
:104E8000F0810000040200202DE9F04106460F46A3
:104E900000F054FC041E0D4618BF0120284320F0EA
:104EA0000040C0F17F6000F1E040C00F0ED0301C28
:104EB00018BF0120384320F00040C0F17F6000F1AE
:104EC000E040C00F04BF0120FBF738FA2046294616
:104ED000BDE8F0810FB430B59BB00546002420A892
:104EE0000090652101A8009B1F9AFBF705FA80211D
:104EF0002846FFF72DFA0EE000BF80212846FFF775
:104F00004BFA0028F9D02046621CD4B201AA115CE9
:104F10002846FFF70EFB642C03DA01A8005D002889
:104F2000EAD1002000901BB030BC5DF814FB0000FB
:104F300010B500290AD00878002807D00548784421
:104F4000FCF7A6F8002801D0002010BD02487844E4
:104F500010BD00002E1500002615000010B5002918
:104F60000AD00878002807D005487844FCF790F864
:104F7000002801D0002010BD0248784410BD000078
:104F80001E1500001615000021F00042A2F160522B
:104F9000B2F5801F01F0004328BFD2F17F6C0BD91E
:104FA0005FEA001C43EAC20242EB507018BF704730
:104FB00028BF20F001007047B2F5801FBCBF184623
:104FC00070474FEA410C1CF5001F02D2084601F061
:104FD00030B870B500F01CFB00000089FFF7F6BF89
:104FE0004FF00040A0F580007047000010B591EA36
:104FF000030F48BF83F0004300F18E84841A71EBE5
:10500000030C05D2121943EB0C03001B61EB0C01DE
:10501000DFF824E14FEA1154A4EB135C1EEA430FBE
:1050200018BF9EEA445F73D023EA0E03DCF1200E22
:1050300021EA045143F4801332D322FA0CFE10EB20
:105040000E0023FA0CFE41EB0E01CCF1200E03FA08
:105050000EFE10EB0E0051F10001B1F5801FCCF1F6
:10506000200E32D201EB045112FA0EF2BDE81040CC
:1050700058BF7047401C38BF5FEA420218BF7047F4
:10508000002814BF20F0010041F100014FEA410364
:1050900013F5001F38BF7047A1F1C04100F006BBF7
:1050A000012A43EB0302ACF1200CDCF11F0E32BFEE
:1050B0004FF0000E23FA0CF310EB030041EB045108
:1050C000B4EB115FD0D0A1EB045101F58011490878
:1050D0005FEA300001EB04510ED350F1000038BFFD
:1050E00012FA0EFE08D1BDE81040C9E7401C38BFD7
:1050F0005FEA4202CAD1C3E7BDE810404FEA41036C
:1051000013F5001F38BF7047A1F1C04100F0CEBABF
:105110009EEA445F08D011EA5E0FBDE8104004BF6C
:1051200001F0004100207047BDE8104070B500F06C
:105130006FFA00BF64FBBE3E0000E0FF02494FF083
:10514000000001F024B800BF0000F87F491058BFEC
:10515000C1F140415B1058BFC3F140438B42EFF3B4
:10516000008070472DE9C04130B4DFF8A0C23CEAAE
:10517000111418BF3CEA131400F0EC8081EA030517
:105180001CEA111444EAD57418BF1CEA131500F088
:10519000C780A4EB05044FF0004545EAC12145EA6C
:1051A000C32341EA505143EA525304F17F749942B8
:1051B00004F500344FEAC0204FEAC22208BF9042F3
:1051C00000F09C804FEA13650FF24016765D4FEABF
:1051D000134506FB05F7C7F1807706FB07F74FEA93
:1051E000D737A7FB03687642C8F58038A7FB06CE01
:1051F00038BFA8F1010807FB08E64FF0000EA6FB38
:10520000028CE6FB03CEDCF1000CCEF1004E38BF81
:10521000AEF1010EA6FB0C584FF000074FF0000551
:10522000E6FB0E87A1FB08C6A0FB07CE16EB0E0619
:1052300045F10005E1FB076515F1E04E7EBFA4F5E1
:1052400080345FEA46066D4116F1800745F100059E
:105250004FEA17274FEA066647EA0567A6F1DE46DA
:10526000B6F1805F4FEA15251FD9384624F0010CAE
:1052700005EBC471BCF1FE6F01EB0C1102D8F0BC60
:10528000BDE8008124425CBF01F5801E9EEAC47F18
:1052900002D4F0BCBDE80081244238D4F0BCA1F1B6
:1052A000C041BDE8004100F001BA4FEAD22242EA13
:1052B00043524FEAD323A7FB02864FEAD02040EAAD
:1052C000415007FB03661EEA0E0F4FEAD12105FB92
:1052D000026658BFA6EB0056B6EB00564FEA520ED8
:1052E0004EEAC37E18EB0E0E56EB530EBDD518EBEF
:1052F00002085E417F1C55F10005B6E74FF48015AA
:105300004FF000074FF000064FF00008ADE7F0BC8B
:105310004FF0000001F1C04101F00041BDE8008103
:1053200011EA0C1F0CEA131500D00CE013EA0C1F55
:1053300000F025804FF00000F0BC81EA030101F08D
:105340000041BDE80081F0BCBDE8004181EA0301F5
:1053500000F0ACB9F0BCBDE8004170B500F058F900
:10536000097EFC3E00F007B881EA03014FF000001F
:1053700001F00041704781EA030100F097B9F0BCE9
:10538000BDE800414FF0000021497047FFFDFBF9E7
:10539000F7F5F4F2F0EEEDEBE9E8E6E4E3E1E0DE68
:1053A000DDDBDAD8D7D5D4D3D1D0CFCDCCCBCAC8DA
:1053B000C7C6C5C4C2C1C0BFBEBDBCBBBAB9B8B701
:1053C000B6B5B4B3B2B1B0AFAEADACABAAA9A8A8F4
:1053D000A7A6A5A4A3A3A2A1A09F9F9E9D9C9C9BC2
:1053E0009A9999989797969595949393929191906D
:1053F0008F8F8E8E8D8C8C8B8B8A898988888787FE
:105400008685858484838382828181800000FF0772
:105410000000F87F10F0004248BF4042B0FA80F32D
:1054200010FA03F10AD0C3F11D0303F580634FEABC
:10543000415002EB035202EBD12170474FF00000C4
:105440007047000051EA030C17D41CF5801F58BFA9
:10545000BCF5801F00F10680994218BF704708BF55
:105460009042704707D711F5801F58BF13F5801F72
:1054700019D499427047894270471CF5801F08D59E
:10548000BCF5801FF7D58B4218BF704708BF82421A
:1054900070474FF4001C1CEB410F38BF1CEB430F4F
:1054A00001D28B42704770B500F0B2F892244900E7
:1054B0004FF000514FF08053FFF748BEDFF848C16E
:1054C00070B51CEA111E1EBF1CEA13159EEA0C0FD4
:1054D00095EA0C0F00F06F8081EA030423EA4C1375
:1054E0004EEAD47E21EA4C1141F4801143F480133A
:1054F000AE44A1FB024CA0FB0365AEF17F7E3619E2
:1055000055EB0C05A1FB034C4CF10003A0FB021C66
:1055100016EB0C06654153F10003094218BF46F033
:10552000010613F4007F0BD14FEA03314FEA053037
:10553000340341EA155140EA16506FF003020AE0C5
:105540004FEAC3214FEAC520F40241EA555140EA2F
:1055500056506FF0020202EB2E4201EB025585EA33
:10556000CE710AD05FEA440C18BF24F0004450F119
:10557000000041F1000120EAD47040F2FE7C624557
:1055800000D270BDA84214BF4FF080444FF0404499
:10559000002E08BF0024BEF1806FA8BFA1F1C0415A
:1055A000BDE8704080F282804FF0000001F1C04100
:1055B00001F0004170479EEA0C0F0CEA131518BF6A
:1055C00095EA0C0F06D04FF0000081EA030E0EF0B2
:1055D000004170BD00F01CF88900013E00F007B8E2
:1055E00000F009B84FEA430C5FEA5C5C08D081EA3E
:1055F000030100F05BB84FEA410C5FEA5C5CF6D156
:105600004FF00000014970470000FF070000F87FDD
:105610000EF1020E2EF0030E5EF8046B364205D436
:10562000012A43EB030515F5001F12D8012841EBB1
:10563000010C1CF5001F0CD80ED14FEAD17C15F5DA
:10564000001F0CEB4C0C0CF1020C08BF4CEBD37C94
:1056500004E04FF0080C01E04FEAD37C0CEB4C0562
:1056600026FA05F606F00706B6F1040C06D20EEB94
:10567000860CBDE870404CF0010C6047DFE80CF090
:10568000090B02024FF000414FF00000A1F500218C
:1056900070BD19461046012851EB010418BFD4F51E
:1056A000001484BF002001F0004170BD0808A0F57F
:1056B00000114FEA3101704753EA010C17D41CF571
:1056C000801F58BFBCF5801F00F106808B4218BFB9
:1056D000704708BF8242704707D713F5801F58BF35
:1056E00011F5801F19D48B4270479B4270471CF5FF
:1056F000801F08D5BCF5801FF7D5994218BF7047A9
:1057000008BF904270474FF4001C1CEB430F38BF9A
:105710001CEB410F01D2994270470FB40CBC03BC83
:10572000FFF7C1BE91EA030F10B581F000413FF5CC
:1057300065AC83F0004300F0EFB800002DE9F041C4
:1057400001F5801CBCF5001FC0F2C3804FEA115C5C
:1057500021EA0C510CF1FD0C41F480115FEA5C0C64
:105760000CF5C07C01D3400049413DA4890241EAC7
:10577000905187028E0E0A0CA45D04FB04F602FB16
:1057800006F6C6F14046A4FB0662F60D46EA42263E
:1057900006FB06F4A4FB01235242C3F1404338BF89
:1057A0005B1EA6FB02420024E6FB0324D20B42EA66
:1057B0004446A6FB0623A1FB02E2A3FB07E4A418D0
:1057C0004FF0000252F10002E3FB01426442C2F1D9
:1057D000404E38BFAEF1010EA6FB04234FF000028D
:1057E000E6FB0E32A2FB03464FF00004B61954F15B
:1057F0000004E2FB0264A1FB06E6A4FB07E816EB4B
:1058000008064FF0000858F10008E4FB01687642F2
:10581000C8F1405838BFA8F10108A2FB06E4A3FB79
:1058200008E52D194FF0000454F10004E2FB085480
:10583000A1FB05E6A7FB04E818EB06084FF00006FD
:1058400056F10006E1FB048618F1200556F100062A
:10585000A809A8F11B08B10908F03F08B8F10A0F20
:1058600040EA86601CD901EB0C51BDE8F08100BF15
:10587000FCF5EEE8E2DDD8D3CFCBC7C3C0BDB9B6E7
:10588000B4B1AEACA9A7A5A3A19F9D9B9A989695EC
:105890009392908F8D8C8B89888786858483828173
:1058A000A0FB006800FB01F208EB4208B8EB872878
:1058B00007D5341858EB0104D5D5401C51F100012F
:1058C000D1E7341A78EB0104CDD4401E71F1000108
:1058D000C9E75FEA4C0C5FEA9C5C0DD105D34FF041
:1058E000000001F00041BDE8F081BDE8F04170B575
:1058F000FFF78EFE6DDBFFBEBDE8F0414FF000000C
:10590000004970470000F87F10B591EA030F48BFC7
:1059100083F000433FF572AB841A71EB030C07D29E
:1059200012198CF0004C43EB0C03001B61EB0C01D3
:10593000DFF8A4E14FEA1154A4EB135C1EEA430F15
:1059400018BF9EEA445F00F0B08023EA6E03524223
:1059500021EA0451C3EB6E0338BF5B1EDCF1200E5D
:1059600025D322FA0CFE10EB0E0043FA0CFE41EB9D
:105970000E01CCF1200E03FA0EFE10EB0E0051F1D9
:105980000001CCF1200E29D412FA0EF201EB0451E1
:10599000BDE8104058BF7047401C1CBFB2F1004F1B
:1059A000704700280CBF491C20F00100704712EB23
:1059B000020E43EB030218BF4FF0010E4EEA420203
:1059C000ACF1200CDCF11E0E54D943FA0CFE10EBA6
:1059D0000E0051F1FF31CCF11E0ED5D50EF1010EA6
:1059E00012FA0EFE404141EB010101EB445C5FEA1B
:1059F0005C5C10D910EBDE7001EB045138BFBEF1D6
:105A0000004FBDE8104018BF704700280CBF491C6C
:105A100020F00100704730D24FEAD42C11F500116C
:105A200024F400641BD0B1FA81F20B3AA41AA41E2C
:105A3000D2F12003914030FA03F31943904001EB77
:105A4000CC71002C01EB0451BDE81040A8BF704799
:105A500001F1C0414FF0000001F000417047B0FA81
:105A600080F310FA03F100D110BDE41A173C480589
:105A7000C90AE4E701EB045110BD491001EB0451E0
:105A8000BDE810404FEA300002E04FF000017047DF
:105A90004A0008BF0042F8D0B2F5001F28BF704787
:105AA00001F000414FF0000070479EEA445F07D0CC
:105AB00011EA5E0FBDE8104004BF002100207047CE
:105AC000BDE8104070B5FFF7A3FD00BF40DFF63E14
:105AD00083F00041104670470000E0FF43004FEAAA
